{
    "contractName": "delegate",
    "abi": [
        {
            "anonymous": false,
            "inputs": [
                {
                    "indexed": true,
                    "internalType": "address",
                    "name": "owner",
                    "type": "address"
                },
                {
                    "indexed": true,
                    "internalType": "address",
                    "name": "borrower",
                    "type": "address"
                },
                {
                    "indexed": false,
                    "internalType": "uint256",
                    "name": "amount",
                    "type": "uint256"
                }
            ],
            "name": "Authorized",
            "type": "event"
        },
        {
            "inputs": [
                {
                    "internalType": "address",
                    "name": "_owner",
                    "type": "address"
                },
                {
                    "internalType": "address",
                    "name": "_borrower",
                    "type": "address"
                },
                {
                    "internalType": "uint256",
                    "name": "_amount",
                    "type": "uint256"
                }
            ],
            "name": "approveDelegation",
            "outputs": [],
            "stateMutability": "nonpayable",
            "type": "function"
        },
        {
            "inputs": [
                {
                    "internalType": "uint256",
                    "name": "",
                    "type": "uint256"
                }
            ],
            "name": "delegate_array",
            "outputs": [
                {
                    "internalType": "address",
                    "name": "_owner",
                    "type": "address"
                },
                {
                    "internalType": "address",
                    "name": "_borrower",
                    "type": "address"
                },
                {
                    "internalType": "uint256",
                    "name": "_amount",
                    "type": "uint256"
                },
                {
                    "internalType": "bool",
                    "name": "_authorized",
                    "type": "bool"
                }
            ],
            "stateMutability": "view",
            "type": "function"
        },
        {
            "inputs": [
                {
                    "internalType": "address",
                    "name": "minter",
                    "type": "address"
                },
                {
                    "internalType": "uint256",
                    "name": "erc721_Id",
                    "type": "uint256"
                }
            ],
            "name": "erc721_deposit",
            "outputs": [],
            "stateMutability": "nonpayable",
            "type": "function"
        },
        {
            "inputs": [
                {
                    "internalType": "address",
                    "name": "",
                    "type": "address"
                },
                {
                    "internalType": "address",
                    "name": "",
                    "type": "address"
                }
            ],
            "name": "hasdelegated",
            "outputs": [
                {
                    "internalType": "uint256",
                    "name": "",
                    "type": "uint256"
                }
            ],
            "stateMutability": "view",
            "type": "function"
        },
        {
            "inputs": [
                {
                    "internalType": "address",
                    "name": "",
                    "type": "address"
                },
                {
                    "internalType": "uint256",
                    "name": "",
                    "type": "uint256"
                }
            ],
            "name": "isDepositor",
            "outputs": [
                {
                    "internalType": "uint256",
                    "name": "",
                    "type": "uint256"
                }
            ],
            "stateMutability": "view",
            "type": "function"
        }
    ],
    "bytecode": "608060405234801561001057600080fd5b50610609806100206000396000f3fe608060405234801561001057600080fd5b50600436106100575760003560e01c80638ea75e8b1461005c5780638efe761914610097578063a4afee82146100d7578063d2ce6173146100ec578063f0247f98146100ff575b600080fd5b61008461006a366004610521565b600060208181529281526040808220909352908152205481565b6040519081526020015b60405180910390f35b6100aa6100a5366004610554565b610112565b604080516001600160a01b039586168152949093166020850152918301521515606082015260800161008e565b6100ea6100e536600461056d565b61015b565b005b6100ea6100fa366004610597565b6101e7565b61008461010d36600461056d565b6104d4565b6001818154811061012257600080fd5b600091825260209091206004909102018054600182015460028301546003909301546001600160a01b0392831694509116919060ff1684565b604051632142170760e11b8152336004820152306024820152604481018290526001600160a01b038316906342842e0e90606401600060405180830381600087803b1580156101a957600080fd5b505af11580156101bd573d6000803e3d6000fd5b50503360009081526002602090815260408220805460018101825590835291200192909255505050565b6001600160a01b03831633146102575760405162461bcd60e51b815260206004820152602a60248201527f746869732061646472657373206973206e6f7420746865206f776e6572206f66604482015269207468652066756e647360b01b60648201526084015b60405180910390fd5b6001600160a01b0382166102ad5760405162461bcd60e51b815260206004820152601c60248201527f626f72726f7765722063616e2774206265206164647265737328302900000000604482015260640161024e565b826001600160a01b0316826001600160a01b03160361031c5760405162461bcd60e51b815260206004820152602560248201527f626f72726f776572206d75737420626520646966666572656e7420746861742060448201526437bbb732b960d91b606482015260840161024e565b6000811161037a5760405162461bcd60e51b815260206004820152602560248201527f616d6f756e7420626f72726f776564206d757374206265207375706572696f72604482015264020746f20360dc1b606482015260840161024e565b604080516080810182526001600160a01b038581168083528582166020808501828152858701888152600160608801818152815480830183556000928352985160049099027fb10e2d527612073b26eecdfd717e6a320cf44b4afac2b0732d9fcbe2b7fa0cf6810180549a8a166001600160a01b03199b8c1617905593517fb10e2d527612073b26eecdfd717e6a320cf44b4afac2b0732d9fcbe2b7fa0cf78501805491909916991698909817909655517fb10e2d527612073b26eecdfd717e6a320cf44b4afac2b0732d9fcbe2b7fa0cf882015594517fb10e2d527612073b26eecdfd717e6a320cf44b4afac2b0732d9fcbe2b7fa0cf9909501805495151560ff199096169590951790945581835282845284832081845284529184902085905592518481529092917fe6dc004dd5d5c937c10d93ec12fefa9f5a8699b7a01dd5a0d53814d25e369f7b910160405180910390a3505050565b600260205281600052604060002081815481106104f057600080fd5b90600052602060002001600091509150505481565b80356001600160a01b038116811461051c57600080fd5b919050565b6000806040838503121561053457600080fd5b61053d83610505565b915061054b60208401610505565b90509250929050565b60006020828403121561056657600080fd5b5035919050565b6000806040838503121561058057600080fd5b61058983610505565b946020939093013593505050565b6000806000606084860312156105ac57600080fd5b6105b584610505565b92506105c360208501610505565b915060408401359050925092509256fea26469706673582212203855b195091daa0d4c4bd4025676867fa9081f4bd24ad4ff283b2246a46b4b1664736f6c63430008110033",
    "sourcePath": "c:/Users/hervi/Documents/Cours ESILV/PI2/V2/mai-finance/contract/contract.sol",
    "compiler": {
        "name": "solc",
        "version": "0.8.17+commit.8df45f5f"
    },
    "functionHashes": {
        "approveDelegation(address,address,uint256)": "d2ce6173",
        "delegate_array(uint256)": "8efe7619",
        "erc721_deposit(address,uint256)": "a4afee82",
        "hasdelegated(address,address)": "8ea75e8b",
        "isDepositor(address,uint256)": "f0247f98"
    },
    "gasEstimates": {
        "creation": {
            "codeDepositCost": "309000",
            "executionCost": "349",
            "totalCost": "309349"
        },
        "external": {
            "approveDelegation(address,address,uint256)": "infinite",
            "delegate_array(uint256)": "11051",
            "erc721_deposit(address,uint256)": "infinite",
            "hasdelegated(address,address)": "infinite",
            "isDepositor(address,uint256)": "4799"
        }
    }
}