{
  "contractName": "delegate",
  "abi": [
    {
      "inputs": [],
      "stateMutability": "nonpayable",
      "type": "constructor"
    },
    {
      "anonymous": false,
      "inputs": [
        {
          "indexed": true,
          "internalType": "address",
          "name": "owner",
          "type": "address"
        },
        {
          "indexed": true,
          "internalType": "address",
          "name": "borrower",
          "type": "address"
        },
        {
          "indexed": false,
          "internalType": "uint256",
          "name": "amount",
          "type": "uint256"
        },
        {
          "indexed": false,
          "internalType": "address",
          "name": "vault",
          "type": "address"
        }
      ],
      "name": "Approved",
      "type": "event"
    },
    {
      "anonymous": false,
      "inputs": [
        {
          "indexed": false,
          "internalType": "uint256",
          "name": "amount",
          "type": "uint256"
        },
        {
          "indexed": false,
          "internalType": "address",
          "name": "delagator",
          "type": "address"
        },
        {
          "indexed": false,
          "internalType": "address",
          "name": "vault",
          "type": "address"
        }
      ],
      "name": "Borrowed",
      "type": "event"
    },
    {
      "anonymous": false,
      "inputs": [
        {
          "indexed": true,
          "internalType": "address",
          "name": "depositor",
          "type": "address"
        },
        {
          "indexed": false,
          "internalType": "address",
          "name": "vault",
          "type": "address"
        },
        {
          "indexed": false,
          "internalType": "uint256",
          "name": "amount",
          "type": "uint256"
        }
      ],
      "name": "BorrowedToMaiFinance",
      "type": "event"
    },
    {
      "anonymous": false,
      "inputs": [
        {
          "indexed": false,
          "internalType": "uint256",
          "name": "amount",
          "type": "uint256"
        },
        {
          "indexed": false,
          "internalType": "uint256",
          "name": "tokenid",
          "type": "uint256"
        },
        {
          "indexed": false,
          "internalType": "address",
          "name": "vault",
          "type": "address"
        },
        {
          "indexed": false,
          "internalType": "bool",
          "name": "fromOurContract",
          "type": "bool"
        }
      ],
      "name": "PayToMayFinance",
      "type": "event"
    },
    {
      "anonymous": false,
      "inputs": [
        {
          "indexed": false,
          "internalType": "uint256",
          "name": "amount",
          "type": "uint256"
        },
        {
          "indexed": false,
          "internalType": "address",
          "name": "borrower",
          "type": "address"
        },
        {
          "indexed": false,
          "internalType": "address",
          "name": "vault",
          "type": "address"
        }
      ],
      "name": "RepaidToOurContract",
      "type": "event"
    },
    {
      "anonymous": false,
      "inputs": [
        {
          "indexed": false,
          "internalType": "address",
          "name": "withdrawer",
          "type": "address"
        },
        {
          "indexed": false,
          "internalType": "address",
          "name": "vault",
          "type": "address"
        },
        {
          "indexed": false,
          "internalType": "uint256",
          "name": "tokenID",
          "type": "uint256"
        }
      ],
      "name": "WithdrawERC721",
      "type": "event"
    },
    {
      "inputs": [
        {
          "internalType": "address",
          "name": "",
          "type": "address"
        },
        {
          "internalType": "address",
          "name": "",
          "type": "address"
        },
        {
          "internalType": "string",
          "name": "",
          "type": "string"
        }
      ],
      "name": "borrowed",
      "outputs": [
        {
          "internalType": "uint256",
          "name": "",
          "type": "uint256"
        }
      ],
      "stateMutability": "view",
      "type": "function"
    },
    {
      "inputs": [
        {
          "internalType": "address",
          "name": "",
          "type": "address"
        },
        {
          "internalType": "string",
          "name": "",
          "type": "string"
        }
      ],
      "name": "borrowedAmount",
      "outputs": [
        {
          "internalType": "uint256",
          "name": "",
          "type": "uint256"
        }
      ],
      "stateMutability": "view",
      "type": "function"
    },
    {
      "inputs": [
        {
          "internalType": "address",
          "name": "",
          "type": "address"
        },
        {
          "internalType": "address",
          "name": "",
          "type": "address"
        },
        {
          "internalType": "string",
          "name": "",
          "type": "string"
        }
      ],
      "name": "hasDelegated",
      "outputs": [
        {
          "internalType": "uint256",
          "name": "",
          "type": "uint256"
        }
      ],
      "stateMutability": "view",
      "type": "function"
    },
    {
      "inputs": [
        {
          "internalType": "address",
          "name": "",
          "type": "address"
        },
        {
          "internalType": "string",
          "name": "",
          "type": "string"
        },
        {
          "internalType": "uint256",
          "name": "",
          "type": "uint256"
        }
      ],
      "name": "isOwner",
      "outputs": [
        {
          "internalType": "uint256",
          "name": "",
          "type": "uint256"
        }
      ],
      "stateMutability": "view",
      "type": "function"
    },
    {
      "inputs": [
        {
          "internalType": "string",
          "name": "",
          "type": "string"
        }
      ],
      "name": "tokenAddress",
      "outputs": [
        {
          "internalType": "address",
          "name": "",
          "type": "address"
        }
      ],
      "stateMutability": "view",
      "type": "function"
    },
    {
      "inputs": [
        {
          "internalType": "address",
          "name": "",
          "type": "address"
        },
        {
          "internalType": "string",
          "name": "",
          "type": "string"
        }
      ],
      "name": "totalBorrowed",
      "outputs": [
        {
          "internalType": "uint256",
          "name": "",
          "type": "uint256"
        }
      ],
      "stateMutability": "view",
      "type": "function"
    },
    {
      "inputs": [
        {
          "internalType": "string",
          "name": "",
          "type": "string"
        }
      ],
      "name": "vaultAddress",
      "outputs": [
        {
          "internalType": "address",
          "name": "",
          "type": "address"
        }
      ],
      "stateMutability": "view",
      "type": "function"
    },
    {
      "inputs": [],
      "name": "init",
      "outputs": [],
      "stateMutability": "nonpayable",
      "type": "function"
    },
    {
      "inputs": [
        {
          "internalType": "string",
          "name": "_vault",
          "type": "string"
        },
        {
          "internalType": "uint256",
          "name": "_erc721_Id",
          "type": "uint256"
        },
        {
          "internalType": "uint256",
          "name": "_maxAmountToBorrow",
          "type": "uint256"
        }
      ],
      "name": "erc721_deposit",
      "outputs": [],
      "stateMutability": "payable",
      "type": "function"
    },
    {
      "inputs": [
        {
          "internalType": "string",
          "name": "_vault",
          "type": "string"
        },
        {
          "internalType": "uint256",
          "name": "_erc721_Id",
          "type": "uint256"
        },
        {
          "internalType": "uint256",
          "name": "_maxAmountToBorrow",
          "type": "uint256"
        }
      ],
      "name": "borrow_mai",
      "outputs": [],
      "stateMutability": "payable",
      "type": "function"
    },
    {
      "inputs": [
        {
          "internalType": "string",
          "name": "_vault",
          "type": "string"
        },
        {
          "internalType": "uint256",
          "name": "_erc721_Id",
          "type": "uint256"
        }
      ],
      "name": "erc721_withdraw_requirement",
      "outputs": [],
      "stateMutability": "payable",
      "type": "function"
    },
    {
      "inputs": [
        {
          "internalType": "string",
          "name": "_vault",
          "type": "string"
        },
        {
          "internalType": "uint256",
          "name": "_erc721_Id",
          "type": "uint256"
        }
      ],
      "name": "erc721_withdraw",
      "outputs": [],
      "stateMutability": "payable",
      "type": "function"
    },
    {
      "inputs": [
        {
          "internalType": "address",
          "name": "_borrower",
          "type": "address"
        },
        {
          "internalType": "uint256",
          "name": "_amount",
          "type": "uint256"
        },
        {
          "internalType": "string",
          "name": "_vault",
          "type": "string"
        }
      ],
      "name": "approveDelegation",
      "outputs": [],
      "stateMutability": "nonpayable",
      "type": "function"
    },
    {
      "inputs": [
        {
          "internalType": "uint256",
          "name": "_amount",
          "type": "uint256"
        },
        {
          "internalType": "address",
          "name": "_delegator",
          "type": "address"
        },
        {
          "internalType": "string",
          "name": "_vault",
          "type": "string"
        }
      ],
      "name": "borrow",
      "outputs": [],
      "stateMutability": "payable",
      "type": "function"
    },
    {
      "inputs": [
        {
          "internalType": "uint256",
          "name": "_amount",
          "type": "uint256"
        },
        {
          "internalType": "address",
          "name": "_delegator",
          "type": "address"
        },
        {
          "internalType": "string",
          "name": "_vault",
          "type": "string"
        }
      ],
      "name": "repayToOurContract",
      "outputs": [],
      "stateMutability": "payable",
      "type": "function"
    },
    {
      "inputs": [
        {
          "internalType": "uint256",
          "name": "_amount",
          "type": "uint256"
        },
        {
          "internalType": "uint256",
          "name": "_tokenid",
          "type": "uint256"
        },
        {
          "internalType": "string",
          "name": "_vault",
          "type": "string"
        }
      ],
      "name": "addCollateralToMaiFinanceFromOurContract",
      "outputs": [],
      "stateMutability": "payable",
      "type": "function"
    },
    {
      "inputs": [
        {
          "internalType": "address",
          "name": "_admin",
          "type": "address"
        }
      ],
      "name": "addAdmin",
      "outputs": [],
      "stateMutability": "nonpayable",
      "type": "function"
    },
    {
      "inputs": [
        {
          "internalType": "string",
          "name": "_tokenName",
          "type": "string"
        },
        {
          "internalType": "address",
          "name": "_vault",
          "type": "address"
        }
      ],
      "name": "edit_vaultAdress",
      "outputs": [],
      "stateMutability": "nonpayable",
      "type": "function"
    },
    {
      "inputs": [
        {
          "internalType": "address",
          "name": "_delegator",
          "type": "address"
        },
        {
          "internalType": "string",
          "name": "_token",
          "type": "string"
        }
      ],
      "name": "getDepositedValue",
      "outputs": [
        {
          "internalType": "uint256",
          "name": "",
          "type": "uint256"
        }
      ],
      "stateMutability": "view",
      "type": "function"
    },
    {
      "inputs": [
        {
          "internalType": "address",
          "name": "_admin",
          "type": "address"
        }
      ],
      "name": "isAdmin",
      "outputs": [
        {
          "internalType": "bool",
          "name": "",
          "type": "bool"
        }
      ],
      "stateMutability": "view",
      "type": "function"
    },
    {
      "inputs": [
        {
          "internalType": "address",
          "name": "user",
          "type": "address"
        },
        {
          "internalType": "string",
          "name": "_vault",
          "type": "string"
        }
      ],
      "name": "getTokenIdByVault",
      "outputs": [
        {
          "internalType": "uint256[]",
          "name": "",
          "type": "uint256[]"
        }
      ],
      "stateMutability": "view",
      "type": "function"
    },
    {
      "inputs": [
        {
          "internalType": "address",
          "name": "_borrower",
          "type": "address"
        },
        {
          "internalType": "address",
          "name": "_delegator",
          "type": "address"
        },
        {
          "internalType": "string",
          "name": "_vault",
          "type": "string"
        }
      ],
      "name": "getMaxBorrowingAmount",
      "outputs": [
        {
          "internalType": "uint256",
          "name": "",
          "type": "uint256"
        }
      ],
      "stateMutability": "view",
      "type": "function"
    },
    {
      "inputs": [
        {
          "internalType": "address",
          "name": "_borrower",
          "type": "address"
        },
        {
          "internalType": "address",
          "name": "_delegator",
          "type": "address"
        },
        {
          "internalType": "string",
          "name": "_vault",
          "type": "string"
        }
      ],
      "name": "borrowableAmount",
      "outputs": [
        {
          "internalType": "uint256",
          "name": "",
          "type": "uint256"
        }
      ],
      "stateMutability": "view",
      "type": "function"
    },
    {
      "inputs": [
        {
          "internalType": "address",
          "name": "_delegator",
          "type": "address"
        },
        {
          "internalType": "string",
          "name": "_vault",
          "type": "string"
        }
      ],
      "name": "maxDelegationCapacity",
      "outputs": [
        {
          "internalType": "uint256",
          "name": "",
          "type": "uint256"
        }
      ],
      "stateMutability": "view",
      "type": "function"
    },
    {
      "inputs": [
        {
          "internalType": "address",
          "name": "_delegator",
          "type": "address"
        },
        {
          "internalType": "string",
          "name": "_vault",
          "type": "string"
        }
      ],
      "name": "delegationCapacity",
      "outputs": [
        {
          "internalType": "uint256",
          "name": "",
          "type": "uint256"
        }
      ],
      "stateMutability": "view",
      "type": "function"
    },
    {
      "inputs": [
        {
          "internalType": "string",
          "name": "_vault",
          "type": "string"
        }
      ],
      "name": "getVaultAddress",
      "outputs": [
        {
          "internalType": "address",
          "name": "",
          "type": "address"
        }
      ],
      "stateMutability": "view",
      "type": "function"
    },
    {
      "inputs": [
        {
          "internalType": "address",
          "name": "_delegator",
          "type": "address"
        },
        {
          "internalType": "string",
          "name": "_vault",
          "type": "string"
        }
      ],
      "name": "getBorrowedAmount",
      "outputs": [
        {
          "internalType": "uint256",
          "name": "",
          "type": "uint256"
        }
      ],
      "stateMutability": "view",
      "type": "function"
    },
    {
      "inputs": [
        {
          "internalType": "address",
          "name": "_borrower",
          "type": "address"
        },
        {
          "internalType": "address",
          "name": "_delegator",
          "type": "address"
        },
        {
          "internalType": "string",
          "name": "_vault",
          "type": "string"
        }
      ],
      "name": "getBorrowedAmount",
      "outputs": [
        {
          "internalType": "uint256",
          "name": "",
          "type": "uint256"
        }
      ],
      "stateMutability": "view",
      "type": "function"
    },
    {
      "inputs": [
        {
          "internalType": "address",
          "name": "_delegator",
          "type": "address"
        },
        {
          "internalType": "string",
          "name": "_vault",
          "type": "string"
        }
      ],
      "name": "getTotalBorrowed",
      "outputs": [
        {
          "internalType": "uint256",
          "name": "",
          "type": "uint256"
        }
      ],
      "stateMutability": "view",
      "type": "function"
    },
    {
      "inputs": [
        {
          "internalType": "uint256",
          "name": "_tokenId",
          "type": "uint256"
        },
        {
          "internalType": "string",
          "name": "_vault",
          "type": "string"
        }
      ],
      "name": "isOwnedBy",
      "outputs": [
        {
          "internalType": "bool",
          "name": "",
          "type": "bool"
        }
      ],
      "stateMutability": "view",
      "type": "function"
    }
  ],
  "bytecode": "0x6080604052738d6cebd76f18e1558d4db88138e2defb3909fad6600160006101000a81548173ffffffffffffffffffffffffffffffffffffffff021916908373ffffffffffffffffffffffffffffffffffffffff16021790555034801561006557600080fd5b5060016000803373ffffffffffffffffffffffffffffffffffffffff1673ffffffffffffffffffffffffffffffffffffffff16815260200190815260200160002060006101000a81548160ff0219169083151502179055507398eb27e5f24fb83b7d129d789665b08c258b4ccf600860405180807f57455448000000000000000000000000000000000000000000000000000000008152506004019050908152602001604051809103902060006101000a81548173ffffffffffffffffffffffffffffffffffffffff021916908373ffffffffffffffffffffffffffffffffffffffff160217905550738c45969ad19d297c9b85763e90d0344c6e2ac9d1600860405180807f57425443000000000000000000000000000000000000000000000000000000008152506004019050908152602001604051809103902060006101000a81548173ffffffffffffffffffffffffffffffffffffffff021916908373ffffffffffffffffffffffffffffffffffffffff160217905550617b6d80620001ef6000396000f3fe6080604052600436106101cd5760003560e01c80636e30199f116100f7578063ae551a7c11610095578063e0f75d5d11610064578063e0f75d5d14611887578063e1c7392a1461198d578063e4a90dab146119a4578063eaf223e514611ac0576101cd565b8063ae551a7c14611554578063b22a9e1014611623578063bf7a2d70146116fd578063c17cce6c146117c2576101cd565b806370480275116100d1578063704802751461121957806376bf97791461126a57806388221842146113665780638b96fefb14611458576101cd565b80636e30199f14610f735780636ea36a84146110655780636efd44e21461113f576101cd565b80633106d9751161016f57806345a4dd821161013e57806345a4dd8214610bc45780634c67d39414610cac5780634efce27114610d7b57806359c4667f14610e77576101cd565b80633106d9751461081f57806331e0ca171461091157806339098a23146109e05780633a24e90b14610ac8576101cd565b806324d7806c116101ab57806324d7806c146104e65780632c0121141461054d5780632cc2fc52146106325780632e23425114610724576101cd565b806304680d31146101d2578063189c4414146102ce57806321902bc7146103ca575b600080fd5b3480156101de57600080fd5b506102b8600480360360408110156101f557600080fd5b81019080803573ffffffffffffffffffffffffffffffffffffffff1690602001909291908035906020019064010000000081111561023257600080fd5b82018360208201111561024457600080fd5b8035906020019184600183028401116401000000008311171561026657600080fd5b91908080601f016020809104026020016040519081016040528093929190818152602001838380828437600081840152601f19601f820116905080830192505050505050509192919290505050611ba5565b6040518082815260200191505060405180910390f35b3480156102da57600080fd5b506103b4600480360360408110156102f157600080fd5b81019080803573ffffffffffffffffffffffffffffffffffffffff1690602001909291908035906020019064010000000081111561032e57600080fd5b82018360208201111561034057600080fd5b8035906020019184600183028401116401000000008311171561036257600080fd5b91908080601f016020809104026020016040519081016040528093929190818152602001838380828437600081840152601f19601f820116905080830192505050505050509192919290505050611c56565b6040518082815260200191505060405180910390f35b3480156103d657600080fd5b506104d0600480360360608110156103ed57600080fd5b81019080803573ffffffffffffffffffffffffffffffffffffffff169060200190929190803573ffffffffffffffffffffffffffffffffffffffff1690602001909291908035906020019064010000000081111561044a57600080fd5b82018360208201111561045c57600080fd5b8035906020019184600183028401116401000000008311171561047e57600080fd5b91908080601f016020809104026020016040519081016040528093929190818152602001838380828437600081840152601f19601f820116905080830192505050505050509192919290505050611d07565b6040518082815260200191505060405180910390f35b3480156104f257600080fd5b506105356004803603602081101561050957600080fd5b81019080803573ffffffffffffffffffffffffffffffffffffffff169060200190929190505050611d4f565b60405180821515815260200191505060405180910390f35b6106306004803603606081101561056357600080fd5b8101908080359060200190929190803573ffffffffffffffffffffffffffffffffffffffff169060200190929190803590602001906401000000008111156105aa57600080fd5b8201836020820111156105bc57600080fd5b803590602001918460018302840111640100000000831117156105de57600080fd5b91908080601f016020809104026020016040519081016040528093929190818152602001838380828437600081840152601f19601f820116905080830192505050505050509192919290505050611da4565b005b34801561063e57600080fd5b506107226004803603606081101561065557600080fd5b81019080803573ffffffffffffffffffffffffffffffffffffffff169060200190929190803590602001909291908035906020019064010000000081111561069c57600080fd5b8201836020820111156106ae57600080fd5b803590602001918460018302840111640100000000831117156106d057600080fd5b91908080601f016020809104026020016040519081016040528093929190818152602001838380828437600081840152601f19601f820116905080830192505050505050509192919290505050612bff565b005b34801561073057600080fd5b506107c86004803603604081101561074757600080fd5b81019080803573ffffffffffffffffffffffffffffffffffffffff1690602001909291908035906020019064010000000081111561078457600080fd5b82018360208201111561079657600080fd5b803590602001918460018302840111640100000000831117156107b857600080fd5b909192939192939050505061366b565b6040518080602001828103825283818151815260200191508051906020019060200280838360005b8381101561080b5780820151818401526020810190506107f0565b505050509050019250505060405180910390f35b34801561082b57600080fd5b506108e56004803603602081101561084257600080fd5b810190808035906020019064010000000081111561085f57600080fd5b82018360208201111561087157600080fd5b8035906020019184600183028401116401000000008311171561089357600080fd5b91908080601f016020809104026020016040519081016040528093929190818152602001838380828437600081840152601f19601f820116905080830192505050505050509192919290505050613729565b604051808273ffffffffffffffffffffffffffffffffffffffff16815260200191505060405180910390f35b6109de6004803603606081101561092757600080fd5b8101908080359060200190929190803590602001909291908035906020019064010000000081111561095857600080fd5b82018360208201111561096a57600080fd5b8035906020019184600183028401116401000000008311171561098c57600080fd5b91908080601f016020809104026020016040519081016040528093929190818152602001838380828437600081840152601f19601f8201169050808301925050505050505091929192905050506137bc565b005b3480156109ec57600080fd5b50610ab060048036036040811015610a0357600080fd5b810190808035906020019092919080359060200190640100000000811115610a2a57600080fd5b820183602082011115610a3c57600080fd5b80359060200191846001830284011164010000000083111715610a5e57600080fd5b91908080601f016020809104026020016040519081016040528093929190818152602001838380828437600081840152601f19601f820116905080830192505050505050509192919290505050613f70565b60405180821515815260200191505060405180910390f35b348015610ad457600080fd5b50610bae60048036036040811015610aeb57600080fd5b81019080803573ffffffffffffffffffffffffffffffffffffffff16906020019092919080359060200190640100000000811115610b2857600080fd5b820183602082011115610b3a57600080fd5b80359060200191846001830284011164010000000083111715610b5c57600080fd5b91908080601f016020809104026020016040519081016040528093929190818152602001838380828437600081840152601f19601f820116905080830192505050505050509192919290505050614112565b6040518082815260200191505060405180910390f35b348015610bd057600080fd5b50610caa60048036036040811015610be757600080fd5b8101908080359060200190640100000000811115610c0457600080fd5b820183602082011115610c1657600080fd5b80359060200191846001830284011164010000000083111715610c3857600080fd5b91908080601f016020809104026020016040519081016040528093929190818152602001838380828437600081840152601f19601f820116905080830192505050505050509192919290803573ffffffffffffffffffffffffffffffffffffffff16906020019092919050505061426b565b005b610d7960048036036060811015610cc257600080fd5b8101908080359060200190640100000000811115610cdf57600080fd5b820183602082011115610cf157600080fd5b80359060200191846001830284011164010000000083111715610d1357600080fd5b91908080601f016020809104026020016040519081016040528093929190818152602001838380828437600081840152601f19601f82011690508083019250505050505050919291929080359060200190929190803590602001909291905050506143d5565b005b348015610d8757600080fd5b50610e6160048036036040811015610d9e57600080fd5b81019080803573ffffffffffffffffffffffffffffffffffffffff16906020019092919080359060200190640100000000811115610ddb57600080fd5b820183602082011115610ded57600080fd5b80359060200191846001830284011164010000000083111715610e0f57600080fd5b91908080601f016020809104026020016040519081016040528093929190818152602001838380828437600081840152601f19601f820116905080830192505050505050509192919290505050614bb4565b6040518082815260200191505060405180910390f35b348015610e8357600080fd5b50610f5d60048036036040811015610e9a57600080fd5b81019080803573ffffffffffffffffffffffffffffffffffffffff16906020019092919080359060200190640100000000811115610ed757600080fd5b820183602082011115610ee957600080fd5b80359060200191846001830284011164010000000083111715610f0b57600080fd5b91908080601f016020809104026020016040519081016040528093929190818152602001838380828437600081840152601f19601f820116905080830192505050505050509192919290505050614bef565b6040518082815260200191505060405180910390f35b348015610f7f57600080fd5b5061103960048036036020811015610f9657600080fd5b8101908080359060200190640100000000811115610fb357600080fd5b820183602082011115610fc557600080fd5b80359060200191846001830284011164010000000083111715610fe757600080fd5b91908080601f016020809104026020016040519081016040528093929190818152602001838380828437600081840152601f19601f820116905080830192505050505050509192919290505050614dcb565b604051808273ffffffffffffffffffffffffffffffffffffffff16815260200191505060405180910390f35b34801561107157600080fd5b506111296004803603606081101561108857600080fd5b81019080803573ffffffffffffffffffffffffffffffffffffffff169060200190929190803573ffffffffffffffffffffffffffffffffffffffff169060200190929190803590602001906401000000008111156110e557600080fd5b8201836020820111156110f757600080fd5b8035906020019184600183028401116401000000008311171561111957600080fd5b9091929391929390505050614e14565b6040518082815260200191505060405180910390f35b34801561114b57600080fd5b506112036004803603606081101561116257600080fd5b81019080803573ffffffffffffffffffffffffffffffffffffffff169060200190929190803573ffffffffffffffffffffffffffffffffffffffff169060200190929190803590602001906401000000008111156111bf57600080fd5b8201836020820111156111d157600080fd5b803590602001918460018302840111640100000000831117156111f357600080fd5b9091929391929390505050614ec2565b6040518082815260200191505060405180910390f35b34801561122557600080fd5b506112686004803603602081101561123c57600080fd5b81019080803573ffffffffffffffffffffffffffffffffffffffff169060200190929190505050615013565b005b34801561127657600080fd5b506113506004803603604081101561128d57600080fd5b81019080803573ffffffffffffffffffffffffffffffffffffffff169060200190929190803590602001906401000000008111156112ca57600080fd5b8201836020820111156112dc57600080fd5b803590602001918460018302840111640100000000831117156112fe57600080fd5b91908080601f016020809104026020016040519081016040528093929190818152602001838380828437600081840152601f19601f82011690508083019250505050505050919291929050505061512b565b6040518082815260200191505060405180910390f35b34801561137257600080fd5b5061142c6004803603602081101561138957600080fd5b81019080803590602001906401000000008111156113a657600080fd5b8201836020820111156113b857600080fd5b803590602001918460018302840111640100000000831117156113da57600080fd5b91908080601f016020809104026020016040519081016040528093929190818152602001838380828437600081840152601f19601f8201169050808301925050505050505091929192905050506151dc565b604051808273ffffffffffffffffffffffffffffffffffffffff16815260200191505060405180910390f35b34801561146457600080fd5b5061153e6004803603604081101561147b57600080fd5b81019080803573ffffffffffffffffffffffffffffffffffffffff169060200190929190803590602001906401000000008111156114b857600080fd5b8201836020820111156114ca57600080fd5b803590602001918460018302840111640100000000831117156114ec57600080fd5b91908080601f016020809104026020016040519081016040528093929190818152602001838380828437600081840152601f19601f820116905080830192505050505050509192919290505050615225565b6040518082815260200191505060405180910390f35b6116216004803603606081101561156a57600080fd5b810190808035906020019064010000000081111561158757600080fd5b82018360208201111561159957600080fd5b803590602001918460018302840111640100000000831117156115bb57600080fd5b91908080601f016020809104026020016040519081016040528093929190818152602001838380828437600081840152601f19601f8201169050808301925050505050505091929192908035906020019092919080359060200190929190505050615260565b005b34801561162f57600080fd5b506116e76004803603606081101561164657600080fd5b81019080803573ffffffffffffffffffffffffffffffffffffffff169060200190929190803573ffffffffffffffffffffffffffffffffffffffff169060200190929190803590602001906401000000008111156116a357600080fd5b8201836020820111156116b557600080fd5b803590602001918460018302840111640100000000831117156116d757600080fd5b9091929391929390505050615a20565b6040518082815260200191505060405180910390f35b6117c06004803603604081101561171357600080fd5b810190808035906020019064010000000081111561173057600080fd5b82018360208201111561174257600080fd5b8035906020019184600183028401116401000000008311171561176457600080fd5b91908080601f016020809104026020016040519081016040528093929190818152602001838380828437600081840152601f19601f82011690508083019250505050505050919291929080359060200190929190505050615ace565b005b611885600480360360408110156117d857600080fd5b81019080803590602001906401000000008111156117f557600080fd5b82018360208201111561180757600080fd5b8035906020019184600183028401116401000000008311171561182957600080fd5b91908080601f016020809104026020016040519081016040528093929190818152602001838380828437600081840152601f19601f8201169050808301925050505050505091929192908035906020019092919050505061681f565b005b34801561189357600080fd5b50611977600480360360608110156118aa57600080fd5b81019080803573ffffffffffffffffffffffffffffffffffffffff169060200190929190803590602001906401000000008111156118e757600080fd5b8201836020820111156118f957600080fd5b8035906020019184600183028401116401000000008311171561191b57600080fd5b91908080601f016020809104026020016040519081016040528093929190818152602001838380828437600081840152601f19601f82011690508083019250505050505050919291929080359060200190929190505050616ca2565b6040518082815260200191505060405180910390f35b34801561199957600080fd5b506119a2616cf3565b005b3480156119b057600080fd5b50611aaa600480360360608110156119c757600080fd5b81019080803573ffffffffffffffffffffffffffffffffffffffff169060200190929190803573ffffffffffffffffffffffffffffffffffffffff16906020019092919080359060200190640100000000811115611a2457600080fd5b820183602082011115611a3657600080fd5b80359060200191846001830284011164010000000083111715611a5857600080fd5b91908080601f016020809104026020016040519081016040528093929190818152602001838380828437600081840152601f19601f820116905080830192505050505050509192919290505050616eed565b6040518082815260200191505060405180910390f35b611ba360048036036060811015611ad657600080fd5b8101908080359060200190929190803573ffffffffffffffffffffffffffffffffffffffff16906020019092919080359060200190640100000000811115611b1d57600080fd5b820183602082011115611b2f57600080fd5b80359060200191846001830284011164010000000083111715611b5157600080fd5b91908080601f016020809104026020016040519081016040528093929190818152602001838380828437600081840152601f19601f820116905080830192505050505050509192919290505050616f35565b005b6000600260008473ffffffffffffffffffffffffffffffffffffffff1673ffffffffffffffffffffffffffffffffffffffff168152602001908152602001600020826040518082805190602001908083835b60208310611c1a5780518252602082019150602081019050602083039250611bf7565b6001836020036101000a038019825116818451168082178552505050505050905001915050908152602001604051809103902054905092915050565b6000600460008473ffffffffffffffffffffffffffffffffffffffff1673ffffffffffffffffffffffffffffffffffffffff168152602001908152602001600020826040518082805190602001908083835b60208310611ccb5780518252602082019150602081019050602083039250611ca8565b6001836020036101000a038019825116818451168082178552505050505050905001915050908152602001604051809103902054905092915050565b60036020528260005260406000206020528160005260406000208180516020810182018051848252602083016020850120818352809550505050505060009250925050505481565b60008060008373ffffffffffffffffffffffffffffffffffffffff1673ffffffffffffffffffffffffffffffffffffffff16815260200190815260200160002060009054906101000a900460ff169050919050565b6000831415611e1b576040517f08c379a00000000000000000000000000000000000000000000000000000000081526004018080602001828103825260138152602001807f43616e2774207265706179203020746f6b656e0000000000000000000000000081525060200191505060405180910390fd5b600360008373ffffffffffffffffffffffffffffffffffffffff1673ffffffffffffffffffffffffffffffffffffffff16815260200190815260200160002060003373ffffffffffffffffffffffffffffffffffffffff1673ffffffffffffffffffffffffffffffffffffffff168152602001908152602001600020816040518082805190602001908083835b60208310611ecb5780518252602082019150602081019050602083039250611ea8565b6001836020036101000a038019825116818451168082178552505050505050905001915050908152602001604051809103902054831115611f57576040517f08c379a000000000000000000000000000000000000000000000000000000000815260040180806020018281038252602f8152602001806178bc602f913960400191505060405180910390fd5b60006060600160009054906101000a900473ffffffffffffffffffffffffffffffffffffffff1673ffffffffffffffffffffffffffffffffffffffff1633604051602401808273ffffffffffffffffffffffffffffffffffffffff1681526020019150506040516020818303038152906040527f70a08231000000000000000000000000000000000000000000000000000000007bffffffffffffffffffffffffffffffffffffffffffffffffffffffff19166020820180517bffffffffffffffffffffffffffffffffffffffffffffffffffffffff83818316178352505050506040518082805190602001908083835b6020831061206b5780518252602082019150602081019050602083039250612048565b6001836020036101000a038019825116818451168082178552505050505050905001915050600060405180830381855af49150503d80600081146120cb576040519150601f19603f3d011682016040523d82523d6000602084013e6120d0565b606091505b509150915060008180602001905160208110156120ec57600080fd5b8101908080519060200190929190505050905085811015612158576040517f08c379a000000000000000000000000000000000000000000000000000000000815260040180806020018281038252602f815260200180617ae2602f913960400191505060405180910390fd5b600073ffffffffffffffffffffffffffffffffffffffff166008856040518082805190602001908083835b602083106121a65780518252602082019150602081019050602083039250612183565b6001836020036101000a038019825116818451168082178552505050505050905001915050908152602001604051809103902060009054906101000a900473ffffffffffffffffffffffffffffffffffffffff1673ffffffffffffffffffffffffffffffffffffffff161415612284576040517f08c379a00000000000000000000000000000000000000000000000000000000081526004018080602001828103825260178152602001807f746865207661756c7420646f65736e277420657869737400000000000000000081525060200191505060405180910390fd5b60006060600160009054906101000a900473ffffffffffffffffffffffffffffffffffffffff1673ffffffffffffffffffffffffffffffffffffffff1630604051602401808273ffffffffffffffffffffffffffffffffffffffff1681526020019150506040516020818303038152906040527f70a08231000000000000000000000000000000000000000000000000000000007bffffffffffffffffffffffffffffffffffffffffffffffffffffffff19166020820180517bffffffffffffffffffffffffffffffffffffffffffffffffffffffff83818316178352505050506040518082805190602001908083835b602083106123985780518252602082019150602081019050602083039250612375565b6001836020036101000a038019825116818451168082178552505050505050905001915050600060405180830381855af49150503d80600081146123f8576040519150601f19603f3d011682016040523d82523d6000602084013e6123fd565b606091505b5091509150600081806020019051602081101561241957600080fd5b8101908080519060200190929190505050905060006060600160009054906101000a900473ffffffffffffffffffffffffffffffffffffffff1673ffffffffffffffffffffffffffffffffffffffff1633308d604051602401808473ffffffffffffffffffffffffffffffffffffffff1681526020018373ffffffffffffffffffffffffffffffffffffffff16815260200182815260200193505050506040516020818303038152906040527fe73f11a8000000000000000000000000000000000000000000000000000000007bffffffffffffffffffffffffffffffffffffffffffffffffffffffff19166020820180517bffffffffffffffffffffffffffffffffffffffffffffffffffffffff83818316178352505050506040518082805190602001908083835b602083106125665780518252602082019150602081019050602083039250612543565b6001836020036101000a038019825116818451168082178552505050505050905001915050600060405180830381855af49150503d80600081146125c6576040519150601f19603f3d011682016040523d82523d6000602084013e6125cb565b606091505b509150915060006060600160009054906101000a900473ffffffffffffffffffffffffffffffffffffffff1673ffffffffffffffffffffffffffffffffffffffff1630604051602401808273ffffffffffffffffffffffffffffffffffffffff1681526020019150506040516020818303038152906040527f70a08231000000000000000000000000000000000000000000000000000000007bffffffffffffffffffffffffffffffffffffffffffffffffffffffff19166020820180517bffffffffffffffffffffffffffffffffffffffffffffffffffffffff83818316178352505050506040518082805190602001908083835b602083106126e457805182526020820191506020810190506020830392506126c1565b6001836020036101000a038019825116818451168082178552505050505050905001915050600060405180830381855af49150503d8060008114612744576040519150601f19603f3d011682016040523d82523d6000602084013e612749565b606091505b5091509150600081806020019051602081101561276557600080fd5b810190808051906020019092919050505090508d86820310156127d3576040517f08c379a0000000000000000000000000000000000000000000000000000000008152600401808060200182810382526044815260200180617a4e6044913960600191505060405180910390fd5b8d600360008f73ffffffffffffffffffffffffffffffffffffffff1673ffffffffffffffffffffffffffffffffffffffff16815260200190815260200160002060003373ffffffffffffffffffffffffffffffffffffffff1673ffffffffffffffffffffffffffffffffffffffff1681526020019081526020016000208d6040518082805190602001908083835b602083106128845780518252602082019150602081019050602083039250612861565b6001836020036101000a03801982511681845116808217855250505050505090500191505090815260200160405180910390205403600360008f73ffffffffffffffffffffffffffffffffffffffff1673ffffffffffffffffffffffffffffffffffffffff16815260200190815260200160002060003373ffffffffffffffffffffffffffffffffffffffff1673ffffffffffffffffffffffffffffffffffffffff1681526020019081526020016000208d6040518082805190602001908083835b602083106129695780518252602082019150602081019050602083039250612946565b6001836020036101000a0380198251168184511680821785525050505050509050019150509081526020016040518091039020819055508d600460008f73ffffffffffffffffffffffffffffffffffffffff1673ffffffffffffffffffffffffffffffffffffffff1681526020019081526020016000208d6040518082805190602001908083835b60208310612a1457805182526020820191506020810190506020830392506129f1565b6001836020036101000a03801982511681845116808217855250505050505090500191505090815260200160405180910390205403600460008f73ffffffffffffffffffffffffffffffffffffffff1673ffffffffffffffffffffffffffffffffffffffff1681526020019081526020016000208d6040518082805190602001908083835b60208310612abc5780518252602082019150602081019050602083039250612a99565b6001836020036101000a0380198251168184511680821785525050505050509050019150509081526020016040518091039020819055507f5df7ae058b5227cfb024fcf145f6c375dbba2cb33e66841c55053030742f6bca8e8e60088f6040518082805190602001908083835b60208310612b4c5780518252602082019150602081019050602083039250612b29565b6001836020036101000a038019825116818451168082178552505050505050905001915050908152602001604051809103902060009054906101000a900473ffffffffffffffffffffffffffffffffffffffff16604051808481526020018373ffffffffffffffffffffffffffffffffffffffff1681526020018273ffffffffffffffffffffffffffffffffffffffff168152602001935050505060405180910390a15050505050505050505050505050565b600082612c0c3384614112565b031015612c64576040517f08c379a00000000000000000000000000000000000000000000000000000000081526004018080602001828103825260398152602001806179286039913960400191505060405180910390fd5b600073ffffffffffffffffffffffffffffffffffffffff168373ffffffffffffffffffffffffffffffffffffffff161415612d07576040517f08c379a000000000000000000000000000000000000000000000000000000000815260040180806020018281038252601c8152602001807f626f72726f7765722063616e277420626520616464726573732830290000000081525060200191505060405180910390fd5b3373ffffffffffffffffffffffffffffffffffffffff168373ffffffffffffffffffffffffffffffffffffffff161415612d8c576040517f08c379a00000000000000000000000000000000000000000000000000000000081526004018080602001828103825260258152602001806178466025913960400191505060405180910390fd5b60008211612de5576040517f08c379a00000000000000000000000000000000000000000000000000000000081526004018080602001828103825260258152602001806177ff6025913960400191505060405180910390fd5b600073ffffffffffffffffffffffffffffffffffffffff166008826040518082805190602001908083835b60208310612e335780518252602082019150602081019050602083039250612e10565b6001836020036101000a038019825116818451168082178552505050505050905001915050908152602001604051809103902060009054906101000a900473ffffffffffffffffffffffffffffffffffffffff1673ffffffffffffffffffffffffffffffffffffffff161415612f11576040517f08c379a00000000000000000000000000000000000000000000000000000000081526004018080602001828103825260178152602001807f746865207661756c7420646f65736e277420657869737400000000000000000081525060200191505060405180910390fd5b6000600360003373ffffffffffffffffffffffffffffffffffffffff1673ffffffffffffffffffffffffffffffffffffffff16815260200190815260200160002060008573ffffffffffffffffffffffffffffffffffffffff1673ffffffffffffffffffffffffffffffffffffffff168152602001908152602001600020826040518082805190602001908083835b60208310612fc35780518252602082019150602081019050602083039250612fa0565b6001836020036101000a03801982511681845116808217855250505050505090500191505090815260200160405180910390205483031015613050576040517f08c379a00000000000000000000000000000000000000000000000000000000081526004018080602001828103825260458152602001806179e86045913960600191505060405180910390fd5b81600560003373ffffffffffffffffffffffffffffffffffffffff1673ffffffffffffffffffffffffffffffffffffffff16815260200190815260200160002060008573ffffffffffffffffffffffffffffffffffffffff1673ffffffffffffffffffffffffffffffffffffffff168152602001908152602001600020826040518082805190602001908083835b6020831061310157805182526020820191506020810190506020830392506130de565b6001836020036101000a038019825116818451168082178552505050505050905001915050908152602001604051809103902054116132d857600560003373ffffffffffffffffffffffffffffffffffffffff1673ffffffffffffffffffffffffffffffffffffffff16815260200190815260200160002060008473ffffffffffffffffffffffffffffffffffffffff1673ffffffffffffffffffffffffffffffffffffffff168152602001908152602001600020816040518082805190602001908083835b602083106131ea57805182526020820191506020810190506020830392506131c7565b6001836020036101000a0380198251168184511680821785525050505050509050019150509081526020016040518091039020548203600660003373ffffffffffffffffffffffffffffffffffffffff1673ffffffffffffffffffffffffffffffffffffffff168152602001908152602001600020826040518082805190602001908083835b602083106132935780518252602082019150602081019050602083039250613270565b6001836020036101000a038019825116818451168082178552505050505050905001915050908152602001604051809103902060008282540192505081905550613472565b81600560003373ffffffffffffffffffffffffffffffffffffffff1673ffffffffffffffffffffffffffffffffffffffff16815260200190815260200160002060008573ffffffffffffffffffffffffffffffffffffffff1673ffffffffffffffffffffffffffffffffffffffff168152602001908152602001600020826040518082805190602001908083835b602083106133895780518252602082019150602081019050602083039250613366565b6001836020036101000a03801982511681845116808217855250505050505090500191505090815260200160405180910390205403600660003373ffffffffffffffffffffffffffffffffffffffff1673ffffffffffffffffffffffffffffffffffffffff168152602001908152602001600020826040518082805190602001908083835b60208310613431578051825260208201915060208101905060208303925061340e565b6001836020036101000a0380198251168184511680821785525050505050509050019150509081526020016040518091039020600082825401925050819055505b81600560003373ffffffffffffffffffffffffffffffffffffffff1673ffffffffffffffffffffffffffffffffffffffff16815260200190815260200160002060008573ffffffffffffffffffffffffffffffffffffffff1673ffffffffffffffffffffffffffffffffffffffff168152602001908152602001600020826040518082805190602001908083835b602083106135235780518252602082019150602081019050602083039250613500565b6001836020036101000a0380198251168184511680821785525050505050509050019150509081526020016040518091039020819055508273ffffffffffffffffffffffffffffffffffffffff163373ffffffffffffffffffffffffffffffffffffffff167fdc47705473b4a899de6e16a740ecc86f2a65dc7dbb9eadd0a06ce5421a44e230846008856040518082805190602001908083835b602083106135e057805182526020820191506020810190506020830392506135bd565b6001836020036101000a038019825116818451168082178552505050505050905001915050908152602001604051809103902060009054906101000a900473ffffffffffffffffffffffffffffffffffffffff16604051808381526020018273ffffffffffffffffffffffffffffffffffffffff1681526020019250505060405180910390a3505050565b6060600760008573ffffffffffffffffffffffffffffffffffffffff1673ffffffffffffffffffffffffffffffffffffffff1681526020019081526020016000208383604051808383808284378083019250505092505050908152602001604051809103902080548060200260200160405190810160405280929190818152602001828054801561371b57602002820191906000526020600020905b815481526020019060010190808311613707575b505050505090509392505050565b60006008826040518082805190602001908083835b60208310613761578051825260208201915060208101905060208303925061373e565b6001836020036101000a038019825116818451168082178552505050505050905001915050908152602001604051809103902060009054906101000a900473ffffffffffffffffffffffffffffffffffffffff169050919050565b6137c68282613f70565b61381b576040517f08c379a0000000000000000000000000000000000000000000000000000000008152600401808060200182810382526023815260200180617a926023913960400191505060405180910390fd5b600073ffffffffffffffffffffffffffffffffffffffff166008826040518082805190602001908083835b602083106138695780518252602082019150602081019050602083039250613846565b6001836020036101000a038019825116818451168082178552505050505050905001915050908152602001604051809103902060009054906101000a900473ffffffffffffffffffffffffffffffffffffffff1673ffffffffffffffffffffffffffffffffffffffff161415613947576040517f08c379a00000000000000000000000000000000000000000000000000000000081526004018080602001828103825260178152602001807f746865207661756c7420646f65736e277420657869737400000000000000000081525060200191505060405180910390fd5b600460003373ffffffffffffffffffffffffffffffffffffffff1673ffffffffffffffffffffffffffffffffffffffff168152602001908152602001600020816040518082805190602001908083835b602083106139ba5780518252602082019150602081019050602083039250613997565b6001836020036101000a038019825116818451168082178552505050505050905001915050908152602001604051809103902054600660003373ffffffffffffffffffffffffffffffffffffffff1673ffffffffffffffffffffffffffffffffffffffff168152602001908152602001600020826040518082805190602001908083835b60208310613a615780518252602082019150602081019050602083039250613a3e565b6001836020036101000a03801982511681845116808217855250505050505090500191505090815260200160405180910390205403831115613aee576040517f08c379a000000000000000000000000000000000000000000000000000000000815260040180806020018281038252602d815260200180617ab5602d913960400191505060405180910390fd5b600260003373ffffffffffffffffffffffffffffffffffffffff1673ffffffffffffffffffffffffffffffffffffffff168152602001908152602001600020816040518082805190602001908083835b60208310613b615780518252602082019150602081019050602083039250613b3e565b6001836020036101000a038019825116818451168082178552505050505050905001915050908152602001604051809103902054831115613bed576040517f08c379a000000000000000000000000000000000000000000000000000000000815260040180806020018281038252603d8152602001806178eb603d913960400191505060405180910390fd5b600060606008836040518082805190602001908083835b60208310613c275780518252602082019150602081019050602083039250613c04565b6001836020036101000a038019825116818451168082178552505050505050905001915050908152602001604051809103902060009054906101000a900473ffffffffffffffffffffffffffffffffffffffff1673ffffffffffffffffffffffffffffffffffffffff16848660405160240180838152602001828152602001925050506040516020818303038152906040527f1428d6db000000000000000000000000000000000000000000000000000000007bffffffffffffffffffffffffffffffffffffffffffffffffffffffff19166020820180517bffffffffffffffffffffffffffffffffffffffffffffffffffffffff83818316178352505050506040518082805190602001908083835b60208310613d5a5780518252602082019150602081019050602083039250613d37565b6001836020036101000a038019825116818451168082178552505050505050905001915050600060405180830381855af49150503d8060008114613dba576040519150601f19603f3d011682016040523d82523d6000602084013e613dbf565b606091505b509150915084600260003373ffffffffffffffffffffffffffffffffffffffff1673ffffffffffffffffffffffffffffffffffffffff168152602001908152602001600020846040518082805190602001908083835b60208310613e385780518252602082019150602081019050602083039250613e15565b6001836020036101000a0380198251168184511680821785525050505050509050019150509081526020016040518091039020600082825403925050819055507fe77a7db92706d731a6876fb4bb28f03a91efb39fdabcdb3d9b13f7e155a7ea5485856008866040518082805190602001908083835b60208310613ed15780518252602082019150602081019050602083039250613eae565b6001836020036101000a038019825116818451168082178552505050505050905001915050908152602001604051809103902060009054906101000a900473ffffffffffffffffffffffffffffffffffffffff166001604051808581526020018481526020018373ffffffffffffffffffffffffffffffffffffffff168152602001821515815260200194505050505060405180910390a15050505050565b6000806000905060005b6001600760003373ffffffffffffffffffffffffffffffffffffffff1673ffffffffffffffffffffffffffffffffffffffff168152602001908152602001600020856040518082805190602001908083835b60208310613fef5780518252602082019150602081019050602083039250613fcc565b6001836020036101000a038019825116818451168082178552505050505050905001915050908152602001604051809103902080549050038110156141075784600760003373ffffffffffffffffffffffffffffffffffffffff1673ffffffffffffffffffffffffffffffffffffffff168152602001908152602001600020856040518082805190602001908083835b602083106140a2578051825260208201915060208101905060208303925061407f565b6001836020036101000a038019825116818451168082178552505050505050905001915050908152602001604051809103902082815481106140e057fe5b906000526020600020015414156140fa5760019150614107565b8080600101915050613f7a565b508091505092915050565b6000600460008473ffffffffffffffffffffffffffffffffffffffff1673ffffffffffffffffffffffffffffffffffffffff168152602001908152602001600020826040518082805190602001908083835b602083106141875780518252602082019150602081019050602083039250614164565b6001836020036101000a038019825116818451168082178552505050505050905001915050908152602001604051809103902054600260008573ffffffffffffffffffffffffffffffffffffffff1673ffffffffffffffffffffffffffffffffffffffff168152602001908152602001600020836040518082805190602001908083835b6020831061422e578051825260208201915060208101905060208303925061420b565b6001836020036101000a03801982511681845116808217855250505050505090500191505090815260200160405180910390205403905092915050565b6000803373ffffffffffffffffffffffffffffffffffffffff1673ffffffffffffffffffffffffffffffffffffffff16815260200190815260200160002060009054906101000a900460ff16614329576040517f08c379a00000000000000000000000000000000000000000000000000000000081526004018080602001828103825260148152602001807f596f7520617265206e6f7420616e2061646d696e00000000000000000000000081525060200191505060405180910390fd5b806008836040518082805190602001908083835b60208310614360578051825260208201915060208101905060208303925061433d565b6001836020036101000a038019825116818451168082178552505050505050905001915050908152602001604051809103902060006101000a81548173ffffffffffffffffffffffffffffffffffffffff021916908373ffffffffffffffffffffffffffffffffffffffff1602179055505050565b600060606008856040518082805190602001908083835b6020831061440f57805182526020820191506020810190506020830392506143ec565b6001836020036101000a038019825116818451168082178552505050505050905001915050908152602001604051809103902060009054906101000a900473ffffffffffffffffffffffffffffffffffffffff1673ffffffffffffffffffffffffffffffffffffffff1684604051602401808281526020019150506040516020818303038152906040527f6352211e000000000000000000000000000000000000000000000000000000007bffffffffffffffffffffffffffffffffffffffffffffffffffffffff19166020820180517bffffffffffffffffffffffffffffffffffffffffffffffffffffffff83818316178352505050506040518082805190602001908083835b6020831061453a5780518252602082019150602081019050602083039250614517565b6001836020036101000a038019825116818451168082178552505050505050905001915050600060405180830381855af49150503d806000811461459a576040519150601f19603f3d011682016040523d82523d6000602084013e61459f565b606091505b509150915060008180602001905160208110156145bb57600080fd5b810190808051906020019092919050505090503373ffffffffffffffffffffffffffffffffffffffff168173ffffffffffffffffffffffffffffffffffffffff1614614652576040517f08c379a00000000000000000000000000000000000000000000000000000000081526004018080602001828103825260228152602001806178246022913960400191505060405180910390fd5b600060606008886040518082805190602001908083835b6020831061468c5780518252602082019150602081019050602083039250614669565b6001836020036101000a038019825116818451168082178552505050505050905001915050908152602001604051809103902060009054906101000a900473ffffffffffffffffffffffffffffffffffffffff1673ffffffffffffffffffffffffffffffffffffffff16333089604051602401808473ffffffffffffffffffffffffffffffffffffffff1681526020018373ffffffffffffffffffffffffffffffffffffffff16815260200182815260200193505050506040516020818303038152906040527fe73f11a8000000000000000000000000000000000000000000000000000000007bffffffffffffffffffffffffffffffffffffffffffffffffffffffff19166020820180517bffffffffffffffffffffffffffffffffffffffffffffffffffffffff83818316178352505050506040518082805190602001908083835b602083106147f357805182526020820191506020810190506020830392506147d0565b6001836020036101000a038019825116818451168082178552505050505050905001915050600060405180830381855af49150503d8060008114614853576040519150601f19603f3d011682016040523d82523d6000602084013e614858565b606091505b50915091506000606060088a6040518082805190602001908083835b602083106148975780518252602082019150602081019050602083039250614874565b6001836020036101000a038019825116818451168082178552505050505050905001915050908152602001604051809103902060009054906101000a900473ffffffffffffffffffffffffffffffffffffffff1673ffffffffffffffffffffffffffffffffffffffff1689604051602401808281526020019150506040516020818303038152906040527f6352211e000000000000000000000000000000000000000000000000000000007bffffffffffffffffffffffffffffffffffffffffffffffffffffffff19166020820180517bffffffffffffffffffffffffffffffffffffffffffffffffffffffff83818316178352505050506040518082805190602001908083835b602083106149c2578051825260208201915060208101905060208303925061499f565b6001836020036101000a038019825116818451168082178552505050505050905001915050600060405180830381855af49150503d8060008114614a22576040519150601f19603f3d011682016040523d82523d6000602084013e614a27565b606091505b50915091506000818060200190516020811015614a4357600080fd5b810190808051906020019092919050505090503073ffffffffffffffffffffffffffffffffffffffff168173ffffffffffffffffffffffffffffffffffffffff1614614ada576040517f08c379a0000000000000000000000000000000000000000000000000000000008152600401808060200182810382526021815260200180617a2d6021913960400191505060405180910390fd5b600760003373ffffffffffffffffffffffffffffffffffffffff1673ffffffffffffffffffffffffffffffffffffffff1681526020019081526020016000208b6040518082805190602001908083835b60208310614b4d5780518252602082019150602081019050602083039250614b2a565b6001836020036101000a03801982511681845116808217855250505050505090500191505090815260200160405180910390208a90806001815401808255809150506001900390600052602060002001600090919091909150555050505050505050505050565b600460205281600052604060002081805160208101820180518482526020830160208501208183528095505050505050600091509150505481565b60008073ffffffffffffffffffffffffffffffffffffffff166009836040518082805190602001908083835b60208310614c3e5780518252602082019150602081019050602083039250614c1b565b6001836020036101000a038019825116818451168082178552505050505050905001915050908152602001604051809103902060009054906101000a900473ffffffffffffffffffffffffffffffffffffffff1673ffffffffffffffffffffffffffffffffffffffff161415614d1c576040517f08c379a000000000000000000000000000000000000000000000000000000000815260040180806020018281038252600d8152602001807f556e6b6e6f776e20746f6b656e0000000000000000000000000000000000000081525060200191505060405180910390fd5b600260008473ffffffffffffffffffffffffffffffffffffffff1673ffffffffffffffffffffffffffffffffffffffff168152602001908152602001600020826040518082805190602001908083835b60208310614d8f5780518252602082019150602081019050602083039250614d6c565b6001836020036101000a038019825116818451168082178552505050505050905001915050908152602001604051809103902054905092915050565b6009818051602081018201805184825260208301602085012081835280955050505050506000915054906101000a900473ffffffffffffffffffffffffffffffffffffffff1681565b6000600360008573ffffffffffffffffffffffffffffffffffffffff1673ffffffffffffffffffffffffffffffffffffffff16815260200190815260200160002060008673ffffffffffffffffffffffffffffffffffffffff1673ffffffffffffffffffffffffffffffffffffffff16815260200190815260200160002083836040518083838082843780830192505050925050509081526020016040518091039020549050949350505050565b6000600360008573ffffffffffffffffffffffffffffffffffffffff1673ffffffffffffffffffffffffffffffffffffffff16815260200190815260200160002060008673ffffffffffffffffffffffffffffffffffffffff1673ffffffffffffffffffffffffffffffffffffffff1681526020019081526020016000208383604051808383808284378083019250505092505050908152602001604051809103902054600560008673ffffffffffffffffffffffffffffffffffffffff1673ffffffffffffffffffffffffffffffffffffffff16815260200190815260200160002060008773ffffffffffffffffffffffffffffffffffffffff1673ffffffffffffffffffffffffffffffffffffffff1681526020019081526020016000208484604051808383808284378083019250505092505050908152602001604051809103902054039050949350505050565b6000803373ffffffffffffffffffffffffffffffffffffffff1673ffffffffffffffffffffffffffffffffffffffff16815260200190815260200160002060009054906101000a900460ff166150d1576040517f08c379a00000000000000000000000000000000000000000000000000000000081526004018080602001828103825260148152602001807f596f7520617265206e6f7420616e2061646d696e00000000000000000000000081525060200191505060405180910390fd5b60016000808373ffffffffffffffffffffffffffffffffffffffff1673ffffffffffffffffffffffffffffffffffffffff16815260200190815260200160002060006101000a81548160ff02191690831515021790555050565b6000600460008473ffffffffffffffffffffffffffffffffffffffff1673ffffffffffffffffffffffffffffffffffffffff168152602001908152602001600020826040518082805190602001908083835b602083106151a0578051825260208201915060208101905060208303925061517d565b6001836020036101000a038019825116818451168082178552505050505050905001915050908152602001604051809103902054905092915050565b6008818051602081018201805184825260208301602085012081835280955050505050506000915054906101000a900473ffffffffffffffffffffffffffffffffffffffff1681565b600260205281600052604060002081805160208101820180518482526020830160208501208183528095505050505050600091509150505481565b61526b8383836143d5565b600060606008856040518082805190602001908083835b602083106152a55780518252602082019150602081019050602083039250615282565b6001836020036101000a038019825116818451168082178552505050505050905001915050908152602001604051809103902060009054906101000a900473ffffffffffffffffffffffffffffffffffffffff1673ffffffffffffffffffffffffffffffffffffffff1630604051602401808273ffffffffffffffffffffffffffffffffffffffff1681526020019150506040516020818303038152906040527f70a08231000000000000000000000000000000000000000000000000000000007bffffffffffffffffffffffffffffffffffffffffffffffffffffffff19166020820180517bffffffffffffffffffffffffffffffffffffffffffffffffffffffff83818316178352505050506040518082805190602001908083835b602083106153e657805182526020820191506020810190506020830392506153c3565b6001836020036101000a038019825116818451168082178552505050505050905001915050600060405180830381855af49150503d8060008114615446576040519150601f19603f3d011682016040523d82523d6000602084013e61544b565b606091505b5091509150600081806020019051602081101561546757600080fd5b8101908080519060200190929190505050905060008060606008896040518082805190602001908083835b602083106154b55780518252602082019150602081019050602083039250615492565b6001836020036101000a038019825116818451168082178552505050505050905001915050908152602001604051809103902060009054906101000a900473ffffffffffffffffffffffffffffffffffffffff1673ffffffffffffffffffffffffffffffffffffffff168888856040516024018084815260200183815260200182815260200193505050506040516020818303038152906040527f97a41b8e000000000000000000000000000000000000000000000000000000007bffffffffffffffffffffffffffffffffffffffffffffffffffffffff19166020820180517bffffffffffffffffffffffffffffffffffffffffffffffffffffffff83818316178352505050506040518082805190602001908083835b602083106155f057805182526020820191506020810190506020830392506155cd565b6001836020036101000a038019825116818451168082178552505050505050905001915050600060405180830381855af49150503d8060008114615650576040519150601f19603f3d011682016040523d82523d6000602084013e615655565b606091505b50915091506000606060088b6040518082805190602001908083835b602083106156945780518252602082019150602081019050602083039250615671565b6001836020036101000a038019825116818451168082178552505050505050905001915050908152602001604051809103902060009054906101000a900473ffffffffffffffffffffffffffffffffffffffff1673ffffffffffffffffffffffffffffffffffffffff1630604051602401808273ffffffffffffffffffffffffffffffffffffffff1681526020019150506040516020818303038152906040527f70a08231000000000000000000000000000000000000000000000000000000007bffffffffffffffffffffffffffffffffffffffffffffffffffffffff19166020820180517bffffffffffffffffffffffffffffffffffffffffffffffffffffffff83818316178352505050506040518082805190602001908083835b602083106157d557805182526020820191506020810190506020830392506157b2565b6001836020036101000a038019825116818451168082178552505050505050905001915050600060405180830381855af49150503d8060008114615835576040519150601f19603f3d011682016040523d82523d6000602084013e61583a565b606091505b5091509150600081806020019051602081101561585657600080fd5b8101908080519060200190929190505050905089600260003373ffffffffffffffffffffffffffffffffffffffff1673ffffffffffffffffffffffffffffffffffffffff1681526020019081526020016000208d6040518082805190602001908083835b602083106158dd57805182526020820191506020810190506020830392506158ba565b6001836020036101000a0380198251168184511680821785525050505050509050019150509081526020016040518091039020600082825401925050819055503373ffffffffffffffffffffffffffffffffffffffff167ff246cb6f95a7c3bfda1a3e85094fba64ccec23277661166f09e2bb3b8fdc6bef60088e6040518082805190602001908083835b6020831061598b5780518252602082019150602081019050602083039250615968565b6001836020036101000a038019825116818451168082178552505050505050905001915050908152602001604051809103902060009054906101000a900473ffffffffffffffffffffffffffffffffffffffff168c604051808373ffffffffffffffffffffffffffffffffffffffff1681526020018281526020019250505060405180910390a2505050505050505050505050565b6000600560008573ffffffffffffffffffffffffffffffffffffffff1673ffffffffffffffffffffffffffffffffffffffff16815260200190815260200160002060008673ffffffffffffffffffffffffffffffffffffffff1673ffffffffffffffffffffffffffffffffffffffff16815260200190815260200160002083836040518083838082843780830192505050925050509081526020016040518091039020549050949350505050565b615ad8828261681f565b6000600660003373ffffffffffffffffffffffffffffffffffffffff1673ffffffffffffffffffffffffffffffffffffffff168152602001908152602001600020836040518082805190602001908083835b60208310615b4d5780518252602082019150602081019050602083039250615b2a565b6001836020036101000a038019825116818451168082178552505050505050905001915050908152602001604051809103902054600260003373ffffffffffffffffffffffffffffffffffffffff1673ffffffffffffffffffffffffffffffffffffffff168152602001908152602001600020846040518082805190602001908083835b60208310615bf45780518252602082019150602081019050602083039250615bd1565b6001836020036101000a038019825116818451168082178552505050505050905001915050908152602001604051809103902054031015615c80576040517f08c379a00000000000000000000000000000000000000000000000000000000081526004018080602001828103825260568152602001806179926056913960600191505060405180910390fd5b60008060606008856040518082805190602001908083835b60208310615cbb5780518252602082019150602081019050602083039250615c98565b6001836020036101000a038019825116818451168082178552505050505050905001915050908152602001604051809103902060009054906101000a900473ffffffffffffffffffffffffffffffffffffffff1673ffffffffffffffffffffffffffffffffffffffff1684604051602401808281526020019150506040516020818303038152906040527f93ee476a000000000000000000000000000000000000000000000000000000007bffffffffffffffffffffffffffffffffffffffffffffffffffffffff19166020820180517bffffffffffffffffffffffffffffffffffffffffffffffffffffffff83818316178352505050506040518082805190602001908083835b60208310615de65780518252602082019150602081019050602083039250615dc3565b6001836020036101000a038019825116818451168082178552505050505050905001915050600060405180830381855af49150503d8060008114615e46576040519150601f19603f3d011682016040523d82523d6000602084013e615e4b565b606091505b50915091506000818060200190516020811015615e6757600080fd5b81019080805190602001909291905050509050600081600660003373ffffffffffffffffffffffffffffffffffffffff1673ffffffffffffffffffffffffffffffffffffffff168152602001908152602001600020886040518082805190602001908083835b60208310615ef05780518252602082019150602081019050602083039250615ecd565b6001836020036101000a038019825116818451168082178552505050505050905001915050908152602001604051809103902054600260003373ffffffffffffffffffffffffffffffffffffffff1673ffffffffffffffffffffffffffffffffffffffff168152602001908152602001600020896040518082805190602001908083835b60208310615f975780518252602082019150602081019050602083039250615f74565b6001836020036101000a03801982511681845116808217855250505050505090500191505090815260200160405180910390205403039050600060606008896040518082805190602001908083835b602083106160095780518252602082019150602081019050602083039250615fe6565b6001836020036101000a038019825116818451168082178552505050505050905001915050908152602001604051809103902060009054906101000a900473ffffffffffffffffffffffffffffffffffffffff1673ffffffffffffffffffffffffffffffffffffffff168884896040516024018084815260200183815260200182815260200193505050506040516020818303038152906040527f3128ef27000000000000000000000000000000000000000000000000000000007bffffffffffffffffffffffffffffffffffffffffffffffffffffffff19166020820180517bffffffffffffffffffffffffffffffffffffffffffffffffffffffff83818316178352505050506040518082805190602001908083835b602083106161445780518252602082019150602081019050602083039250616121565b6001836020036101000a038019825116818451168082178552505050505050905001915050600060405180830381855af49150503d80600081146161a4576040519150601f19603f3d011682016040523d82523d6000602084013e6161a9565b606091505b509150915082600260003373ffffffffffffffffffffffffffffffffffffffff1673ffffffffffffffffffffffffffffffffffffffff1681526020019081526020016000208a6040518082805190602001908083835b6020831061622257805182526020820191506020810190506020830392506161ff565b6001836020036101000a0380198251168184511680821785525050505050509050019150509081526020016040518091039020600082825403925050819055506000606060088b6040518082805190602001908083835b6020831061629c5780518252602082019150602081019050602083039250616279565b6001836020036101000a038019825116818451168082178552505050505050905001915050908152602001604051809103902060009054906101000a900473ffffffffffffffffffffffffffffffffffffffff1673ffffffffffffffffffffffffffffffffffffffff1630338c604051602401808473ffffffffffffffffffffffffffffffffffffffff1681526020018373ffffffffffffffffffffffffffffffffffffffff16815260200182815260200193505050506040516020818303038152906040527fe73f11a8000000000000000000000000000000000000000000000000000000007bffffffffffffffffffffffffffffffffffffffffffffffffffffffff19166020820180517bffffffffffffffffffffffffffffffffffffffffffffffffffffffff83818316178352505050506040518082805190602001908083835b6020831061640357805182526020820191506020810190506020830392506163e0565b6001836020036101000a038019825116818451168082178552505050505050905001915050600060405180830381855af49150503d8060008114616463576040519150601f19603f3d011682016040523d82523d6000602084013e616468565b606091505b5091509150600760003373ffffffffffffffffffffffffffffffffffffffff1673ffffffffffffffffffffffffffffffffffffffff1681526020019081526020016000208b6040518082805190602001908083835b602083106164e057805182526020820191506020810190506020830392506164bd565b6001836020036101000a03801982511681845116808217855250505050505090500191505090815260200160405180910390208a8154811061651e57fe5b90600052602060002001600090556000805b6001600760003373ffffffffffffffffffffffffffffffffffffffff1673ffffffffffffffffffffffffffffffffffffffff1681526020019081526020016000208e6040518082805190602001908083835b602083106165a55780518252602082019150602081019050602083039250616582565b6001836020036101000a038019825116818451168082178552505050505050905001915050908152602001604051809103902080549050038110156166bd578b600760003373ffffffffffffffffffffffffffffffffffffffff1673ffffffffffffffffffffffffffffffffffffffff1681526020019081526020016000208e6040518082805190602001908083835b602083106166585780518252602082019150602081019050602083039250616635565b6001836020036101000a0380198251168184511680821785525050505050509050019150509081526020016040518091039020828154811061669657fe5b906000526020600020015414156166b057600191506166bd565b8080600101915050616530565b508015616715576040517f08c379a000000000000000000000000000000000000000000000000000000000815260040180806020018281038252602a815260200180617892602a913960400191505060405180910390fd5b7f43734303d11078efad5d02b38924b4e91a189fb2cbbcd429fc52d9f8cedbcdc73360088e6040518082805190602001908083835b6020831061676d578051825260208201915060208101905060208303925061674a565b6001836020036101000a038019825116818451168082178552505050505050905001915050908152602001604051809103902060009054906101000a900473ffffffffffffffffffffffffffffffffffffffff168d604051808473ffffffffffffffffffffffffffffffffffffffff1681526020018373ffffffffffffffffffffffffffffffffffffffff168152602001828152602001935050505060405180910390a1505050505050505050505050565b600060606008846040518082805190602001908083835b602083106168595780518252602082019150602081019050602083039250616836565b6001836020036101000a038019825116818451168082178552505050505050905001915050908152602001604051809103902060009054906101000a900473ffffffffffffffffffffffffffffffffffffffff1673ffffffffffffffffffffffffffffffffffffffff1630604051602401808273ffffffffffffffffffffffffffffffffffffffff1681526020019150506040516020818303038152906040527f70a08231000000000000000000000000000000000000000000000000000000007bffffffffffffffffffffffffffffffffffffffffffffffffffffffff19166020820180517bffffffffffffffffffffffffffffffffffffffffffffffffffffffff83818316178352505050506040518082805190602001908083835b6020831061699a5780518252602082019150602081019050602083039250616977565b6001836020036101000a038019825116818451168082178552505050505050905001915050600060405180830381855af49150503d80600081146169fa576040519150601f19603f3d011682016040523d82523d6000602084013e6169ff565b606091505b50915091506000818060200190516020811015616a1b57600080fd5b810190808051906020019092919050505090503073ffffffffffffffffffffffffffffffffffffffff168173ffffffffffffffffffffffffffffffffffffffff1614616ab2576040517f08c379a000000000000000000000000000000000000000000000000000000000815260040180806020018281038252602781526020018061786b6027913960400191505060405180910390fd5b6000805b6001600760003373ffffffffffffffffffffffffffffffffffffffff1673ffffffffffffffffffffffffffffffffffffffff168152602001908152602001600020886040518082805190602001908083835b60208310616b2b5780518252602082019150602081019050602083039250616b08565b6001836020036101000a03801982511681845116808217855250505050505090500191505090815260200160405180910390208054905003811015616c435785600760003373ffffffffffffffffffffffffffffffffffffffff1673ffffffffffffffffffffffffffffffffffffffff168152602001908152602001600020886040518082805190602001908083835b60208310616bde5780518252602082019150602081019050602083039250616bbb565b6001836020036101000a03801982511681845116808217855250505050505090500191505090815260200160405180910390208281548110616c1c57fe5b90600052602060002001541415616c365760019150616c43565b8080600101915050616ab6565b5080616c9a576040517f08c379a00000000000000000000000000000000000000000000000000000000081526004018080602001828103825260228152602001806178246022913960400191505060405180910390fd5b505050505050565b6007602052826000526040600020828051602081018201805184825260208301602085012081835280955050505050508181548110616cdd57fe5b9060005260206000200160009250925050505481565b6001600080739198aef8f3019f064d0826eb9e07fb07a3d3a4bd73ffffffffffffffffffffffffffffffffffffffff1673ffffffffffffffffffffffffffffffffffffffff16815260200190815260200160002060006101000a81548160ff0219169083151502179055506001600080739522f29a27caf4b82c1f22d21ead2e081a68a89973ffffffffffffffffffffffffffffffffffffffff1673ffffffffffffffffffffffffffffffffffffffff16815260200190815260200160002060006101000a81548160ff0219169083151502179055507398eb27e5f24fb83b7d129d789665b08c258b4ccf600860405180807f57455448000000000000000000000000000000000000000000000000000000008152506004019050908152602001604051809103902060006101000a81548173ffffffffffffffffffffffffffffffffffffffff021916908373ffffffffffffffffffffffffffffffffffffffff160217905550738c45969ad19d297c9b85763e90d0344c6e2ac9d1600860405180807f57425443000000000000000000000000000000000000000000000000000000008152506004019050908152602001604051809103902060006101000a81548173ffffffffffffffffffffffffffffffffffffffff021916908373ffffffffffffffffffffffffffffffffffffffff160217905550565b60056020528260005260406000206020528160005260406000208180516020810182018051848252602083016020850120818352809550505050505060009250925050505481565b6000831415616fac576040517f08c379a00000000000000000000000000000000000000000000000000000000081526004018080602001828103825260148152602001807f43616e277420626f72726f77203020746f6b656e00000000000000000000000081525060200191505060405180910390fd5b600360008373ffffffffffffffffffffffffffffffffffffffff1673ffffffffffffffffffffffffffffffffffffffff16815260200190815260200160002060003373ffffffffffffffffffffffffffffffffffffffff1673ffffffffffffffffffffffffffffffffffffffff168152602001908152602001600020816040518082805190602001908083835b6020831061705c5780518252602082019150602081019050602083039250617039565b6001836020036101000a038019825116818451168082178552505050505050905001915050908152602001604051809103902054600560008473ffffffffffffffffffffffffffffffffffffffff1673ffffffffffffffffffffffffffffffffffffffff16815260200190815260200160002060003373ffffffffffffffffffffffffffffffffffffffff1673ffffffffffffffffffffffffffffffffffffffff168152602001908152602001600020826040518082805190602001908083835b60208310617140578051825260208201915060208101905060208303925061711d565b6001836020036101000a038019825116818451168082178552505050505050905001915050908152602001604051809103902054038311156171cd576040517f08c379a00000000000000000000000000000000000000000000000000000000081526004018080602001828103825260318152602001806179616031913960400191505060405180910390fd5b60006060600160009054906101000a900473ffffffffffffffffffffffffffffffffffffffff1673ffffffffffffffffffffffffffffffffffffffff16303387604051602401808473ffffffffffffffffffffffffffffffffffffffff1681526020018373ffffffffffffffffffffffffffffffffffffffff16815260200182815260200193505050506040516020818303038152906040527fefeb93ed000000000000000000000000000000000000000000000000000000007bffffffffffffffffffffffffffffffffffffffffffffffffffffffff19166020820180517bffffffffffffffffffffffffffffffffffffffffffffffffffffffff83818316178352505050506040518082805190602001908083835b6020831061730757805182526020820191506020810190506020830392506172e4565b6001836020036101000a038019825116818451168082178552505050505050905001915050600060405180830381855af49150503d8060008114617367576040519150601f19603f3d011682016040523d82523d6000602084013e61736c565b606091505b509150915084600360008673ffffffffffffffffffffffffffffffffffffffff1673ffffffffffffffffffffffffffffffffffffffff16815260200190815260200160002060003373ffffffffffffffffffffffffffffffffffffffff1673ffffffffffffffffffffffffffffffffffffffff168152602001908152602001600020846040518082805190602001908083835b6020831061742257805182526020820191506020810190506020830392506173ff565b6001836020036101000a03801982511681845116808217855250505050505090500191505090815260200160405180910390206000828254019250508190555084600460008673ffffffffffffffffffffffffffffffffffffffff1673ffffffffffffffffffffffffffffffffffffffff168152602001908152602001600020846040518082805190602001908083835b602083106174d657805182526020820191506020810190506020830392506174b3565b6001836020036101000a0380198251168184511680821785525050505050509050019150509081526020016040518091039020600082825401925050819055506000600460008673ffffffffffffffffffffffffffffffffffffffff1673ffffffffffffffffffffffffffffffffffffffff168152602001908152602001600020846040518082805190602001908083835b6020831061758b5780518252602082019150602081019050602083039250617568565b6001836020036101000a038019825116818451168082178552505050505050905001915050908152602001604051809103902054600360008773ffffffffffffffffffffffffffffffffffffffff1673ffffffffffffffffffffffffffffffffffffffff16815260200190815260200160002060003373ffffffffffffffffffffffffffffffffffffffff1673ffffffffffffffffffffffffffffffffffffffff168152602001908152602001600020856040518082805190602001908083835b6020831061766f578051825260208201915060208101905060208303925061764c565b6001836020036101000a0380198251168184511680821785525050505050509050019150509081526020016040518091039020540310156176fb576040517f08c379a0000000000000000000000000000000000000000000000000000000008152600401808060200182810382526027815260200180617b116027913960400191505060405180910390fd5b7f63fa013c62e47bf603a91922f56b1bde2dbae90cb9c0c7d48e6409b82a86e92a85856008866040518082805190602001908083835b602083106177545780518252602082019150602081019050602083039250617731565b6001836020036101000a038019825116818451168082178552505050505050905001915050908152602001604051809103902060009054906101000a900473ffffffffffffffffffffffffffffffffffffffff16604051808481526020018373ffffffffffffffffffffffffffffffffffffffff1681526020018273ffffffffffffffffffffffffffffffffffffffff168152602001935050505060405180910390a1505050505056fe616d6f756e7420626f72726f776564206d757374206265207375706572696f7220746f2030596f75206d75737420626520746865206f776e6572206f662074686520746f6b656e626f72726f776572206d75737420626520646966666572656e742074686174206f776e657254686520455243373231206973206e6f74206f776e6564206279206f757220636f6e747261637474686520455243373231206973207374696c6c20696e20746865206d617070696e672069734f776e6572526570617920616e20616d6f756e74207375706572696f7220746f2074686520616d6f756e7420626f72726f77656454686520616d6f756e74206973207375706572696f7220746f2074686520616d6f756e7420626f72726f776564206279206f757220636f6e747261637474686520616d6f756e742064656c656761746564206973207375706572696f7220746f2074686520616d6f756e7420617574686f72697a6564426f72726f7720616e20616d6f756e74207375706572696f7220746f2074686520616d6f756e742064656c656761746564596f752063616e6e6f74207769746864726177207468697320746f6b656e2c20796f75206e65656420746f207265647563652074686520616d6f756e7420796f7520686176652064656c65676174656420666972737454686520626f72726f7765722068617320616c726561647920626f72726f776564206d6f7265207468616e20746865206e657720617574686f72697a656420616d6f756e7474686520455243373231206973206e6f7420696e206f757220636f6e747261637454686520616d6f756e74206f66204d61692073656e74206973206e6f74207468652073616d652061732074686520616d6f756e74206f66204d6169207265636569766564596f7520617265206e6f7420746865206f776e6572206f66207468697320746f6b656e54686520616d6f756e74206973207375706572696f7220746f2074686520616d6f756e7420626f72726f776564596f7520646f6e2774206861766520656e6f75676867204d616920746f207265706179207468697320616d6f756e744a65206e652073616973207061732071756f69206d657474726520636f6d6d6520657272657572a2646970667358221220911f05a8f9855c13d61d984b65549d15123795e5dfefd0e1148e4f7bd7ae0c1164736f6c63430007000033",
  "immutableReferences": {},
  "source": "// SPDX-License-Identifier: MIT\r\n\r\npragma solidity ^0.7.0; // regarder la version sur les contracts de qidao 0.5.5 demander  Nandy quel est le mieux \r\n\r\nimport \"@openzeppelin/contracts/token/ERC721/IERC721.sol\";\r\n\r\n//contract avec les adresses du mainnet ETHEREUM !!!!!!!\r\ncontract delegate {\r\n\r\n\r\n    event BorrowedToMaiFinance(address indexed depositor, address vault, uint256 amount);\r\n    event WithdrawERC721(address withdrawer, address vault, uint256 tokenID);\r\n\r\n    event Approved(address indexed owner, address indexed borrower, uint amount, address vault); \r\n    event PayToMayFinance(uint amount,uint tokenid, address vault, bool fromOurContract); // if fromOurContract is true, the amount has been paid by our contract to the borrower, if false, the amount has been paid by the borrower to mai finance through our contract  \r\n    event Borrowed(uint amount, address delagator,address vault); \r\n    event RepaidToOurContract(uint amount, address borrower, address vault);\r\n\r\n// mapping to know who is admin\r\n    mapping(address => bool) admin;\r\n\r\n    address maiEth = address(0x8D6CeBD76f18E1558D4DB88138e2DeFB3909fAD6); //mini matic on eth address  PK LE NOM MAIETH ??\r\n    constructor() public {\r\n        admin[msg.sender] = true;\r\n        vaultAddress[\"WETH\"] = address(0x98eb27E5F24FB83b7D129D789665b08C258b4cCF); // WETH vault address on ethereum\r\n        vaultAddress[\"WBTC\"] = address(0x8C45969aD19D297c9B85763e90D0344C6E2ac9d1); // WBTC vault address on ethereum\r\n    }\r\n\r\n    function init() public {\r\n        admin[0x9198aEf8f3019f064d0826eB9e07Fb07a3d3a4BD] = true;\r\n        admin[0x9522F29A27CaF4b82C1f22d21eAD2E081A68A899] = true;\r\n        vaultAddress[\"WETH\"] = address(0x98eb27E5F24FB83b7D129D789665b08C258b4cCF); // WETH vault address on ethereum\r\n        vaultAddress[\"WBTC\"] = address(0x8C45969aD19D297c9B85763e90D0344C6E2ac9d1); // WBTC vault address on ethereum\r\n\r\n    }\r\n    \r\n    //      vocabulary :\r\n    // delegator : the owner initial of the nft, he deposited tokens in a vault and has deposited the nft on our contract. He can delegate his nft to a borrower\r\n    // borrower : the person who has been delegated funds by the delegator. He can borrow tokens and repay the tokens\r\n\r\n\r\n    // mapping to keep track of the amount borrowed from may finance by our contract in the name of the owner of the nft\r\n    // borrower=>vault=>amount borrowed\r\n    mapping(address=>mapping(string=>uint)) public borrowedAmount;\r\n\r\n    // mapping to keep track of  who, the amount and the token borrowed by each borrower from each delegator\r\n    // delegator=>borrower=>vault=>amount borrowed\r\n    mapping(address=>mapping(address=>mapping(string=>uint))) public borrowed;\r\n\r\n    // mapping to know the total of tokens that have been borrowed from each delegator\r\n    // delegator=>vault=>total amount borrowed\r\n    mapping(address=>mapping(string=>uint)) public totalBorrowed;\r\n\r\n    // mapping to find to who the owner has delegated and how much\r\n    // delegator=>borrower=>vault=>amount delegated  \r\n    mapping(address=>mapping(address=>mapping(string=>uint))) public hasDelegated; \r\n\r\n    // mapping to know the total of tokens that have been delegated by each delegator\r\n    // delegator=>vault=>total amount delegated\r\n    mapping(address=>mapping(string=>uint256)) totalDelegated;\r\n\r\n    //keep track of the orignil owner adress of the nft vault\r\n    // original_owner => vault name => nft_id\r\n    mapping(address=>mapping(string=>uint256[])) public isOwner;\r\n\r\n    // vault name (WETH, WBTC, ...) mapped with the address of the associated mai-finance vault contract\r\n    mapping(string => address) public vaultAddress;\r\n\r\n    // token name (WETH, WBTC, ...) mapped with the address of their contract\r\n    mapping(string => address) public tokenAddress;\r\n\r\n    // ERC721 deposit \r\n    // VERIFIER QUE _VAULT CORRESPOND BIEN AU VAULT DU NFT \r\n\r\n    function erc721_deposit(string memory _vault, uint256 _erc721_Id, uint256 _maxAmountToBorrow) public payable { \r\n\r\n        // ATTENTION vrifier si le erc 721 est bien dfini comme un nft de mai finance => normalement c'est ok : on require auprs du vault que le owner du nft est bien notre contract\r\n        // check that the msg sender is the owner of the nft\r\n        (bool success, bytes memory data) = vaultAddress[_vault].delegatecall(abi.encodeWithSignature(\"ownerOf(uint256)\",_erc721_Id)); \r\n        address tempo = abi.decode(data, (address));\r\n        require(tempo==msg.sender, \"You must be the owner of the token\");\r\n\r\n        // Call safeTransferFrom in the vault contract\r\n        //vaultAddress[_vault].safeTransferFrom(msg.sender, address(this), _erc721_Id); // APPELER LA FCT AU NOM DU MSG.SENDER \r\n        (bool success1, bytes memory data1) = vaultAddress[_vault].delegatecall(abi.encodeWithSignature(\"Transfer(address, address, uint256)\", msg.sender, address(this), _erc721_Id)); \r\n\r\n        // check if our contract received the nft\r\n        (bool success2, bytes memory data2) = vaultAddress[_vault].delegatecall(abi.encodeWithSignature(\"ownerOf(uint256)\",_erc721_Id)); \r\n        address tempo1 = abi.decode(data2, (address));\r\n        require(tempo1==address(this), \"the ERC721 is not in our contract\");\r\n        // add the nft to the mapping isOwner\r\n        isOwner[msg.sender][_vault].push(_erc721_Id);\r\n    }\r\n    \r\n\r\n    function borrow_mai(string memory _vault, uint256 _erc721_Id, uint256 _maxAmountToBorrow) public payable{\r\n        erc721_deposit(_vault, _erc721_Id, _maxAmountToBorrow); \r\n            \r\n        \r\n        // try to borrow the max amount to borrow\r\n        //uint256 initialBalance = vaultAddress[_vault].balanceOf(address(this));\r\n        (bool success3, bytes memory data3) = vaultAddress[_vault].delegatecall(abi.encodeWithSignature(\"balanceOf(address)\", address(this))); \r\n        uint256 initialBalance = abi.decode(data3, (uint256));\r\n        // comment vrifier le montant max  emprunter ?\r\n\r\n\r\n        // borrow the amount from Qidao\r\n        uint256 _front = 0;\r\n        //vaultAddress[_vault].borrowToken(_erc721_Id, _maxAmountToBorrow, _front);\r\n        (bool success4, bytes memory data4) = vaultAddress[_vault].delegatecall(abi.encodeWithSignature(\"borrowToken(uint256,uint256,uint256)\",_erc721_Id,_maxAmountToBorrow,_front)); \r\n       \r\n        // check the amount of _vault in our contract\r\n        //uint256 finalBalance = vaultAddress[_vault].balanceOf(address(this));\r\n        (bool success5, bytes memory data5) = vaultAddress[_vault].delegatecall(abi.encodeWithSignature(\"balanceOf(address)\", address(this))); \r\n        uint256 finalBalance = abi.decode(data5, (uint256));\r\n\r\n        // check that the amount borrowed is equal or superior to the amount of _vault in our contract\r\n        //require(finalBalance-initialBalance>=_maxAmountToBorrow, \"The amount borrowed hasn't been received\");\r\n        // mappping to keep track of the amount borrowed by msg.sender\r\n        borrowedAmount[msg.sender][_vault] += _maxAmountToBorrow;\r\n        // emit event\r\n        emit BorrowedToMaiFinance(msg.sender, vaultAddress[_vault], _maxAmountToBorrow);\r\n    }\r\n\r\n    // ERC721 withdraw\r\n    // a priori, fees dduites automatiquement par mai finance\r\n    function erc721_withdraw_requirement(string memory _vault, uint256 _erc721_Id) public payable {\r\n        // check that the nft is in our contract\r\n        (bool success, bytes memory data) = vaultAddress[_vault].delegatecall(abi.encodeWithSignature(\"balanceOf(address)\", address(this))); \r\n        address owner = abi.decode(data, (address));  \r\n        require(owner==address(this), \"The ERC721 is not owned by our contract\");\r\n        // check that the msg sender is the owner of the nft\r\n        bool _isOwner = false;\r\n        for (uint i = 0; i < isOwner[msg.sender][_vault].length - 1; i++) {\r\n            if(isOwner[msg.sender][_vault][i] == _erc721_Id) {_isOwner = true; break;}            \r\n        }\r\n        require(_isOwner, \"You must be the owner of the token\");\r\n    }\r\n\r\n    function erc721_withdraw(string memory _vault, uint256 _erc721_Id) public payable{\r\n        \r\n        erc721_withdraw_requirement(_vault, _erc721_Id); \r\n        // check if some tokens have been delegated\r\n        require(borrowedAmount[msg.sender][_vault] - totalDelegated[msg.sender][_vault] >= 0, \"You cannot withdraw this token, you need to reduce the amount you have delegated first\");\r\n        // our contract repay the amount to the vault\r\n        uint256 _front = 0;\r\n        // ATTENTION, CA NE DEVRAIT MARCHER QUE SI L'UTILISATEUR N'A DEPOSE QUE 1 NFT PAR TYPE DE VAULT. SI ON VEUT FAIRE POUR TOUS LES CAS, IL FAUT CHANGER LE CALCUL DE AMOUNT\r\n        (bool success0, bytes memory data0) = vaultAddress[_vault].delegatecall(abi.encodeWithSignature(\"updateVaultDebt(uint256)\", _erc721_Id));\r\n        uint256 value_to_repay = abi.decode(data0, (uint256));\r\n        uint256 value_borrowed_in_this_vault = borrowedAmount[msg.sender][_vault] - totalDelegated[msg.sender][_vault] - value_to_repay; // pas sur de ca\r\n        //vaultAddress[_vault].payBackToken(_erc721_Id, value_borrowed_in_this_vault, _front);\r\n        (bool success1, bytes memory data1) = vaultAddress[_vault].delegatecall(abi.encodeWithSignature(\"payBackToken(uint256,uint256,uint256)\", _erc721_Id,value_borrowed_in_this_vault, _front )); \r\n        // update user's dept\r\n        borrowedAmount[msg.sender][_vault] -= value_borrowed_in_this_vault;\r\n        // Call safeTransferFrom in the vault contract\r\n        //vaultAddress[_vault].safeTransferFrom(address(this), msg.sender, _erc721_Id); // ????? fonctionne ?????\r\n        (bool success2, bytes memory data2) = vaultAddress[_vault].delegatecall(abi.encodeWithSignature(\"Transfer(address, address, uint256)\", address(this),msg.sender, _erc721_Id)); \r\n\r\n        // remove the nft from the mapping isOwner\r\n        delete isOwner[msg.sender][_vault][_erc721_Id];\r\n        // check if tokens have been removed from the mapping\r\n        bool _isInMapping = false;\r\n        for (uint i = 0; i < isOwner[msg.sender][_vault].length - 1; i++) {\r\n            if(isOwner[msg.sender][_vault][i] == _erc721_Id) {_isInMapping = true; break;}            \r\n        }\r\n        require(!_isInMapping, \"the ERC721 is still in the mapping isOwner\");\r\n        // emit event\r\n        emit WithdrawERC721(msg.sender, vaultAddress[_vault], _erc721_Id);\r\n    }\r\n\r\n    function approveDelegation(address _borrower, uint _amount, string memory _vault) public {\r\n        \r\n        // security check\r\n        require(delegationCapacity(msg.sender, _vault)-_amount>=0, \"the amount delegated is superior to the amount authorized\");\r\n        require(_borrower!=address(0), \"borrower can't be address(0)\");\r\n        require(_borrower!=msg.sender, \"borrower must be different that owner\");\r\n        require(_amount>0, \"amount borrowed must be superior to 0\");\r\n        require(vaultAddress[_vault] != 0x0000000000000000000000000000000000000000, \"the vault doesn't exist\"); // demander  nandy si ca marche \r\n        require(_amount-borrowed[msg.sender][_borrower][_vault]>=0, \"The borrower has already borrowed more than the new authorized amount\");\r\n        // update the mapping with the amount authorized \r\n        if(hasDelegated[msg.sender][_borrower][_vault] <= _amount){\r\n            totalDelegated[msg.sender][_vault] += (_amount-hasDelegated[msg.sender][_borrower][_vault]);\r\n        }\r\n        else{\r\n            totalDelegated[msg.sender][_vault] += (hasDelegated[msg.sender][_borrower][_vault]-_amount);\r\n        }\r\n        hasDelegated[msg.sender][_borrower][_vault] = _amount;       \r\n\r\n        emit Approved(msg.sender, _borrower, _amount, vaultAddress[_vault]);\r\n\r\n    }\r\n\r\n    // function to call for the borrower to get the fund \r\n    function borrow(uint _amount, address _delegator, string memory _vault) public payable {\r\n        //check that the amount borrow is not superior to the amount delegated \r\n        require(_amount!=0, \"Can't borrow 0 token\"); \r\n        require(_amount<= hasDelegated[_delegator][msg.sender][_vault]-borrowed[_delegator][msg.sender][_vault], \"Borrow an amount superior to the amount delegated\");\r\n\r\n        //delegatecall the fonction on the mini matic contract to send the \r\n        //maiEth.transferFrom(address(this),msg.sender,_amount); \r\n        (bool success, bytes memory data) = maiEth.delegatecall(abi.encodeWithSignature(\"TransferFrom(address, address, uint256)\", address(this), msg.sender, _amount)); \r\n        //+= to prevent someone calling the contract with a small amount to change his debt \r\n        borrowed[_delegator][msg.sender][_vault] += _amount; \r\n        totalBorrowed[_delegator][_vault] += _amount;\r\n        require(borrowed[_delegator][msg.sender][_vault]-totalBorrowed[_delegator][_vault]>=0, \"Je ne sais pas quoi mettre comme erreur\");\r\n        emit Borrowed(_amount, _delegator, vaultAddress[_vault]);\r\n    }    \r\n\r\n    // function to allow the borrower to repay his debt \r\n    function repayToOurContract(uint _amount, address _delegator, string memory _vault) public payable {\r\n        require(_amount!=0, \"Can't repay 0 token\"); \r\n        //check that the amount borrow is not superior to the amount delegated \r\n        require(_amount <= borrowed[_delegator][msg.sender][_vault], \"Repay an amount superior to the amount borrowed\");\r\n        \r\n        // check that the borrower has enough token to repay\r\n        //require(maiEth.balanceOf(msg.sender)>=_amount, \"You don't have enough Mai to repay this amount\");\r\n        (bool success, bytes memory data) = maiEth.delegatecall(abi.encodeWithSignature(\"balanceOf(address)\", msg.sender)); \r\n        uint256 balance = abi.decode(data, (uint256)); \r\n        require(balance>= _amount, \"You don't have enoughg Mai to repay this amount\"); \r\n\r\n        // check the vault exist\r\n        require(vaultAddress[_vault] != 0x0000000000000000000000000000000000000000, \"the vault doesn't exist\"); \r\n\r\n        // Save the amount of Mai in our contract\r\n        //uint256 _initialAmount = maiEth.balanceOf(address(this));\r\n        (bool success1, bytes memory data1) = maiEth.delegatecall(abi.encodeWithSignature(\"balanceOf(address)\", address(this))); \r\n        uint256 _initialAmount = abi.decode(data1, (uint256)); \r\n\r\n        // Call the fonction on the mini matic contract to send the \r\n        //maiEth.transferFrom(msg.sender,address(this),_amount); // REQUIRE UN APPROVE AVANT NON ?\r\n        (bool success2, bytes memory data2) = maiEth.delegatecall(abi.encodeWithSignature(\"Transfer(address, address, uint256)\", msg.sender, address(this), _amount)); \r\n\r\n        //uint256 _finalAmount = maiEth.balanceOf(address(this));\r\n        (bool success3, bytes memory data3) = maiEth.delegatecall(abi.encodeWithSignature(\"balanceOf(address)\", address(this))); \r\n        uint256 _finalAmount = abi.decode(data3, (uint256)); \r\n        require(_finalAmount - _initialAmount >= _amount, \"The amount of Mai sent is not the same as the amount of Mai received\");\r\n        // Edit the mapping borrowedAmount\r\n        borrowed[_delegator][msg.sender][_vault] =borrowed[_delegator][msg.sender][_vault] - _amount; \r\n        totalBorrowed[_delegator][_vault] = totalBorrowed[_delegator][_vault] - _amount;\r\n        emit RepaidToOurContract(_amount, _delegator, vaultAddress[_vault]);\r\n    }\r\n\r\n\r\n\r\n    // // repay to mai finance to deposit collateral => DOIT RENVOYER SUR MAI FINANCE LES TOKENS DE MSG.SENDER, PAS CEUX DU CONTRACT\r\n    // // ATTENTION, COMMENT ON GERE LES TOKENS QUI ON ETE EMPRUNTES PAR NOTRE CONTRAT MAIS REMBOURSES PAR QUELQU'UN ?\r\n    // function addCollateralToMaiFinance(uint _amount, uint _tokenid, string memory _vault) public{\r\n    //     vaultAddress[_vault].depositCollateral(_tokenid,_amount); \r\n    //     emit PayToMayFinance(_amount, _tokenid, vaultAddress[_vault],false);\r\n    // }\r\n\r\n    // allow the owner of the _tokenId to add collateral to mai finance from the amount borrowed by our contract\r\n    function addCollateralToMaiFinanceFromOurContract(uint _amount, uint _tokenid, string memory _vault) public payable{\r\n        // check if msg.sender is the owner of _tokenid      \r\n        \r\n        require(isOwnedBy(_tokenid, _vault), \"You are not the owner of this token\");\r\n        // correspond to the vault of the token\r\n        require(vaultAddress[_vault] != 0x0000000000000000000000000000000000000000, \"the vault doesn't exist\");\r\n        // check if the amount is not superior to the available amount \r\n        require(_amount<=totalDelegated[msg.sender][_vault]-totalBorrowed[msg.sender][_vault] , \"The amount is superior to the amount borrowed\");\r\n        // check if the amount is not superior to the amount borrowed by our contract\r\n        require(_amount<=borrowedAmount[msg.sender][_vault], \"The amount is superior to the amount borrowed by our contract\");\r\n\r\n        // Call the function on the vault contract to deposit the collateral\r\n        (bool success, bytes memory data) = vaultAddress[_vault].delegatecall(abi.encodeWithSignature(\"depositCollateral(uint256, uint256)\", _tokenid, _amount));\r\n        // edit the mapping borrowedAmount\r\n        borrowedAmount[msg.sender][_vault] -= _amount;\r\n        emit PayToMayFinance(_amount, _tokenid, vaultAddress[_vault],true);\r\n    }\r\n\r\n    // admin functions\r\n\r\n    function addAdmin(address _admin) public {\r\n        require(admin[msg.sender], \"You are not an admin\");\r\n        admin[_admin] = true;\r\n    }\r\n\r\n    // edit the address of the qi DAO vault contract associated with _tokenName\r\n    function edit_vaultAdress(string memory _tokenName, address _vault) public {\r\n        require(admin[msg.sender], \"You are not an admin\");\r\n        vaultAddress[_tokenName] = _vault;\r\n    }\r\n\r\n\r\n    // view functions\r\n    function getDepositedValue(address _delegator, string memory _token) public view returns(uint256) {\r\n        require(tokenAddress[_token] != 0x0000000000000000000000000000000000000000, \"Unknown token\");\r\n        return borrowedAmount[_delegator][_token];\r\n    }\r\n\r\n    function isAdmin(address _admin) public view returns(bool) {\r\n        return admin[_admin];\r\n    }\r\n\r\n\r\n    // view function to get the token id of an address\r\n    // user=> adress that we want to see\r\n    //_vault=> name of the vault (WETH, WBTC)\r\n    function getTokenIdByVault(address user, string calldata _vault) external view returns(uint256 [] memory){\r\n        return isOwner[user][_vault]; \r\n    }\r\n\r\n    // view function to get the amount of token borrowed by an address\r\n    function getBorrowedAmount(address _borrower, address _delegator, string calldata _vault) external view returns(uint256){\r\n        return hasDelegated[_delegator][_borrower][_vault]; \r\n    }\r\n\r\n    // view function to know how many token an address can borrow from a delegator\r\n    function getMaxBorrowingAmount(address _borrower, address _delegator, string calldata _vault) external view returns(uint256){\r\n        return borrowed[_delegator][_borrower][_vault]; \r\n    }\r\n\r\n    // how many token can I borrow with 1 delegator\r\n    function borrowableAmount(address _borrower, address _delegator, string calldata _vault) external view returns(uint256){\r\n        return hasDelegated[_delegator][_borrower][_vault] - borrowed[_delegator][_borrower][_vault]; \r\n    }\r\n\r\n    // how many token can I delegate\r\n    function maxDelegationCapacity(address _delegator, string memory _vault) public view returns(uint256){\r\n        return borrowedAmount[_delegator][_vault];\r\n    }\r\n\r\n    // how many token that can be delegated\r\n    function delegationCapacity(address _delegator, string memory _vault) public view returns(uint256){\r\n        return borrowedAmount[_delegator][_vault] - totalBorrowed[_delegator][_vault];\r\n    }\r\n\r\n    function getVaultAddress(string memory _vault) public view returns(address){\r\n        return vaultAddress[_vault];\r\n    }\r\n\r\n    // get the total borrowed amount of a delegator\r\n    function getBorrowedAmount(address _delegator, string memory _vault) public view returns(uint256){\r\n        return totalBorrowed[_delegator][_vault];\r\n    }\r\n\r\n    // get the total of tokens that have been borrowed from _delegator\r\n    function getTotalBorrowed(address _delegator, string memory _vault) public view returns(uint256){\r\n        return totalBorrowed[_delegator][_vault];\r\n    }\r\n\r\n    // is an address the owner of _tokenId ?\r\n    function isOwnedBy(uint256 _tokenId, string memory _vault) public view returns(bool){\r\n        bool owner = false;\r\n        for (uint i = 0; i < isOwner[msg.sender][_vault].length - 1; i++) {\r\n            if(isOwner[msg.sender][_vault][i] == _tokenId){\r\n                owner = true;\r\n                break;\r\n            }\r\n        }\r\n        return owner;\r\n    }\r\n\r\n    // faire une fonction qui te donne toutes les addresses auprs desquelles on a des crances ?\r\n    // Permettre d'emprunter au nom de 1 delegateur  la fois ou est ce qu'e si tom et lea me prettent chacun 10 BTC je peux faire 1 seul emprunt de 20 BTC ?\r\n}",
  "sourcePath": "C:\\Users\\hervi\\Documents\\Cours ESILV\\KS-PI2\\mai-finance\\contract\\contracts\\contract.sol",
  "compiler": {
    "name": "solc",
    "version": "0.7.0+commit.9e61f92b.Emscripten.clang"
  },
  "schemaVersion": "3.4.11",
  "updatedAt": "2023-01-11T21:11:27.351Z",
  "devdoc": {
    "kind": "dev",
    "methods": {},
    "version": 1
  },
  "userdoc": {
    "kind": "user",
    "methods": {},
    "version": 1
  }
}