{
  "contractName": "delegate",
  "abi": [
    {
      "inputs": [],
      "stateMutability": "nonpayable",
      "type": "constructor"
    },
    {
      "inputs": [],
      "name": "Unauthorized",
      "type": "error"
    },
    {
      "anonymous": false,
      "inputs": [
        {
          "indexed": true,
          "internalType": "address",
          "name": "owner",
          "type": "address"
        },
        {
          "indexed": true,
          "internalType": "address",
          "name": "borrower",
          "type": "address"
        },
        {
          "indexed": false,
          "internalType": "uint256",
          "name": "amount",
          "type": "uint256"
        },
        {
          "indexed": false,
          "internalType": "address",
          "name": "vault",
          "type": "address"
        }
      ],
      "name": "Approved",
      "type": "event"
    },
    {
      "anonymous": false,
      "inputs": [
        {
          "indexed": false,
          "internalType": "uint256",
          "name": "amount",
          "type": "uint256"
        },
        {
          "indexed": false,
          "internalType": "address",
          "name": "delagator",
          "type": "address"
        },
        {
          "indexed": false,
          "internalType": "address",
          "name": "vault",
          "type": "address"
        }
      ],
      "name": "Borrowed",
      "type": "event"
    },
    {
      "anonymous": false,
      "inputs": [
        {
          "indexed": true,
          "internalType": "address",
          "name": "depositor",
          "type": "address"
        },
        {
          "indexed": false,
          "internalType": "address",
          "name": "vault",
          "type": "address"
        },
        {
          "indexed": false,
          "internalType": "uint256",
          "name": "amount",
          "type": "uint256"
        }
      ],
      "name": "BorrowedToMaiFinance",
      "type": "event"
    },
    {
      "anonymous": false,
      "inputs": [
        {
          "indexed": false,
          "internalType": "uint256",
          "name": "amount",
          "type": "uint256"
        },
        {
          "indexed": false,
          "internalType": "uint256",
          "name": "tokenid",
          "type": "uint256"
        },
        {
          "indexed": false,
          "internalType": "address",
          "name": "vault",
          "type": "address"
        },
        {
          "indexed": false,
          "internalType": "bool",
          "name": "fromOurContract",
          "type": "bool"
        }
      ],
      "name": "PayToMayFinance",
      "type": "event"
    },
    {
      "anonymous": false,
      "inputs": [
        {
          "indexed": false,
          "internalType": "uint256",
          "name": "amount",
          "type": "uint256"
        },
        {
          "indexed": false,
          "internalType": "address",
          "name": "borrower",
          "type": "address"
        },
        {
          "indexed": false,
          "internalType": "address",
          "name": "vault",
          "type": "address"
        }
      ],
      "name": "RepaidToOurContract",
      "type": "event"
    },
    {
      "anonymous": false,
      "inputs": [
        {
          "indexed": false,
          "internalType": "address",
          "name": "withdrawer",
          "type": "address"
        },
        {
          "indexed": false,
          "internalType": "address",
          "name": "vault",
          "type": "address"
        },
        {
          "indexed": false,
          "internalType": "uint256",
          "name": "tokenID",
          "type": "uint256"
        }
      ],
      "name": "WithdrawERC721",
      "type": "event"
    },
    {
      "inputs": [
        {
          "internalType": "address",
          "name": "",
          "type": "address"
        },
        {
          "internalType": "address",
          "name": "",
          "type": "address"
        },
        {
          "internalType": "string",
          "name": "",
          "type": "string"
        }
      ],
      "name": "borrowed",
      "outputs": [
        {
          "internalType": "uint256",
          "name": "",
          "type": "uint256"
        }
      ],
      "stateMutability": "view",
      "type": "function"
    },
    {
      "inputs": [
        {
          "internalType": "address",
          "name": "",
          "type": "address"
        },
        {
          "internalType": "string",
          "name": "",
          "type": "string"
        }
      ],
      "name": "borrowedAmount",
      "outputs": [
        {
          "internalType": "uint256",
          "name": "",
          "type": "uint256"
        }
      ],
      "stateMutability": "view",
      "type": "function"
    },
    {
      "inputs": [
        {
          "internalType": "address",
          "name": "",
          "type": "address"
        },
        {
          "internalType": "address",
          "name": "",
          "type": "address"
        },
        {
          "internalType": "string",
          "name": "",
          "type": "string"
        }
      ],
      "name": "hasDelegated",
      "outputs": [
        {
          "internalType": "uint256",
          "name": "",
          "type": "uint256"
        }
      ],
      "stateMutability": "view",
      "type": "function"
    },
    {
      "inputs": [
        {
          "internalType": "address",
          "name": "",
          "type": "address"
        },
        {
          "internalType": "string",
          "name": "",
          "type": "string"
        },
        {
          "internalType": "uint256",
          "name": "",
          "type": "uint256"
        }
      ],
      "name": "isOwner",
      "outputs": [
        {
          "internalType": "uint256",
          "name": "",
          "type": "uint256"
        }
      ],
      "stateMutability": "view",
      "type": "function"
    },
    {
      "inputs": [
        {
          "internalType": "string",
          "name": "",
          "type": "string"
        }
      ],
      "name": "tokenAddress",
      "outputs": [
        {
          "internalType": "address",
          "name": "",
          "type": "address"
        }
      ],
      "stateMutability": "view",
      "type": "function"
    },
    {
      "inputs": [
        {
          "internalType": "address",
          "name": "",
          "type": "address"
        },
        {
          "internalType": "string",
          "name": "",
          "type": "string"
        }
      ],
      "name": "totalBorrowed",
      "outputs": [
        {
          "internalType": "uint256",
          "name": "",
          "type": "uint256"
        }
      ],
      "stateMutability": "view",
      "type": "function"
    },
    {
      "inputs": [
        {
          "internalType": "string",
          "name": "",
          "type": "string"
        }
      ],
      "name": "vaultAddress",
      "outputs": [
        {
          "internalType": "address",
          "name": "",
          "type": "address"
        }
      ],
      "stateMutability": "view",
      "type": "function"
    },
    {
      "inputs": [],
      "name": "init",
      "outputs": [],
      "stateMutability": "nonpayable",
      "type": "function"
    },
    {
      "inputs": [
        {
          "internalType": "string",
          "name": "_vault",
          "type": "string"
        },
        {
          "internalType": "uint256",
          "name": "_erc721_Id",
          "type": "uint256"
        }
      ],
      "name": "erc721_deposit",
      "outputs": [],
      "stateMutability": "payable",
      "type": "function"
    },
    {
      "inputs": [
        {
          "internalType": "string",
          "name": "_vault",
          "type": "string"
        },
        {
          "internalType": "uint256",
          "name": "_erc721_Id",
          "type": "uint256"
        },
        {
          "internalType": "uint256",
          "name": "_maxAmountToBorrow",
          "type": "uint256"
        }
      ],
      "name": "contractBorrowMai",
      "outputs": [],
      "stateMutability": "payable",
      "type": "function"
    },
    {
      "inputs": [
        {
          "internalType": "string",
          "name": "_vault",
          "type": "string"
        },
        {
          "internalType": "uint256",
          "name": "_erc721_Id",
          "type": "uint256"
        }
      ],
      "name": "erc721_withdraw_requirement",
      "outputs": [],
      "stateMutability": "payable",
      "type": "function"
    },
    {
      "inputs": [
        {
          "internalType": "string",
          "name": "_vault",
          "type": "string"
        },
        {
          "internalType": "uint256",
          "name": "_erc721_Id",
          "type": "uint256"
        }
      ],
      "name": "erc721_withdraw",
      "outputs": [],
      "stateMutability": "payable",
      "type": "function"
    },
    {
      "inputs": [
        {
          "internalType": "address",
          "name": "_borrower",
          "type": "address"
        },
        {
          "internalType": "uint256",
          "name": "_amount",
          "type": "uint256"
        },
        {
          "internalType": "string",
          "name": "_vault",
          "type": "string"
        }
      ],
      "name": "approveDelegation",
      "outputs": [],
      "stateMutability": "nonpayable",
      "type": "function"
    },
    {
      "inputs": [
        {
          "internalType": "uint256",
          "name": "_amount",
          "type": "uint256"
        },
        {
          "internalType": "address",
          "name": "_delegator",
          "type": "address"
        },
        {
          "internalType": "string",
          "name": "_vault",
          "type": "string"
        }
      ],
      "name": "userBorrowMai",
      "outputs": [],
      "stateMutability": "payable",
      "type": "function"
    },
    {
      "inputs": [
        {
          "internalType": "uint256",
          "name": "_amount",
          "type": "uint256"
        },
        {
          "internalType": "address",
          "name": "_delegator",
          "type": "address"
        },
        {
          "internalType": "string",
          "name": "_vault",
          "type": "string"
        }
      ],
      "name": "repayToOurContract",
      "outputs": [],
      "stateMutability": "payable",
      "type": "function"
    },
    {
      "inputs": [
        {
          "internalType": "uint256",
          "name": "_amount",
          "type": "uint256"
        },
        {
          "internalType": "uint256",
          "name": "_tokenid",
          "type": "uint256"
        },
        {
          "internalType": "string",
          "name": "_vault",
          "type": "string"
        }
      ],
      "name": "addCollateralToMaiFinanceFromOurContract",
      "outputs": [],
      "stateMutability": "payable",
      "type": "function"
    },
    {
      "inputs": [
        {
          "internalType": "address",
          "name": "_admin",
          "type": "address"
        }
      ],
      "name": "addAdmin",
      "outputs": [],
      "stateMutability": "nonpayable",
      "type": "function"
    },
    {
      "inputs": [
        {
          "internalType": "string",
          "name": "_tokenName",
          "type": "string"
        },
        {
          "internalType": "address",
          "name": "_vault",
          "type": "address"
        }
      ],
      "name": "edit_vaultAdress",
      "outputs": [],
      "stateMutability": "nonpayable",
      "type": "function"
    },
    {
      "inputs": [
        {
          "internalType": "address",
          "name": "_delegator",
          "type": "address"
        },
        {
          "internalType": "string",
          "name": "_token",
          "type": "string"
        }
      ],
      "name": "getDepositedValue",
      "outputs": [
        {
          "internalType": "uint256",
          "name": "",
          "type": "uint256"
        }
      ],
      "stateMutability": "view",
      "type": "function"
    },
    {
      "inputs": [
        {
          "internalType": "address",
          "name": "_admin",
          "type": "address"
        }
      ],
      "name": "isAdmin",
      "outputs": [
        {
          "internalType": "bool",
          "name": "",
          "type": "bool"
        }
      ],
      "stateMutability": "view",
      "type": "function"
    },
    {
      "inputs": [
        {
          "internalType": "address",
          "name": "user",
          "type": "address"
        },
        {
          "internalType": "string",
          "name": "_vault",
          "type": "string"
        }
      ],
      "name": "getTokenIdByVault",
      "outputs": [
        {
          "internalType": "uint256[]",
          "name": "",
          "type": "uint256[]"
        }
      ],
      "stateMutability": "view",
      "type": "function"
    },
    {
      "inputs": [
        {
          "internalType": "address",
          "name": "_borrower",
          "type": "address"
        },
        {
          "internalType": "address",
          "name": "_delegator",
          "type": "address"
        },
        {
          "internalType": "string",
          "name": "_vault",
          "type": "string"
        }
      ],
      "name": "getMaxBorrowingAmount",
      "outputs": [
        {
          "internalType": "uint256",
          "name": "",
          "type": "uint256"
        }
      ],
      "stateMutability": "view",
      "type": "function"
    },
    {
      "inputs": [
        {
          "internalType": "address",
          "name": "_borrower",
          "type": "address"
        },
        {
          "internalType": "address",
          "name": "_delegator",
          "type": "address"
        },
        {
          "internalType": "string",
          "name": "_vault",
          "type": "string"
        }
      ],
      "name": "borrowableAmount",
      "outputs": [
        {
          "internalType": "uint256",
          "name": "",
          "type": "uint256"
        }
      ],
      "stateMutability": "view",
      "type": "function"
    },
    {
      "inputs": [
        {
          "internalType": "address",
          "name": "_delegator",
          "type": "address"
        },
        {
          "internalType": "string",
          "name": "_vault",
          "type": "string"
        }
      ],
      "name": "maxDelegationCapacity",
      "outputs": [
        {
          "internalType": "uint256",
          "name": "",
          "type": "uint256"
        }
      ],
      "stateMutability": "view",
      "type": "function"
    },
    {
      "inputs": [
        {
          "internalType": "address",
          "name": "_delegator",
          "type": "address"
        },
        {
          "internalType": "string",
          "name": "_vault",
          "type": "string"
        }
      ],
      "name": "delegationCapacity",
      "outputs": [
        {
          "internalType": "uint256",
          "name": "",
          "type": "uint256"
        }
      ],
      "stateMutability": "view",
      "type": "function"
    },
    {
      "inputs": [
        {
          "internalType": "string",
          "name": "_vault",
          "type": "string"
        }
      ],
      "name": "getVaultAddress",
      "outputs": [
        {
          "internalType": "address",
          "name": "",
          "type": "address"
        }
      ],
      "stateMutability": "view",
      "type": "function"
    },
    {
      "inputs": [
        {
          "internalType": "address",
          "name": "_delegator",
          "type": "address"
        },
        {
          "internalType": "string",
          "name": "_vault",
          "type": "string"
        }
      ],
      "name": "getBorrowedAmount",
      "outputs": [
        {
          "internalType": "uint256",
          "name": "",
          "type": "uint256"
        }
      ],
      "stateMutability": "view",
      "type": "function"
    },
    {
      "inputs": [
        {
          "internalType": "address",
          "name": "_borrower",
          "type": "address"
        },
        {
          "internalType": "address",
          "name": "_delegator",
          "type": "address"
        },
        {
          "internalType": "string",
          "name": "_vault",
          "type": "string"
        }
      ],
      "name": "getBorrowedAmount",
      "outputs": [
        {
          "internalType": "uint256",
          "name": "",
          "type": "uint256"
        }
      ],
      "stateMutability": "view",
      "type": "function"
    },
    {
      "inputs": [
        {
          "internalType": "address",
          "name": "_delegator",
          "type": "address"
        },
        {
          "internalType": "string",
          "name": "_vault",
          "type": "string"
        }
      ],
      "name": "getTotalBorrowed",
      "outputs": [
        {
          "internalType": "uint256",
          "name": "",
          "type": "uint256"
        }
      ],
      "stateMutability": "view",
      "type": "function"
    },
    {
      "inputs": [
        {
          "internalType": "uint256",
          "name": "_tokenId",
          "type": "uint256"
        },
        {
          "internalType": "string",
          "name": "_vault",
          "type": "string"
        }
      ],
      "name": "isOwnedBy",
      "outputs": [
        {
          "internalType": "bool",
          "name": "",
          "type": "bool"
        }
      ],
      "stateMutability": "view",
      "type": "function"
    }
  ],
  "bytecode": "0x6080604052738d6cebd76f18e1558d4db88138e2defb3909fad6600160006101000a81548173ffffffffffffffffffffffffffffffffffffffff021916908373ffffffffffffffffffffffffffffffffffffffff1602179055503480156200006657600080fd5b50620000776200007d60201b60201c565b62000310565b6001600080739198aef8f3019f064d0826eb9e07fb07a3d3a4bd73ffffffffffffffffffffffffffffffffffffffff1673ffffffffffffffffffffffffffffffffffffffff16815260200190815260200160002060006101000a81548160ff0219169083151502179055506001600080739522f29a27caf4b82c1f22d21ead2e081a68a89973ffffffffffffffffffffffffffffffffffffffff1673ffffffffffffffffffffffffffffffffffffffff16815260200190815260200160002060006101000a81548160ff0219169083151502179055507398eb27e5f24fb83b7d129d789665b08c258b4ccf6008604051620001789062000285565b908152602001604051809103902060006101000a81548173ffffffffffffffffffffffffffffffffffffffff021916908373ffffffffffffffffffffffffffffffffffffffff160217905550738c45969ad19d297c9b85763e90d0344c6e2ac9d16008604051620001e9906200029c565b908152602001604051809103902060006101000a81548173ffffffffffffffffffffffffffffffffffffffff021916908373ffffffffffffffffffffffffffffffffffffffff160217905550565b600062000246600483620002b3565b91506200025382620002be565b600482019050919050565b60006200026d600483620002b3565b91506200027a82620002e7565b600482019050919050565b6000620002928262000237565b9150819050919050565b6000620002a9826200025e565b9150819050919050565b600081905092915050565b7f5745544800000000000000000000000000000000000000000000000000000000600082015250565b7f5742544300000000000000000000000000000000000000000000000000000000600082015250565b615eda80620003206000396000f3fe6080604052600436106101cd5760003560e01c80636ea36a84116100f7578063a342617111610095578063e0f75d5d11610064578063e0f75d5d14610702578063e1c7392a1461073f578063e4a90dab14610756578063f56878be14610793576101cd565b8063a342617114610671578063b22a9e101461068d578063bf7a2d70146106ca578063c17cce6c146106e6576101cd565b806376bf9779116100d157806376bf97791461059e57806388221842146105db5780638b96fefb146106185780639b5970f214610655576101cd565b80636ea36a84146104fb5780636efd44e2146105385780637048027514610575576101cd565b80633106d9751161016f57806345a4dd821161013e57806345a4dd821461041b5780634efce2711461044457806359c4667f146104815780636e30199f146104be576101cd565b80633106d9751461034857806331e0ca171461038557806339098a23146103a15780633a24e90b146103de576101cd565b806324d7806c116101ab57806324d7806c146102895780632c012114146102c65780632cc2fc52146102e25780632e2342511461030b576101cd565b806304680d31146101d2578063189c44141461020f57806321902bc71461024c575b600080fd5b3480156101de57600080fd5b506101f960048036038101906101f49190614923565b6107af565b6040516102069190615481565b60405180910390f35b34801561021b57600080fd5b5061023660048036038101906102319190614923565b610815565b6040516102439190615481565b60405180910390f35b34801561025857600080fd5b50610273600480360381019061026e9190614864565b61087b565b6040516102809190615481565b60405180910390f35b34801561029557600080fd5b506102b060048036038101906102ab91906147a6565b6108c3565b6040516102bd9190615206565b60405180910390f35b6102e060048036038101906102db9190614bbe565b610918565b005b3480156102ee57600080fd5b50610309600480360381019061030491906149de565b6112b5565b005b34801561031757600080fd5b50610332600480360381019061032d91906148cb565b6119da565b60405161033f91906151e4565b60405180910390f35b34801561035457600080fd5b5061036f600480360381019061036a9190614a45565b611a91565b60405161037c9190615169565b60405180910390f35b61039f600480360381019061039a9190614c79565b611ad9565b005b3480156103ad57600080fd5b506103c860048036038101906103c39190614c25565b611f9e565b6040516103d59190615206565b60405180910390f35b3480156103ea57600080fd5b5061040560048036038101906104009190614923565b6120e6565b6040516104129190615481565b60405180910390f35b34801561042757600080fd5b50610442600480360381019061043d9190614a86565b6121b2565b005b34801561045057600080fd5b5061046b60048036038101906104669190614923565b61229e565b6040516104789190615481565b60405180910390f35b34801561048d57600080fd5b506104a860048036038101906104a39190614923565b6122d9565b6040516104b59190615481565b60405180910390f35b3480156104ca57600080fd5b506104e560048036038101906104e09190614a45565b6123ec565b6040516104f29190615169565b60405180910390f35b34801561050757600080fd5b50610522600480360381019061051d91906147f8565b612435565b60405161052f9190615481565b60405180910390f35b34801561054457600080fd5b5061055f600480360381019061055a91906147f8565b6124dc565b60405161056c9190615481565b60405180910390f35b34801561058157600080fd5b5061059c600480360381019061059791906147a6565b612628565b005b3480156105aa57600080fd5b506105c560048036038101906105c09190614923565b61270d565b6040516105d29190615481565b60405180910390f35b3480156105e757600080fd5b5061060260048036038101906105fd9190614a45565b612773565b60405161060f9190615169565b60405180910390f35b34801561062457600080fd5b5061063f600480360381019061063a9190614923565b6127bc565b60405161064c9190615481565b60405180910390f35b61066f600480360381019061066a9190614bbe565b6127f7565b005b61068b60048036038101906106869190614ada565b612da5565b005b34801561069957600080fd5b506106b460048036038101906106af91906147f8565b6132d2565b6040516106c19190615481565b60405180910390f35b6106e460048036038101906106df9190614ada565b613379565b005b61070060048036038101906106fb9190614ada565b613c2c565b005b34801561070e57600080fd5b5061072960048036038101906107249190614977565b613f5f565b6040516107369190615481565b60405180910390f35b34801561074b57600080fd5b50610754613fb3565b005b34801561076257600080fd5b5061077d60048036038101906107789190614864565b614169565b60405161078a9190615481565b60405180910390f35b6107ad60048036038101906107a89190614b2e565b6141b1565b005b6000600260008473ffffffffffffffffffffffffffffffffffffffff1673ffffffffffffffffffffffffffffffffffffffff168152602001908152602001600020826040516107fe9190615128565b908152602001604051809103902054905092915050565b6000600460008473ffffffffffffffffffffffffffffffffffffffff1673ffffffffffffffffffffffffffffffffffffffff168152602001908152602001600020826040516108649190615128565b908152602001604051809103902054905092915050565b60036020528260005260406000206020528160005260406000208180516020810182018051848252602083016020850120818352809550505050505060009250925050505481565b60008060008373ffffffffffffffffffffffffffffffffffffffff1673ffffffffffffffffffffffffffffffffffffffff16815260200190815260200160002060009054906101000a900460ff169050919050565b600083141561095c576040517f08c379a000000000000000000000000000000000000000000000000000000000815260040161095390615381565b60405180910390fd5b600360008373ffffffffffffffffffffffffffffffffffffffff1673ffffffffffffffffffffffffffffffffffffffff16815260200190815260200160002060003373ffffffffffffffffffffffffffffffffffffffff1673ffffffffffffffffffffffffffffffffffffffff168152602001908152602001600020816040516109e69190615128565b908152602001604051809103902054831115610a37576040517f08c379a0000000000000000000000000000000000000000000000000000000008152600401610a2e90615301565b60405180910390fd5b6000600160009054906101000a900473ffffffffffffffffffffffffffffffffffffffff1673ffffffffffffffffffffffffffffffffffffffff1633604051602401610a839190615169565b6040516020818303038152906040527f70a08231000000000000000000000000000000000000000000000000000000007bffffffffffffffffffffffffffffffffffffffffffffffffffffffff19166020820180517bffffffffffffffffffffffffffffffffffffffffffffffffffffffff8381831617835250505050604051610b0d91906150f8565b600060405180830381855af49150503d8060008114610b48576040519150601f19603f3d011682016040523d82523d6000602084013e610b4d565b606091505b50915050600081806020019051810190610b679190614b95565b905084811015610bac576040517f08c379a0000000000000000000000000000000000000000000000000000000008152600401610ba390615441565b60405180910390fd5b600073ffffffffffffffffffffffffffffffffffffffff16600884604051610bd49190615128565b908152602001604051809103902060009054906101000a900473ffffffffffffffffffffffffffffffffffffffff1673ffffffffffffffffffffffffffffffffffffffff161415610c5a576040517f08c379a0000000000000000000000000000000000000000000000000000000008152600401610c51906153c1565b60405180910390fd5b6000600160009054906101000a900473ffffffffffffffffffffffffffffffffffffffff1673ffffffffffffffffffffffffffffffffffffffff1630604051602401610ca69190615169565b6040516020818303038152906040527f70a08231000000000000000000000000000000000000000000000000000000007bffffffffffffffffffffffffffffffffffffffffffffffffffffffff19166020820180517bffffffffffffffffffffffffffffffffffffffffffffffffffffffff8381831617835250505050604051610d3091906150f8565b600060405180830381855af49150503d8060008114610d6b576040519150601f19603f3d011682016040523d82523d6000602084013e610d70565b606091505b50915050600081806020019051810190610d8a9190614b95565b90506000600160009054906101000a900473ffffffffffffffffffffffffffffffffffffffff1673ffffffffffffffffffffffffffffffffffffffff1633308a604051602401610ddc93929190615184565b6040516020818303038152906040527fe73f11a8000000000000000000000000000000000000000000000000000000007bffffffffffffffffffffffffffffffffffffffffffffffffffffffff19166020820180517bffffffffffffffffffffffffffffffffffffffffffffffffffffffff8381831617835250505050604051610e6691906150f8565b600060405180830381855af49150503d8060008114610ea1576040519150601f19603f3d011682016040523d82523d6000602084013e610ea6565b606091505b505090506000600160009054906101000a900473ffffffffffffffffffffffffffffffffffffffff1673ffffffffffffffffffffffffffffffffffffffff1630604051602401610ef69190615169565b6040516020818303038152906040527f70a08231000000000000000000000000000000000000000000000000000000007bffffffffffffffffffffffffffffffffffffffffffffffffffffffff19166020820180517bffffffffffffffffffffffffffffffffffffffffffffffffffffffff8381831617835250505050604051610f8091906150f8565b600060405180830381855af49150503d8060008114610fbb576040519150601f19603f3d011682016040523d82523d6000602084013e610fc0565b606091505b50915050600081806020019051810190610fda9190614b95565b9050898482610fe991906156c3565b101561102a576040517f08c379a0000000000000000000000000000000000000000000000000000000008152600401611021906153e1565b60405180910390fd5b89600360008b73ffffffffffffffffffffffffffffffffffffffff1673ffffffffffffffffffffffffffffffffffffffff16815260200190815260200160002060003373ffffffffffffffffffffffffffffffffffffffff1673ffffffffffffffffffffffffffffffffffffffff168152602001908152602001600020896040516110b59190615128565b9081526020016040518091039020546110ce91906156c3565b600360008b73ffffffffffffffffffffffffffffffffffffffff1673ffffffffffffffffffffffffffffffffffffffff16815260200190815260200160002060003373ffffffffffffffffffffffffffffffffffffffff1673ffffffffffffffffffffffffffffffffffffffff168152602001908152602001600020896040516111589190615128565b90815260200160405180910390208190555089600460008b73ffffffffffffffffffffffffffffffffffffffff1673ffffffffffffffffffffffffffffffffffffffff168152602001908152602001600020896040516111b89190615128565b9081526020016040518091039020546111d191906156c3565b600460008b73ffffffffffffffffffffffffffffffffffffffff1673ffffffffffffffffffffffffffffffffffffffff1681526020019081526020016000208960405161121e9190615128565b9081526020016040518091039020819055507f5df7ae058b5227cfb024fcf145f6c375dbba2cb33e66841c55053030742f6bca8a8a60088b6040516112639190615128565b908152602001604051809103902060009054906101000a900473ffffffffffffffffffffffffffffffffffffffff166040516112a1939291906154c5565b60405180910390a150505050505050505050565b6000826112c233846120e6565b6112cc91906156c3565b101561130d576040517f08c379a000000000000000000000000000000000000000000000000000000000815260040161130490615341565b60405180910390fd5b600073ffffffffffffffffffffffffffffffffffffffff168373ffffffffffffffffffffffffffffffffffffffff16141561137d576040517f08c379a000000000000000000000000000000000000000000000000000000000815260040161137490615221565b60405180910390fd5b3373ffffffffffffffffffffffffffffffffffffffff168373ffffffffffffffffffffffffffffffffffffffff1614156113ec576040517f08c379a00000000000000000000000000000000000000000000000000000000081526004016113e390615281565b60405180910390fd5b6000821161142f576040517f08c379a000000000000000000000000000000000000000000000000000000000815260040161142690615241565b60405180910390fd5b600073ffffffffffffffffffffffffffffffffffffffff166008826040516114579190615128565b908152602001604051809103902060009054906101000a900473ffffffffffffffffffffffffffffffffffffffff1673ffffffffffffffffffffffffffffffffffffffff1614156114dd576040517f08c379a00000000000000000000000000000000000000000000000000000000081526004016114d4906153c1565b60405180910390fd5b6000600360003373ffffffffffffffffffffffffffffffffffffffff1673ffffffffffffffffffffffffffffffffffffffff16815260200190815260200160002060008573ffffffffffffffffffffffffffffffffffffffff1673ffffffffffffffffffffffffffffffffffffffff168152602001908152602001600020826040516115699190615128565b9081526020016040518091039020548361158391906156c3565b10156115c4576040517f08c379a00000000000000000000000000000000000000000000000000000000081526004016115bb906153a1565b60405180910390fd5b81600560003373ffffffffffffffffffffffffffffffffffffffff1673ffffffffffffffffffffffffffffffffffffffff16815260200190815260200160002060008573ffffffffffffffffffffffffffffffffffffffff1673ffffffffffffffffffffffffffffffffffffffff1681526020019081526020016000208260405161164f9190615128565b9081526020016040518091039020541161177d57600560003373ffffffffffffffffffffffffffffffffffffffff1673ffffffffffffffffffffffffffffffffffffffff16815260200190815260200160002060008473ffffffffffffffffffffffffffffffffffffffff1673ffffffffffffffffffffffffffffffffffffffff168152602001908152602001600020816040516116ed9190615128565b9081526020016040518091039020548261170791906156c3565b600660003373ffffffffffffffffffffffffffffffffffffffff1673ffffffffffffffffffffffffffffffffffffffff168152602001908152602001600020826040516117549190615128565b90815260200160405180910390206000828254611771919061566d565b92505081905550611893565b81600560003373ffffffffffffffffffffffffffffffffffffffff1673ffffffffffffffffffffffffffffffffffffffff16815260200190815260200160002060008573ffffffffffffffffffffffffffffffffffffffff1673ffffffffffffffffffffffffffffffffffffffff168152602001908152602001600020826040516118089190615128565b90815260200160405180910390205461182191906156c3565b600660003373ffffffffffffffffffffffffffffffffffffffff1673ffffffffffffffffffffffffffffffffffffffff1681526020019081526020016000208260405161186e9190615128565b9081526020016040518091039020600082825461188b919061566d565b925050819055505b81600560003373ffffffffffffffffffffffffffffffffffffffff1673ffffffffffffffffffffffffffffffffffffffff16815260200190815260200160002060008573ffffffffffffffffffffffffffffffffffffffff1673ffffffffffffffffffffffffffffffffffffffff1681526020019081526020016000208260405161191e9190615128565b9081526020016040518091039020819055508273ffffffffffffffffffffffffffffffffffffffff163373ffffffffffffffffffffffffffffffffffffffff167fdc47705473b4a899de6e16a740ecc86f2a65dc7dbb9eadd0a06ce5421a44e230846008856040516119909190615128565b908152602001604051809103902060009054906101000a900473ffffffffffffffffffffffffffffffffffffffff166040516119cd92919061549c565b60405180910390a3505050565b6060600760008573ffffffffffffffffffffffffffffffffffffffff1673ffffffffffffffffffffffffffffffffffffffff1681526020019081526020016000208383604051611a2b92919061510f565b9081526020016040518091039020805480602002602001604051908101604052809291908181526020018280548015611a8357602002820191906000526020600020905b815481526020019060010190808311611a6f575b505050505090509392505050565b6000600882604051611aa39190615128565b908152602001604051809103902060009054906101000a900473ffffffffffffffffffffffffffffffffffffffff169050919050565b611ae38282611f9e565b611b22576040517f08c379a0000000000000000000000000000000000000000000000000000000008152600401611b1990615401565b60405180910390fd5b600073ffffffffffffffffffffffffffffffffffffffff16600882604051611b4a9190615128565b908152602001604051809103902060009054906101000a900473ffffffffffffffffffffffffffffffffffffffff1673ffffffffffffffffffffffffffffffffffffffff161415611bd0576040517f08c379a0000000000000000000000000000000000000000000000000000000008152600401611bc7906153c1565b60405180910390fd5b600460003373ffffffffffffffffffffffffffffffffffffffff1673ffffffffffffffffffffffffffffffffffffffff16815260200190815260200160002081604051611c1d9190615128565b908152602001604051809103902054600660003373ffffffffffffffffffffffffffffffffffffffff1673ffffffffffffffffffffffffffffffffffffffff16815260200190815260200160002082604051611c799190615128565b908152602001604051809103902054611c9291906156c3565b831115611cd4576040517f08c379a0000000000000000000000000000000000000000000000000000000008152600401611ccb90615421565b60405180910390fd5b600260003373ffffffffffffffffffffffffffffffffffffffff1673ffffffffffffffffffffffffffffffffffffffff16815260200190815260200160002081604051611d219190615128565b908152602001604051809103902054831115611d72576040517f08c379a0000000000000000000000000000000000000000000000000000000008152600401611d6990615321565b60405180910390fd5b6000600882604051611d849190615128565b908152602001604051809103902060009054906101000a900473ffffffffffffffffffffffffffffffffffffffff1673ffffffffffffffffffffffffffffffffffffffff168385604051602401611ddc9291906154fc565b6040516020818303038152906040527f1428d6db000000000000000000000000000000000000000000000000000000007bffffffffffffffffffffffffffffffffffffffffffffffffffffffff19166020820180517bffffffffffffffffffffffffffffffffffffffffffffffffffffffff8381831617835250505050604051611e6691906150f8565b600060405180830381855af49150503d8060008114611ea1576040519150601f19603f3d011682016040523d82523d6000602084013e611ea6565b606091505b5050905083600260003373ffffffffffffffffffffffffffffffffffffffff1673ffffffffffffffffffffffffffffffffffffffff16815260200190815260200160002083604051611ef89190615128565b90815260200160405180910390206000828254611f1591906156c3565b925050819055507fe77a7db92706d731a6876fb4bb28f03a91efb39fdabcdb3d9b13f7e155a7ea548484600885604051611f4f9190615128565b908152602001604051809103902060009054906101000a900473ffffffffffffffffffffffffffffffffffffffff166001604051611f909493929190615525565b60405180910390a150505050565b6000806000905060005b6001600760003373ffffffffffffffffffffffffffffffffffffffff1673ffffffffffffffffffffffffffffffffffffffff16815260200190815260200160002085604051611ff79190615128565b90815260200160405180910390208054905061201391906156c3565b8110156120db5784600760003373ffffffffffffffffffffffffffffffffffffffff1673ffffffffffffffffffffffffffffffffffffffff168152602001908152602001600020856040516120689190615128565b908152602001604051809103902082815481106120ae577f4e487b7100000000000000000000000000000000000000000000000000000000600052603260045260246000fd5b906000526020600020015414156120c857600191506120db565b80806120d3906157c4565b915050611fa8565b508091505092915050565b6000600460008473ffffffffffffffffffffffffffffffffffffffff1673ffffffffffffffffffffffffffffffffffffffff168152602001908152602001600020826040516121359190615128565b908152602001604051809103902054600260008573ffffffffffffffffffffffffffffffffffffffff1673ffffffffffffffffffffffffffffffffffffffff168152602001908152602001600020836040516121919190615128565b9081526020016040518091039020546121aa91906156c3565b905092915050565b6000803373ffffffffffffffffffffffffffffffffffffffff1673ffffffffffffffffffffffffffffffffffffffff16815260200190815260200160002060009054906101000a900460ff1661223d576040517f08c379a0000000000000000000000000000000000000000000000000000000008152600401612234906152c1565b60405180910390fd5b8060088360405161224e9190615128565b908152602001604051809103902060006101000a81548173ffffffffffffffffffffffffffffffffffffffff021916908373ffffffffffffffffffffffffffffffffffffffff1602179055505050565b600460205281600052604060002081805160208101820180518482526020830160208501208183528095505050505050600091509150505481565b60008073ffffffffffffffffffffffffffffffffffffffff166009836040516123029190615128565b908152602001604051809103902060009054906101000a900473ffffffffffffffffffffffffffffffffffffffff1673ffffffffffffffffffffffffffffffffffffffff161415612388576040517f08c379a000000000000000000000000000000000000000000000000000000000815260040161237f906152a1565b60405180910390fd5b600260008473ffffffffffffffffffffffffffffffffffffffff1673ffffffffffffffffffffffffffffffffffffffff168152602001908152602001600020826040516123d59190615128565b908152602001604051809103902054905092915050565b6009818051602081018201805184825260208301602085012081835280955050505050506000915054906101000a900473ffffffffffffffffffffffffffffffffffffffff1681565b6000600360008573ffffffffffffffffffffffffffffffffffffffff1673ffffffffffffffffffffffffffffffffffffffff16815260200190815260200160002060008673ffffffffffffffffffffffffffffffffffffffff1673ffffffffffffffffffffffffffffffffffffffff16815260200190815260200160002083836040516124c392919061510f565b9081526020016040518091039020549050949350505050565b6000600360008573ffffffffffffffffffffffffffffffffffffffff1673ffffffffffffffffffffffffffffffffffffffff16815260200190815260200160002060008673ffffffffffffffffffffffffffffffffffffffff1673ffffffffffffffffffffffffffffffffffffffff168152602001908152602001600020838360405161256a92919061510f565b908152602001604051809103902054600560008673ffffffffffffffffffffffffffffffffffffffff1673ffffffffffffffffffffffffffffffffffffffff16815260200190815260200160002060008773ffffffffffffffffffffffffffffffffffffffff1673ffffffffffffffffffffffffffffffffffffffff168152602001908152602001600020848460405161260592919061510f565b90815260200160405180910390205461261e91906156c3565b9050949350505050565b6000803373ffffffffffffffffffffffffffffffffffffffff1673ffffffffffffffffffffffffffffffffffffffff16815260200190815260200160002060009054906101000a900460ff166126b3576040517f08c379a00000000000000000000000000000000000000000000000000000000081526004016126aa906152c1565b60405180910390fd5b60016000808373ffffffffffffffffffffffffffffffffffffffff1673ffffffffffffffffffffffffffffffffffffffff16815260200190815260200160002060006101000a81548160ff02191690831515021790555050565b6000600460008473ffffffffffffffffffffffffffffffffffffffff1673ffffffffffffffffffffffffffffffffffffffff1681526020019081526020016000208260405161275c9190615128565b908152602001604051809103902054905092915050565b6008818051602081018201805184825260208301602085012081835280955050505050506000915054906101000a900473ffffffffffffffffffffffffffffffffffffffff1681565b600260205281600052604060002081805160208101820180518482526020830160208501208183528095505050505050600091509150505481565b60008314612831576040517f82b4290000000000000000000000000000000000000000000000000000000000815260040160405180910390fd5b600360008373ffffffffffffffffffffffffffffffffffffffff1673ffffffffffffffffffffffffffffffffffffffff16815260200190815260200160002060003373ffffffffffffffffffffffffffffffffffffffff1673ffffffffffffffffffffffffffffffffffffffff168152602001908152602001600020816040516128bb9190615128565b908152602001604051809103902054600560008473ffffffffffffffffffffffffffffffffffffffff1673ffffffffffffffffffffffffffffffffffffffff16815260200190815260200160002060003373ffffffffffffffffffffffffffffffffffffffff1673ffffffffffffffffffffffffffffffffffffffff168152602001908152602001600020826040516129549190615128565b90815260200160405180910390205461296d91906156c3565b83116129a5576040517f82b4290000000000000000000000000000000000000000000000000000000000815260040160405180910390fd5b6000600160009054906101000a900473ffffffffffffffffffffffffffffffffffffffff1673ffffffffffffffffffffffffffffffffffffffff163033866040516024016129f593929190615184565b6040516020818303038152906040527fefeb93ed000000000000000000000000000000000000000000000000000000007bffffffffffffffffffffffffffffffffffffffffffffffffffffffff19166020820180517bffffffffffffffffffffffffffffffffffffffffffffffffffffffff8381831617835250505050604051612a7f91906150f8565b600060405180830381855af49150503d8060008114612aba576040519150601f19603f3d011682016040523d82523d6000602084013e612abf565b606091505b5050905083600360008573ffffffffffffffffffffffffffffffffffffffff1673ffffffffffffffffffffffffffffffffffffffff16815260200190815260200160002060003373ffffffffffffffffffffffffffffffffffffffff1673ffffffffffffffffffffffffffffffffffffffff16815260200190815260200160002083604051612b4e9190615128565b90815260200160405180910390206000828254612b6b919061566d565b9250508190555083600460008573ffffffffffffffffffffffffffffffffffffffff1673ffffffffffffffffffffffffffffffffffffffff16815260200190815260200160002083604051612bc09190615128565b90815260200160405180910390206000828254612bdd919061566d565b925050819055506000600460008573ffffffffffffffffffffffffffffffffffffffff1673ffffffffffffffffffffffffffffffffffffffff16815260200190815260200160002083604051612c339190615128565b908152602001604051809103902054600360008673ffffffffffffffffffffffffffffffffffffffff1673ffffffffffffffffffffffffffffffffffffffff16815260200190815260200160002060003373ffffffffffffffffffffffffffffffffffffffff1673ffffffffffffffffffffffffffffffffffffffff16815260200190815260200160002084604051612ccc9190615128565b908152602001604051809103902054612ce591906156c3565b1015612d26576040517f08c379a0000000000000000000000000000000000000000000000000000000008152600401612d1d90615461565b60405180910390fd5b7f63fa013c62e47bf603a91922f56b1bde2dbae90cb9c0c7d48e6409b82a86e92a8484600885604051612d599190615128565b908152602001604051809103902060009054906101000a900473ffffffffffffffffffffffffffffffffffffffff16604051612d97939291906154c5565b60405180910390a150505050565b6000600883604051612db79190615128565b908152602001604051809103902060009054906101000a900473ffffffffffffffffffffffffffffffffffffffff1673ffffffffffffffffffffffffffffffffffffffff1682604051602401612e0d9190615481565b6040516020818303038152906040527f6352211e000000000000000000000000000000000000000000000000000000007bffffffffffffffffffffffffffffffffffffffffffffffffffffffff19166020820180517bffffffffffffffffffffffffffffffffffffffffffffffffffffffff8381831617835250505050604051612e9791906150f8565b600060405180830381855af49150503d8060008114612ed2576040519150601f19603f3d011682016040523d82523d6000602084013e612ed7565b606091505b50915050600081806020019051810190612ef191906147cf565b90503373ffffffffffffffffffffffffffffffffffffffff168173ffffffffffffffffffffffffffffffffffffffff161415612f59576040517f82b4290000000000000000000000000000000000000000000000000000000000815260040160405180910390fd5b6000600885604051612f6b9190615128565b908152602001604051809103902060009054906101000a900473ffffffffffffffffffffffffffffffffffffffff1673ffffffffffffffffffffffffffffffffffffffff16333086604051602401612fc593929190615184565b6040516020818303038152906040527fe73f11a8000000000000000000000000000000000000000000000000000000007bffffffffffffffffffffffffffffffffffffffffffffffffffffffff19166020820180517bffffffffffffffffffffffffffffffffffffffffffffffffffffffff838183161783525050505060405161304f91906150f8565b600060405180830381855af49150503d806000811461308a576040519150601f19603f3d011682016040523d82523d6000602084013e61308f565b606091505b5050905060006008866040516130a59190615128565b908152602001604051809103902060009054906101000a900473ffffffffffffffffffffffffffffffffffffffff1673ffffffffffffffffffffffffffffffffffffffff16856040516024016130fb9190615481565b6040516020818303038152906040527f6352211e000000000000000000000000000000000000000000000000000000007bffffffffffffffffffffffffffffffffffffffffffffffffffffffff19166020820180517bffffffffffffffffffffffffffffffffffffffffffffffffffffffff838183161783525050505060405161318591906150f8565b600060405180830381855af49150503d80600081146131c0576040519150601f19603f3d011682016040523d82523d6000602084013e6131c5565b606091505b509150506000818060200190518101906131df91906147cf565b90503073ffffffffffffffffffffffffffffffffffffffff168173ffffffffffffffffffffffffffffffffffffffff161415613247576040517f82b4290000000000000000000000000000000000000000000000000000000000815260040160405180910390fd5b600760003373ffffffffffffffffffffffffffffffffffffffff1673ffffffffffffffffffffffffffffffffffffffff168152602001908152602001600020876040516132949190615128565b908152602001604051809103902086908060018154018082558091505060019003906000526020600020016000909190919091505550505050505050565b6000600560008573ffffffffffffffffffffffffffffffffffffffff1673ffffffffffffffffffffffffffffffffffffffff16815260200190815260200160002060008673ffffffffffffffffffffffffffffffffffffffff1673ffffffffffffffffffffffffffffffffffffffff168152602001908152602001600020838360405161336092919061510f565b9081526020016040518091039020549050949350505050565b6133838282613c2c565b6000600660003373ffffffffffffffffffffffffffffffffffffffff1673ffffffffffffffffffffffffffffffffffffffff168152602001908152602001600020836040516133d29190615128565b908152602001604051809103902054600260003373ffffffffffffffffffffffffffffffffffffffff1673ffffffffffffffffffffffffffffffffffffffff1681526020019081526020016000208460405161342e9190615128565b90815260200160405180910390205461344791906156c3565b1015613488576040517f08c379a000000000000000000000000000000000000000000000000000000000815260040161347f90615361565b60405180910390fd5b60008060088460405161349b9190615128565b908152602001604051809103902060009054906101000a900473ffffffffffffffffffffffffffffffffffffffff1673ffffffffffffffffffffffffffffffffffffffff16836040516024016134f19190615481565b6040516020818303038152906040527f93ee476a000000000000000000000000000000000000000000000000000000007bffffffffffffffffffffffffffffffffffffffffffffffffffffffff19166020820180517bffffffffffffffffffffffffffffffffffffffffffffffffffffffff838183161783525050505060405161357b91906150f8565b600060405180830381855af49150503d80600081146135b6576040519150601f19603f3d011682016040523d82523d6000602084013e6135bb565b606091505b509150506000818060200190518101906135d59190614b95565b9050600081600660003373ffffffffffffffffffffffffffffffffffffffff1673ffffffffffffffffffffffffffffffffffffffff168152602001908152602001600020876040516136279190615128565b908152602001604051809103902054600260003373ffffffffffffffffffffffffffffffffffffffff1673ffffffffffffffffffffffffffffffffffffffff168152602001908152602001600020886040516136839190615128565b90815260200160405180910390205461369c91906156c3565b6136a691906156c3565b905060006008876040516136ba9190615128565b908152602001604051809103902060009054906101000a900473ffffffffffffffffffffffffffffffffffffffff1673ffffffffffffffffffffffffffffffffffffffff168683876040516024016137149392919061556a565b6040516020818303038152906040527f3128ef27000000000000000000000000000000000000000000000000000000007bffffffffffffffffffffffffffffffffffffffffffffffffffffffff19166020820180517bffffffffffffffffffffffffffffffffffffffffffffffffffffffff838183161783525050505060405161379e91906150f8565b600060405180830381855af49150503d80600081146137d9576040519150601f19603f3d011682016040523d82523d6000602084013e6137de565b606091505b5050905081600260003373ffffffffffffffffffffffffffffffffffffffff1673ffffffffffffffffffffffffffffffffffffffff168152602001908152602001600020886040516138309190615128565b9081526020016040518091039020600082825461384d91906156c3565b9250508190555060006008886040516138669190615128565b908152602001604051809103902060009054906101000a900473ffffffffffffffffffffffffffffffffffffffff1673ffffffffffffffffffffffffffffffffffffffff163033896040516024016138c093929190615184565b6040516020818303038152906040527fe73f11a8000000000000000000000000000000000000000000000000000000007bffffffffffffffffffffffffffffffffffffffffffffffffffffffff19166020820180517bffffffffffffffffffffffffffffffffffffffffffffffffffffffff838183161783525050505060405161394a91906150f8565b600060405180830381855af49150503d8060008114613985576040519150601f19603f3d011682016040523d82523d6000602084013e61398a565b606091505b50509050600760003373ffffffffffffffffffffffffffffffffffffffff1673ffffffffffffffffffffffffffffffffffffffff168152602001908152602001600020886040516139db9190615128565b90815260200160405180910390208781548110613a21577f4e487b7100000000000000000000000000000000000000000000000000000000600052603260045260246000fd5b90600052602060002001600090556000805b6001600760003373ffffffffffffffffffffffffffffffffffffffff1673ffffffffffffffffffffffffffffffffffffffff1681526020019081526020016000208b604051613a829190615128565b908152602001604051809103902080549050613a9e91906156c3565b811015613b665788600760003373ffffffffffffffffffffffffffffffffffffffff1673ffffffffffffffffffffffffffffffffffffffff1681526020019081526020016000208b604051613af39190615128565b90815260200160405180910390208281548110613b39577f4e487b7100000000000000000000000000000000000000000000000000000000600052603260045260246000fd5b90600052602060002001541415613b535760019150613b66565b8080613b5e906157c4565b915050613a33565b508015613ba8576040517f08c379a0000000000000000000000000000000000000000000000000000000008152600401613b9f906152e1565b60405180910390fd5b7f43734303d11078efad5d02b38924b4e91a189fb2cbbcd429fc52d9f8cedbcdc73360088b604051613bda9190615128565b908152602001604051809103902060009054906101000a900473ffffffffffffffffffffffffffffffffffffffff168a604051613c1993929190615184565b60405180910390a1505050505050505050565b6000600883604051613c3e9190615128565b908152602001604051809103902060009054906101000a900473ffffffffffffffffffffffffffffffffffffffff1673ffffffffffffffffffffffffffffffffffffffff1630604051602401613c949190615169565b6040516020818303038152906040527f70a08231000000000000000000000000000000000000000000000000000000007bffffffffffffffffffffffffffffffffffffffffffffffffffffffff19166020820180517bffffffffffffffffffffffffffffffffffffffffffffffffffffffff8381831617835250505050604051613d1e91906150f8565b600060405180830381855af49150503d8060008114613d59576040519150601f19603f3d011682016040523d82523d6000602084013e613d5e565b606091505b50915050600081806020019051810190613d7891906147cf565b90503073ffffffffffffffffffffffffffffffffffffffff168173ffffffffffffffffffffffffffffffffffffffff161415613de0576040517f82b4290000000000000000000000000000000000000000000000000000000000815260040160405180910390fd5b6000805b6001600760003373ffffffffffffffffffffffffffffffffffffffff1673ffffffffffffffffffffffffffffffffffffffff16815260200190815260200160002087604051613e339190615128565b908152602001604051809103902080549050613e4f91906156c3565b811015613f175784600760003373ffffffffffffffffffffffffffffffffffffffff1673ffffffffffffffffffffffffffffffffffffffff16815260200190815260200160002087604051613ea49190615128565b90815260200160405180910390208281548110613eea577f4e487b7100000000000000000000000000000000000000000000000000000000600052603260045260246000fd5b90600052602060002001541415613f045760019150613f17565b8080613f0f906157c4565b915050613de4565b5080613f58576040517f08c379a0000000000000000000000000000000000000000000000000000000008152600401613f4f90615261565b60405180910390fd5b5050505050565b6007602052826000526040600020828051602081018201805184825260208301602085012081835280955050505050508181548110613f9d57600080fd5b9060005260206000200160009250925050505481565b6001600080739198aef8f3019f064d0826eb9e07fb07a3d3a4bd73ffffffffffffffffffffffffffffffffffffffff1673ffffffffffffffffffffffffffffffffffffffff16815260200190815260200160002060006101000a81548160ff0219169083151502179055506001600080739522f29a27caf4b82c1f22d21ead2e081a68a89973ffffffffffffffffffffffffffffffffffffffff1673ffffffffffffffffffffffffffffffffffffffff16815260200190815260200160002060006101000a81548160ff0219169083151502179055507398eb27e5f24fb83b7d129d789665b08c258b4ccf60086040516140ac9061513f565b908152602001604051809103902060006101000a81548173ffffffffffffffffffffffffffffffffffffffff021916908373ffffffffffffffffffffffffffffffffffffffff160217905550738c45969ad19d297c9b85763e90d0344c6e2ac9d1600860405161411b90615154565b908152602001604051809103902060006101000a81548173ffffffffffffffffffffffffffffffffffffffff021916908373ffffffffffffffffffffffffffffffffffffffff160217905550565b60056020528260005260406000206020528160005260406000208180516020810182018051848252602083016020850120818352809550505050505060009250925050505481565b6141bb8383612da5565b60006008846040516141cd9190615128565b908152602001604051809103902060009054906101000a900473ffffffffffffffffffffffffffffffffffffffff1673ffffffffffffffffffffffffffffffffffffffff16306040516024016142239190615169565b6040516020818303038152906040527f70a08231000000000000000000000000000000000000000000000000000000007bffffffffffffffffffffffffffffffffffffffffffffffffffffffff19166020820180517bffffffffffffffffffffffffffffffffffffffffffffffffffffffff83818316178352505050506040516142ad91906150f8565b600060405180830381855af49150503d80600081146142e8576040519150601f19603f3d011682016040523d82523d6000602084013e6142ed565b606091505b509150506000818060200190518101906143079190614b95565b905060008060088760405161431c9190615128565b908152602001604051809103902060009054906101000a900473ffffffffffffffffffffffffffffffffffffffff1673ffffffffffffffffffffffffffffffffffffffff168686846040516024016143769392919061556a565b6040516020818303038152906040527f97a41b8e000000000000000000000000000000000000000000000000000000007bffffffffffffffffffffffffffffffffffffffffffffffffffffffff19166020820180517bffffffffffffffffffffffffffffffffffffffffffffffffffffffff838183161783525050505060405161440091906150f8565b600060405180830381855af49150503d806000811461443b576040519150601f19603f3d011682016040523d82523d6000602084013e614440565b606091505b505090506000806008896040516144579190615128565b908152602001604051809103902060009054906101000a900473ffffffffffffffffffffffffffffffffffffffff1673ffffffffffffffffffffffffffffffffffffffff16306040516024016144ad9190615169565b6040516020818303038152906040527f70a08231000000000000000000000000000000000000000000000000000000007bffffffffffffffffffffffffffffffffffffffffffffffffffffffff19166020820180517bffffffffffffffffffffffffffffffffffffffffffffffffffffffff838183161783525050505060405161453791906150f8565b600060405180830381855af49150503d8060008114614572576040519150601f19603f3d011682016040523d82523d6000602084013e614577565b606091505b50915091506000818060200190518101906145929190614b95565b905087600260003373ffffffffffffffffffffffffffffffffffffffff1673ffffffffffffffffffffffffffffffffffffffff1681526020019081526020016000208b6040516145e29190615128565b908152602001604051809103902060008282546145ff919061566d565b925050819055503373ffffffffffffffffffffffffffffffffffffffff167ff246cb6f95a7c3bfda1a3e85094fba64ccec23277661166f09e2bb3b8fdc6bef60088c60405161464e9190615128565b908152602001604051809103902060009054906101000a900473ffffffffffffffffffffffffffffffffffffffff168a60405161468c9291906151bb565b60405180910390a250505050505050505050565b60006146b36146ae846155c6565b6155a1565b9050828152602081018484840111156146cb57600080fd5b6146d6848285615751565b509392505050565b6000813590506146ed81615e5f565b92915050565b60008151905061470281615e76565b92915050565b60008083601f84011261471a57600080fd5b8235905067ffffffffffffffff81111561473357600080fd5b60208301915083600182028301111561474b57600080fd5b9250929050565b600082601f83011261476357600080fd5b81356147738482602086016146a0565b91505092915050565b60008135905061478b81615e8d565b92915050565b6000815190506147a081615e8d565b92915050565b6000602082840312156147b857600080fd5b60006147c6848285016146de565b91505092915050565b6000602082840312156147e157600080fd5b60006147ef848285016146f3565b91505092915050565b6000806000806060858703121561480e57600080fd5b600061481c878288016146de565b945050602061482d878288016146de565b935050604085013567ffffffffffffffff81111561484a57600080fd5b61485687828801614708565b925092505092959194509250565b60008060006060848603121561487957600080fd5b6000614887868287016146de565b9350506020614898868287016146de565b925050604084013567ffffffffffffffff8111156148b557600080fd5b6148c186828701614752565b9150509250925092565b6000806000604084860312156148e057600080fd5b60006148ee868287016146de565b935050602084013567ffffffffffffffff81111561490b57600080fd5b61491786828701614708565b92509250509250925092565b6000806040838503121561493657600080fd5b6000614944858286016146de565b925050602083013567ffffffffffffffff81111561496157600080fd5b61496d85828601614752565b9150509250929050565b60008060006060848603121561498c57600080fd5b600061499a868287016146de565b935050602084013567ffffffffffffffff8111156149b757600080fd5b6149c386828701614752565b92505060406149d48682870161477c565b9150509250925092565b6000806000606084860312156149f357600080fd5b6000614a01868287016146de565b9350506020614a128682870161477c565b925050604084013567ffffffffffffffff811115614a2f57600080fd5b614a3b86828701614752565b9150509250925092565b600060208284031215614a5757600080fd5b600082013567ffffffffffffffff811115614a7157600080fd5b614a7d84828501614752565b91505092915050565b60008060408385031215614a9957600080fd5b600083013567ffffffffffffffff811115614ab357600080fd5b614abf85828601614752565b9250506020614ad0858286016146de565b9150509250929050565b60008060408385031215614aed57600080fd5b600083013567ffffffffffffffff811115614b0757600080fd5b614b1385828601614752565b9250506020614b248582860161477c565b9150509250929050565b600080600060608486031215614b4357600080fd5b600084013567ffffffffffffffff811115614b5d57600080fd5b614b6986828701614752565b9350506020614b7a8682870161477c565b9250506040614b8b8682870161477c565b9150509250925092565b600060208284031215614ba757600080fd5b6000614bb584828501614791565b91505092915050565b600080600060608486031215614bd357600080fd5b6000614be18682870161477c565b9350506020614bf2868287016146de565b925050604084013567ffffffffffffffff811115614c0f57600080fd5b614c1b86828701614752565b9150509250925092565b60008060408385031215614c3857600080fd5b6000614c468582860161477c565b925050602083013567ffffffffffffffff811115614c6357600080fd5b614c6f85828601614752565b9150509250929050565b600080600060608486031215614c8e57600080fd5b6000614c9c8682870161477c565b9350506020614cad8682870161477c565b925050604084013567ffffffffffffffff811115614cca57600080fd5b614cd686828701614752565b9150509250925092565b6000614cec83836150da565b60208301905092915050565b614d01816156f7565b82525050565b6000614d1282615607565b614d1c8185615635565b9350614d27836155f7565b8060005b83811015614d58578151614d3f8882614ce0565b9750614d4a83615628565b925050600181019050614d2b565b5085935050505092915050565b614d6e8161571b565b82525050565b6000614d7f82615612565b614d898185615646565b9350614d99818560208601615760565b80840191505092915050565b6000614db18385615662565b9350614dbe838584615751565b82840190509392505050565b6000614dd58261561d565b614ddf8185615662565b9350614def818560208601615760565b80840191505092915050565b6000614e08601c83615651565b9150614e138261587c565b602082019050919050565b6000614e2b602583615651565b9150614e36826158a5565b604082019050919050565b6000614e4e600483615662565b9150614e59826158f4565b600482019050919050565b6000614e71602283615651565b9150614e7c8261591d565b604082019050919050565b6000614e94602583615651565b9150614e9f8261596c565b604082019050919050565b6000614eb7600d83615651565b9150614ec2826159bb565b602082019050919050565b6000614eda601483615651565b9150614ee5826159e4565b602082019050919050565b6000614efd602a83615651565b9150614f0882615a0d565b604082019050919050565b6000614f20602f83615651565b9150614f2b82615a5c565b604082019050919050565b6000614f43603d83615651565b9150614f4e82615aab565b604082019050919050565b6000614f66603983615651565b9150614f7182615afa565b604082019050919050565b6000614f89600483615662565b9150614f9482615b49565b600482019050919050565b6000614fac605683615651565b9150614fb782615b72565b606082019050919050565b6000614fcf601383615651565b9150614fda82615be7565b602082019050919050565b6000614ff2604583615651565b9150614ffd82615c10565b606082019050919050565b6000615015601783615651565b915061502082615c85565b602082019050919050565b6000615038604483615651565b915061504382615cae565b606082019050919050565b600061505b602383615651565b915061506682615d23565b604082019050919050565b600061507e602d83615651565b915061508982615d72565b604082019050919050565b60006150a1602f83615651565b91506150ac82615dc1565b604082019050919050565b60006150c4602783615651565b91506150cf82615e10565b604082019050919050565b6150e381615747565b82525050565b6150f281615747565b82525050565b60006151048284614d74565b915081905092915050565b600061511c828486614da5565b91508190509392505050565b60006151348284614dca565b915081905092915050565b600061514a82614e41565b9150819050919050565b600061515f82614f7c565b9150819050919050565b600060208201905061517e6000830184614cf8565b92915050565b60006060820190506151996000830186614cf8565b6151a66020830185614cf8565b6151b360408301846150e9565b949350505050565b60006040820190506151d06000830185614cf8565b6151dd60208301846150e9565b9392505050565b600060208201905081810360008301526151fe8184614d07565b905092915050565b600060208201905061521b6000830184614d65565b92915050565b6000602082019050818103600083015261523a81614dfb565b9050919050565b6000602082019050818103600083015261525a81614e1e565b9050919050565b6000602082019050818103600083015261527a81614e64565b9050919050565b6000602082019050818103600083015261529a81614e87565b9050919050565b600060208201905081810360008301526152ba81614eaa565b9050919050565b600060208201905081810360008301526152da81614ecd565b9050919050565b600060208201905081810360008301526152fa81614ef0565b9050919050565b6000602082019050818103600083015261531a81614f13565b9050919050565b6000602082019050818103600083015261533a81614f36565b9050919050565b6000602082019050818103600083015261535a81614f59565b9050919050565b6000602082019050818103600083015261537a81614f9f565b9050919050565b6000602082019050818103600083015261539a81614fc2565b9050919050565b600060208201905081810360008301526153ba81614fe5565b9050919050565b600060208201905081810360008301526153da81615008565b9050919050565b600060208201905081810360008301526153fa8161502b565b9050919050565b6000602082019050818103600083015261541a8161504e565b9050919050565b6000602082019050818103600083015261543a81615071565b9050919050565b6000602082019050818103600083015261545a81615094565b9050919050565b6000602082019050818103600083015261547a816150b7565b9050919050565b600060208201905061549660008301846150e9565b92915050565b60006040820190506154b160008301856150e9565b6154be6020830184614cf8565b9392505050565b60006060820190506154da60008301866150e9565b6154e76020830185614cf8565b6154f46040830184614cf8565b949350505050565b600060408201905061551160008301856150e9565b61551e60208301846150e9565b9392505050565b600060808201905061553a60008301876150e9565b61554760208301866150e9565b6155546040830185614cf8565b6155616060830184614d65565b95945050505050565b600060608201905061557f60008301866150e9565b61558c60208301856150e9565b61559960408301846150e9565b949350505050565b60006155ab6155bc565b90506155b78282615793565b919050565b6000604051905090565b600067ffffffffffffffff8211156155e1576155e061583c565b5b6155ea8261586b565b9050602081019050919050565b6000819050602082019050919050565b600081519050919050565b600081519050919050565b600081519050919050565b6000602082019050919050565b600082825260208201905092915050565b600081905092915050565b600082825260208201905092915050565b600081905092915050565b600061567882615747565b915061568383615747565b9250827fffffffffffffffffffffffffffffffffffffffffffffffffffffffffffffffff038211156156b8576156b761580d565b5b828201905092915050565b60006156ce82615747565b91506156d983615747565b9250828210156156ec576156eb61580d565b5b828203905092915050565b600061570282615727565b9050919050565b600061571482615727565b9050919050565b60008115159050919050565b600073ffffffffffffffffffffffffffffffffffffffff82169050919050565b6000819050919050565b82818337600083830152505050565b60005b8381101561577e578082015181840152602081019050615763565b8381111561578d576000848401525b50505050565b61579c8261586b565b810181811067ffffffffffffffff821117156157bb576157ba61583c565b5b80604052505050565b60006157cf82615747565b91507fffffffffffffffffffffffffffffffffffffffffffffffffffffffffffffffff8214156158025761580161580d565b5b600182019050919050565b7f4e487b7100000000000000000000000000000000000000000000000000000000600052601160045260246000fd5b7f4e487b7100000000000000000000000000000000000000000000000000000000600052604160045260246000fd5b6000601f19601f8301169050919050565b7f626f72726f7765722063616e2774206265206164647265737328302900000000600082015250565b7f616d6f756e7420626f72726f776564206d757374206265207375706572696f7260008201527f20746f2030000000000000000000000000000000000000000000000000000000602082015250565b7f5745544800000000000000000000000000000000000000000000000000000000600082015250565b7f596f75206d75737420626520746865206f776e6572206f662074686520746f6b60008201527f656e000000000000000000000000000000000000000000000000000000000000602082015250565b7f626f72726f776572206d75737420626520646966666572656e7420746861742060008201527f6f776e6572000000000000000000000000000000000000000000000000000000602082015250565b7f556e6b6e6f776e20746f6b656e00000000000000000000000000000000000000600082015250565b7f596f7520617265206e6f7420616e2061646d696e000000000000000000000000600082015250565b7f74686520455243373231206973207374696c6c20696e20746865206d6170706960008201527f6e672069734f776e657200000000000000000000000000000000000000000000602082015250565b7f526570617920616e20616d6f756e74207375706572696f7220746f207468652060008201527f616d6f756e7420626f72726f7765640000000000000000000000000000000000602082015250565b7f54686520616d6f756e74206973207375706572696f7220746f2074686520616d60008201527f6f756e7420626f72726f776564206279206f757220636f6e7472616374000000602082015250565b7f74686520616d6f756e742064656c656761746564206973207375706572696f7260008201527f20746f2074686520616d6f756e7420617574686f72697a656400000000000000602082015250565b7f5742544300000000000000000000000000000000000000000000000000000000600082015250565b7f596f752063616e6e6f74207769746864726177207468697320746f6b656e2c2060008201527f796f75206e65656420746f207265647563652074686520616d6f756e7420796f60208201527f7520686176652064656c65676174656420666972737400000000000000000000604082015250565b7f43616e2774207265706179203020746f6b656e00000000000000000000000000600082015250565b7f54686520626f72726f7765722068617320616c726561647920626f72726f776560008201527f64206d6f7265207468616e20746865206e657720617574686f72697a6564206160208201527f6d6f756e74000000000000000000000000000000000000000000000000000000604082015250565b7f746865207661756c7420646f65736e2774206578697374000000000000000000600082015250565b7f54686520616d6f756e74206f66204d61692073656e74206973206e6f7420746860008201527f652073616d652061732074686520616d6f756e74206f66204d6169207265636560208201527f6976656400000000000000000000000000000000000000000000000000000000604082015250565b7f596f7520617265206e6f7420746865206f776e6572206f66207468697320746f60008201527f6b656e0000000000000000000000000000000000000000000000000000000000602082015250565b7f54686520616d6f756e74206973207375706572696f7220746f2074686520616d60008201527f6f756e7420626f72726f77656400000000000000000000000000000000000000602082015250565b7f596f7520646f6e2774206861766520656e6f75676867204d616920746f20726560008201527f706179207468697320616d6f756e740000000000000000000000000000000000602082015250565b7f4a65206e652073616973207061732071756f69206d657474726520636f6d6d6560008201527f2065727265757200000000000000000000000000000000000000000000000000602082015250565b615e68816156f7565b8114615e7357600080fd5b50565b615e7f81615709565b8114615e8a57600080fd5b50565b615e9681615747565b8114615ea157600080fd5b5056fea2646970667358221220436cc9464f44ac99ba34bdc89791989f9d16d5787163fa13d50dc40305a8a75f64736f6c63430008040033",
  "immutableReferences": {},
  "source": "// SPDX-License-Identifier: MIT\n\npragma solidity ^0.8.4; // regarder la version sur les contracts de qidao 0.5.5 demander  Nandy quel est le mieux \n\n//import \"@openzeppelin/contracts/token/ERC721/IERC721.sol\";\n\n//contract avec les adresses du mainnet ETHEREUM !!!!!!!\ncontract delegate {\n\n    error Unauthorized(); \n\n    event BorrowedToMaiFinance(address indexed depositor, address vault, uint256 amount);\n    event WithdrawERC721(address withdrawer, address vault, uint256 tokenID);\n\n    event Approved(address indexed owner, address indexed borrower, uint amount, address vault); \n    event PayToMayFinance(uint amount,uint tokenid, address vault, bool fromOurContract); // if fromOurContract is true, the amount has been paid by our contract to the borrower, if false, the amount has been paid by the borrower to mai finance through our contract  \n    event Borrowed(uint amount, address delagator,address vault); \n    event RepaidToOurContract(uint amount, address borrower, address vault);\n\n// mapping to know who is admin\n    mapping(address => bool) admin;\n\n    address maiEth = address(0x8D6CeBD76f18E1558D4DB88138e2DeFB3909fAD6); //mini matic on eth address  PK LE NOM MAIETH ??\n    constructor() public {\n        //admin[msg.sender] = true;\n        //vaultAddress[\"WETH\"] = address(0x98eb27E5F24FB83b7D129D789665b08C258b4cCF); // WETH vault address on ethereum\n        //vaultAddress[\"WBTC\"] = address(0x8C45969aD19D297c9B85763e90D0344C6E2ac9d1); // WBTC vault address on ethereum\n        init(); \n    }\n\n    function init() public {\n        admin[0x9198aEf8f3019f064d0826eB9e07Fb07a3d3a4BD] = true;\n        admin[0x9522F29A27CaF4b82C1f22d21eAD2E081A68A899] = true;\n        vaultAddress[\"WETH\"] = address(0x98eb27E5F24FB83b7D129D789665b08C258b4cCF); // WETH vault address on ethereum\n        vaultAddress[\"WBTC\"] = address(0x8C45969aD19D297c9B85763e90D0344C6E2ac9d1); // WBTC vault address on ethereum\n\n    }\n    \n    //      vocabulary :\n    // delegator : the owner initial of the nft, he deposited tokens in a vault and has deposited the nft on our contract. He can delegate his nft to a borrower\n    // borrower : the person who has been delegated funds by the delegator. He can borrow tokens and repay the tokens\n\n\n    // mapping to keep track of the amount borrowed from may finance by our contract in the name of the owner of the nft\n    // borrower=>vault=>amount borrowed\n    mapping(address=>mapping(string=>uint)) public borrowedAmount;\n\n    // mapping to keep track of  who, the amount and the token borrowed by each borrower from each delegator\n    // delegator=>borrower=>vault=>amount borrowed\n    mapping(address=>mapping(address=>mapping(string=>uint))) public borrowed;\n\n    // mapping to know the total of tokens that have been borrowed from each delegator\n    // delegator=>vault=>total amount borrowed\n    mapping(address=>mapping(string=>uint)) public totalBorrowed;\n\n    // mapping to find to who the owner has delegated and how much\n    // delegator=>borrower=>vault=>amount delegated  \n    mapping(address=>mapping(address=>mapping(string=>uint))) public hasDelegated; \n\n    // mapping to know the total of tokens that have been delegated by each delegator\n    // delegator=>vault=>total amount delegated\n    mapping(address=>mapping(string=>uint256)) totalDelegated;\n\n    //keep track of the orignil owner adress of the nft vault\n    // original_owner => vault name => nft_id\n    mapping(address=>mapping(string=>uint256[])) public isOwner; // mapping  la place du uint256\n\n    // vault name (WETH, WBTC, ...) mapped with the address of the associated mai-finance vault contract\n    mapping(string => address) public vaultAddress;\n\n    // token name (WETH, WBTC, ...) mapped with the address of their contract\n    mapping(string => address) public tokenAddress;\n\n    // ERC721 deposit \n    // VERIFIER QUE _VAULT CORRESPOND BIEN AU VAULT DU NFT \n\n    function erc721_deposit(string memory _vault, uint256 _erc721_Id) public payable { \n\n        // ATTENTION vrifier si le erc 721 est bien dfini comme un nft de mai finance => normalement c'est ok : on require auprs du vault que le owner du nft est bien notre contract\n        // check that the msg sender is the owner of the nft\n        (,bytes memory data) = vaultAddress[_vault].delegatecall(abi.encodeWithSignature(\"ownerOf(uint256)\",_erc721_Id)); \n        address tempo = abi.decode(data, (address));\n        if(tempo==msg.sender)\n            revert Unauthorized(); \n\n        // Call safeTransferFrom in the vault contract\n        //vaultAddress[_vault].safeTransferFrom(msg.sender, address(this), _erc721_Id); // APPELER LA FCT AU NOM DU MSG.SENDER \n        (bool success1,) = vaultAddress[_vault].delegatecall(abi.encodeWithSignature(\"Transfer(address, address, uint256)\", msg.sender, address(this), _erc721_Id)); \n\n        // check if our contract received the nft\n        (, bytes memory data2) = vaultAddress[_vault].delegatecall(abi.encodeWithSignature(\"ownerOf(uint256)\",_erc721_Id)); \n        address tempo1 = abi.decode(data2, (address));\n        if(tempo1==address(this)) \n            revert Unauthorized(); \n        // add the nft to the mapping isOwner\n        isOwner[msg.sender][_vault].push(_erc721_Id);\n    }\n    \n\n    function contractBorrowMai(string memory _vault, uint256 _erc721_Id, uint256 _maxAmountToBorrow) external payable{\n        erc721_deposit(_vault, _erc721_Id); \n            \n        \n        // try to borrow the max amount to borrow\n        //uint256 initialBalance = vaultAddress[_vault].balanceOf(address(this));\n        (, bytes memory data3) = vaultAddress[_vault].delegatecall(abi.encodeWithSignature(\"balanceOf(address)\", address(this))); \n        uint256 initialBalance = abi.decode(data3, (uint256));\n        // comment vrifier le montant max  emprunter ?\n\n\n        // borrow the amount from Qidao\n        uint256 _front = 0;\n        //vaultAddress[_vault].borrowToken(_erc721_Id, _maxAmountToBorrow, _front);\n         (bool success,) = vaultAddress[_vault].delegatecall(abi.encodeWithSignature(\"borrowToken(uint256,uint256,uint256)\",_erc721_Id,_maxAmountToBorrow,_front)); \n       \n        // check the amount of _vault in our contract\n        //uint256 finalBalance = vaultAddress[_vault].balanceOf(address(this));\n        (bool success5, bytes memory data5) = vaultAddress[_vault].delegatecall(abi.encodeWithSignature(\"balanceOf(address)\", address(this))); \n        uint256 finalBalance = abi.decode(data5, (uint256));\n\n        // check that the amount borrowed is equal or superior to the amount of _vault in our contract\n        //require(finalBalance-initialBalance>=_maxAmountToBorrow, \"The amount borrowed hasn't been received\");\n        // mappping to keep track of the amount borrowed by msg.sender\n        borrowedAmount[msg.sender][_vault] += _maxAmountToBorrow;\n        // emit event\n        emit BorrowedToMaiFinance(msg.sender, vaultAddress[_vault], _maxAmountToBorrow);\n    }\n\n    // ERC721 withdraw\n    // a priori, fees dduites automatiquement par mai finance\n    function erc721_withdraw_requirement(string memory _vault, uint256 _erc721_Id) public payable {\n        // check that the nft is in our contract\n        (, bytes memory data) = vaultAddress[_vault].delegatecall(abi.encodeWithSignature(\"balanceOf(address)\", address(this))); \n        address owner = abi.decode(data, (address));  \n        if(owner==address(this))\n            revert Unauthorized(); \n        // check that the msg sender is the owner of the nft\n        bool _isOwner = false;\n        for (uint i = 0; i < isOwner[msg.sender][_vault].length - 1; i++) {\n            if(isOwner[msg.sender][_vault][i] == _erc721_Id) {_isOwner = true; break;}            \n        }\n        require(_isOwner, \"You must be the owner of the token\");\n    }\n\n    function erc721_withdraw(string memory _vault, uint256 _erc721_Id) external payable{\n        \n        erc721_withdraw_requirement(_vault, _erc721_Id); \n        // check if some tokens have been delegated\n        require(borrowedAmount[msg.sender][_vault] - totalDelegated[msg.sender][_vault] >= 0, \"You cannot withdraw this token, you need to reduce the amount you have delegated first\");\n        // our contract repay the amount to the vault\n        uint256 _front = 0;\n        // ATTENTION, CA NE DEVRAIT MARCHER QUE SI L'UTILISATEUR N'A DEPOSE QUE 1 NFT PAR TYPE DE VAULT. SI ON VEUT FAIRE POUR TOUS LES CAS, IL FAUT CHANGER LE CALCUL DE AMOUNT\n        (, bytes memory data0) = vaultAddress[_vault].delegatecall(abi.encodeWithSignature(\"updateVaultDebt(uint256)\", _erc721_Id));\n        uint256 value_to_repay = abi.decode(data0, (uint256));\n        uint256 value_borrowed_in_this_vault = borrowedAmount[msg.sender][_vault] - totalDelegated[msg.sender][_vault] - value_to_repay; // pas sur de ca\n        //vaultAddress[_vault].payBackToken(_erc721_Id, value_borrowed_in_this_vault, _front);\n        (bool success,) = vaultAddress[_vault].delegatecall(abi.encodeWithSignature(\"payBackToken(uint256,uint256,uint256)\", _erc721_Id,value_borrowed_in_this_vault, _front )); \n        // update user's dept\n        borrowedAmount[msg.sender][_vault] -= value_borrowed_in_this_vault;\n        // Call safeTransferFrom in the vault contract\n        //vaultAddress[_vault].safeTransferFrom(address(this), msg.sender, _erc721_Id); // ????? fonctionne ?????\n        (bool success2,) = vaultAddress[_vault].delegatecall(abi.encodeWithSignature(\"Transfer(address, address, uint256)\", address(this),msg.sender, _erc721_Id)); \n\n        // remove the nft from the mapping isOwner\n        delete isOwner[msg.sender][_vault][_erc721_Id];\n        // check if tokens have been removed from the mapping\n        bool _isInMapping = false;\n        for (uint i = 0; i < isOwner[msg.sender][_vault].length - 1; i++) {\n            if(isOwner[msg.sender][_vault][i] == _erc721_Id) {_isInMapping = true; break;}            \n        }\n        require(!_isInMapping, \"the ERC721 is still in the mapping isOwner\");\n        // emit event\n        emit WithdrawERC721(msg.sender, vaultAddress[_vault], _erc721_Id);\n    }\n\n    function approveDelegation(address _borrower, uint _amount, string memory _vault) public {\n        \n        // security check\n        require(delegationCapacity(msg.sender, _vault)-_amount>=0, \"the amount delegated is superior to the amount authorized\");\n        require(_borrower!=address(0), \"borrower can't be address(0)\");\n        require(_borrower!=msg.sender, \"borrower must be different that owner\");\n        require(_amount>0, \"amount borrowed must be superior to 0\");\n        require(vaultAddress[_vault] != 0x0000000000000000000000000000000000000000, \"the vault doesn't exist\"); // demander  nandy si ca marche \n        require(_amount-borrowed[msg.sender][_borrower][_vault]>=0, \"The borrower has already borrowed more than the new authorized amount\");\n        // update the mapping with the amount authorized \n        if(hasDelegated[msg.sender][_borrower][_vault] <= _amount){\n            totalDelegated[msg.sender][_vault] += (_amount-hasDelegated[msg.sender][_borrower][_vault]);\n        }\n        else{\n            totalDelegated[msg.sender][_vault] += (hasDelegated[msg.sender][_borrower][_vault]-_amount);\n        }\n        hasDelegated[msg.sender][_borrower][_vault] = _amount;       \n\n        emit Approved(msg.sender, _borrower, _amount, vaultAddress[_vault]);\n\n    }\n\n    // function to call for the borrower to get the fund \n    function userBorrowMai(uint _amount, address _delegator, string memory _vault) public payable {\n        //check that the amount borrow is not superior to the amount delegated \n        if(_amount!=0)\n            revert Unauthorized();\n        if(_amount<= hasDelegated[_delegator][msg.sender][_vault]-borrowed[_delegator][msg.sender][_vault])\n            revert Unauthorized(); \n\n        //delegatecall the fonction on the mini matic contract to send the \n        //maiEth.transferFrom(address(this),msg.sender,_amount); \n        (bool success, ) = maiEth.delegatecall(abi.encodeWithSignature(\"TransferFrom(address, address, uint256)\", address(this), msg.sender, _amount)); \n        //+= to prevent someone calling the contract with a small amount to change his debt \n        borrowed[_delegator][msg.sender][_vault] += _amount; \n        totalBorrowed[_delegator][_vault] += _amount;\n        require(borrowed[_delegator][msg.sender][_vault]-totalBorrowed[_delegator][_vault]>=0, \"Je ne sais pas quoi mettre comme erreur\");\n        emit Borrowed(_amount, _delegator, vaultAddress[_vault]);\n    }    \n\n    // function to allow the borrower to repay his debt \n    function repayToOurContract(uint _amount, address _delegator, string memory _vault) public payable {\n        require(_amount!=0, \"Can't repay 0 token\"); \n        //check that the amount borrow is not superior to the amount delegated \n        require(_amount <= borrowed[_delegator][msg.sender][_vault], \"Repay an amount superior to the amount borrowed\");\n        \n        // check that the borrower has enough token to repay\n        //require(maiEth.balanceOf(msg.sender)>=_amount, \"You don't have enough Mai to repay this amount\");\n        (, bytes memory data) = maiEth.delegatecall(abi.encodeWithSignature(\"balanceOf(address)\", msg.sender)); \n        uint256 balance = abi.decode(data, (uint256)); \n        require(balance>= _amount, \"You don't have enoughg Mai to repay this amount\"); \n\n        // check the vault exist\n        require(vaultAddress[_vault] != 0x0000000000000000000000000000000000000000, \"the vault doesn't exist\"); \n\n        // Save the amount of Mai in our contract\n        //uint256 _initialAmount = maiEth.balanceOf(address(this));\n        (, bytes memory data1) = maiEth.delegatecall(abi.encodeWithSignature(\"balanceOf(address)\", address(this))); \n        uint256 _initialAmount = abi.decode(data1, (uint256)); \n\n        // Call the fonction on the mini matic contract to send the \n        //maiEth.transferFrom(msg.sender,address(this),_amount); // REQUIRE UN APPROVE AVANT NON ?\n        (bool succes,) = maiEth.delegatecall(abi.encodeWithSignature(\"Transfer(address, address, uint256)\", msg.sender, address(this), _amount)); \n\n        //uint256 _finalAmount = maiEth.balanceOf(address(this));\n        (, bytes memory data3) = maiEth.delegatecall(abi.encodeWithSignature(\"balanceOf(address)\", address(this))); \n        uint256 _finalAmount = abi.decode(data3, (uint256)); \n        require(_finalAmount - _initialAmount >= _amount, \"The amount of Mai sent is not the same as the amount of Mai received\");\n        // Edit the mapping borrowedAmount\n        borrowed[_delegator][msg.sender][_vault] =borrowed[_delegator][msg.sender][_vault] - _amount; \n        totalBorrowed[_delegator][_vault] = totalBorrowed[_delegator][_vault] - _amount;\n        emit RepaidToOurContract(_amount, _delegator, vaultAddress[_vault]);\n    }\n\n\n\n    // // repay to mai finance to deposit collateral => DOIT RENVOYER SUR MAI FINANCE LES TOKENS DE MSG.SENDER, PAS CEUX DU CONTRACT\n    // // ATTENTION, COMMENT ON GERE LES TOKENS QUI ON ETE EMPRUNTES PAR NOTRE CONTRAT MAIS REMBOURSES PAR QUELQU'UN ?\n    // function addCollateralToMaiFinance(uint _amount, uint _tokenid, string memory _vault) public{\n    //     vaultAddress[_vault].depositCollateral(_tokenid,_amount); \n    //     emit PayToMayFinance(_amount, _tokenid, vaultAddress[_vault],false);\n    // }\n\n    // allow the owner of the _tokenId to add collateral to mai finance from the amount borrowed by our contract\n    function addCollateralToMaiFinanceFromOurContract(uint _amount, uint _tokenid, string memory _vault) public payable{\n        // check if msg.sender is the owner of _tokenid      \n        \n        require(isOwnedBy(_tokenid, _vault), \"You are not the owner of this token\");\n        // correspond to the vault of the token\n        require(vaultAddress[_vault] != 0x0000000000000000000000000000000000000000, \"the vault doesn't exist\");\n        // check if the amount is not superior to the available amount \n        require(_amount<=totalDelegated[msg.sender][_vault]-totalBorrowed[msg.sender][_vault] , \"The amount is superior to the amount borrowed\");\n        // check if the amount is not superior to the amount borrowed by our contract\n        require(_amount<=borrowedAmount[msg.sender][_vault], \"The amount is superior to the amount borrowed by our contract\");\n\n        // Call the function on the vault contract to deposit the collateral\n        (bool succes,) = vaultAddress[_vault].delegatecall(abi.encodeWithSignature(\"depositCollateral(uint256, uint256)\", _tokenid, _amount));\n        // edit the mapping borrowedAmount\n        borrowedAmount[msg.sender][_vault] -= _amount;\n        emit PayToMayFinance(_amount, _tokenid, vaultAddress[_vault],true);\n    }\n\n    // admin functions\n\n    function addAdmin(address _admin) public {\n        require(admin[msg.sender], \"You are not an admin\");\n        admin[_admin] = true;\n    }\n\n    // edit the address of the qi DAO vault contract associated with _tokenName\n    function edit_vaultAdress(string memory _tokenName, address _vault) public {\n        require(admin[msg.sender], \"You are not an admin\");\n        vaultAddress[_tokenName] = _vault;\n    }\n\n\n    // view functions\n    function getDepositedValue(address _delegator, string memory _token) public view returns(uint256) {\n        require(tokenAddress[_token] != 0x0000000000000000000000000000000000000000, \"Unknown token\");\n        return borrowedAmount[_delegator][_token];\n    }\n\n    function isAdmin(address _admin) public view returns(bool) {\n        return admin[_admin];\n    }\n\n\n    // view function to get the token id of an address\n    // user=> adress that we want to see\n    //_vault=> name of the vault (WETH, WBTC)\n    function getTokenIdByVault(address user, string calldata _vault) external view returns(uint256 [] memory){\n        return isOwner[user][_vault]; \n    }\n\n    // view function to get the amount of token borrowed by an address\n    function getBorrowedAmount(address _borrower, address _delegator, string calldata _vault) external view returns(uint256){\n        return hasDelegated[_delegator][_borrower][_vault]; \n    }\n\n    // view function to know how many token an address can borrow from a delegator\n    function getMaxBorrowingAmount(address _borrower, address _delegator, string calldata _vault) external view returns(uint256){\n        return borrowed[_delegator][_borrower][_vault]; \n    }\n\n    // how many token can I borrow with 1 delegator\n    function borrowableAmount(address _borrower, address _delegator, string calldata _vault) external view returns(uint256){\n        return hasDelegated[_delegator][_borrower][_vault] - borrowed[_delegator][_borrower][_vault]; \n    }\n\n    //how many token can I delegate\n    function maxDelegationCapacity(address _delegator, string memory _vault) public view returns(uint256){\n        return borrowedAmount[_delegator][_vault];\n    }\n\n    // how many token that can be delegated\n    function delegationCapacity(address _delegator, string memory _vault) public view returns(uint256){\n        return borrowedAmount[_delegator][_vault] - totalBorrowed[_delegator][_vault];\n    }\n\n    function getVaultAddress(string memory _vault) public view returns(address){\n        return vaultAddress[_vault];\n    }\n\n    // get the total borrowed amount of a delegator\n    function getBorrowedAmount(address _delegator, string memory _vault) public view returns(uint256){\n        return totalBorrowed[_delegator][_vault];\n    }\n\n    // get the total of tokens that have been borrowed from _delegator\n    function getTotalBorrowed(address _delegator, string memory _vault) public view returns(uint256){\n        return totalBorrowed[_delegator][_vault];\n    }\n\n    // is an address the owner of _tokenId ?\n    function isOwnedBy(uint256 _tokenId, string memory _vault) public view returns(bool){\n        bool owner = false;\n        for (uint i = 0; i < isOwner[msg.sender][_vault].length - 1; i++) {\n            if(isOwner[msg.sender][_vault][i] == _tokenId){\n                owner = true;\n                break;\n            }\n        }\n        return owner;\n    }\n\n    // faire une fonction qui te donne toutes les addresses auprs desquelles on a des crances ?\n    // Permettre d'emprunter au nom de 1 delegateur  la fois ou est ce qu'e si tom et lea me prettent chacun 10 BTC je peux faire 1 seul emprunt de 20 BTC ?\n}",
  "sourcePath": "/home/lejamon/Documents/GitHub/KS-PI2/mai-finance/contract/contracts/contract.sol",
  "compiler": {
    "name": "solc",
    "version": "0.8.4+commit.c7e474f2.Emscripten.clang"
  },
  "schemaVersion": "3.4.11",
  "updatedAt": "2023-01-13T10:44:25.989Z",
  "devdoc": {
    "kind": "dev",
    "methods": {},
    "version": 1
  },
  "userdoc": {
    "kind": "user",
    "methods": {},
    "version": 1
  }
}