{
  "contractName": "fakeMaiVault",
  "abi": [
    {
      "inputs": [
        {
          "internalType": "uint256",
          "name": "",
          "type": "uint256"
        }
      ],
      "name": "_deposit",
      "outputs": [
        {
          "internalType": "uint256",
          "name": "",
          "type": "uint256"
        }
      ],
      "stateMutability": "view",
      "type": "function"
    },
    {
      "inputs": [
        {
          "internalType": "address",
          "name": "",
          "type": "address"
        }
      ],
      "name": "erc721Balance",
      "outputs": [
        {
          "internalType": "uint256",
          "name": "",
          "type": "uint256"
        }
      ],
      "stateMutability": "view",
      "type": "function"
    },
    {
      "inputs": [
        {
          "internalType": "address",
          "name": "",
          "type": "address"
        }
      ],
      "name": "maiBalance",
      "outputs": [
        {
          "internalType": "uint256",
          "name": "",
          "type": "uint256"
        }
      ],
      "stateMutability": "view",
      "type": "function"
    },
    {
      "inputs": [
        {
          "internalType": "uint256",
          "name": "",
          "type": "uint256"
        }
      ],
      "name": "maiDebt",
      "outputs": [
        {
          "internalType": "uint256",
          "name": "",
          "type": "uint256"
        }
      ],
      "stateMutability": "view",
      "type": "function"
    },
    {
      "inputs": [
        {
          "internalType": "uint256",
          "name": "",
          "type": "uint256"
        }
      ],
      "name": "owners",
      "outputs": [
        {
          "internalType": "address",
          "name": "",
          "type": "address"
        }
      ],
      "stateMutability": "view",
      "type": "function"
    },
    {
      "inputs": [
        {
          "internalType": "uint256",
          "name": "_tokenId",
          "type": "uint256"
        }
      ],
      "name": "ownerOf",
      "outputs": [
        {
          "internalType": "address",
          "name": "",
          "type": "address"
        }
      ],
      "stateMutability": "view",
      "type": "function"
    },
    {
      "inputs": [
        {
          "internalType": "address",
          "name": "_owner",
          "type": "address"
        }
      ],
      "name": "balanceOf",
      "outputs": [
        {
          "internalType": "uint256",
          "name": "",
          "type": "uint256"
        }
      ],
      "stateMutability": "view",
      "type": "function"
    },
    {
      "inputs": [
        {
          "internalType": "uint256",
          "name": "_erc721_Id",
          "type": "uint256"
        },
        {
          "internalType": "uint256",
          "name": "amount",
          "type": "uint256"
        },
        {
          "internalType": "uint256",
          "name": "_front",
          "type": "uint256"
        }
      ],
      "name": "borrowToken",
      "outputs": [],
      "stateMutability": "nonpayable",
      "type": "function"
    },
    {
      "inputs": [
        {
          "internalType": "uint256",
          "name": "_erc721_Id",
          "type": "uint256"
        },
        {
          "internalType": "uint256",
          "name": "amount",
          "type": "uint256"
        }
      ],
      "name": "depositCollateral",
      "outputs": [],
      "stateMutability": "nonpayable",
      "type": "function"
    },
    {
      "inputs": [
        {
          "internalType": "address",
          "name": "_to",
          "type": "address"
        },
        {
          "internalType": "uint256",
          "name": "_erc721_Id",
          "type": "uint256"
        }
      ],
      "name": "Transfer",
      "outputs": [],
      "stateMutability": "nonpayable",
      "type": "function"
    },
    {
      "inputs": [
        {
          "internalType": "address",
          "name": "from",
          "type": "address"
        },
        {
          "internalType": "address",
          "name": "_to",
          "type": "address"
        },
        {
          "internalType": "uint256",
          "name": "_erc721_Id",
          "type": "uint256"
        }
      ],
      "name": "TransferFrom",
      "outputs": [],
      "stateMutability": "nonpayable",
      "type": "function"
    },
    {
      "inputs": [
        {
          "internalType": "address",
          "name": "_to",
          "type": "address"
        },
        {
          "internalType": "uint256",
          "name": "amount",
          "type": "uint256"
        }
      ],
      "name": "TransferMai",
      "outputs": [],
      "stateMutability": "nonpayable",
      "type": "function"
    },
    {
      "inputs": [
        {
          "internalType": "address",
          "name": "from",
          "type": "address"
        },
        {
          "internalType": "address",
          "name": "_to",
          "type": "address"
        },
        {
          "internalType": "uint256",
          "name": "amount",
          "type": "uint256"
        }
      ],
      "name": "TransferMaiFrom",
      "outputs": [],
      "stateMutability": "nonpayable",
      "type": "function"
    },
    {
      "inputs": [
        {
          "internalType": "uint256",
          "name": "vaultId",
          "type": "uint256"
        }
      ],
      "name": "updateVaultDebt",
      "outputs": [
        {
          "internalType": "uint256",
          "name": "",
          "type": "uint256"
        }
      ],
      "stateMutability": "view",
      "type": "function"
    },
    {
      "inputs": [
        {
          "internalType": "uint256",
          "name": "vaultID",
          "type": "uint256"
        },
        {
          "internalType": "uint256",
          "name": "amount",
          "type": "uint256"
        },
        {
          "internalType": "uint256",
          "name": "_front",
          "type": "uint256"
        }
      ],
      "name": "payBackToken",
      "outputs": [],
      "stateMutability": "nonpayable",
      "type": "function"
    },
    {
      "inputs": [
        {
          "internalType": "uint256",
          "name": "vaultID",
          "type": "uint256"
        },
        {
          "internalType": "uint256",
          "name": "amount",
          "type": "uint256"
        }
      ],
      "name": "withdrawCollateral",
      "outputs": [],
      "stateMutability": "nonpayable",
      "type": "function"
    },
    {
      "inputs": [],
      "name": "newVault",
      "outputs": [],
      "stateMutability": "nonpayable",
      "type": "function"
    },
    {
      "inputs": [
        {
          "internalType": "address",
          "name": "_owner",
          "type": "address"
        }
      ],
      "name": "getMaiBalance",
      "outputs": [
        {
          "internalType": "uint256",
          "name": "",
          "type": "uint256"
        }
      ],
      "stateMutability": "view",
      "type": "function"
    },
    {
      "inputs": [
        {
          "internalType": "uint256",
          "name": "_vaultId",
          "type": "uint256"
        }
      ],
      "name": "getVaultDebt",
      "outputs": [
        {
          "internalType": "uint256",
          "name": "",
          "type": "uint256"
        }
      ],
      "stateMutability": "view",
      "type": "function"
    },
    {
      "inputs": [
        {
          "internalType": "uint256",
          "name": "_vaultId",
          "type": "uint256"
        }
      ],
      "name": "getVaultCollateral",
      "outputs": [
        {
          "internalType": "uint256",
          "name": "",
          "type": "uint256"
        }
      ],
      "stateMutability": "view",
      "type": "function"
    },
    {
      "inputs": [
        {
          "internalType": "uint256",
          "name": "_vaultId",
          "type": "uint256"
        }
      ],
      "name": "getOwner",
      "outputs": [
        {
          "internalType": "address",
          "name": "",
          "type": "address"
        }
      ],
      "stateMutability": "view",
      "type": "function"
    },
    {
      "inputs": [
        {
          "internalType": "uint256",
          "name": "_amount",
          "type": "uint256"
        }
      ],
      "name": "getMai",
      "outputs": [],
      "stateMutability": "nonpayable",
      "type": "function"
    }
  ],
  "bytecode": "0x6080604052600060055534801561001557600080fd5b5061180b806100256000396000f3fe608060405234801561001057600080fd5b50600436106101425760003560e01c8063767a7b05116100b8578063afca74391161007c578063afca743914610597578063c0d84ce514610605578063c41a360a14610673578063ece13732146106cb578063ee3e98e714610703578063f5b36dee1461074557610142565b8063767a7b051461048f57806388aaf0c8146104c75780639213b124146104d157806393ee476a1461051357806397a41b8e1461055557610142565b806363bda6e11161010a57806363bda6e1146102c957806369ca02dd146103215780636b5f6fda1461036f5780636e1645e71461039d57806370a08231146103f5578063719742621461044d57610142565b8063025e7c27146101475780632de333bf1461019f5780633128ef27146101ed57806335836f151461022f5780636352211e14610271575b600080fd5b6101736004803603602081101561015d57600080fd5b810190808035906020019092919050505061079d565b604051808273ffffffffffffffffffffffffffffffffffffffff16815260200191505060405180910390f35b6101eb600480360360408110156101b557600080fd5b81019080803573ffffffffffffffffffffffffffffffffffffffff169060200190929190803590602001909291905050506107d0565b005b61022d6004803603606081101561020357600080fd5b81019080803590602001909291908035906020019092919080359060200190929190505050610923565b005b61025b6004803603602081101561024557600080fd5b8101908080359060200190929190505050610b8a565b6040518082815260200191505060405180910390f35b61029d6004803603602081101561028757600080fd5b8101908080359060200190929190505050610ba7565b604051808273ffffffffffffffffffffffffffffffffffffffff16815260200191505060405180910390f35b61030b600480360360208110156102df57600080fd5b81019080803573ffffffffffffffffffffffffffffffffffffffff169060200190929190505050610be3565b6040518082815260200191505060405180910390f35b61036d6004803603604081101561033757600080fd5b81019080803573ffffffffffffffffffffffffffffffffffffffff16906020019092919080359060200190929190505050610c2c565b005b61039b6004803603602081101561038557600080fd5b8101908080359060200190929190505050610dd1565b005b6103df600480360360208110156103b357600080fd5b81019080803573ffffffffffffffffffffffffffffffffffffffff169060200190929190505050610e21565b6040518082815260200191505060405180910390f35b6104376004803603602081101561040b57600080fd5b81019080803573ffffffffffffffffffffffffffffffffffffffff169060200190929190505050610e39565b6040518082815260200191505060405180910390f35b6104796004803603602081101561046357600080fd5b8101908080359060200190929190505050610e82565b6040518082815260200191505060405180910390f35b6104c5600480360360408110156104a557600080fd5b810190808035906020019092919080359060200190929190505050610e9a565b005b6104cf6110e9565b005b6104fd600480360360208110156104e757600080fd5b810190808035906020019092919050505061119c565b6040518082815260200191505060405180910390f35b61053f6004803603602081101561052957600080fd5b81019080803590602001909291905050506111b4565b6040518082815260200191505060405180910390f35b6105956004803603606081101561056b57600080fd5b810190808035906020019092919080359060200190929190803590602001909291905050506111d1565b005b610603600480360360608110156105ad57600080fd5b81019080803573ffffffffffffffffffffffffffffffffffffffff169060200190929190803573ffffffffffffffffffffffffffffffffffffffff1690602001909291908035906020019092919050505061134b565b005b6106716004803603606081101561061b57600080fd5b81019080803573ffffffffffffffffffffffffffffffffffffffff169060200190929190803573ffffffffffffffffffffffffffffffffffffffff1690602001909291908035906020019092919050505061149f565b005b61069f6004803603602081101561068957600080fd5b8101908080359060200190929190505050611645565b604051808273ffffffffffffffffffffffffffffffffffffffff16815260200191505060405180910390f35b610701600480360360408110156106e157600080fd5b810190808035906020019092919080359060200190929190505050611681565b005b61072f6004803603602081101561071957600080fd5b810190808035906020019092919050505061175c565b6040518082815260200191505060405180910390f35b6107876004803603602081101561075b57600080fd5b81019080803573ffffffffffffffffffffffffffffffffffffffff169060200190929190505050611779565b6040518082815260200191505060405180910390f35b60006020528060005260406000206000915054906101000a900473ffffffffffffffffffffffffffffffffffffffff1681565b80600460003373ffffffffffffffffffffffffffffffffffffffff1673ffffffffffffffffffffffffffffffffffffffff168152602001908152602001600020541015610885576040517f08c379a00000000000000000000000000000000000000000000000000000000081526004018080602001828103825260198152602001807f596f7520646f6e2774206861766520656e6f756768206d61690000000000000081525060200191505060405180910390fd5b80600460003373ffffffffffffffffffffffffffffffffffffffff1673ffffffffffffffffffffffffffffffffffffffff1681526020019081526020016000206000828254039250508190555080600460008473ffffffffffffffffffffffffffffffffffffffff1673ffffffffffffffffffffffffffffffffffffffff168152602001908152602001600020600082825401925050819055505050565b3373ffffffffffffffffffffffffffffffffffffffff1660008085815260200190815260200160002060009054906101000a900473ffffffffffffffffffffffffffffffffffffffff1673ffffffffffffffffffffffffffffffffffffffff16146109d9576040517f08c379a00000000000000000000000000000000000000000000000000000000081526004018080602001828103825260238152602001806117b36023913960400191505060405180910390fd5b8160036000858152602001908152602001600020541015610a62576040517f08c379a000000000000000000000000000000000000000000000000000000000815260040180806020018281038252601a8152602001807f596f7520646f6e2774206861766520656e6f756768206465627400000000000081525060200191505060405180910390fd5b81600460003373ffffffffffffffffffffffffffffffffffffffff1673ffffffffffffffffffffffffffffffffffffffff168152602001908152602001600020541015610b17576040517f08c379a00000000000000000000000000000000000000000000000000000000081526004018080602001828103825260198152602001807f596f7520646f6e2774206861766520656e6f756768206d61690000000000000081525060200191505060405180910390fd5b81600360008581526020019081526020016000206000828254039250508190555081600460003373ffffffffffffffffffffffffffffffffffffffff1673ffffffffffffffffffffffffffffffffffffffff16815260200190815260200160002060008282540392505081905550505050565b600060036000838152602001908152602001600020549050919050565b600080600083815260200190815260200160002060009054906101000a900473ffffffffffffffffffffffffffffffffffffffff169050919050565b6000600460008373ffffffffffffffffffffffffffffffffffffffff1673ffffffffffffffffffffffffffffffffffffffff168152602001908152602001600020549050919050565b3373ffffffffffffffffffffffffffffffffffffffff1660008083815260200190815260200160002060009054906101000a900473ffffffffffffffffffffffffffffffffffffffff1673ffffffffffffffffffffffffffffffffffffffff1614610ce2576040517f08c379a00000000000000000000000000000000000000000000000000000000081526004018080602001828103825260218152602001806117926021913960400191505060405180910390fd5b8160008083815260200190815260200160002060006101000a81548173ffffffffffffffffffffffffffffffffffffffff021916908373ffffffffffffffffffffffffffffffffffffffff16021790555060018060003373ffffffffffffffffffffffffffffffffffffffff1673ffffffffffffffffffffffffffffffffffffffff1681526020019081526020016000206000828254039250508190555060018060008473ffffffffffffffffffffffffffffffffffffffff1673ffffffffffffffffffffffffffffffffffffffff168152602001908152602001600020600082825401925050819055505050565b80600460003373ffffffffffffffffffffffffffffffffffffffff1673ffffffffffffffffffffffffffffffffffffffff1681526020019081526020016000206000828254019250508190555050565b60016020528060005260406000206000915090505481565b6000600160008373ffffffffffffffffffffffffffffffffffffffff1673ffffffffffffffffffffffffffffffffffffffff168152602001908152602001600020549050919050565b60036020528060005260406000206000915090505481565b3373ffffffffffffffffffffffffffffffffffffffff1660008084815260200190815260200160002060009054906101000a900473ffffffffffffffffffffffffffffffffffffffff1673ffffffffffffffffffffffffffffffffffffffff1614610f50576040517f08c379a00000000000000000000000000000000000000000000000000000000081526004018080602001828103825260238152602001806117b36023913960400191505060405180910390fd5b8060026000848152602001908152602001600020541015610fd9576040517f08c379a00000000000000000000000000000000000000000000000000000000081526004018080602001828103825260208152602001807f596f7520646f6e2774206861766520656e6f75676820636f6c6c61746572616c81525060200191505060405180910390fd5b8060026000848152602001908152602001600020540360036000848152602001908152602001600020541115611077576040517f08c379a00000000000000000000000000000000000000000000000000000000081526004018080602001828103825260208152602001807f596f7520646f6e2774206861766520656e6f75676820636f6c6c61746572616c81525060200191505060405180910390fd5b80600260008481526020019081526020016000206000828254039250508190555080600460003373ffffffffffffffffffffffffffffffffffffffff1673ffffffffffffffffffffffffffffffffffffffff168152602001908152602001600020600082825401925050819055505050565b600160056000828254019250508190555033600080600554815260200190815260200160002060006101000a81548173ffffffffffffffffffffffffffffffffffffffff021916908373ffffffffffffffffffffffffffffffffffffffff16021790555060018060003373ffffffffffffffffffffffffffffffffffffffff1673ffffffffffffffffffffffffffffffffffffffff16815260200190815260200160002060008282540192505081905550565b60026020528060005260406000206000915090505481565b600060036000838152602001908152602001600020549050919050565b3373ffffffffffffffffffffffffffffffffffffffff1660008085815260200190815260200160002060009054906101000a900473ffffffffffffffffffffffffffffffffffffffff1673ffffffffffffffffffffffffffffffffffffffff1614611287576040517f08c379a00000000000000000000000000000000000000000000000000000000081526004018080602001828103825260218152602001806117926021913960400191505060405180910390fd5b8160036000858152602001908152602001600020546002600086815260200190815260200160002054031015611325576040517f08c379a00000000000000000000000000000000000000000000000000000000081526004018080602001828103825260208152602001807f596f7520646f6e2774206861766520656e6f75676820636f6c6c61746572616c81525060200191505060405180910390fd5b816003600085815260200190815260200160002060008282540192505081905550505050565b80600460008573ffffffffffffffffffffffffffffffffffffffff1673ffffffffffffffffffffffffffffffffffffffff168152602001908152602001600020541015611400576040517f08c379a00000000000000000000000000000000000000000000000000000000081526004018080602001828103825260198152602001807f596f7520646f6e2774206861766520656e6f756768206d61690000000000000081525060200191505060405180910390fd5b80600460008573ffffffffffffffffffffffffffffffffffffffff1673ffffffffffffffffffffffffffffffffffffffff1681526020019081526020016000206000828254039250508190555080600460008473ffffffffffffffffffffffffffffffffffffffff1673ffffffffffffffffffffffffffffffffffffffff16815260200190815260200160002060008282540192505081905550505050565b3373ffffffffffffffffffffffffffffffffffffffff1660008083815260200190815260200160002060009054906101000a900473ffffffffffffffffffffffffffffffffffffffff1673ffffffffffffffffffffffffffffffffffffffff1614611555576040517f08c379a00000000000000000000000000000000000000000000000000000000081526004018080602001828103825260218152602001806117926021913960400191505060405180910390fd5b8160008083815260200190815260200160002060006101000a81548173ffffffffffffffffffffffffffffffffffffffff021916908373ffffffffffffffffffffffffffffffffffffffff16021790555060018060008573ffffffffffffffffffffffffffffffffffffffff1673ffffffffffffffffffffffffffffffffffffffff1681526020019081526020016000206000828254039250508190555060018060008473ffffffffffffffffffffffffffffffffffffffff1673ffffffffffffffffffffffffffffffffffffffff16815260200190815260200160002060008282540192505081905550505050565b600080600083815260200190815260200160002060009054906101000a900473ffffffffffffffffffffffffffffffffffffffff169050919050565b3373ffffffffffffffffffffffffffffffffffffffff1660008084815260200190815260200160002060009054906101000a900473ffffffffffffffffffffffffffffffffffffffff1673ffffffffffffffffffffffffffffffffffffffff1614611737576040517f08c379a00000000000000000000000000000000000000000000000000000000081526004018080602001828103825260218152602001806117926021913960400191505060405180910390fd5b8060026000848152602001908152602001600020600082825401925050819055505050565b600060026000838152602001908152602001600020549050919050565b6004602052806000526040600020600091509050548156fe596f7520617265206e6f7420746865206f776e6572206f662074686973204e4654596f7520617265206e6f7420746865206f776e6572206f662074686973207661756c74a264697066735822122080d61963c303d661e5eb60cb8d7c3893d025d320ee20c5dfa7cc2b6de06ac5fb64736f6c63430007000033",
  "immutableReferences": {},
  "source": "// min des fcts a faire :\n// ownerOf\n// balanceOf\n// borrowToken\n// depositCollateral\n// Transfer\n// updateVaultDebt\n// payBackToken\n\n\n// SPDX-License-Identifier: MIT\n\npragma solidity ^0.7.0; // regarder la version sur les contracts de qidao 0.5.5 demander à Nandy quel est le mieux \n\nimport \"@openzeppelin/contracts/token/ERC721/IERC721.sol\";\nimport \"@openzeppelin/contracts/token/ERC721/ERC721.sol\";\n\ncontract fakeMaiVault{\n\n    mapping (uint256 => address) public owners; // associe un nft a son owner\n    mapping (address => uint256) public erc721Balance; // balance de nft d'un owner\n    mapping(uint256 => uint256) public _deposit; // deposit dans le vault : vault => montant total déposé\n    mapping(uint256 => uint256) public maiDebt; // montant de mai emprunté par une vault : vault => debt\n    mapping(address => uint256) public maiBalance; // monta de may détenu par chaque addresse\n\n    uint256 vaultCount = 0;\n\n    function ownerOf(uint256 _tokenId) public view returns (address) {\n        return owners[_tokenId];\n    }\n\n    function balanceOf(address _owner) public view returns (uint256) {\n        return erc721Balance[_owner];\n    }\n\n    function borrowToken(uint256 _erc721_Id,uint256 amount,uint256 _front) public {\n        require(owners[_erc721_Id] == msg.sender, \"You are not the owner of this NFT\");\n        require(_deposit[_erc721_Id] - maiDebt[_erc721_Id] >= amount, \"You don't have enough collateral\");\n        maiDebt[_erc721_Id] += amount;\n        // transfert de token\n    }\n\n    function depositCollateral(uint256 _erc721_Id,uint256 amount) public {\n        require(owners[_erc721_Id] == msg.sender, \"You are not the owner of this NFT\");\n        _deposit[_erc721_Id] += amount;\n    }\n\n    function Transfer(address _to, uint256 _erc721_Id) public {\n        require(owners[_erc721_Id] == msg.sender, \"You are not the owner of this NFT\");\n        owners[_erc721_Id] = _to;\n        erc721Balance[msg.sender] -= 1;\n        erc721Balance[_to] += 1;\n    }\n\n    function TransferFrom(address from, address _to, uint256 _erc721_Id) public {\n        require(owners[_erc721_Id] == msg.sender, \"You are not the owner of this NFT\");\n        owners[_erc721_Id] = _to;\n        erc721Balance[from] -= 1;\n        erc721Balance[_to] += 1;\n    }\n\n    function TransferMai(address _to, uint256 amount) public {\n        require(maiBalance[msg.sender] >= amount, \"You don't have enough mai\");\n        maiBalance[msg.sender] -= amount;\n        maiBalance[_to] += amount;\n    }\n\n    function TransferMaiFrom(address from, address _to, uint256 amount) public {\n        require(maiBalance[from] >= amount, \"You don't have enough mai\");\n        maiBalance[from] -= amount;\n        maiBalance[_to] += amount;\n    }\n\n    function updateVaultDebt(uint256 vaultId) public view returns (uint256) {\n        return maiDebt[vaultId];\n    }\n\n    function payBackToken( uint256 vaultID, uint256 amount, uint256 _front) public {\n        require(owners[vaultID] == msg.sender, \"You are not the owner of this vault\");\n        require(maiDebt[vaultID] >= amount, \"You don't have enough debt\");\n        require(maiBalance[msg.sender] >= amount, \"You don't have enough mai\");\n        maiDebt[vaultID] -= amount;\n        maiBalance[msg.sender] -= amount;\n    }\n\n    function withdrawCollateral(uint256 vaultID, uint256 amount) public {\n        require(owners[vaultID] == msg.sender, \"You are not the owner of this vault\");\n        require(_deposit[vaultID] >= amount, \"You don't have enough collateral\");\n        require(maiDebt[vaultID] <= _deposit[vaultID] - amount, \"You don't have enough collateral\");\n        _deposit[vaultID] -= amount;\n        maiBalance[msg.sender] += amount;\n    }\n\n    function newVault() public{\n        vaultCount += 1;\n        owners[vaultCount] = msg.sender;\n        erc721Balance[msg.sender] += 1;\n    }\n\n\n    // view\n    function getMaiBalance(address _owner) public view returns (uint256) {\n        return maiBalance[_owner];\n    }\n    function getVaultDebt(uint256 _vaultId) public view returns (uint256) {\n        return maiDebt[_vaultId];\n    }\n    function getVaultCollateral(uint256 _vaultId) public view returns (uint256) {\n        return _deposit[_vaultId];\n    }\n    function getOwner(uint256 _vaultId) public view returns (address) {\n        return owners[_vaultId];\n    }\n\n    //faucet\n    function getMai(uint256 _amount) public {\n        maiBalance[msg.sender] += _amount;\n    }\n\n\n    \n}\n",
  "sourcePath": "/home/lejamon/Documents/GitHub/KS-PI2/mai-finance/contract/contracts/fakeVault.sol",
  "compiler": {
    "name": "solc",
    "version": "0.7.0+commit.9e61f92b.Emscripten.clang"
  },
  "schemaVersion": "3.4.11",
  "updatedAt": "2023-01-12T10:39:47.173Z",
  "devdoc": {
    "kind": "dev",
    "methods": {},
    "version": 1
  },
  "userdoc": {
    "kind": "user",
    "methods": {},
    "version": 1
  }
}