{
  "contractName": "delegate",
  "abi": [
    {
      "inputs": [
        {
          "internalType": "address",
          "name": "_mai",
          "type": "address"
        },
        {
          "internalType": "address",
          "name": "_vault",
          "type": "address"
        }
      ],
      "stateMutability": "nonpayable",
      "type": "constructor"
    },
    {
      "anonymous": false,
      "inputs": [
        {
          "indexed": true,
          "internalType": "address",
          "name": "depositor",
          "type": "address"
        },
        {
          "indexed": false,
          "internalType": "address",
          "name": "vault",
          "type": "address"
        },
        {
          "indexed": false,
          "internalType": "uint256",
          "name": "amount",
          "type": "uint256"
        }
      ],
      "name": "BorrowedToMaiFinance",
      "type": "event"
    },
    {
      "anonymous": false,
      "inputs": [
        {
          "indexed": false,
          "internalType": "address",
          "name": "",
          "type": "address"
        },
        {
          "indexed": false,
          "internalType": "address",
          "name": "",
          "type": "address"
        },
        {
          "indexed": false,
          "internalType": "string",
          "name": "",
          "type": "string"
        },
        {
          "indexed": false,
          "internalType": "uint256",
          "name": "",
          "type": "uint256"
        },
        {
          "indexed": false,
          "internalType": "uint256",
          "name": "",
          "type": "uint256"
        }
      ],
      "name": "DelegationApproved",
      "type": "event"
    },
    {
      "anonymous": false,
      "inputs": [
        {
          "indexed": false,
          "internalType": "address",
          "name": "",
          "type": "address"
        },
        {
          "indexed": false,
          "internalType": "string",
          "name": "",
          "type": "string"
        },
        {
          "indexed": false,
          "internalType": "uint256",
          "name": "",
          "type": "uint256"
        }
      ],
      "name": "NftWithdrawn",
      "type": "event"
    },
    {
      "anonymous": false,
      "inputs": [
        {
          "indexed": false,
          "internalType": "address",
          "name": "",
          "type": "address"
        },
        {
          "indexed": false,
          "internalType": "uint256",
          "name": "",
          "type": "uint256"
        }
      ],
      "name": "TokenReceived",
      "type": "event"
    },
    {
      "inputs": [],
      "name": "_fakevault",
      "outputs": [
        {
          "internalType": "contract FakeVault",
          "name": "",
          "type": "address"
        }
      ],
      "stateMutability": "view",
      "type": "function",
      "constant": true
    },
    {
      "inputs": [
        {
          "internalType": "address",
          "name": "",
          "type": "address"
        },
        {
          "internalType": "address",
          "name": "",
          "type": "address"
        },
        {
          "internalType": "string",
          "name": "",
          "type": "string"
        },
        {
          "internalType": "uint256",
          "name": "",
          "type": "uint256"
        }
      ],
      "name": "hasBorrowed",
      "outputs": [
        {
          "internalType": "uint256",
          "name": "",
          "type": "uint256"
        }
      ],
      "stateMutability": "view",
      "type": "function",
      "constant": true
    },
    {
      "inputs": [
        {
          "internalType": "address",
          "name": "",
          "type": "address"
        },
        {
          "internalType": "address",
          "name": "",
          "type": "address"
        },
        {
          "internalType": "string",
          "name": "",
          "type": "string"
        },
        {
          "internalType": "uint256",
          "name": "",
          "type": "uint256"
        }
      ],
      "name": "hasDelegated",
      "outputs": [
        {
          "internalType": "uint256",
          "name": "",
          "type": "uint256"
        }
      ],
      "stateMutability": "view",
      "type": "function",
      "constant": true
    },
    {
      "inputs": [
        {
          "internalType": "address",
          "name": "",
          "type": "address"
        },
        {
          "internalType": "string",
          "name": "",
          "type": "string"
        },
        {
          "internalType": "uint256",
          "name": "",
          "type": "uint256"
        }
      ],
      "name": "isOwner",
      "outputs": [
        {
          "internalType": "uint256",
          "name": "",
          "type": "uint256"
        }
      ],
      "stateMutability": "view",
      "type": "function",
      "constant": true
    },
    {
      "inputs": [],
      "name": "mai",
      "outputs": [
        {
          "internalType": "contract ERC20",
          "name": "",
          "type": "address"
        }
      ],
      "stateMutability": "view",
      "type": "function",
      "constant": true
    },
    {
      "inputs": [
        {
          "internalType": "string",
          "name": "",
          "type": "string"
        }
      ],
      "name": "vaultAddress",
      "outputs": [
        {
          "internalType": "address",
          "name": "",
          "type": "address"
        }
      ],
      "stateMutability": "view",
      "type": "function",
      "constant": true
    },
    {
      "inputs": [
        {
          "internalType": "string",
          "name": "",
          "type": "string"
        },
        {
          "internalType": "uint256",
          "name": "",
          "type": "uint256"
        }
      ],
      "name": "vaultDebt",
      "outputs": [
        {
          "internalType": "uint256",
          "name": "",
          "type": "uint256"
        }
      ],
      "stateMutability": "view",
      "type": "function",
      "constant": true
    },
    {
      "inputs": [
        {
          "internalType": "address",
          "name": "operator",
          "type": "address"
        },
        {
          "internalType": "address",
          "name": "from",
          "type": "address"
        },
        {
          "internalType": "uint256",
          "name": "tokenId",
          "type": "uint256"
        },
        {
          "internalType": "bytes",
          "name": "data",
          "type": "bytes"
        }
      ],
      "name": "onERC721Received",
      "outputs": [
        {
          "internalType": "bytes4",
          "name": "",
          "type": "bytes4"
        }
      ],
      "stateMutability": "nonpayable",
      "type": "function"
    },
    {
      "inputs": [
        {
          "internalType": "uint256",
          "name": "_erc721_Id",
          "type": "uint256"
        },
        {
          "internalType": "string",
          "name": "_vault",
          "type": "string"
        }
      ],
      "name": "depositErc721",
      "outputs": [],
      "stateMutability": "nonpayable",
      "type": "function"
    },
    {
      "inputs": [
        {
          "internalType": "address",
          "name": "_owner",
          "type": "address"
        },
        {
          "internalType": "address",
          "name": "_borrower",
          "type": "address"
        },
        {
          "internalType": "string",
          "name": "_vault",
          "type": "string"
        },
        {
          "internalType": "uint256",
          "name": "_erc721_Id",
          "type": "uint256"
        },
        {
          "internalType": "uint256",
          "name": "_amount",
          "type": "uint256"
        }
      ],
      "name": "approveDelegation",
      "outputs": [],
      "stateMutability": "nonpayable",
      "type": "function"
    },
    {
      "inputs": [
        {
          "internalType": "address",
          "name": "_owner",
          "type": "address"
        },
        {
          "internalType": "address",
          "name": "_borrower",
          "type": "address"
        },
        {
          "internalType": "string",
          "name": "_vault",
          "type": "string"
        },
        {
          "internalType": "uint256",
          "name": "_erc721_Id",
          "type": "uint256"
        }
      ],
      "name": "userBorrowMai",
      "outputs": [],
      "stateMutability": "nonpayable",
      "type": "function"
    },
    {
      "inputs": [
        {
          "internalType": "uint256",
          "name": "_amount",
          "type": "uint256"
        },
        {
          "internalType": "address",
          "name": "_owner",
          "type": "address"
        },
        {
          "internalType": "address",
          "name": "_borrower",
          "type": "address"
        },
        {
          "internalType": "string",
          "name": "_vault",
          "type": "string"
        },
        {
          "internalType": "uint256",
          "name": "_erc721_Id",
          "type": "uint256"
        }
      ],
      "name": "repayLoan",
      "outputs": [],
      "stateMutability": "nonpayable",
      "type": "function"
    },
    {
      "inputs": [
        {
          "internalType": "string",
          "name": "_vault",
          "type": "string"
        },
        {
          "internalType": "uint256",
          "name": "_erc721_Id",
          "type": "uint256"
        },
        {
          "internalType": "address",
          "name": "_owner",
          "type": "address"
        },
        {
          "internalType": "address",
          "name": "_borrower",
          "type": "address"
        }
      ],
      "name": "withdraw_NFT",
      "outputs": [],
      "stateMutability": "nonpayable",
      "type": "function"
    },
    {
      "inputs": [
        {
          "internalType": "string",
          "name": "_vault",
          "type": "string"
        }
      ],
      "name": "testAllowance",
      "outputs": [],
      "stateMutability": "nonpayable",
      "type": "function"
    }
  ],
  "bytecode": "0x60806040523480156200001157600080fd5b5060405162002b9238038062002b928339818101604052810190620000379190620000f4565b80600460405162000048906200015c565b908152602001604051809103902060006101000a81548173ffffffffffffffffffffffffffffffffffffffff021916908373ffffffffffffffffffffffffffffffffffffffff16021790555081600660006101000a81548173ffffffffffffffffffffffffffffffffffffffff021916908373ffffffffffffffffffffffffffffffffffffffff1602179055505050620001f5565b600081519050620000ee81620001db565b92915050565b600080604083850312156200010857600080fd5b60006200011885828601620000dd565b92505060206200012b85828601620000dd565b9150509250929050565b60006200014460058362000173565b91506200015182620001b2565b600582019050919050565b6000620001698262000135565b9150819050919050565b600081905092915050565b60006200018b8262000192565b9050919050565b600073ffffffffffffffffffffffffffffffffffffffff82169050919050565b7f74656d706f000000000000000000000000000000000000000000000000000000600082015250565b620001e6816200017e565b8114620001f257600080fd5b50565b61298d80620002056000396000f3fe608060405234801561001057600080fd5b50600436106100ea5760003560e01c8063882218421161008c578063ab1786d111610066578063ab1786d114610259578063d905492a14610289578063e0f75d5d146102a7578063f9affc1a146102d7576100ea565b806388221842146101f15780638a678dc6146102215780638e9b02701461023d576100ea565b8063570b2b84116100c8578063570b2b841461016b5780636181396d1461018957806365df1d4a146101a55780637b45ebcf146101d5576100ea565b806304813b6a146100ef578063150b7a021461010b5780635514e35b1461013b575b600080fd5b61010960048036038101906101049190611c6d565b6102f3565b005b61012560048036038101906101209190611a4d565b610639565b60405161013291906120f4565b60405180910390f35b61015560048036038101906101509190611b9e565b61064e565b60405161016291906122a5565b60405180910390f35b610173610689565b604051610180919061210f565b60405180910390f35b6101a3600480360381019061019e9190611bf2565b6106af565b005b6101bf60048036038101906101ba9190611943565b610947565b6040516101cc91906122a5565b60405180910390f35b6101ef60048036038101906101ea9190611943565b61099c565b005b61020b60048036038101906102069190611b5d565b610dd6565b6040516102189190612012565b60405180910390f35b61023b60048036038101906102369190611b5d565b610e1f565b005b610257600480360381019061025291906119be565b610f12565b005b610273600480360381019061026e9190611943565b611365565b60405161028091906122a5565b60405180910390f35b6102916113ba565b60405161029e919061212a565b60405180910390f35b6102c160048036038101906102bc9190611acd565b6113e0565b6040516102ce91906122a5565b60405180910390f35b6102f160048036038101906102ec9190611cfc565b611434565b005b60006004836040516103059190611ffb565b908152602001604051809103902060009054906101000a900473ffffffffffffffffffffffffffffffffffffffff169050600360008673ffffffffffffffffffffffffffffffffffffffff1673ffffffffffffffffffffffffffffffffffffffff16815260200190815260200160002060008573ffffffffffffffffffffffffffffffffffffffff1673ffffffffffffffffffffffffffffffffffffffff168152602001908152602001600020836040516103c09190611ffb565b90815260200160405180910390206000838152602001908152602001600020548614610421576040517f08c379a0000000000000000000000000000000000000000000000000000000008152600401610418906121e5565b60405180910390fd5b600660009054906101000a900473ffffffffffffffffffffffffffffffffffffffff1673ffffffffffffffffffffffffffffffffffffffff16633950935160048560405161046f9190611ffb565b908152602001604051809103902060009054906101000a900473ffffffffffffffffffffffffffffffffffffffff16886040518363ffffffff1660e01b81526004016104bc9291906120cb565b602060405180830381600087803b1580156104d657600080fd5b505af11580156104ea573d6000803e3d6000fd5b505050506040513d601f19601f8201168201806040525081019061050e9190611b34565b50600660009054906101000a900473ffffffffffffffffffffffffffffffffffffffff1673ffffffffffffffffffffffffffffffffffffffff166323b872dd3330896040518463ffffffff1660e01b815260040161056e9392919061202d565b602060405180830381600087803b15801561058857600080fd5b505af115801561059c573d6000803e3d6000fd5b505050506040513d601f19601f820116820180604052508101906105c09190611b34565b508073ffffffffffffffffffffffffffffffffffffffff16633128ef27838860006040518463ffffffff1660e01b81526004016105ff939291906122c0565b600060405180830381600087803b15801561061957600080fd5b505af115801561062d573d6000803e3d6000fd5b50505050505050505050565b600063150b7a0260e01b905095945050505050565b600582805160208101820180518482526020830160208501208183528095505050505050602052806000526040600020600091509150505481565b600660009054906101000a900473ffffffffffffffffffffffffffffffffffffffff1681565b60006005856040516106c19190611ffb565b908152602001604051809103902060008581526020019081526020016000205414610721576040517f08c379a000000000000000000000000000000000000000000000000000000000815260040161071890612265565b60405180910390fd5b6000805b60018060003373ffffffffffffffffffffffffffffffffffffffff1673ffffffffffffffffffffffffffffffffffffffff168152602001908152602001600020876040516107739190611ffb565b90815260200160405180910390208054905061078f91906123c1565b8110156108575784600160003373ffffffffffffffffffffffffffffffffffffffff1673ffffffffffffffffffffffffffffffffffffffff168152602001908152602001600020876040516107e49190611ffb565b9081526020016040518091039020828154811061082a577f4e487b7100000000000000000000000000000000000000000000000000000000600052603260045260246000fd5b906000526020600020015414156108445760019150610857565b808061084f90612567565b915050610725565b506004856040516108689190611ffb565b908152602001604051809103902060009054906101000a900473ffffffffffffffffffffffffffffffffffffffff1673ffffffffffffffffffffffffffffffffffffffff166342842e0e3033876040518463ffffffff1660e01b81526004016108d39392919061202d565b600060405180830381600087803b1580156108ed57600080fd5b505af1158015610901573d6000803e3d6000fd5b505050507fe69b73faa6b60e6842aaa2a4f58ad817b470058a36be3794d11fd5e1a43b6f9d3386866040516109389392919061208d565b60405180910390a15050505050565b6003602052836000526040600020602052826000526040600020828051602081018201805184825260208301602085012081835280955050505050506020528060005260406000206000935093505050505481565b8273ffffffffffffffffffffffffffffffffffffffff163373ffffffffffffffffffffffffffffffffffffffff1614610a0a576040517f08c379a0000000000000000000000000000000000000000000000000000000008152600401610a01906121a5565b60405180910390fd5b6000600260008673ffffffffffffffffffffffffffffffffffffffff1673ffffffffffffffffffffffffffffffffffffffff16815260200190815260200160002060008573ffffffffffffffffffffffffffffffffffffffff1673ffffffffffffffffffffffffffffffffffffffff16815260200190815260200160002083604051610a969190611ffb565b908152602001604051809103902060008381526020019081526020016000205490506000600484604051610aca9190611ffb565b908152602001604051809103902060009054906101000a900473ffffffffffffffffffffffffffffffffffffffff1673ffffffffffffffffffffffffffffffffffffffff1683836000604051602401610b25939291906122f7565b6040516020818303038152906040527f97a41b8e000000000000000000000000000000000000000000000000000000007bffffffffffffffffffffffffffffffffffffffffffffffffffffffff19166020820180517bffffffffffffffffffffffffffffffffffffffffffffffffffffffff8381831617835250505050604051610baf9190611fe4565b6000604051808303816000865af19150503d8060008114610bec576040519150601f19603f3d011682016040523d82523d6000602084013e610bf1565b606091505b505090506001151581151514610c3c576040517f08c379a0000000000000000000000000000000000000000000000000000000008152600401610c3390612185565b60405180910390fd5b600660009054906101000a900473ffffffffffffffffffffffffffffffffffffffff1673ffffffffffffffffffffffffffffffffffffffff1663a9059cbb33846040518363ffffffff1660e01b8152600401610c999291906120cb565b602060405180830381600087803b158015610cb357600080fd5b505af1158015610cc7573d6000803e3d6000fd5b505050506040513d601f19601f82011682018060405250810190610ceb9190611b34565b5081600360008873ffffffffffffffffffffffffffffffffffffffff1673ffffffffffffffffffffffffffffffffffffffff16815260200190815260200160002060008773ffffffffffffffffffffffffffffffffffffffff1673ffffffffffffffffffffffffffffffffffffffff16815260200190815260200160002085604051610d779190611ffb565b908152602001604051809103902060008581526020019081526020016000208190555081600585604051610dab9190611ffb565b9081526020016040518091039020600085815260200190815260200160002081905550505050505050565b6004818051602081018201805184825260208301602085012081835280955050505050506000915054906101000a900473ffffffffffffffffffffffffffffffffffffffff1681565b600660009054906101000a900473ffffffffffffffffffffffffffffffffffffffff1673ffffffffffffffffffffffffffffffffffffffff166339509351600483604051610e6d9190611ffb565b908152602001604051809103902060009054906101000a900473ffffffffffffffffffffffffffffffffffffffff166101906040518363ffffffff1660e01b8152600401610ebc929190612064565b602060405180830381600087803b158015610ed657600080fd5b505af1158015610eea573d6000803e3d6000fd5b505050506040513d601f19601f82011682018060405250810190610f0e9190611b34565b5050565b60008573ffffffffffffffffffffffffffffffffffffffff163373ffffffffffffffffffffffffffffffffffffffff1614610f82576040517f08c379a0000000000000000000000000000000000000000000000000000000008152600401610f7990612165565b60405180910390fd5b60008211610fc5576040517f08c379a0000000000000000000000000000000000000000000000000000000008152600401610fbc90612145565b60405180910390fd5b8573ffffffffffffffffffffffffffffffffffffffff168573ffffffffffffffffffffffffffffffffffffffff161415611034576040517f08c379a000000000000000000000000000000000000000000000000000000000815260040161102b90612205565b60405180910390fd5b600073ffffffffffffffffffffffffffffffffffffffff168573ffffffffffffffffffffffffffffffffffffffff1614156110a4576040517f08c379a000000000000000000000000000000000000000000000000000000000815260040161109b90612225565b60405180910390fd5b60005b60018060008973ffffffffffffffffffffffffffffffffffffffff1673ffffffffffffffffffffffffffffffffffffffff168152602001908152602001600020866040516110f59190611ffb565b90815260200160405180910390208054905061111191906123c1565b81116111d857600160008873ffffffffffffffffffffffffffffffffffffffff1673ffffffffffffffffffffffffffffffffffffffff168152602001908152602001600020856040516111649190611ffb565b908152602001604051809103902081815481106111aa577f4e487b7100000000000000000000000000000000000000000000000000000000600052603260045260246000fd5b90600052602060002001548414156111c557600191506111d8565b80806111d090612567565b9150506110a7565b50600015158115151415611221576040517f08c379a000000000000000000000000000000000000000000000000000000000815260040161121890612285565b60405180910390fd5b81600260008873ffffffffffffffffffffffffffffffffffffffff1673ffffffffffffffffffffffffffffffffffffffff16815260200190815260200160002060008773ffffffffffffffffffffffffffffffffffffffff1673ffffffffffffffffffffffffffffffffffffffff168152602001908152602001600020856040516112ac9190611ffb565b90815260200160405180910390206000858152602001908152602001600020819055508573ffffffffffffffffffffffffffffffffffffffff167ff246cb6f95a7c3bfda1a3e85094fba64ccec23277661166f09e2bb3b8fdc6bef6004866040516113179190611ffb565b908152602001604051809103902060009054906101000a900473ffffffffffffffffffffffffffffffffffffffff16846040516113559291906120cb565b60405180910390a2505050505050565b6002602052836000526040600020602052826000526040600020828051602081018201805184825260208301602085012081835280955050505050506020528060005260406000206000935093505050505481565b600760009054906101000a900473ffffffffffffffffffffffffffffffffffffffff1681565b600160205282600052604060002082805160208101820180518482526020830160208501208183528095505050505050818154811061141e57600080fd5b9060005260206000200160009250925050505481565b60006004826040516114469190611ffb565b908152602001604051809103902060009054906101000a900473ffffffffffffffffffffffffffffffffffffffff1673ffffffffffffffffffffffffffffffffffffffff16636352211e846040518263ffffffff1660e01b81526004016114ad91906122a5565b60206040518083038186803b1580156114c557600080fd5b505afa1580156114d9573d6000803e3d6000fd5b505050506040513d601f19601f820116820180604052508101906114fd919061191a565b90503373ffffffffffffffffffffffffffffffffffffffff168173ffffffffffffffffffffffffffffffffffffffff161461156d576040517f08c379a000000000000000000000000000000000000000000000000000000000815260040161156490612245565b60405180910390fd5b60048260405161157d9190611ffb565b908152602001604051809103902060009054906101000a900473ffffffffffffffffffffffffffffffffffffffff1673ffffffffffffffffffffffffffffffffffffffff166342842e0e8230866040518463ffffffff1660e01b81526004016115e89392919061202d565b600060405180830381600087803b15801561160257600080fd5b505af1158015611616573d6000803e3d6000fd5b50505050600060048360405161162c9190611ffb565b908152602001604051809103902060009054906101000a900473ffffffffffffffffffffffffffffffffffffffff1673ffffffffffffffffffffffffffffffffffffffff16636352211e856040518263ffffffff1660e01b815260040161169391906122a5565b60206040518083038186803b1580156116ab57600080fd5b505afa1580156116bf573d6000803e3d6000fd5b505050506040513d601f19601f820116820180604052508101906116e3919061191a565b90503073ffffffffffffffffffffffffffffffffffffffff168173ffffffffffffffffffffffffffffffffffffffff1614611753576040517f08c379a000000000000000000000000000000000000000000000000000000000815260040161174a906121c5565b60405180910390fd5b600160003373ffffffffffffffffffffffffffffffffffffffff1673ffffffffffffffffffffffffffffffffffffffff168152602001908152602001600020836040516117a09190611ffb565b90815260200160405180910390208490806001815401808255809150506001900390600052602060002001600090919091909150557f47998b4998056cd0448b356cfcb8cb0eb18fa00844e43e71947e22fcb6fd43ef33856040516118069291906120cb565b60405180910390a150505050565b600061182761182284612353565b61232e565b90508281526020810184848401111561183f57600080fd5b61184a8482856124f4565b509392505050565b60008135905061186181612912565b92915050565b60008151905061187681612912565b92915050565b60008151905061188b81612929565b92915050565b60008083601f8401126118a357600080fd5b8235905067ffffffffffffffff8111156118bc57600080fd5b6020830191508360018202830111156118d457600080fd5b9250929050565b600082601f8301126118ec57600080fd5b81356118fc848260208601611814565b91505092915050565b60008135905061191481612940565b92915050565b60006020828403121561192c57600080fd5b600061193a84828501611867565b91505092915050565b6000806000806080858703121561195957600080fd5b600061196787828801611852565b945050602061197887828801611852565b935050604085013567ffffffffffffffff81111561199557600080fd5b6119a1878288016118db565b92505060606119b287828801611905565b91505092959194509250565b600080600080600060a086880312156119d657600080fd5b60006119e488828901611852565b95505060206119f588828901611852565b945050604086013567ffffffffffffffff811115611a1257600080fd5b611a1e888289016118db565b9350506060611a2f88828901611905565b9250506080611a4088828901611905565b9150509295509295909350565b600080600080600060808688031215611a6557600080fd5b6000611a7388828901611852565b9550506020611a8488828901611852565b9450506040611a9588828901611905565b935050606086013567ffffffffffffffff811115611ab257600080fd5b611abe88828901611891565b92509250509295509295909350565b600080600060608486031215611ae257600080fd5b6000611af086828701611852565b935050602084013567ffffffffffffffff811115611b0d57600080fd5b611b19868287016118db565b9250506040611b2a86828701611905565b9150509250925092565b600060208284031215611b4657600080fd5b6000611b548482850161187c565b91505092915050565b600060208284031215611b6f57600080fd5b600082013567ffffffffffffffff811115611b8957600080fd5b611b95848285016118db565b91505092915050565b60008060408385031215611bb157600080fd5b600083013567ffffffffffffffff811115611bcb57600080fd5b611bd7858286016118db565b9250506020611be885828601611905565b9150509250929050565b60008060008060808587031215611c0857600080fd5b600085013567ffffffffffffffff811115611c2257600080fd5b611c2e878288016118db565b9450506020611c3f87828801611905565b9350506040611c5087828801611852565b9250506060611c6187828801611852565b91505092959194509250565b600080600080600060a08688031215611c8557600080fd5b6000611c9388828901611905565b9550506020611ca488828901611852565b9450506040611cb588828901611852565b935050606086013567ffffffffffffffff811115611cd257600080fd5b611cde888289016118db565b9250506080611cef88828901611905565b9150509295509295909350565b60008060408385031215611d0f57600080fd5b6000611d1d85828601611905565b925050602083013567ffffffffffffffff811115611d3a57600080fd5b611d46858286016118db565b9150509250929050565b611d59816123f5565b82525050565b611d6881612413565b82525050565b6000611d7982612384565b611d83818561239a565b9350611d93818560208601612503565b80840191505092915050565b611da881612476565b82525050565b611db78161249a565b82525050565b611dc6816124be565b82525050565b611dd5816124d0565b82525050565b611de4816124e2565b82525050565b6000611df58261238f565b611dff81856123a5565b9350611e0f818560208601612503565b611e188161260e565b840191505092915050565b6000611e2e8261238f565b611e3881856123b6565b9350611e48818560208601612503565b80840191505092915050565b6000611e61601d836123a5565b9150611e6c8261261f565b602082019050919050565b6000611e846022836123a5565b9150611e8f82612648565b604082019050919050565b6000611ea7602a836123a5565b9150611eb282612697565b604082019050919050565b6000611eca6018836123a5565b9150611ed5826126e6565b602082019050919050565b6000611eed6016836123a5565b9150611ef88261270f565b602082019050919050565b6000611f106025836123a5565b9150611f1b82612738565b604082019050919050565b6000611f336026836123a5565b9150611f3e82612787565b604082019050919050565b6000611f566031836123a5565b9150611f61826127d6565b604082019050919050565b6000611f796022836123a5565b9150611f8482612825565b604082019050919050565b6000611f9c6030836123a5565b9150611fa782612874565b604082019050919050565b6000611fbf6022836123a5565b9150611fca826128c3565b604082019050919050565b611fde8161245f565b82525050565b6000611ff08284611d6e565b915081905092915050565b60006120078284611e23565b915081905092915050565b60006020820190506120276000830184611d50565b92915050565b60006060820190506120426000830186611d50565b61204f6020830185611d50565b61205c6040830184611fd5565b949350505050565b60006040820190506120796000830185611d50565b6120866020830184611ddb565b9392505050565b60006060820190506120a26000830186611d50565b81810360208301526120b48185611dea565b90506120c36040830184611fd5565b949350505050565b60006040820190506120e06000830185611d50565b6120ed6020830184611fd5565b9392505050565b60006020820190506121096000830184611d5f565b92915050565b60006020820190506121246000830184611d9f565b92915050565b600060208201905061213f6000830184611dae565b92915050565b6000602082019050818103600083015261215e81611e54565b9050919050565b6000602082019050818103600083015261217e81611e77565b9050919050565b6000602082019050818103600083015261219e81611e9a565b9050919050565b600060208201905081810360008301526121be81611ebd565b9050919050565b600060208201905081810360008301526121de81611ee0565b9050919050565b600060208201905081810360008301526121fe81611f03565b9050919050565b6000602082019050818103600083015261221e81611f26565b9050919050565b6000602082019050818103600083015261223e81611f49565b9050919050565b6000602082019050818103600083015261225e81611f6c565b9050919050565b6000602082019050818103600083015261227e81611f8f565b9050919050565b6000602082019050818103600083015261229e81611fb2565b9050919050565b60006020820190506122ba6000830184611fd5565b92915050565b60006060820190506122d56000830186611fd5565b6122e26020830185611fd5565b6122ef6040830184611dbd565b949350505050565b600060608201905061230c6000830186611fd5565b6123196020830185611fd5565b6123266040830184611dcc565b949350505050565b6000612338612349565b90506123448282612536565b919050565b6000604051905090565b600067ffffffffffffffff82111561236e5761236d6125df565b5b6123778261260e565b9050602081019050919050565b600081519050919050565b600081519050919050565b600081905092915050565b600082825260208201905092915050565b600081905092915050565b60006123cc8261245f565b91506123d78361245f565b9250828210156123ea576123e96125b0565b5b828203905092915050565b60006124008261243f565b9050919050565b60008115159050919050565b60007fffffffff0000000000000000000000000000000000000000000000000000000082169050919050565b600073ffffffffffffffffffffffffffffffffffffffff82169050919050565b6000819050919050565b600060ff82169050919050565b600061248182612488565b9050919050565b60006124938261243f565b9050919050565b60006124a5826124ac565b9050919050565b60006124b78261243f565b9050919050565b60006124c98261245f565b9050919050565b60006124db82612469565b9050919050565b60006124ed8261245f565b9050919050565b82818337600083830152505050565b60005b83811015612521578082015181840152602081019050612506565b83811115612530576000848401525b50505050565b61253f8261260e565b810181811067ffffffffffffffff8211171561255e5761255d6125df565b5b80604052505050565b60006125728261245f565b91507fffffffffffffffffffffffffffffffffffffffffffffffffffffffffffffffff8214156125a5576125a46125b0565b5b600182019050919050565b7f4e487b7100000000000000000000000000000000000000000000000000000000600052601160045260246000fd5b7f4e487b7100000000000000000000000000000000000000000000000000000000600052604160045260246000fd5b6000601f19601f8301169050919050565b7f596f75206d7573742064656c6567617465206d6f7265207468616e2030000000600082015250565b7f596f75206d75737420626520746865206f776e6572206f66207468652076617560008201527f6c74000000000000000000000000000000000000000000000000000000000000602082015250565b7f4572726f72207768696c6520626f72726f77696e6720546f6b656e20746f204d60008201527f61692046696e616e636500000000000000000000000000000000000000000000602082015250565b7f596f75206d7573742062652074686520626f72726f7765720000000000000000600082015250565b7f4572726f72206e6674206e6f7420726563656976656400000000000000000000600082015250565b7f596f75206d7573742072657061792074686520616d6f756e74206f662074686560008201527f206c6f616e000000000000000000000000000000000000000000000000000000602082015250565b7f596f752063616e27742064656c656761746520746f207468652073616d65206160008201527f6464726573730000000000000000000000000000000000000000000000000000602082015250565b7f596f752063616e27742064656c656761746520746f206164726573732830292060008201527f2830783030303030303030303030303029000000000000000000000000000000602082015250565b7f796f7520617265206e6f7420746865206f776e6572206f66207468652076617560008201527f6c74000000000000000000000000000000000000000000000000000000000000602082015250565b7f546865206c6f616e206d757374206265207265706179206265666f726520776960008201527f7468726177696e6720746865206e667400000000000000000000000000000000602082015250565b7f596f75206d757374206f776e20746865207661756c7420746f2064656c65676160008201527f7465000000000000000000000000000000000000000000000000000000000000602082015250565b61291b816123f5565b811461292657600080fd5b50565b61293281612407565b811461293d57600080fd5b50565b6129498161245f565b811461295457600080fd5b5056fea26469706673582212204097a917f764c401d5efc3361da76c1ebf79124713322716097073dfd5a1232d64736f6c63430008040033",
  "immutableReferences": {},
  "source": "pragma solidity ^0.8.4; // regarder la version sur les contracts de qidao 0.5.5 demander  Nandy quel est le mieux \n\nimport \"@openzeppelin/contracts/token/ERC721/IERC721Receiver.sol\";\nimport \"@openzeppelin/contracts/token/ERC721/IERC721.sol\";\nimport \"@openzeppelin/contracts/token/ERC20/ERC20.sol\";\n\n\nimport \"./FakeVault.sol\"; \n\ncontract delegate{\n\n    address nftVaultAddress; \n\n\n    mapping(address=>mapping(string=>uint256[])) public isOwner; // mapping  la place du uint256\n\n    // owner => borrower => vaultName => tokenId => amount delegated \n    mapping(address=>mapping(address=>mapping(string=>mapping(uint256=>uint256)))) public hasDelegated; \n\n    mapping(address=>mapping(address=>mapping(string=>mapping(uint256=>uint256)))) public hasBorrowed; \n\n\n    mapping(string => address) public vaultAddress;\n\n\n    mapping(string => mapping(uint256 => uint256)) public vaultDebt ; \n\n\n    event TokenReceived(address, uint256); \n\n    event DelegationApproved(address, address, string, uint256, uint256); \n\n    event BorrowedToMaiFinance(address indexed depositor, address vault, uint256 amount);\n\n    event NftWithdrawn(address, string, uint256); \n\n    ERC20 public mai;\n    FakeVault public _fakevault; \n\n\n    constructor(address _mai, address _vault) {\n         \n        vaultAddress[\"tempo\"] = address(_vault);\n        mai = ERC20(_mai); \n    }\n \n    function onERC721Received( address operator, address from, uint256 tokenId, bytes calldata data ) public returns (bytes4) {\n            return this.onERC721Received.selector;\n    }\n    \n    // Depositor need to approve the address of the contract by calling approve to deposit ERC721\n    function depositErc721(uint256 _erc721_Id, string memory _vault) public {\n\n        address owner = IERC721(vaultAddress[_vault]).ownerOf(_erc721_Id); \n        if(owner!=msg.sender)\n            revert(\"you are not the owner of the vault\"); \n\n        IERC721(vaultAddress[_vault]).safeTransferFrom(owner, address(this),_erc721_Id); \n      \n        address newOwner = IERC721(vaultAddress[_vault]).ownerOf(_erc721_Id);\n        if(newOwner!=address(this))\n            revert(\"Error nft not received\");  \n        isOwner[msg.sender][_vault].push(_erc721_Id);\n\n        emit TokenReceived(msg.sender, _erc721_Id); \n    }\n\n    // for mai finance, the contract borrow, so It keep rtack of the contrcat address\n    function approveDelegation(address _owner, address _borrower, string memory _vault, uint256 _erc721_Id, uint256 _amount) public{\n        bool ownVault = false; \n\n        if(msg.sender!=_owner)\n            revert(\"You must be the owner of the vault\"); \n        if(_amount<=0)\n            revert(\"You must delegate more than 0\"); \n        if(_borrower==_owner)\n            revert(\"You can't delegate to the same address\"); \n        if(_borrower==address(0))\n            revert(\"You can't delegate to adress(0) (0x0000000000000)\"); \n        for (uint i=0; i <= isOwner[_owner][_vault].length -1; i++) {\n            \n            if (_erc721_Id == isOwner[_owner][_vault][i]) {\n                ownVault = true;\n                break;\n            }\n        }\n        if(ownVault==false)\n            revert(\"You must own the vault to delegate\");    \n        hasDelegated[_owner][_borrower][_vault][_erc721_Id] = _amount; \n\n        // the delegation is approved so the contract borrow amount to my finance \n        /*(bool success,) = vaultAddress[_vault].call(abi.encodeWithSignature(\"borrowToken(uint256,uint256,uint256)\",_erc721_Id,_amount,0)); \n        if(success!=true)\n            revert(\"Error while borrowing Token to Mai Finance\");  */\n        emit BorrowedToMaiFinance(_owner, vaultAddress[_vault], _amount); \n    }\n\n    \n    function userBorrowMai(address _owner, address _borrower, string memory _vault, uint256 _erc721_Id) public{\n        if(msg.sender != _borrower)\n            revert(\"You must be the borrower\"); \n        uint _amount = hasDelegated[_owner][_borrower][_vault][_erc721_Id]; \n        (bool success,) = vaultAddress[_vault].call(abi.encodeWithSignature(\"borrowToken(uint256,uint256,uint256)\",_erc721_Id,_amount,0)); \n         if(success!=true)\n            revert(\"Error while borrowing Token to Mai Finance\");  \n        mai.transfer(msg.sender,_amount); \n        hasBorrowed[_owner][_borrower][_vault][_erc721_Id] = _amount; \n        vaultDebt[_vault][_erc721_Id] = _amount; \n    }\n\n\n    // the _borrower must add allowance to the contract\n    // PROBLEME EN APPEANT PAYBACK CAR PAS D ALLOWANCE POUR LE SAFETRANSFER \n    function repayLoan(uint256 _amount, address _owner, address _borrower, string memory _vault, uint256 _erc721_Id) public {\n        FakeVault _fake = FakeVault(vaultAddress[_vault]); \n        if(_amount!=hasBorrowed[_owner][_borrower][_vault][_erc721_Id])\n            revert(\"You must repay the amount of the loan\"); \n            \n        mai.increaseAllowance(vaultAddress[_vault], _amount); \n        \n        mai.transferFrom(msg.sender, address(this), _amount); \n        _fake.payBackToken(_erc721_Id, _amount, 0); \n        \n    }   \n\n    // voir comment le contrat fait quand le borrower n'a pas emprunter \n    function withdraw_NFT(string memory _vault, uint256 _erc721_Id, address _owner, address _borrower) public {\n        if(vaultDebt[_vault][_erc721_Id] != 0)\n            revert(\"The loan must be repay before withrawing the nft\"); \n        bool owner = false; \n         for (uint i = 0; i < isOwner[msg.sender][_vault].length - 1; i++) {\n            if(isOwner[msg.sender][_vault][i] == _erc721_Id) {\n                owner = true; \n                break;\n            }            \n        }\n        IERC721(vaultAddress[_vault]).safeTransferFrom(address(this), msg.sender, _erc721_Id); \n        emit NftWithdrawn(msg.sender, _vault,_erc721_Id); \n    }\n\n    function testAllowance( string memory _vault) public {\n        mai.increaseAllowance(vaultAddress[_vault],400); \n    }\n}",
  "sourcePath": "/home/lejamon/Documents/GitHub/KS-PI2/mai-finance/contracts/delegate.sol",
  "compiler": {
    "name": "solc",
    "version": "0.8.4+commit.c7e474f2.Emscripten.clang"
  },
  "schemaVersion": "3.4.10",
  "updatedAt": "2023-01-19T20:11:50.764Z",
  "networkType": "ethereum",
  "devdoc": {
    "kind": "dev",
    "methods": {},
    "version": 1
  },
  "userdoc": {
    "kind": "user",
    "methods": {},
    "version": 1
  }
}