{
  "contractName": "delegate",
  "abi": [
    {
      "inputs": [
        {
          "internalType": "address",
          "name": "_mai",
          "type": "address"
        }
      ],
      "stateMutability": "nonpayable",
      "type": "constructor"
    },
    {
      "anonymous": false,
      "inputs": [
        {
          "indexed": true,
          "internalType": "address",
          "name": "depositor",
          "type": "address"
        },
        {
          "indexed": false,
          "internalType": "address",
          "name": "vault",
          "type": "address"
        },
        {
          "indexed": false,
          "internalType": "uint256",
          "name": "amount",
          "type": "uint256"
        }
      ],
      "name": "BorrowedToMaiFinance",
      "type": "event"
    },
    {
      "anonymous": false,
      "inputs": [
        {
          "indexed": false,
          "internalType": "address",
          "name": "",
          "type": "address"
        },
        {
          "indexed": false,
          "internalType": "address",
          "name": "",
          "type": "address"
        },
        {
          "indexed": false,
          "internalType": "string",
          "name": "",
          "type": "string"
        },
        {
          "indexed": false,
          "internalType": "uint256",
          "name": "",
          "type": "uint256"
        },
        {
          "indexed": false,
          "internalType": "uint256",
          "name": "",
          "type": "uint256"
        }
      ],
      "name": "DelegationApproved",
      "type": "event"
    },
    {
      "anonymous": false,
      "inputs": [
        {
          "indexed": false,
          "internalType": "address",
          "name": "",
          "type": "address"
        },
        {
          "indexed": false,
          "internalType": "uint256",
          "name": "",
          "type": "uint256"
        }
      ],
      "name": "TokenReceived",
      "type": "event"
    },
    {
      "inputs": [
        {
          "internalType": "address",
          "name": "",
          "type": "address"
        },
        {
          "internalType": "string",
          "name": "",
          "type": "string"
        }
      ],
      "name": "borrowedAmount",
      "outputs": [
        {
          "internalType": "uint256",
          "name": "",
          "type": "uint256"
        }
      ],
      "stateMutability": "view",
      "type": "function"
    },
    {
      "inputs": [
        {
          "internalType": "address",
          "name": "",
          "type": "address"
        },
        {
          "internalType": "address",
          "name": "",
          "type": "address"
        },
        {
          "internalType": "string",
          "name": "",
          "type": "string"
        }
      ],
      "name": "hasDelegated",
      "outputs": [
        {
          "internalType": "uint256",
          "name": "",
          "type": "uint256"
        }
      ],
      "stateMutability": "view",
      "type": "function"
    },
    {
      "inputs": [
        {
          "internalType": "address",
          "name": "",
          "type": "address"
        },
        {
          "internalType": "string",
          "name": "",
          "type": "string"
        },
        {
          "internalType": "uint256",
          "name": "",
          "type": "uint256"
        }
      ],
      "name": "isOwner",
      "outputs": [
        {
          "internalType": "uint256",
          "name": "",
          "type": "uint256"
        }
      ],
      "stateMutability": "view",
      "type": "function"
    },
    {
      "inputs": [],
      "name": "mai",
      "outputs": [
        {
          "internalType": "contract ERC20",
          "name": "",
          "type": "address"
        }
      ],
      "stateMutability": "view",
      "type": "function"
    },
    {
      "inputs": [
        {
          "internalType": "string",
          "name": "",
          "type": "string"
        }
      ],
      "name": "vaultAddress",
      "outputs": [
        {
          "internalType": "address",
          "name": "",
          "type": "address"
        }
      ],
      "stateMutability": "view",
      "type": "function"
    },
    {
      "inputs": [
        {
          "internalType": "address",
          "name": "operator",
          "type": "address"
        },
        {
          "internalType": "address",
          "name": "from",
          "type": "address"
        },
        {
          "internalType": "uint256",
          "name": "tokenId",
          "type": "uint256"
        },
        {
          "internalType": "bytes",
          "name": "data",
          "type": "bytes"
        }
      ],
      "name": "onERC721Received",
      "outputs": [
        {
          "internalType": "bytes4",
          "name": "",
          "type": "bytes4"
        }
      ],
      "stateMutability": "nonpayable",
      "type": "function"
    },
    {
      "inputs": [
        {
          "internalType": "uint256",
          "name": "_erc721_Id",
          "type": "uint256"
        },
        {
          "internalType": "string",
          "name": "_vault",
          "type": "string"
        }
      ],
      "name": "depositErc721",
      "outputs": [],
      "stateMutability": "nonpayable",
      "type": "function"
    },
    {
      "inputs": [
        {
          "internalType": "address",
          "name": "_owner",
          "type": "address"
        },
        {
          "internalType": "address",
          "name": "_borrower",
          "type": "address"
        },
        {
          "internalType": "string",
          "name": "_vault",
          "type": "string"
        },
        {
          "internalType": "uint256",
          "name": "_erc721_Id",
          "type": "uint256"
        },
        {
          "internalType": "uint256",
          "name": "_amount",
          "type": "uint256"
        }
      ],
      "name": "approveDelegation",
      "outputs": [],
      "stateMutability": "nonpayable",
      "type": "function"
    },
    {
      "inputs": [
        {
          "internalType": "uint256",
          "name": "_amount",
          "type": "uint256"
        },
        {
          "internalType": "address",
          "name": "_owner",
          "type": "address"
        },
        {
          "internalType": "address",
          "name": "_borrower",
          "type": "address"
        },
        {
          "internalType": "string",
          "name": "_vault",
          "type": "string"
        }
      ],
      "name": "userBorrowMai",
      "outputs": [],
      "stateMutability": "nonpayable",
      "type": "function"
    }
  ],
  "bytecode": "0x608060405273d9145cce52d386f254917e481eb44e9943f39138600160006101000a81548173ffffffffffffffffffffffffffffffffffffffff021916908373ffffffffffffffffffffffffffffffffffffffff1602179055503480156200006657600080fd5b50604051620020313803806200203183398181016040528101906200008c91906200015c565b73406ab5033423dcb6391ac9eeead73294fa82cfbc6004604051620000b190620001af565b908152602001604051809103902060006101000a81548173ffffffffffffffffffffffffffffffffffffffff021916908373ffffffffffffffffffffffffffffffffffffffff16021790555080600660006101000a81548173ffffffffffffffffffffffffffffffffffffffff021916908373ffffffffffffffffffffffffffffffffffffffff1602179055505062000248565b60008151905062000156816200022e565b92915050565b6000602082840312156200016f57600080fd5b60006200017f8482850162000145565b91505092915050565b600062000197600583620001c6565b9150620001a48262000205565b600582019050919050565b6000620001bc8262000188565b9150819050919050565b600081905092915050565b6000620001de82620001e5565b9050919050565b600073ffffffffffffffffffffffffffffffffffffffff82169050919050565b7f74656d706f000000000000000000000000000000000000000000000000000000600082015250565b6200023981620001d1565b81146200024557600080fd5b50565b611dd980620002586000396000f3fe608060405234801561001057600080fd5b50600436106100935760003560e01c80638e9b0270116100665780638e9b027014610146578063e0f75d5d14610162578063e158dc2414610192578063e4a90dab146101ae578063f9affc1a146101de57610093565b8063150b7a0214610098578063570b2b84146100c857806388221842146100e65780638b96fefb14610116575b600080fd5b6100b260048036038101906100ad9190611121565b6101fa565b6040516100bf9190611649565b60405180910390f35b6100d061020f565b6040516100dd9190611664565b60405180910390f35b61010060048036038101906100fb9190611285565b610235565b60405161010d91906115ce565b60405180910390f35b610130600480360381019061012b91906111a1565b61027e565b60405161013d91906117bf565b60405180910390f35b610160600480360381019061015b9190611092565b6102b9565b005b61017c600480360381019061017791906111f5565b610881565b60405161018991906117bf565b60405180910390f35b6101ac60048036038101906101a791906112c6565b6108d5565b005b6101c860048036038101906101c3919061102b565b610ad4565b6040516101d591906117bf565b60405180910390f35b6101f860048036038101906101f39190611341565b610b1c565b005b600063150b7a0260e01b905095945050505050565b600660009054906101000a900473ffffffffffffffffffffffffffffffffffffffff1681565b6004818051602081018201805184825260208301602085012081835280955050505050506000915054906101000a900473ffffffffffffffffffffffffffffffffffffffff1681565b600560205281600052604060002081805160208101820180518482526020830160208501208183528095505050505050600091509150505481565b60008573ffffffffffffffffffffffffffffffffffffffff163373ffffffffffffffffffffffffffffffffffffffff1614610329576040517f08c379a00000000000000000000000000000000000000000000000000000000081526004016103209061169f565b60405180910390fd5b6000821161036c576040517f08c379a00000000000000000000000000000000000000000000000000000000081526004016103639061167f565b60405180910390fd5b8573ffffffffffffffffffffffffffffffffffffffff168573ffffffffffffffffffffffffffffffffffffffff1614156103db576040517f08c379a00000000000000000000000000000000000000000000000000000000081526004016103d29061171f565b60405180910390fd5b600073ffffffffffffffffffffffffffffffffffffffff168573ffffffffffffffffffffffffffffffffffffffff16141561044b576040517f08c379a00000000000000000000000000000000000000000000000000000000081526004016104429061173f565b60405180910390fd5b60005b6001600260008973ffffffffffffffffffffffffffffffffffffffff1673ffffffffffffffffffffffffffffffffffffffff1681526020019081526020016000208660405161049d91906115b7565b9081526020016040518091039020805490506104b991906118a4565b811161058057600260008873ffffffffffffffffffffffffffffffffffffffff1673ffffffffffffffffffffffffffffffffffffffff1681526020019081526020016000208560405161050c91906115b7565b90815260200160405180910390208181548110610552577f4e487b7100000000000000000000000000000000000000000000000000000000600052603260045260246000fd5b906000526020600020015484141561056d5760019150610580565b808061057890611a02565b91505061044e565b506000151581151514156105c9576040517f08c379a00000000000000000000000000000000000000000000000000000000081526004016105c09061179f565b60405180910390fd5b81600360008873ffffffffffffffffffffffffffffffffffffffff1673ffffffffffffffffffffffffffffffffffffffff16815260200190815260200160002060008773ffffffffffffffffffffffffffffffffffffffff1673ffffffffffffffffffffffffffffffffffffffff1681526020019081526020016000208560405161065491906115b7565b908152602001604051809103902081905550600060048560405161067891906115b7565b908152602001604051809103902060009054906101000a900473ffffffffffffffffffffffffffffffffffffffff1673ffffffffffffffffffffffffffffffffffffffff16848460006040516024016106d3939291906117da565b6040516020818303038152906040527f97a41b8e000000000000000000000000000000000000000000000000000000007bffffffffffffffffffffffffffffffffffffffffffffffffffffffff19166020820180517bffffffffffffffffffffffffffffffffffffffffffffffffffffffff838183161783525050505060405161075d91906115a0565b6000604051808303816000865af19150503d806000811461079a576040519150601f19603f3d011682016040523d82523d6000602084013e61079f565b606091505b5050905060011515811515146107ea576040517f08c379a00000000000000000000000000000000000000000000000000000000081526004016107e1906116bf565b60405180910390fd5b8673ffffffffffffffffffffffffffffffffffffffff167ff246cb6f95a7c3bfda1a3e85094fba64ccec23277661166f09e2bb3b8fdc6bef60048760405161083291906115b7565b908152602001604051809103902060009054906101000a900473ffffffffffffffffffffffffffffffffffffffff1685604051610870929190611620565b60405180910390a250505050505050565b60026020528260005260406000208280516020810182018051848252602083016020850120818352809550505050505081815481106108bf57600080fd5b9060005260206000200160009250925050505481565b8173ffffffffffffffffffffffffffffffffffffffff163373ffffffffffffffffffffffffffffffffffffffff1614610943576040517f08c379a000000000000000000000000000000000000000000000000000000000815260040161093a906116df565b60405180910390fd5b600360008473ffffffffffffffffffffffffffffffffffffffff1673ffffffffffffffffffffffffffffffffffffffff16815260200190815260200160002060008373ffffffffffffffffffffffffffffffffffffffff1673ffffffffffffffffffffffffffffffffffffffff168152602001908152602001600020816040516109cd91906115b7565b908152602001604051809103902054841115610a1e576040517f08c379a0000000000000000000000000000000000000000000000000000000008152600401610a159061177f565b60405180910390fd5b600660009054906101000a900473ffffffffffffffffffffffffffffffffffffffff1673ffffffffffffffffffffffffffffffffffffffff1663a9059cbb33866040518363ffffffff1660e01b8152600401610a7b929190611620565b602060405180830381600087803b158015610a9557600080fd5b505af1158015610aa9573d6000803e3d6000fd5b505050506040513d601f19601f82011682018060405250810190610acd919061125c565b5050505050565b60036020528260005260406000206020528160005260406000208180516020810182018051848252602083016020850120818352809550505050505060009250925050505481565b6000600482604051610b2e91906115b7565b908152602001604051809103902060009054906101000a900473ffffffffffffffffffffffffffffffffffffffff1673ffffffffffffffffffffffffffffffffffffffff16636352211e846040518263ffffffff1660e01b8152600401610b9591906117bf565b60206040518083038186803b158015610bad57600080fd5b505afa158015610bc1573d6000803e3d6000fd5b505050506040513d601f19601f82011682018060405250810190610be59190611002565b90503373ffffffffffffffffffffffffffffffffffffffff168173ffffffffffffffffffffffffffffffffffffffff1614610c55576040517f08c379a0000000000000000000000000000000000000000000000000000000008152600401610c4c9061175f565b60405180910390fd5b600482604051610c6591906115b7565b908152602001604051809103902060009054906101000a900473ffffffffffffffffffffffffffffffffffffffff1673ffffffffffffffffffffffffffffffffffffffff166342842e0e8230866040518463ffffffff1660e01b8152600401610cd0939291906115e9565b600060405180830381600087803b158015610cea57600080fd5b505af1158015610cfe573d6000803e3d6000fd5b505050506000600483604051610d1491906115b7565b908152602001604051809103902060009054906101000a900473ffffffffffffffffffffffffffffffffffffffff1673ffffffffffffffffffffffffffffffffffffffff16636352211e856040518263ffffffff1660e01b8152600401610d7b91906117bf565b60206040518083038186803b158015610d9357600080fd5b505afa158015610da7573d6000803e3d6000fd5b505050506040513d601f19601f82011682018060405250810190610dcb9190611002565b90503073ffffffffffffffffffffffffffffffffffffffff168173ffffffffffffffffffffffffffffffffffffffff1614610e3b576040517f08c379a0000000000000000000000000000000000000000000000000000000008152600401610e32906116ff565b60405180910390fd5b600260003373ffffffffffffffffffffffffffffffffffffffff1673ffffffffffffffffffffffffffffffffffffffff16815260200190815260200160002083604051610e8891906115b7565b90815260200160405180910390208490806001815401808255809150506001900390600052602060002001600090919091909150557f47998b4998056cd0448b356cfcb8cb0eb18fa00844e43e71947e22fcb6fd43ef3385604051610eee929190611620565b60405180910390a150505050565b6000610f0f610f0a84611836565b611811565b905082815260208101848484011115610f2757600080fd5b610f3284828561198f565b509392505050565b600081359050610f4981611d5e565b92915050565b600081519050610f5e81611d5e565b92915050565b600081519050610f7381611d75565b92915050565b60008083601f840112610f8b57600080fd5b8235905067ffffffffffffffff811115610fa457600080fd5b602083019150836001820283011115610fbc57600080fd5b9250929050565b600082601f830112610fd457600080fd5b8135610fe4848260208601610efc565b91505092915050565b600081359050610ffc81611d8c565b92915050565b60006020828403121561101457600080fd5b600061102284828501610f4f565b91505092915050565b60008060006060848603121561104057600080fd5b600061104e86828701610f3a565b935050602061105f86828701610f3a565b925050604084013567ffffffffffffffff81111561107c57600080fd5b61108886828701610fc3565b9150509250925092565b600080600080600060a086880312156110aa57600080fd5b60006110b888828901610f3a565b95505060206110c988828901610f3a565b945050604086013567ffffffffffffffff8111156110e657600080fd5b6110f288828901610fc3565b935050606061110388828901610fed565b925050608061111488828901610fed565b9150509295509295909350565b60008060008060006080868803121561113957600080fd5b600061114788828901610f3a565b955050602061115888828901610f3a565b945050604061116988828901610fed565b935050606086013567ffffffffffffffff81111561118657600080fd5b61119288828901610f79565b92509250509295509295909350565b600080604083850312156111b457600080fd5b60006111c285828601610f3a565b925050602083013567ffffffffffffffff8111156111df57600080fd5b6111eb85828601610fc3565b9150509250929050565b60008060006060848603121561120a57600080fd5b600061121886828701610f3a565b935050602084013567ffffffffffffffff81111561123557600080fd5b61124186828701610fc3565b925050604061125286828701610fed565b9150509250925092565b60006020828403121561126e57600080fd5b600061127c84828501610f64565b91505092915050565b60006020828403121561129757600080fd5b600082013567ffffffffffffffff8111156112b157600080fd5b6112bd84828501610fc3565b91505092915050565b600080600080608085870312156112dc57600080fd5b60006112ea87828801610fed565b94505060206112fb87828801610f3a565b935050604061130c87828801610f3a565b925050606085013567ffffffffffffffff81111561132957600080fd5b61133587828801610fc3565b91505092959194509250565b6000806040838503121561135457600080fd5b600061136285828601610fed565b925050602083013567ffffffffffffffff81111561137f57600080fd5b61138b85828601610fc3565b9150509250929050565b61139e816118d8565b82525050565b6113ad816118f6565b82525050565b60006113be82611867565b6113c8818561187d565b93506113d881856020860161199e565b80840191505092915050565b6113ed81611959565b82525050565b6113fc8161197d565b82525050565b600061140d82611872565b6114178185611899565b935061142781856020860161199e565b80840191505092915050565b6000611440601d83611888565b915061144b82611aba565b602082019050919050565b6000611463602283611888565b915061146e82611ae3565b604082019050919050565b6000611486602a83611888565b915061149182611b32565b604082019050919050565b60006114a9601883611888565b91506114b482611b81565b602082019050919050565b60006114cc601683611888565b91506114d782611baa565b602082019050919050565b60006114ef602683611888565b91506114fa82611bd3565b604082019050919050565b6000611512603183611888565b915061151d82611c22565b604082019050919050565b6000611535602283611888565b915061154082611c71565b604082019050919050565b6000611558602f83611888565b915061156382611cc0565b604082019050919050565b600061157b602283611888565b915061158682611d0f565b604082019050919050565b61159a81611942565b82525050565b60006115ac82846113b3565b915081905092915050565b60006115c38284611402565b915081905092915050565b60006020820190506115e36000830184611395565b92915050565b60006060820190506115fe6000830186611395565b61160b6020830185611395565b6116186040830184611591565b949350505050565b60006040820190506116356000830185611395565b6116426020830184611591565b9392505050565b600060208201905061165e60008301846113a4565b92915050565b600060208201905061167960008301846113e4565b92915050565b6000602082019050818103600083015261169881611433565b9050919050565b600060208201905081810360008301526116b881611456565b9050919050565b600060208201905081810360008301526116d881611479565b9050919050565b600060208201905081810360008301526116f88161149c565b9050919050565b60006020820190508181036000830152611718816114bf565b9050919050565b60006020820190508181036000830152611738816114e2565b9050919050565b6000602082019050818103600083015261175881611505565b9050919050565b6000602082019050818103600083015261177881611528565b9050919050565b600060208201905081810360008301526117988161154b565b9050919050565b600060208201905081810360008301526117b88161156e565b9050919050565b60006020820190506117d46000830184611591565b92915050565b60006060820190506117ef6000830186611591565b6117fc6020830185611591565b61180960408301846113f3565b949350505050565b600061181b61182c565b905061182782826119d1565b919050565b6000604051905090565b600067ffffffffffffffff82111561185157611850611a7a565b5b61185a82611aa9565b9050602081019050919050565b600081519050919050565b600081519050919050565b600081905092915050565b600082825260208201905092915050565b600081905092915050565b60006118af82611942565b91506118ba83611942565b9250828210156118cd576118cc611a4b565b5b828203905092915050565b60006118e382611922565b9050919050565b60008115159050919050565b60007fffffffff0000000000000000000000000000000000000000000000000000000082169050919050565b600073ffffffffffffffffffffffffffffffffffffffff82169050919050565b6000819050919050565b600060ff82169050919050565b60006119648261196b565b9050919050565b600061197682611922565b9050919050565b60006119888261194c565b9050919050565b82818337600083830152505050565b60005b838110156119bc5780820151818401526020810190506119a1565b838111156119cb576000848401525b50505050565b6119da82611aa9565b810181811067ffffffffffffffff821117156119f9576119f8611a7a565b5b80604052505050565b6000611a0d82611942565b91507fffffffffffffffffffffffffffffffffffffffffffffffffffffffffffffffff821415611a4057611a3f611a4b565b5b600182019050919050565b7f4e487b7100000000000000000000000000000000000000000000000000000000600052601160045260246000fd5b7f4e487b7100000000000000000000000000000000000000000000000000000000600052604160045260246000fd5b6000601f19601f8301169050919050565b7f596f75206d7573742064656c6567617465206d6f7265207468616e2030000000600082015250565b7f596f75206d75737420626520746865206f776e6572206f66207468652076617560008201527f6c74000000000000000000000000000000000000000000000000000000000000602082015250565b7f4572726f72207768696c6520626f72726f77696e6720546f6b656e20746f204d60008201527f61692046696e616e636500000000000000000000000000000000000000000000602082015250565b7f596f75206d7573742062652074686520626f72726f7765720000000000000000600082015250565b7f4572726f72206e6674206e6f7420726563656976656400000000000000000000600082015250565b7f596f752063616e27742064656c656761746520746f207468652073616d65206160008201527f6464726573730000000000000000000000000000000000000000000000000000602082015250565b7f596f752063616e27742064656c656761746520746f206164726573732830292060008201527f2830783030303030303030303030303029000000000000000000000000000000602082015250565b7f796f7520617265206e6f7420746865206f776e6572206f66207468652076617560008201527f6c74000000000000000000000000000000000000000000000000000000000000602082015250565b7f796f752063616e277420626f72726f77206d6f7265207468616e20746865206160008201527f6d6f756e74206174686f72697a65640000000000000000000000000000000000602082015250565b7f596f75206d757374206f776e20746865207661756c7420746f2064656c65676160008201527f7465000000000000000000000000000000000000000000000000000000000000602082015250565b611d67816118d8565b8114611d7257600080fd5b50565b611d7e816118ea565b8114611d8957600080fd5b50565b611d9581611942565b8114611da057600080fd5b5056fea264697066735822122079459d5c283fe494836e3ce7cccfe7ef556462e02df2efcef00dee0e80b9898c64736f6c63430008040033",
  "immutableReferences": {},
  "source": "pragma solidity ^0.8.4; // regarder la version sur les contracts de qidao 0.5.5 demander  Nandy quel est le mieux \n\nimport \"@openzeppelin/contracts/token/ERC721/IERC721Receiver.sol\";\nimport \"@openzeppelin/contracts/token/ERC721/IERC721.sol\";\nimport \"@openzeppelin/contracts/token/ERC20/ERC20.sol\";\n\ncontract delegate{\n\n    address nftVaultAddress; \n\n    address maiToken = address(0xd9145CCE52D386f254917e481eB44e9943F39138); \n\n    mapping(address=>mapping(string=>uint256[])) public isOwner; // mapping  la place du uint256\n\n    mapping(address=>mapping(address=>mapping(string=>uint))) public hasDelegated; \n\n    mapping(string => address) public vaultAddress;\n\n    mapping(address=>mapping(string=>uint)) public borrowedAmount;\n\n\n    event TokenReceived(address, uint256); \n\n    event DelegationApproved(address, address, string, uint256, uint256); \n\n    event BorrowedToMaiFinance(address indexed depositor, address vault, uint256 amount);\n\n\n\n\n    ERC20 public mai; \n    \n\n    constructor(address _mai) {\n         \n        vaultAddress[\"tempo\"] = address(0x406AB5033423Dcb6391Ac9eEEad73294FA82Cfbc);\n        mai = ERC20(_mai); \n    }\n \n    function onERC721Received( address operator, address from, uint256 tokenId, bytes calldata data ) public returns (bytes4) {\n            return this.onERC721Received.selector;\n    }\n    \n    // Depositor need to approve the address of the contract by calling approve to deposit ERC721\n    function depositErc721(uint256 _erc721_Id, string memory _vault) public {\n\n        address owner = IERC721(vaultAddress[_vault]).ownerOf(_erc721_Id); \n        if(owner!=msg.sender)\n            revert(\"you are not the owner of the vault\"); \n\n        IERC721(vaultAddress[_vault]).safeTransferFrom(owner, address(this),_erc721_Id); \n      \n        address newOwner = IERC721(vaultAddress[_vault]).ownerOf(_erc721_Id);\n        if(newOwner!=address(this))\n            revert(\"Error nft not received\");  \n        isOwner[msg.sender][_vault].push(_erc721_Id);\n\n        emit TokenReceived(msg.sender, _erc721_Id); \n    }\n\n    \n    function approveDelegation(address _owner, address _borrower, string memory _vault, uint256 _erc721_Id, uint256 _amount) public{\n        bool ownVault = false; \n\n        if(msg.sender!=_owner)\n            revert(\"You must be the owner of the vault\"); \n        if(_amount<=0)\n            revert(\"You must delegate more than 0\"); \n        if(_borrower==_owner)\n            revert(\"You can't delegate to the same address\"); \n        if(_borrower==address(0))\n            revert(\"You can't delegate to adress(0) (0x0000000000000)\"); \n        for (uint i=0; i <= isOwner[_owner][_vault].length -1; i++) {\n            \n            if (_erc721_Id == isOwner[_owner][_vault][i]) {\n                ownVault = true;\n                break;\n            }\n        }\n        if(ownVault==false)\n            revert(\"You must own the vault to delegate\");    \n        hasDelegated[_owner][_borrower][_vault] = _amount; \n\n        // the delegation is approved so the contract borrow amount to my finance \n        (bool success,) = vaultAddress[_vault].call(abi.encodeWithSignature(\"borrowToken(uint256,uint256,uint256)\",_erc721_Id,_amount,0)); \n        if(success!=true)\n            revert(\"Error while borrowing Token to Mai Finance\");  \n        emit BorrowedToMaiFinance(_owner, vaultAddress[_vault], _amount); \n    }\n\n\n    function userBorrowMai(uint256 _amount, address _owner, address _borrower, string memory _vault) public{\n        if(msg.sender != _borrower)\n            revert(\"You must be the borrower\"); \n        if(_amount>hasDelegated[_owner][_borrower][_vault])\n            revert(\"you can't borrow more than the amount athorized\");\n        mai.transfer(msg.sender,_amount); \n\n    }\n\n    function erc721_withdraw_requirement(string memory _vault, uint256 _erc721_Id) internal returns (bool) {\n        // check that the nft is in our contract\n        address owner = IERC721(vaultAddress[_vault]).ownerOf(_erc721_Id); \n        if(owner!=address(this))\n            revert(\"This token is not owned by the contract\"); \n        // check that the msg sender is the owner of the nft\n        bool _isOwner = false;\n        for (uint i = 0; i < isOwner[msg.sender][_vault].length - 1; i++) {\n            if(isOwner[msg.sender][_vault][i] == _erc721_Id) {\n                _isOwner = true; \n                break;}            \n        }\n        if(_isOwner!=true)\n            revert(\"You must be the depositor of this NFT to withdraw it\");\n        return(true); \n    }\n}",
  "sourcePath": "/home/lejamon/ESILV_A4/PI2_KS/KS-PI2/mai-finance/contracts/delegate.sol",
  "compiler": {
    "name": "solc",
    "version": "0.8.4+commit.c7e474f2.Emscripten.clang"
  },
  "schemaVersion": "3.4.10",
  "updatedAt": "2023-01-15T15:56:07.516Z",
  "devdoc": {
    "kind": "dev",
    "methods": {},
    "version": 1
  },
  "userdoc": {
    "kind": "user",
    "methods": {},
    "version": 1
  }
}