{
  "contractName": "delegate",
  "abi": [
    {
      "inputs": [],
      "stateMutability": "nonpayable",
      "type": "constructor"
    },
    {
      "anonymous": false,
      "inputs": [
        {
          "indexed": true,
          "internalType": "address",
          "name": "owner",
          "type": "address"
        },
        {
          "indexed": true,
          "internalType": "address",
          "name": "borrower",
          "type": "address"
        },
        {
          "indexed": false,
          "internalType": "uint256",
          "name": "amount",
          "type": "uint256"
        }
      ],
      "name": "Authorized",
      "type": "event"
    },
    {
      "inputs": [
        {
          "internalType": "address",
          "name": "",
          "type": "address"
        },
        {
          "internalType": "address",
          "name": "",
          "type": "address"
        }
      ],
      "name": "amountBorrowed",
      "outputs": [
        {
          "internalType": "uint256",
          "name": "",
          "type": "uint256"
        }
      ],
      "stateMutability": "view",
      "type": "function"
    },
    {
      "inputs": [
        {
          "internalType": "uint256",
          "name": "",
          "type": "uint256"
        }
      ],
      "name": "delegate_array",
      "outputs": [
        {
          "internalType": "address",
          "name": "_owner",
          "type": "address"
        },
        {
          "internalType": "address",
          "name": "_borrower",
          "type": "address"
        },
        {
          "internalType": "uint256",
          "name": "_amount",
          "type": "uint256"
        },
        {
          "internalType": "bool",
          "name": "_authorized",
          "type": "bool"
        }
      ],
      "stateMutability": "view",
      "type": "function"
    },
    {
      "inputs": [
        {
          "internalType": "address",
          "name": "",
          "type": "address"
        },
        {
          "internalType": "address",
          "name": "",
          "type": "address"
        }
      ],
      "name": "hasDelegated",
      "outputs": [
        {
          "internalType": "uint256",
          "name": "",
          "type": "uint256"
        }
      ],
      "stateMutability": "view",
      "type": "function"
    },
    {
      "inputs": [
        {
          "internalType": "address",
          "name": "",
          "type": "address"
        },
        {
          "internalType": "uint256",
          "name": "",
          "type": "uint256"
        }
      ],
      "name": "isDepositor",
      "outputs": [
        {
          "internalType": "uint256",
          "name": "",
          "type": "uint256"
        }
      ],
      "stateMutability": "view",
      "type": "function"
    },
    {
      "inputs": [
        {
          "internalType": "address",
          "name": "_owner",
          "type": "address"
        },
        {
          "internalType": "address",
          "name": "_borrower",
          "type": "address"
        },
        {
          "internalType": "uint256",
          "name": "_amount",
          "type": "uint256"
        }
      ],
      "name": "approveDelegation",
      "outputs": [],
      "stateMutability": "nonpayable",
      "type": "function"
    },
    {
      "inputs": [
        {
          "internalType": "address",
          "name": "minter",
          "type": "address"
        },
        {
          "internalType": "uint256",
          "name": "erc721_Id",
          "type": "uint256"
        }
      ],
      "name": "erc721_deposit",
      "outputs": [],
      "stateMutability": "nonpayable",
      "type": "function"
    },
    {
      "inputs": [
        {
          "internalType": "uint256",
          "name": "_amount",
          "type": "uint256"
        },
        {
          "internalType": "address",
          "name": "initialBorrower",
          "type": "address"
        },
        {
          "internalType": "address",
          "name": "vault",
          "type": "address"
        }
      ],
      "name": "borrow",
      "outputs": [],
      "stateMutability": "nonpayable",
      "type": "function"
    },
    {
      "inputs": [
        {
          "internalType": "address",
          "name": "_admin",
          "type": "address"
        }
      ],
      "name": "addAdmin",
      "outputs": [],
      "stateMutability": "nonpayable",
      "type": "function"
    },
    {
      "inputs": [
        {
          "internalType": "address",
          "name": "_admin",
          "type": "address"
        }
      ],
      "name": "isAdmin",
      "outputs": [
        {
          "internalType": "bool",
          "name": "",
          "type": "bool"
        }
      ],
      "stateMutability": "view",
      "type": "function"
    },
    {
      "inputs": [
        {
          "internalType": "string",
          "name": "crypto",
          "type": "string"
        },
        {
          "internalType": "address",
          "name": "vault",
          "type": "address"
        }
      ],
      "name": "editVaultAdress",
      "outputs": [],
      "stateMutability": "nonpayable",
      "type": "function"
    }
  ],
  "bytecode": "0x608060405234801561001057600080fd5b5060016000803373ffffffffffffffffffffffffffffffffffffffff1673ffffffffffffffffffffffffffffffffffffffff16815260200190815260200160002060006101000a81548160ff021916908315150217905550611215806100776000396000f3fe608060405234801561001057600080fd5b506004361061009e5760003560e01c8063b9f4172911610066578063b9f417291461031f578063d2ce617314610397578063d516418414610405578063f0247f9814610473578063f56a6321146104d55761009e565b806324d7806c146100a3578063631837c1146100ff57806370480275146101da5780638efe76191461021e578063a4afee82146102d1575b600080fd5b6100e5600480360360208110156100b957600080fd5b81019080803573ffffffffffffffffffffffffffffffffffffffff16906020019092919050505061054d565b604051808215151515815260200191505060405180910390f35b6101d86004803603604081101561011557600080fd5b810190808035906020019064010000000081111561013257600080fd5b82018360208201111561014457600080fd5b8035906020019184600183028401116401000000008311171561016657600080fd5b91908080601f016020809104026020016040519081016040528093929190818152602001838380828437600081840152601f19601f820116905080830192505050505050509192919290803573ffffffffffffffffffffffffffffffffffffffff1690602001909291905050506105a2565b005b61021c600480360360208110156101f057600080fd5b81019080803573ffffffffffffffffffffffffffffffffffffffff16906020019092919050505061070c565b005b61024a6004803603602081101561023457600080fd5b8101908080359060200190929190505050610824565b604051808573ffffffffffffffffffffffffffffffffffffffff1673ffffffffffffffffffffffffffffffffffffffff1681526020018473ffffffffffffffffffffffffffffffffffffffff1673ffffffffffffffffffffffffffffffffffffffff1681526020018381526020018215151515815260200194505050505060405180910390f35b61031d600480360360408110156102e757600080fd5b81019080803573ffffffffffffffffffffffffffffffffffffffff169060200190929190803590602001909291905050506108ae565b005b6103816004803603604081101561033557600080fd5b81019080803573ffffffffffffffffffffffffffffffffffffffff169060200190929190803573ffffffffffffffffffffffffffffffffffffffff1690602001909291905050506109eb565b6040518082815260200191505060405180910390f35b610403600480360360608110156103ad57600080fd5b81019080803573ffffffffffffffffffffffffffffffffffffffff169060200190929190803573ffffffffffffffffffffffffffffffffffffffff16906020019092919080359060200190929190505050610a10565b005b6104716004803603606081101561041b57600080fd5b8101908080359060200190929190803573ffffffffffffffffffffffffffffffffffffffff169060200190929190803573ffffffffffffffffffffffffffffffffffffffff169060200190929190505050610e35565b005b6104bf6004803603604081101561048957600080fd5b81019080803573ffffffffffffffffffffffffffffffffffffffff169060200190929190803590602001909291905050506110bb565b6040518082815260200191505060405180910390f35b610537600480360360408110156104eb57600080fd5b81019080803573ffffffffffffffffffffffffffffffffffffffff169060200190929190803573ffffffffffffffffffffffffffffffffffffffff1690602001909291905050506110e9565b6040518082815260200191505060405180910390f35b60008060008373ffffffffffffffffffffffffffffffffffffffff1673ffffffffffffffffffffffffffffffffffffffff16815260200190815260200160002060009054906101000a900460ff169050919050565b6000803373ffffffffffffffffffffffffffffffffffffffff1673ffffffffffffffffffffffffffffffffffffffff16815260200190815260200160002060009054906101000a900460ff16610660576040517f08c379a00000000000000000000000000000000000000000000000000000000081526004018080602001828103825260148152602001807f596f7520617265206e6f7420616e2061646d696e00000000000000000000000081525060200191505060405180910390fd5b806005836040518082805190602001908083835b602083106106975780518252602082019150602081019050602083039250610674565b6001836020036101000a038019825116818451168082178552505050505050905001915050908152602001604051809103902060006101000a81548173ffffffffffffffffffffffffffffffffffffffff021916908373ffffffffffffffffffffffffffffffffffffffff1602179055505050565b6000803373ffffffffffffffffffffffffffffffffffffffff1673ffffffffffffffffffffffffffffffffffffffff16815260200190815260200160002060009054906101000a900460ff166107ca576040517f08c379a00000000000000000000000000000000000000000000000000000000081526004018080602001828103825260148152602001807f596f7520617265206e6f7420616e2061646d696e00000000000000000000000081525060200191505060405180910390fd5b60016000808373ffffffffffffffffffffffffffffffffffffffff1673ffffffffffffffffffffffffffffffffffffffff16815260200190815260200160002060006101000a81548160ff02191690831515021790555050565b6002818154811061083157fe5b90600052602060002090600402016000915090508060000160009054906101000a900473ffffffffffffffffffffffffffffffffffffffff16908060010160009054906101000a900473ffffffffffffffffffffffffffffffffffffffff16908060020154908060030160009054906101000a900460ff16905084565b8173ffffffffffffffffffffffffffffffffffffffff166342842e0e3330846040518463ffffffff1660e01b8152600401808473ffffffffffffffffffffffffffffffffffffffff1673ffffffffffffffffffffffffffffffffffffffff1681526020018373ffffffffffffffffffffffffffffffffffffffff1673ffffffffffffffffffffffffffffffffffffffff1681526020018281526020019350505050600060405180830381600087803b15801561096957600080fd5b505af115801561097d573d6000803e3d6000fd5b50505050600360003373ffffffffffffffffffffffffffffffffffffffff1673ffffffffffffffffffffffffffffffffffffffff1681526020019081526020016000208190806001815401808255809150506001900390600052602060002001600090919091909150555050565b6004602052816000526040600020602052806000526040600020600091509150505481565b3373ffffffffffffffffffffffffffffffffffffffff168373ffffffffffffffffffffffffffffffffffffffff1614610a94576040517f08c379a000000000000000000000000000000000000000000000000000000000815260040180806020018281038252602a815260200180611190602a913960400191505060405180910390fd5b600073ffffffffffffffffffffffffffffffffffffffff168273ffffffffffffffffffffffffffffffffffffffff161415610b37576040517f08c379a000000000000000000000000000000000000000000000000000000000815260040180806020018281038252601c8152602001807f626f72726f7765722063616e277420626520616464726573732830290000000081525060200191505060405180910390fd5b8273ffffffffffffffffffffffffffffffffffffffff168273ffffffffffffffffffffffffffffffffffffffff161415610bbc576040517f08c379a000000000000000000000000000000000000000000000000000000000815260040180806020018281038252602581526020018061116b6025913960400191505060405180910390fd5b60008111610c15576040517f08c379a000000000000000000000000000000000000000000000000000000000815260040180806020018281038252602581526020018061110f6025913960400191505060405180910390fd5b600260405180608001604052808573ffffffffffffffffffffffffffffffffffffffff1681526020018473ffffffffffffffffffffffffffffffffffffffff16815260200183815260200160011515815250908060018154018082558091505060019003906000526020600020906004020160009091909190915060008201518160000160006101000a81548173ffffffffffffffffffffffffffffffffffffffff021916908373ffffffffffffffffffffffffffffffffffffffff16021790555060208201518160010160006101000a81548173ffffffffffffffffffffffffffffffffffffffff021916908373ffffffffffffffffffffffffffffffffffffffff1602179055506040820151816002015560608201518160030160006101000a81548160ff021916908315150217905550505080600160008573ffffffffffffffffffffffffffffffffffffffff1673ffffffffffffffffffffffffffffffffffffffff16815260200190815260200160002060008473ffffffffffffffffffffffffffffffffffffffff1673ffffffffffffffffffffffffffffffffffffffff168152602001908152602001600020819055508173ffffffffffffffffffffffffffffffffffffffff168373ffffffffffffffffffffffffffffffffffffffff167fe6dc004dd5d5c937c10d93ec12fefa9f5a8699b7a01dd5a0d53814d25e369f7b836040518082815260200191505060405180910390a3505050565b60008311610e8e576040517f08c379a000000000000000000000000000000000000000000000000000000000815260040180806020018281038252602581526020018061110f6025913960400191505060405180910390fd5b6000600160008473ffffffffffffffffffffffffffffffffffffffff1673ffffffffffffffffffffffffffffffffffffffff16815260200190815260200160002060003373ffffffffffffffffffffffffffffffffffffffff1673ffffffffffffffffffffffffffffffffffffffff1681526020019081526020016000205411610f63576040517f08c379a00000000000000000000000000000000000000000000000000000000081526004018080602001828103825260268152602001806111ba6026913960400191505060405180910390fd5b600160008373ffffffffffffffffffffffffffffffffffffffff1673ffffffffffffffffffffffffffffffffffffffff16815260200190815260200160002060003373ffffffffffffffffffffffffffffffffffffffff1673ffffffffffffffffffffffffffffffffffffffff16815260200190815260200160002054600460003373ffffffffffffffffffffffffffffffffffffffff1673ffffffffffffffffffffffffffffffffffffffff16815260200190815260200160002060008473ffffffffffffffffffffffffffffffffffffffff1673ffffffffffffffffffffffffffffffffffffffff16815260200190815260200160002054840111156110b6576040517f08c379a00000000000000000000000000000000000000000000000000000000081526004018080602001828103825260378152602001806111346037913960400191505060405180910390fd5b505050565b600360205281600052604060002081815481106110d457fe5b90600052602060002001600091509150505481565b600160205281600052604060002060205280600052604060002060009150915050548156fe616d6f756e7420626f72726f776564206d757374206265207375706572696f7220746f203074686520616d6f756e7420626f72726f776564206973207375706572696f7220746f2074686520616d6f756e742064656c656761746564626f72726f776572206d75737420626520646966666572656e742074686174206f776e6572746869732061646472657373206973206e6f7420746865206f776e6572206f66207468652066756e64737468697320626f72726f77657220686173206e6f742064656c65676174656420746f20796f75a26469706673582212200d6c2a89011c5e266fa74b8e4b78954d51648f4b1bc90bfcec5dda1a491584df64736f6c63430006020033",
  "source": "// SPDX-License-Identifier: MIT\r\n\r\npragma solidity ^0.6.2; // regarder la version sur les contracts de qidao 0.5.5 demander à Nandy quel est le mieux \r\n\r\nimport \"@openzeppelin/contracts/token/ERC721/IERC721.sol\";\r\n\r\n\r\ncontract delegate {\r\n\r\n\r\n    event Authorized(address indexed owner, address indexed borrower, uint amount); \r\n    \r\n    mapping(address => bool) admin;\r\n\r\n    constructor() public {\r\n        admin[msg.sender] = true;\r\n    }\r\n\r\n    // struct to represent a delegation\r\n    struct Delegate {\r\n        address _owner; \r\n        address _borrower; \r\n        uint _amount; \r\n        bool _authorized; \r\n    }\r\n\r\n\r\n\r\n    // mapping to find to who the owner has delegated and how much  \r\n    mapping(address=> mapping(address=>uint)) public hasDelegated; \r\n\r\n    // regarder s'il faut le définir en internal\r\n    Delegate [] public delegate_array; \r\n\r\n    // fonction pour approuver la délagation\r\n    // voir comment remplacer les owner par msg.sender sur remix \r\n    function approveDelegation(address _owner, address _borrower, uint _amount) public { // ATTENTION : si on reduit la quantité que l'emprunteur peut emprunter, il peut y avoir une sorte de dette négative\r\n\r\n        // we check that the msg sender is the owner of the fund \r\n        require(_owner==msg.sender, \"this address is not the owner of the funds\");\r\n        require(_borrower!=address(0), \"borrower can't be address(0)\");\r\n        require(_borrower!=_owner, \"borrower must be different that owner\");\r\n        require (_amount>0, \"amount borrowed must be superior to 0\");\r\n        // need to add the require to check that the owner has deposit collateral and don't use it \r\n\r\n        delegate_array.push(Delegate(_owner, _borrower, _amount, true)); \r\n        hasDelegated[_owner][_borrower] = _amount; \r\n        emit Authorized(_owner, _borrower, _amount); \r\n    }\r\n\r\n\r\n    mapping(address=>uint256[]) public isDepositor;\r\n\r\n    // nft deposit\r\n    function erc721_deposit(address minter, uint256 erc721_Id) public{ // ATTENTION vérifier si le erc 721 est bien défini comme un nft de mai finance\r\n        // call safeTransferFrom\r\n        IERC721(minter).safeTransferFrom(msg.sender, address(this), erc721_Id);\r\n        // add the nft to the mapping isDepositor\r\n        isDepositor[msg.sender].push(erc721_Id);\r\n    }\r\n\r\n\r\n\r\n    // emprunter \r\n\r\n    mapping(address=> mapping(address=>uint)) public amountBorrowed; \r\n\r\n\r\n    function borrow(uint _amount, address initialBorrower, address vault) public {\r\n        // check that the amount borrowed is superior to 0\r\n        require(_amount>0, \"amount borrowed must be superior to 0\");\r\n        // check that the initial borrower has delegated to the msg.sender\r\n        require(hasDelegated[initialBorrower][msg.sender]>0, \"this borrower has not delegated to you\"); // borrow from himself\r\n        // check that the amount already borrowed + new borrow is inferior to the maximal amount delegated\r\n        require(_amount + amountBorrowed[msg.sender][initialBorrower]<=hasDelegated[initialBorrower][msg.sender], \"the amount borrowed is superior to the amount delegated\");\r\n        \r\n        \r\n\r\n    }            \r\n    \r\n\r\n    // admin functions\r\n\r\n    function addAdmin(address _admin) public {\r\n        require(admin[msg.sender], \"You are not an admin\");\r\n        admin[_admin] = true;\r\n    }\r\n\r\n    function isAdmin(address _admin) public view returns(bool) {\r\n        return admin[_admin];\r\n    }\r\n\r\n    mapping(string => address) vaultAddress;\r\n    //comment retirer un admin ?\r\n    function editVaultAdress(string memory crypto, address vault) public {\r\n        require(admin[msg.sender], \"You are not an admin\");\r\n        vaultAddress[crypto] = vault;\r\n    }\r\n\r\n}\r\n\r\n",
  "sourcePath": "C:\\Users\\hervi\\Documents\\Cours ESILV\\PI2\\V2\\mai-finance\\contracts\\contract.sol",
  "compiler": {
    "name": "solc",
    "version": "0.6.2+commit.bacdbe57.Emscripten.clang"
  },
  "schemaVersion": "3.4.11",
  "updatedAt": "2022-11-27T12:29:00.882Z",
  "devdoc": {
    "methods": {}
  },
  "userdoc": {
    "methods": {}
  }
}