{
  "contractName": "fakeMaiVault",
  "abi": [
    {
      "inputs": [
        {
          "internalType": "string",
          "name": "name",
          "type": "string"
        },
        {
          "internalType": "string",
          "name": "symbol",
          "type": "string"
        }
      ],
      "stateMutability": "nonpayable",
      "type": "constructor"
    },
    {
      "anonymous": false,
      "inputs": [
        {
          "indexed": true,
          "internalType": "address",
          "name": "owner",
          "type": "address"
        },
        {
          "indexed": true,
          "internalType": "address",
          "name": "approved",
          "type": "address"
        },
        {
          "indexed": true,
          "internalType": "uint256",
          "name": "tokenId",
          "type": "uint256"
        }
      ],
      "name": "Approval",
      "type": "event"
    },
    {
      "anonymous": false,
      "inputs": [
        {
          "indexed": true,
          "internalType": "address",
          "name": "owner",
          "type": "address"
        },
        {
          "indexed": true,
          "internalType": "address",
          "name": "operator",
          "type": "address"
        },
        {
          "indexed": false,
          "internalType": "bool",
          "name": "approved",
          "type": "bool"
        }
      ],
      "name": "ApprovalForAll",
      "type": "event"
    },
    {
      "anonymous": false,
      "inputs": [
        {
          "indexed": true,
          "internalType": "address",
          "name": "from",
          "type": "address"
        },
        {
          "indexed": true,
          "internalType": "address",
          "name": "to",
          "type": "address"
        },
        {
          "indexed": true,
          "internalType": "uint256",
          "name": "tokenId",
          "type": "uint256"
        }
      ],
      "name": "Transfer",
      "type": "event"
    },
    {
      "inputs": [
        {
          "internalType": "uint256",
          "name": "",
          "type": "uint256"
        }
      ],
      "name": "_deposit",
      "outputs": [
        {
          "internalType": "uint256",
          "name": "",
          "type": "uint256"
        }
      ],
      "stateMutability": "view",
      "type": "function"
    },
    {
      "inputs": [
        {
          "internalType": "address",
          "name": "to",
          "type": "address"
        },
        {
          "internalType": "uint256",
          "name": "tokenId",
          "type": "uint256"
        }
      ],
      "name": "approve",
      "outputs": [],
      "stateMutability": "nonpayable",
      "type": "function"
    },
    {
      "inputs": [
        {
          "internalType": "address",
          "name": "owner",
          "type": "address"
        }
      ],
      "name": "balanceOf",
      "outputs": [
        {
          "internalType": "uint256",
          "name": "",
          "type": "uint256"
        }
      ],
      "stateMutability": "view",
      "type": "function"
    },
    {
      "inputs": [
        {
          "internalType": "address",
          "name": "",
          "type": "address"
        }
      ],
      "name": "erc721Balance",
      "outputs": [
        {
          "internalType": "uint256",
          "name": "",
          "type": "uint256"
        }
      ],
      "stateMutability": "view",
      "type": "function"
    },
    {
      "inputs": [
        {
          "internalType": "uint256",
          "name": "tokenId",
          "type": "uint256"
        }
      ],
      "name": "getApproved",
      "outputs": [
        {
          "internalType": "address",
          "name": "",
          "type": "address"
        }
      ],
      "stateMutability": "view",
      "type": "function"
    },
    {
      "inputs": [
        {
          "internalType": "address",
          "name": "owner",
          "type": "address"
        },
        {
          "internalType": "address",
          "name": "operator",
          "type": "address"
        }
      ],
      "name": "isApprovedForAll",
      "outputs": [
        {
          "internalType": "bool",
          "name": "",
          "type": "bool"
        }
      ],
      "stateMutability": "view",
      "type": "function"
    },
    {
      "inputs": [],
      "name": "mai",
      "outputs": [
        {
          "internalType": "contract ERC20",
          "name": "",
          "type": "address"
        }
      ],
      "stateMutability": "view",
      "type": "function"
    },
    {
      "inputs": [
        {
          "internalType": "address",
          "name": "",
          "type": "address"
        }
      ],
      "name": "maiBalance",
      "outputs": [
        {
          "internalType": "uint256",
          "name": "",
          "type": "uint256"
        }
      ],
      "stateMutability": "view",
      "type": "function"
    },
    {
      "inputs": [
        {
          "internalType": "uint256",
          "name": "",
          "type": "uint256"
        }
      ],
      "name": "maiDebt",
      "outputs": [
        {
          "internalType": "uint256",
          "name": "",
          "type": "uint256"
        }
      ],
      "stateMutability": "view",
      "type": "function"
    },
    {
      "inputs": [],
      "name": "name",
      "outputs": [
        {
          "internalType": "string",
          "name": "",
          "type": "string"
        }
      ],
      "stateMutability": "view",
      "type": "function"
    },
    {
      "inputs": [
        {
          "internalType": "uint256",
          "name": "tokenId",
          "type": "uint256"
        }
      ],
      "name": "ownerOf",
      "outputs": [
        {
          "internalType": "address",
          "name": "",
          "type": "address"
        }
      ],
      "stateMutability": "view",
      "type": "function"
    },
    {
      "inputs": [
        {
          "internalType": "uint256",
          "name": "",
          "type": "uint256"
        }
      ],
      "name": "owners",
      "outputs": [
        {
          "internalType": "address",
          "name": "",
          "type": "address"
        }
      ],
      "stateMutability": "view",
      "type": "function"
    },
    {
      "inputs": [
        {
          "internalType": "address",
          "name": "from",
          "type": "address"
        },
        {
          "internalType": "address",
          "name": "to",
          "type": "address"
        },
        {
          "internalType": "uint256",
          "name": "tokenId",
          "type": "uint256"
        }
      ],
      "name": "safeTransferFrom",
      "outputs": [],
      "stateMutability": "nonpayable",
      "type": "function"
    },
    {
      "inputs": [
        {
          "internalType": "address",
          "name": "from",
          "type": "address"
        },
        {
          "internalType": "address",
          "name": "to",
          "type": "address"
        },
        {
          "internalType": "uint256",
          "name": "tokenId",
          "type": "uint256"
        },
        {
          "internalType": "bytes",
          "name": "data",
          "type": "bytes"
        }
      ],
      "name": "safeTransferFrom",
      "outputs": [],
      "stateMutability": "nonpayable",
      "type": "function"
    },
    {
      "inputs": [
        {
          "internalType": "address",
          "name": "operator",
          "type": "address"
        },
        {
          "internalType": "bool",
          "name": "approved",
          "type": "bool"
        }
      ],
      "name": "setApprovalForAll",
      "outputs": [],
      "stateMutability": "nonpayable",
      "type": "function"
    },
    {
      "inputs": [
        {
          "internalType": "bytes4",
          "name": "interfaceId",
          "type": "bytes4"
        }
      ],
      "name": "supportsInterface",
      "outputs": [
        {
          "internalType": "bool",
          "name": "",
          "type": "bool"
        }
      ],
      "stateMutability": "view",
      "type": "function"
    },
    {
      "inputs": [],
      "name": "symbol",
      "outputs": [
        {
          "internalType": "string",
          "name": "",
          "type": "string"
        }
      ],
      "stateMutability": "view",
      "type": "function"
    },
    {
      "inputs": [
        {
          "internalType": "uint256",
          "name": "tokenId",
          "type": "uint256"
        }
      ],
      "name": "tokenURI",
      "outputs": [
        {
          "internalType": "string",
          "name": "",
          "type": "string"
        }
      ],
      "stateMutability": "view",
      "type": "function"
    },
    {
      "inputs": [
        {
          "internalType": "address",
          "name": "from",
          "type": "address"
        },
        {
          "internalType": "address",
          "name": "to",
          "type": "address"
        },
        {
          "internalType": "uint256",
          "name": "tokenId",
          "type": "uint256"
        }
      ],
      "name": "transferFrom",
      "outputs": [],
      "stateMutability": "nonpayable",
      "type": "function"
    },
    {
      "inputs": [],
      "name": "uri",
      "outputs": [
        {
          "internalType": "string",
          "name": "",
          "type": "string"
        }
      ],
      "stateMutability": "view",
      "type": "function"
    },
    {
      "inputs": [],
      "name": "createVault",
      "outputs": [
        {
          "internalType": "uint256",
          "name": "",
          "type": "uint256"
        }
      ],
      "stateMutability": "nonpayable",
      "type": "function"
    },
    {
      "inputs": [
        {
          "internalType": "uint256",
          "name": "_erc721_Id",
          "type": "uint256"
        },
        {
          "internalType": "uint256",
          "name": "_amount",
          "type": "uint256"
        },
        {
          "internalType": "uint256",
          "name": "_front",
          "type": "uint256"
        }
      ],
      "name": "borrowToken",
      "outputs": [],
      "stateMutability": "nonpayable",
      "type": "function"
    },
    {
      "inputs": [
        {
          "internalType": "uint256",
          "name": "_erc721_Id",
          "type": "uint256"
        },
        {
          "internalType": "uint256",
          "name": "amount",
          "type": "uint256"
        }
      ],
      "name": "depositCollateral",
      "outputs": [],
      "stateMutability": "nonpayable",
      "type": "function"
    },
    {
      "inputs": [
        {
          "internalType": "address",
          "name": "from",
          "type": "address"
        },
        {
          "internalType": "address",
          "name": "_to",
          "type": "address"
        },
        {
          "internalType": "uint256",
          "name": "_erc721_Id",
          "type": "uint256"
        }
      ],
      "name": "TransferFrom",
      "outputs": [],
      "stateMutability": "nonpayable",
      "type": "function"
    },
    {
      "inputs": [
        {
          "internalType": "address",
          "name": "_to",
          "type": "address"
        },
        {
          "internalType": "uint256",
          "name": "amount",
          "type": "uint256"
        }
      ],
      "name": "TransferMai",
      "outputs": [],
      "stateMutability": "nonpayable",
      "type": "function"
    },
    {
      "inputs": [
        {
          "internalType": "address",
          "name": "from",
          "type": "address"
        },
        {
          "internalType": "address",
          "name": "_to",
          "type": "address"
        },
        {
          "internalType": "uint256",
          "name": "amount",
          "type": "uint256"
        }
      ],
      "name": "TransferMaiFrom",
      "outputs": [],
      "stateMutability": "nonpayable",
      "type": "function"
    },
    {
      "inputs": [
        {
          "internalType": "uint256",
          "name": "vaultId",
          "type": "uint256"
        }
      ],
      "name": "updateVaultDebt",
      "outputs": [
        {
          "internalType": "uint256",
          "name": "",
          "type": "uint256"
        }
      ],
      "stateMutability": "view",
      "type": "function"
    },
    {
      "inputs": [
        {
          "internalType": "uint256",
          "name": "vaultID",
          "type": "uint256"
        },
        {
          "internalType": "uint256",
          "name": "amount",
          "type": "uint256"
        },
        {
          "internalType": "uint256",
          "name": "_front",
          "type": "uint256"
        }
      ],
      "name": "payBackToken",
      "outputs": [],
      "stateMutability": "nonpayable",
      "type": "function"
    },
    {
      "inputs": [
        {
          "internalType": "uint256",
          "name": "vaultID",
          "type": "uint256"
        },
        {
          "internalType": "uint256",
          "name": "amount",
          "type": "uint256"
        }
      ],
      "name": "withdrawCollateral",
      "outputs": [],
      "stateMutability": "nonpayable",
      "type": "function"
    },
    {
      "inputs": [],
      "name": "newVault",
      "outputs": [],
      "stateMutability": "nonpayable",
      "type": "function"
    },
    {
      "inputs": [
        {
          "internalType": "address",
          "name": "_owner",
          "type": "address"
        }
      ],
      "name": "getMaiBalance",
      "outputs": [
        {
          "internalType": "uint256",
          "name": "",
          "type": "uint256"
        }
      ],
      "stateMutability": "view",
      "type": "function"
    },
    {
      "inputs": [
        {
          "internalType": "uint256",
          "name": "_vaultId",
          "type": "uint256"
        }
      ],
      "name": "getVaultDebt",
      "outputs": [
        {
          "internalType": "uint256",
          "name": "",
          "type": "uint256"
        }
      ],
      "stateMutability": "view",
      "type": "function"
    },
    {
      "inputs": [
        {
          "internalType": "uint256",
          "name": "_vaultId",
          "type": "uint256"
        }
      ],
      "name": "getVaultCollateral",
      "outputs": [
        {
          "internalType": "uint256",
          "name": "",
          "type": "uint256"
        }
      ],
      "stateMutability": "view",
      "type": "function"
    },
    {
      "inputs": [
        {
          "internalType": "uint256",
          "name": "_vaultId",
          "type": "uint256"
        }
      ],
      "name": "getOwner",
      "outputs": [
        {
          "internalType": "address",
          "name": "",
          "type": "address"
        }
      ],
      "stateMutability": "view",
      "type": "function"
    },
    {
      "inputs": [
        {
          "internalType": "uint256",
          "name": "_amount",
          "type": "uint256"
        }
      ],
      "name": "getMai",
      "outputs": [],
      "stateMutability": "nonpayable",
      "type": "function"
    }
  ],
  "bytecode": "0x60806040526000600d5573d9145cce52d386f254917e481eb44e9943f39138600e60006101000a81548173ffffffffffffffffffffffffffffffffffffffff021916908373ffffffffffffffffffffffffffffffffffffffff1602179055503480156200006b57600080fd5b506040516200460b3803806200460b833981810160405281019062000091919062000258565b818181818160009080519060200190620000ad92919062000136565b508060019080519060200190620000c692919062000136565b5050505050600e60009054906101000a900473ffffffffffffffffffffffffffffffffffffffff16600760006101000a81548173ffffffffffffffffffffffffffffffffffffffff021916908373ffffffffffffffffffffffffffffffffffffffff16021790555050506200043b565b828054620001449062000360565b90600052602060002090601f016020900481019282620001685760008555620001b4565b82601f106200018357805160ff1916838001178555620001b4565b82800160010185558215620001b4579182015b82811115620001b357825182559160200191906001019062000196565b5b509050620001c39190620001c7565b5090565b5b80821115620001e2576000816000905550600101620001c8565b5090565b6000620001fd620001f784620002f4565b620002cb565b9050828152602081018484840111156200021657600080fd5b620002238482856200032a565b509392505050565b600082601f8301126200023d57600080fd5b81516200024f848260208601620001e6565b91505092915050565b600080604083850312156200026c57600080fd5b600083015167ffffffffffffffff8111156200028757600080fd5b62000295858286016200022b565b925050602083015167ffffffffffffffff811115620002b357600080fd5b620002c1858286016200022b565b9150509250929050565b6000620002d7620002ea565b9050620002e5828262000396565b919050565b6000604051905090565b600067ffffffffffffffff821115620003125762000311620003fb565b5b6200031d826200042a565b9050602081019050919050565b60005b838110156200034a5780820151818401526020810190506200032d565b838111156200035a576000848401525b50505050565b600060028204905060018216806200037957607f821691505b6020821081141562000390576200038f620003cc565b5b50919050565b620003a1826200042a565b810181811067ffffffffffffffff82111715620003c357620003c2620003fb565b5b80604052505050565b7f4e487b7100000000000000000000000000000000000000000000000000000000600052602260045260246000fd5b7f4e487b7100000000000000000000000000000000000000000000000000000000600052604160045260246000fd5b6000601f19601f8301169050919050565b6141c0806200044b6000396000f3fe608060405234801561001057600080fd5b50600436106102115760003560e01c80637197426211610125578063b88d4fde116100ad578063e985e9c51161007c578063e985e9c514610658578063eac989f814610688578063ece13732146106a6578063ee3e98e7146106c2578063f5b36dee146106f257610211565b8063b88d4fde146105c0578063c0d84ce5146105dc578063c41a360a146105f8578063c87b56dd1461062857610211565b806393ee476a116100f457806393ee476a1461051e57806395d89b411461054e57806397a41b8e1461056c578063a22cb46514610588578063afca7439146105a457610211565b80637197426214610498578063767a7b05146104c857806388aaf0c8146104e45780639213b124146104ee57610211565b806335836f15116101a85780636352211e116101775780636352211e146103bc57806363bda6e1146103ec5780636b5f6fda1461041c5780636e1645e71461043857806370a082311461046857610211565b806335836f151461033457806342842e0e14610364578063570b2b84146103805780635d12928b1461039e57610211565b8063095ea7b3116101e4578063095ea7b3146102c457806323b872dd146102e05780632de333bf146102fc5780633128ef271461031857610211565b806301ffc9a714610216578063025e7c271461024657806306fdde0314610276578063081812fc14610294575b600080fd5b610230600480360381019061022b9190613102565b610722565b60405161023d91906136a5565b60405180910390f35b610260600480360381019061025b9190613154565b610804565b60405161026d9190613615565b60405180910390f35b61027e610837565b60405161028b91906136db565b60405180910390f35b6102ae60048036038101906102a99190613154565b6108c9565b6040516102bb9190613615565b60405180910390f35b6102de60048036038101906102d9919061309d565b61090f565b005b6102fa60048036038101906102f59190612f97565b610a27565b005b6103166004803603810190610311919061309d565b610a87565b005b610332600480360381019061032d91906131e2565b610bb9565b005b61034e60048036038101906103499190613154565b610db7565b60405161035b919061395d565b60405180910390f35b61037e60048036038101906103799190612f97565b610dd4565b005b610388610df4565b60405161039591906136c0565b60405180910390f35b6103a6610e1a565b6040516103b3919061395d565b60405180910390f35b6103d660048036038101906103d19190613154565b610e57565b6040516103e39190613615565b60405180910390f35b61040660048036038101906104019190612f32565b610ede565b604051610413919061395d565b60405180910390f35b61043660048036038101906104319190613154565b610f92565b005b610452600480360381019061044d9190612f32565b610feb565b60405161045f919061395d565b60405180910390f35b610482600480360381019061047d9190612f32565b611003565b60405161048f919061395d565b60405180910390f35b6104b260048036038101906104ad9190613154565b6110bb565b6040516104bf919061395d565b60405180910390f35b6104e260048036038101906104dd91906131a6565b6110d3565b005b6104ec6112c2565b005b61050860048036038101906105039190613154565b611389565b604051610515919061395d565b60405180910390f35b61053860048036038101906105339190613154565b6113a1565b604051610545919061395d565b60405180910390f35b6105566113be565b60405161056391906136db565b60405180910390f35b610586600480360381019061058191906131e2565b611450565b005b6105a2600480360381019061059d9190613061565b61158c565b005b6105be60048036038101906105b99190612f97565b6115a2565b005b6105da60048036038101906105d59190612fe6565b6116d5565b005b6105f660048036038101906105f19190612f97565b611737565b005b610612600480360381019061060d9190613154565b6118dd565b60405161061f9190613615565b60405180910390f35b610642600480360381019061063d9190613154565b61191a565b60405161064f91906136db565b60405180910390f35b610672600480360381019061066d9190612f5b565b611982565b60405161067f91906136a5565b60405180910390f35b610690611a16565b60405161069d91906136db565b60405180910390f35b6106c060048036038101906106bb91906131a6565b611aa4565b005b6106dc60048036038101906106d79190613154565b611b48565b6040516106e9919061395d565b60405180910390f35b61070c60048036038101906107079190612f32565b611b65565b604051610719919061395d565b60405180910390f35b60007f80ac58cd000000000000000000000000000000000000000000000000000000007bffffffffffffffffffffffffffffffffffffffffffffffffffffffff1916827bffffffffffffffffffffffffffffffffffffffffffffffffffffffff191614806107ed57507f5b5e139f000000000000000000000000000000000000000000000000000000007bffffffffffffffffffffffffffffffffffffffffffffffffffffffff1916827bffffffffffffffffffffffffffffffffffffffffffffffffffffffff1916145b806107fd57506107fc82611b7d565b5b9050919050565b60086020528060005260406000206000915054906101000a900473ffffffffffffffffffffffffffffffffffffffff1681565b60606000805461084690613b80565b80601f016020809104026020016040519081016040528092919081815260200182805461087290613b80565b80156108bf5780601f10610894576101008083540402835291602001916108bf565b820191906000526020600020905b8154815290600101906020018083116108a257829003601f168201915b5050505050905090565b60006108d482611be7565b6004600083815260200190815260200160002060009054906101000a900473ffffffffffffffffffffffffffffffffffffffff169050919050565b600061091a82610e57565b90508073ffffffffffffffffffffffffffffffffffffffff168373ffffffffffffffffffffffffffffffffffffffff16141561098b576040517f08c379a0000000000000000000000000000000000000000000000000000000008152600401610982906138bd565b60405180910390fd5b8073ffffffffffffffffffffffffffffffffffffffff166109aa611c32565b73ffffffffffffffffffffffffffffffffffffffff1614806109d957506109d8816109d3611c32565b611982565b5b610a18576040517f08c379a0000000000000000000000000000000000000000000000000000000008152600401610a0f906138dd565b60405180910390fd5b610a228383611c3a565b505050565b610a38610a32611c32565b82611cf3565b610a77576040517f08c379a0000000000000000000000000000000000000000000000000000000008152600401610a6e9061371d565b60405180910390fd5b610a82838383611d88565b505050565b80600c60003373ffffffffffffffffffffffffffffffffffffffff1673ffffffffffffffffffffffffffffffffffffffff168152602001908152602001600020541015610b09576040517f08c379a0000000000000000000000000000000000000000000000000000000008152600401610b00906137fd565b60405180910390fd5b80600c60003373ffffffffffffffffffffffffffffffffffffffff1673ffffffffffffffffffffffffffffffffffffffff1681526020019081526020016000206000828254610b589190613a72565b9250508190555080600c60008473ffffffffffffffffffffffffffffffffffffffff1673ffffffffffffffffffffffffffffffffffffffff1681526020019081526020016000206000828254610bae9190613a1c565b925050819055505050565b3373ffffffffffffffffffffffffffffffffffffffff166008600085815260200190815260200160002060009054906101000a900473ffffffffffffffffffffffffffffffffffffffff1673ffffffffffffffffffffffffffffffffffffffff1614610c5a576040517f08c379a0000000000000000000000000000000000000000000000000000000008152600401610c519061387d565b60405180910390fd5b81600b6000858152602001908152602001600020541015610cb0576040517f08c379a0000000000000000000000000000000000000000000000000000000008152600401610ca7906136fd565b60405180910390fd5b81600c60003373ffffffffffffffffffffffffffffffffffffffff1673ffffffffffffffffffffffffffffffffffffffff168152602001908152602001600020541015610d32576040517f08c379a0000000000000000000000000000000000000000000000000000000008152600401610d29906137fd565b60405180910390fd5b81600b60008581526020019081526020016000206000828254610d559190613a72565b9250508190555081600c60003373ffffffffffffffffffffffffffffffffffffffff1673ffffffffffffffffffffffffffffffffffffffff1681526020019081526020016000206000828254610dab9190613a72565b92505081905550505050565b6000600b6000838152602001908152602001600020549050919050565b610def838383604051806020016040528060008152506116d5565b505050565b600760009054906101000a900473ffffffffffffffffffffffffffffffffffffffff1681565b600080600d5490506001600d54610e319190613a1c565b600d8190555080600d541015610e4657600080fd5b610e503382612082565b8091505090565b600080610e63836122a0565b9050600073ffffffffffffffffffffffffffffffffffffffff168173ffffffffffffffffffffffffffffffffffffffff161415610ed5576040517f08c379a0000000000000000000000000000000000000000000000000000000008152600401610ecc9061389d565b60405180910390fd5b80915050919050565b6000600760009054906101000a900473ffffffffffffffffffffffffffffffffffffffff1673ffffffffffffffffffffffffffffffffffffffff166370a08231836040518263ffffffff1660e01b8152600401610f3b9190613615565b60206040518083038186803b158015610f5357600080fd5b505afa158015610f67573d6000803e3d6000fd5b505050506040513d601f19601f82011682018060405250810190610f8b919061317d565b9050919050565b80600c60003373ffffffffffffffffffffffffffffffffffffffff1673ffffffffffffffffffffffffffffffffffffffff1681526020019081526020016000206000828254610fe19190613a1c565b9250508190555050565b60096020528060005260406000206000915090505481565b60008073ffffffffffffffffffffffffffffffffffffffff168273ffffffffffffffffffffffffffffffffffffffff161415611074576040517f08c379a000000000000000000000000000000000000000000000000000000000815260040161106b9061381d565b60405180910390fd5b600360008373ffffffffffffffffffffffffffffffffffffffff1673ffffffffffffffffffffffffffffffffffffffff168152602001908152602001600020549050919050565b600b6020528060005260406000206000915090505481565b3373ffffffffffffffffffffffffffffffffffffffff166008600084815260200190815260200160002060009054906101000a900473ffffffffffffffffffffffffffffffffffffffff1673ffffffffffffffffffffffffffffffffffffffff1614611174576040517f08c379a000000000000000000000000000000000000000000000000000000000815260040161116b9061387d565b60405180910390fd5b80600a60008481526020019081526020016000205410156111ca576040517f08c379a00000000000000000000000000000000000000000000000000000000081526004016111c19061391d565b60405180910390fd5b80600a6000848152602001908152602001600020546111e99190613a72565b600b600084815260200190815260200160002054111561123e576040517f08c379a00000000000000000000000000000000000000000000000000000000081526004016112359061391d565b60405180910390fd5b80600a600084815260200190815260200160002060008282546112619190613a72565b9250508190555080600c60003373ffffffffffffffffffffffffffffffffffffffff1673ffffffffffffffffffffffffffffffffffffffff16815260200190815260200160002060008282546112b79190613a1c565b925050819055505050565b6001600d60008282546112d59190613a1c565b925050819055503360086000600d54815260200190815260200160002060006101000a81548173ffffffffffffffffffffffffffffffffffffffff021916908373ffffffffffffffffffffffffffffffffffffffff1602179055506001600960003373ffffffffffffffffffffffffffffffffffffffff1673ffffffffffffffffffffffffffffffffffffffff16815260200190815260200160002060008282546113809190613a1c565b92505081905550565b600a6020528060005260406000206000915090505481565b6000600b6000838152602001908152602001600020549050919050565b6060600180546113cd90613b80565b80601f01602080910402602001604051908101604052809291908181526020018280546113f990613b80565b80156114465780601f1061141b57610100808354040283529160200191611446565b820191906000526020600020905b81548152906001019060200180831161142957829003601f168201915b5050505050905090565b3373ffffffffffffffffffffffffffffffffffffffff1661147084610e57565b73ffffffffffffffffffffffffffffffffffffffff16146114c6576040517f08c379a00000000000000000000000000000000000000000000000000000000081526004016114bd9061385d565b60405180910390fd5b81600b600085815260200190815260200160002054600a6000868152602001908152602001600020546114f99190613a72565b101561153a576040517f08c379a00000000000000000000000000000000000000000000000000000000081526004016115319061391d565b60405180910390fd5b6115873383600760009054906101000a900473ffffffffffffffffffffffffffffffffffffffff1673ffffffffffffffffffffffffffffffffffffffff166122dd9092919063ffffffff16565b505050565b61159e611597611c32565b8383612363565b5050565b80600c60008573ffffffffffffffffffffffffffffffffffffffff1673ffffffffffffffffffffffffffffffffffffffff168152602001908152602001600020541015611624576040517f08c379a000000000000000000000000000000000000000000000000000000000815260040161161b906137fd565b60405180910390fd5b80600c60008573ffffffffffffffffffffffffffffffffffffffff1673ffffffffffffffffffffffffffffffffffffffff16815260200190815260200160002060008282546116739190613a72565b9250508190555080600c60008473ffffffffffffffffffffffffffffffffffffffff1673ffffffffffffffffffffffffffffffffffffffff16815260200190815260200160002060008282546116c99190613a1c565b92505081905550505050565b6116e66116e0611c32565b83611cf3565b611725576040517f08c379a000000000000000000000000000000000000000000000000000000000815260040161171c9061371d565b60405180910390fd5b611731848484846124d0565b50505050565b3373ffffffffffffffffffffffffffffffffffffffff166008600083815260200190815260200160002060009054906101000a900473ffffffffffffffffffffffffffffffffffffffff1673ffffffffffffffffffffffffffffffffffffffff16146117d8576040517f08c379a00000000000000000000000000000000000000000000000000000000081526004016117cf9061385d565b60405180910390fd5b816008600083815260200190815260200160002060006101000a81548173ffffffffffffffffffffffffffffffffffffffff021916908373ffffffffffffffffffffffffffffffffffffffff1602179055506001600960008573ffffffffffffffffffffffffffffffffffffffff1673ffffffffffffffffffffffffffffffffffffffff168152602001908152602001600020600082825461187a9190613a72565b925050819055506001600960008473ffffffffffffffffffffffffffffffffffffffff1673ffffffffffffffffffffffffffffffffffffffff16815260200190815260200160002060008282546118d19190613a1c565b92505081905550505050565b60006008600083815260200190815260200160002060009054906101000a900473ffffffffffffffffffffffffffffffffffffffff169050919050565b606061192582611be7565b600061192f61252c565b9050600081511161194f576040518060200160405280600081525061197a565b8061195984612543565b60405160200161196a9291906135f1565b6040516020818303038152906040525b915050919050565b6000600560008473ffffffffffffffffffffffffffffffffffffffff1673ffffffffffffffffffffffffffffffffffffffff16815260200190815260200160002060008373ffffffffffffffffffffffffffffffffffffffff1673ffffffffffffffffffffffffffffffffffffffff16815260200190815260200160002060009054906101000a900460ff16905092915050565b60068054611a2390613b80565b80601f0160208091040260200160405190810160405280929190818152602001828054611a4f90613b80565b8015611a9c5780601f10611a7157610100808354040283529160200191611a9c565b820191906000526020600020905b815481529060010190602001808311611a7f57829003601f168201915b505050505081565b3373ffffffffffffffffffffffffffffffffffffffff16611ac483610e57565b73ffffffffffffffffffffffffffffffffffffffff1614611b1a576040517f08c379a0000000000000000000000000000000000000000000000000000000008152600401611b119061385d565b60405180910390fd5b80600a60008481526020019081526020016000206000828254611b3d9190613a1c565b925050819055505050565b6000600a6000838152602001908152602001600020549050919050565b600c6020528060005260406000206000915090505481565b60007f01ffc9a7000000000000000000000000000000000000000000000000000000007bffffffffffffffffffffffffffffffffffffffffffffffffffffffff1916827bffffffffffffffffffffffffffffffffffffffffffffffffffffffff1916149050919050565b611bf081612667565b611c2f576040517f08c379a0000000000000000000000000000000000000000000000000000000008152600401611c269061389d565b60405180910390fd5b50565b600033905090565b816004600083815260200190815260200160002060006101000a81548173ffffffffffffffffffffffffffffffffffffffff021916908373ffffffffffffffffffffffffffffffffffffffff160217905550808273ffffffffffffffffffffffffffffffffffffffff16611cad83610e57565b73ffffffffffffffffffffffffffffffffffffffff167f8c5be1e5ebec7d5bd14f71427d1e84f3dd0314c0f7b2291e5b200ac8c7c3b92560405160405180910390a45050565b600080611cff83610e57565b90508073ffffffffffffffffffffffffffffffffffffffff168473ffffffffffffffffffffffffffffffffffffffff161480611d415750611d408185611982565b5b80611d7f57508373ffffffffffffffffffffffffffffffffffffffff16611d67846108c9565b73ffffffffffffffffffffffffffffffffffffffff16145b91505092915050565b8273ffffffffffffffffffffffffffffffffffffffff16611da882610e57565b73ffffffffffffffffffffffffffffffffffffffff1614611dfe576040517f08c379a0000000000000000000000000000000000000000000000000000000008152600401611df59061375d565b60405180910390fd5b600073ffffffffffffffffffffffffffffffffffffffff168273ffffffffffffffffffffffffffffffffffffffff161415611e6e576040517f08c379a0000000000000000000000000000000000000000000000000000000008152600401611e659061379d565b60405180910390fd5b611e7b83838360016126a8565b8273ffffffffffffffffffffffffffffffffffffffff16611e9b82610e57565b73ffffffffffffffffffffffffffffffffffffffff1614611ef1576040517f08c379a0000000000000000000000000000000000000000000000000000000008152600401611ee89061375d565b60405180910390fd5b6004600082815260200190815260200160002060006101000a81549073ffffffffffffffffffffffffffffffffffffffff02191690556001600360008573ffffffffffffffffffffffffffffffffffffffff1673ffffffffffffffffffffffffffffffffffffffff168152602001908152602001600020600082825403925050819055506001600360008473ffffffffffffffffffffffffffffffffffffffff1673ffffffffffffffffffffffffffffffffffffffff16815260200190815260200160002060008282540192505081905550816002600083815260200190815260200160002060006101000a81548173ffffffffffffffffffffffffffffffffffffffff021916908373ffffffffffffffffffffffffffffffffffffffff160217905550808273ffffffffffffffffffffffffffffffffffffffff168473ffffffffffffffffffffffffffffffffffffffff167fddf252ad1be2c89b69c2b068fc378daa952ba7f163c4a11628f55a4df523b3ef60405160405180910390a461207d83838360016127ce565b505050565b600073ffffffffffffffffffffffffffffffffffffffff168273ffffffffffffffffffffffffffffffffffffffff1614156120f2576040517f08c379a00000000000000000000000000000000000000000000000000000000081526004016120e99061383d565b60405180910390fd5b6120fb81612667565b1561213b576040517f08c379a00000000000000000000000000000000000000000000000000000000081526004016121329061377d565b60405180910390fd5b6121496000838360016126a8565b61215281612667565b15612192576040517f08c379a00000000000000000000000000000000000000000000000000000000081526004016121899061377d565b60405180910390fd5b6001600360008473ffffffffffffffffffffffffffffffffffffffff1673ffffffffffffffffffffffffffffffffffffffff16815260200190815260200160002060008282540192505081905550816002600083815260200190815260200160002060006101000a81548173ffffffffffffffffffffffffffffffffffffffff021916908373ffffffffffffffffffffffffffffffffffffffff160217905550808273ffffffffffffffffffffffffffffffffffffffff16600073ffffffffffffffffffffffffffffffffffffffff167fddf252ad1be2c89b69c2b068fc378daa952ba7f163c4a11628f55a4df523b3ef60405160405180910390a461229c6000838360016127ce565b5050565b60006002600083815260200190815260200160002060009054906101000a900473ffffffffffffffffffffffffffffffffffffffff169050919050565b61235e8363a9059cbb60e01b84846040516024016122fc92919061367c565b604051602081830303815290604052907bffffffffffffffffffffffffffffffffffffffffffffffffffffffff19166020820180517bffffffffffffffffffffffffffffffffffffffffffffffffffffffff83818316178352505050506127d4565b505050565b8173ffffffffffffffffffffffffffffffffffffffff168373ffffffffffffffffffffffffffffffffffffffff1614156123d2576040517f08c379a00000000000000000000000000000000000000000000000000000000081526004016123c9906137bd565b60405180910390fd5b80600560008573ffffffffffffffffffffffffffffffffffffffff1673ffffffffffffffffffffffffffffffffffffffff16815260200190815260200160002060008473ffffffffffffffffffffffffffffffffffffffff1673ffffffffffffffffffffffffffffffffffffffff16815260200190815260200160002060006101000a81548160ff0219169083151502179055508173ffffffffffffffffffffffffffffffffffffffff168373ffffffffffffffffffffffffffffffffffffffff167f17307eab39ab6107e8899845ad3d59bd9653f200f220920489ca2b5937696c31836040516124c391906136a5565b60405180910390a3505050565b6124db848484611d88565b6124e78484848461289b565b612526576040517f08c379a000000000000000000000000000000000000000000000000000000000815260040161251d9061373d565b60405180910390fd5b50505050565b606060405180602001604052806000815250905090565b60606000600161255284612a32565b01905060008167ffffffffffffffff811115612597577f4e487b7100000000000000000000000000000000000000000000000000000000600052604160045260246000fd5b6040519080825280601f01601f1916602001820160405280156125c95781602001600182028036833780820191505090505b509050600082602001820190505b60011561265c578080600190039150507f3031323334353637383961626364656600000000000000000000000000000000600a86061a8153600a8581612646577f4e487b7100000000000000000000000000000000000000000000000000000000600052601260045260246000fd5b04945060008514156126575761265c565b6125d7565b819350505050919050565b60008073ffffffffffffffffffffffffffffffffffffffff16612689836122a0565b73ffffffffffffffffffffffffffffffffffffffff1614159050919050565b60018111156127c857600073ffffffffffffffffffffffffffffffffffffffff168473ffffffffffffffffffffffffffffffffffffffff161461273c5780600360008673ffffffffffffffffffffffffffffffffffffffff1673ffffffffffffffffffffffffffffffffffffffff16815260200190815260200160002060008282546127349190613a72565b925050819055505b600073ffffffffffffffffffffffffffffffffffffffff168373ffffffffffffffffffffffffffffffffffffffff16146127c75780600360008573ffffffffffffffffffffffffffffffffffffffff1673ffffffffffffffffffffffffffffffffffffffff16815260200190815260200160002060008282546127bf9190613a1c565b925050819055505b5b50505050565b50505050565b6000612836826040518060400160405280602081526020017f5361666545524332303a206c6f772d6c6576656c2063616c6c206661696c65648152508573ffffffffffffffffffffffffffffffffffffffff16612c699092919063ffffffff16565b9050600081511115612896578080602001905181019061285691906130d9565b612895576040517f08c379a000000000000000000000000000000000000000000000000000000000815260040161288c9061393d565b60405180910390fd5b5b505050565b60006128bc8473ffffffffffffffffffffffffffffffffffffffff16612c81565b15612a25578373ffffffffffffffffffffffffffffffffffffffff1663150b7a026128e5611c32565b8786866040518563ffffffff1660e01b81526004016129079493929190613630565b602060405180830381600087803b15801561292157600080fd5b505af192505050801561295257506040513d601f19601f8201168201806040525081019061294f919061312b565b60015b6129d5573d8060008114612982576040519150601f19603f3d011682016040523d82523d6000602084013e612987565b606091505b506000815114156129cd576040517f08c379a00000000000000000000000000000000000000000000000000000000081526004016129c49061373d565b60405180910390fd5b805181602001fd5b63150b7a0260e01b7bffffffffffffffffffffffffffffffffffffffffffffffffffffffff1916817bffffffffffffffffffffffffffffffffffffffffffffffffffffffff191614915050612a2a565b600190505b949350505050565b600080600090507a184f03e93ff9f4daa797ed6e38ed64bf6a1f0100000000000000008310612ab6577a184f03e93ff9f4daa797ed6e38ed64bf6a1f0100000000000000008381612aac577f4e487b7100000000000000000000000000000000000000000000000000000000600052601260045260246000fd5b0492506040810190505b6d04ee2d6d415b85acef81000000008310612b19576d04ee2d6d415b85acef81000000008381612b0f577f4e487b7100000000000000000000000000000000000000000000000000000000600052601260045260246000fd5b0492506020810190505b662386f26fc100008310612b6e57662386f26fc100008381612b64577f4e487b7100000000000000000000000000000000000000000000000000000000600052601260045260246000fd5b0492506010810190505b6305f5e1008310612bbd576305f5e1008381612bb3577f4e487b7100000000000000000000000000000000000000000000000000000000600052601260045260246000fd5b0492506008810190505b6127108310612c08576127108381612bfe577f4e487b7100000000000000000000000000000000000000000000000000000000600052601260045260246000fd5b0492506004810190505b60648310612c515760648381612c47577f4e487b7100000000000000000000000000000000000000000000000000000000600052601260045260246000fd5b0492506002810190505b600a8310612c60576001810190505b80915050919050565b6060612c788484600085612ca4565b90509392505050565b6000808273ffffffffffffffffffffffffffffffffffffffff163b119050919050565b606082471015612ce9576040517f08c379a0000000000000000000000000000000000000000000000000000000008152600401612ce0906137dd565b60405180910390fd5b6000808673ffffffffffffffffffffffffffffffffffffffff168587604051612d1291906135da565b60006040518083038185875af1925050503d8060008114612d4f576040519150601f19603f3d011682016040523d82523d6000602084013e612d54565b606091505b5091509150612d6587838387612d71565b92505050949350505050565b60608315612dd457600083511415612dcc57612d8c85612c81565b612dcb576040517f08c379a0000000000000000000000000000000000000000000000000000000008152600401612dc2906138fd565b60405180910390fd5b5b829050612ddf565b612dde8383612de7565b5b949350505050565b600082511115612dfa5781518083602001fd5b806040517f08c379a0000000000000000000000000000000000000000000000000000000008152600401612e2e91906136db565b60405180910390fd5b6000612e4a612e458461399d565b613978565b905082815260208101848484011115612e6257600080fd5b612e6d848285613b3e565b509392505050565b600081359050612e848161412e565b92915050565b600081359050612e9981614145565b92915050565b600081519050612eae81614145565b92915050565b600081359050612ec38161415c565b92915050565b600081519050612ed88161415c565b92915050565b600082601f830112612eef57600080fd5b8135612eff848260208601612e37565b91505092915050565b600081359050612f1781614173565b92915050565b600081519050612f2c81614173565b92915050565b600060208284031215612f4457600080fd5b6000612f5284828501612e75565b91505092915050565b60008060408385031215612f6e57600080fd5b6000612f7c85828601612e75565b9250506020612f8d85828601612e75565b9150509250929050565b600080600060608486031215612fac57600080fd5b6000612fba86828701612e75565b9350506020612fcb86828701612e75565b9250506040612fdc86828701612f08565b9150509250925092565b60008060008060808587031215612ffc57600080fd5b600061300a87828801612e75565b945050602061301b87828801612e75565b935050604061302c87828801612f08565b925050606085013567ffffffffffffffff81111561304957600080fd5b61305587828801612ede565b91505092959194509250565b6000806040838503121561307457600080fd5b600061308285828601612e75565b925050602061309385828601612e8a565b9150509250929050565b600080604083850312156130b057600080fd5b60006130be85828601612e75565b92505060206130cf85828601612f08565b9150509250929050565b6000602082840312156130eb57600080fd5b60006130f984828501612e9f565b91505092915050565b60006020828403121561311457600080fd5b600061312284828501612eb4565b91505092915050565b60006020828403121561313d57600080fd5b600061314b84828501612ec9565b91505092915050565b60006020828403121561316657600080fd5b600061317484828501612f08565b91505092915050565b60006020828403121561318f57600080fd5b600061319d84828501612f1d565b91505092915050565b600080604083850312156131b957600080fd5b60006131c785828601612f08565b92505060206131d885828601612f08565b9150509250929050565b6000806000606084860312156131f757600080fd5b600061320586828701612f08565b935050602061321686828701612f08565b925050604061322786828701612f08565b9150509250925092565b61323a81613aa6565b82525050565b61324981613ab8565b82525050565b600061325a826139ce565b61326481856139e4565b9350613274818560208601613b4d565b61327d81613c70565b840191505092915050565b6000613293826139ce565b61329d81856139f5565b93506132ad818560208601613b4d565b80840191505092915050565b6132c281613b1a565b82525050565b60006132d3826139d9565b6132dd8185613a00565b93506132ed818560208601613b4d565b6132f681613c70565b840191505092915050565b600061330c826139d9565b6133168185613a11565b9350613326818560208601613b4d565b80840191505092915050565b600061333f601a83613a00565b915061334a82613c81565b602082019050919050565b6000613362602d83613a00565b915061336d82613caa565b604082019050919050565b6000613385603283613a00565b915061339082613cf9565b604082019050919050565b60006133a8602583613a00565b91506133b382613d48565b604082019050919050565b60006133cb601c83613a00565b91506133d682613d97565b602082019050919050565b60006133ee602483613a00565b91506133f982613dc0565b604082019050919050565b6000613411601983613a00565b915061341c82613e0f565b602082019050919050565b6000613434602683613a00565b915061343f82613e38565b604082019050919050565b6000613457601983613a00565b915061346282613e87565b602082019050919050565b600061347a602983613a00565b915061348582613eb0565b604082019050919050565b600061349d602083613a00565b91506134a882613eff565b602082019050919050565b60006134c0602183613a00565b91506134cb82613f28565b604082019050919050565b60006134e3602383613a00565b91506134ee82613f77565b604082019050919050565b6000613506601883613a00565b915061351182613fc6565b602082019050919050565b6000613529602183613a00565b915061353482613fef565b604082019050919050565b600061354c603d83613a00565b91506135578261403e565b604082019050919050565b600061356f601d83613a00565b915061357a8261408d565b602082019050919050565b6000613592602083613a00565b915061359d826140b6565b602082019050919050565b60006135b5602a83613a00565b91506135c0826140df565b604082019050919050565b6135d481613b10565b82525050565b60006135e68284613288565b915081905092915050565b60006135fd8285613301565b91506136098284613301565b91508190509392505050565b600060208201905061362a6000830184613231565b92915050565b60006080820190506136456000830187613231565b6136526020830186613231565b61365f60408301856135cb565b8181036060830152613671818461324f565b905095945050505050565b60006040820190506136916000830185613231565b61369e60208301846135cb565b9392505050565b60006020820190506136ba6000830184613240565b92915050565b60006020820190506136d560008301846132b9565b92915050565b600060208201905081810360008301526136f581846132c8565b905092915050565b6000602082019050818103600083015261371681613332565b9050919050565b6000602082019050818103600083015261373681613355565b9050919050565b6000602082019050818103600083015261375681613378565b9050919050565b600060208201905081810360008301526137768161339b565b9050919050565b60006020820190508181036000830152613796816133be565b9050919050565b600060208201905081810360008301526137b6816133e1565b9050919050565b600060208201905081810360008301526137d681613404565b9050919050565b600060208201905081810360008301526137f681613427565b9050919050565b600060208201905081810360008301526138168161344a565b9050919050565b600060208201905081810360008301526138368161346d565b9050919050565b6000602082019050818103600083015261385681613490565b9050919050565b60006020820190508181036000830152613876816134b3565b9050919050565b60006020820190508181036000830152613896816134d6565b9050919050565b600060208201905081810360008301526138b6816134f9565b9050919050565b600060208201905081810360008301526138d68161351c565b9050919050565b600060208201905081810360008301526138f68161353f565b9050919050565b6000602082019050818103600083015261391681613562565b9050919050565b6000602082019050818103600083015261393681613585565b9050919050565b60006020820190508181036000830152613956816135a8565b9050919050565b600060208201905061397260008301846135cb565b92915050565b6000613982613993565b905061398e8282613bb2565b919050565b6000604051905090565b600067ffffffffffffffff8211156139b8576139b7613c41565b5b6139c182613c70565b9050602081019050919050565b600081519050919050565b600081519050919050565b600082825260208201905092915050565b600081905092915050565b600082825260208201905092915050565b600081905092915050565b6000613a2782613b10565b9150613a3283613b10565b9250827fffffffffffffffffffffffffffffffffffffffffffffffffffffffffffffffff03821115613a6757613a66613be3565b5b828201905092915050565b6000613a7d82613b10565b9150613a8883613b10565b925082821015613a9b57613a9a613be3565b5b828203905092915050565b6000613ab182613af0565b9050919050565b60008115159050919050565b60007fffffffff0000000000000000000000000000000000000000000000000000000082169050919050565b600073ffffffffffffffffffffffffffffffffffffffff82169050919050565b6000819050919050565b6000613b2582613b2c565b9050919050565b6000613b3782613af0565b9050919050565b82818337600083830152505050565b60005b83811015613b6b578082015181840152602081019050613b50565b83811115613b7a576000848401525b50505050565b60006002820490506001821680613b9857607f821691505b60208210811415613bac57613bab613c12565b5b50919050565b613bbb82613c70565b810181811067ffffffffffffffff82111715613bda57613bd9613c41565b5b80604052505050565b7f4e487b7100000000000000000000000000000000000000000000000000000000600052601160045260246000fd5b7f4e487b7100000000000000000000000000000000000000000000000000000000600052602260045260246000fd5b7f4e487b7100000000000000000000000000000000000000000000000000000000600052604160045260246000fd5b6000601f19601f8301169050919050565b7f596f7520646f6e2774206861766520656e6f7567682064656274000000000000600082015250565b7f4552433732313a2063616c6c6572206973206e6f7420746f6b656e206f776e6560008201527f72206f7220617070726f76656400000000000000000000000000000000000000602082015250565b7f4552433732313a207472616e7366657220746f206e6f6e20455243373231526560008201527f63656976657220696d706c656d656e7465720000000000000000000000000000602082015250565b7f4552433732313a207472616e736665722066726f6d20696e636f72726563742060008201527f6f776e6572000000000000000000000000000000000000000000000000000000602082015250565b7f4552433732313a20746f6b656e20616c7265616479206d696e74656400000000600082015250565b7f4552433732313a207472616e7366657220746f20746865207a65726f2061646460008201527f7265737300000000000000000000000000000000000000000000000000000000602082015250565b7f4552433732313a20617070726f766520746f2063616c6c657200000000000000600082015250565b7f416464726573733a20696e73756666696369656e742062616c616e636520666f60008201527f722063616c6c0000000000000000000000000000000000000000000000000000602082015250565b7f596f7520646f6e2774206861766520656e6f756768206d616900000000000000600082015250565b7f4552433732313a2061646472657373207a65726f206973206e6f74206120766160008201527f6c6964206f776e65720000000000000000000000000000000000000000000000602082015250565b7f4552433732313a206d696e7420746f20746865207a65726f2061646472657373600082015250565b7f596f7520617265206e6f7420746865206f776e6572206f662074686973204e4660008201527f5400000000000000000000000000000000000000000000000000000000000000602082015250565b7f596f7520617265206e6f7420746865206f776e6572206f66207468697320766160008201527f756c740000000000000000000000000000000000000000000000000000000000602082015250565b7f4552433732313a20696e76616c696420746f6b656e2049440000000000000000600082015250565b7f4552433732313a20617070726f76616c20746f2063757272656e74206f776e6560008201527f7200000000000000000000000000000000000000000000000000000000000000602082015250565b7f4552433732313a20617070726f76652063616c6c6572206973206e6f7420746f60008201527f6b656e206f776e6572206f7220617070726f76656420666f7220616c6c000000602082015250565b7f416464726573733a2063616c6c20746f206e6f6e2d636f6e7472616374000000600082015250565b7f596f7520646f6e2774206861766520656e6f75676820636f6c6c61746572616c600082015250565b7f5361666545524332303a204552433230206f7065726174696f6e20646964206e60008201527f6f74207375636365656400000000000000000000000000000000000000000000602082015250565b61413781613aa6565b811461414257600080fd5b50565b61414e81613ab8565b811461415957600080fd5b50565b61416581613ac4565b811461417057600080fd5b50565b61417c81613b10565b811461418757600080fd5b5056fea26469706673582212204a59a2dd48ba318a82ee6f1e4ccfdb4e6b55eecfef6bf7a0b917b19b7f423ce364736f6c63430008040033",
  "immutableReferences": {},
  "source": "pragma solidity ^0.8.4; // regarder la version sur les contracts de qidao 0.5.5 demander  Nandy quel est le mieux \n\nimport \"@openzeppelin/contracts/token/ERC721/IERC721.sol\";\nimport \"@openzeppelin/contracts/token/ERC721/ERC721.sol\";\n//import \"@openzeppelin/contracts/token/ERC721/extensions/ERC721Enumerable.sol\";\nimport \"@openzeppelin/contracts/security/ReentrancyGuard.sol\";\nimport \"@openzeppelin/contracts/token/ERC20/ERC20.sol\";\n\n\n\npragma solidity ^0.8.0;\n\n\n/**\n * @title SafeERC20\n * @dev Wrappers around ERC20 operations that throw on failure (when the token\n * contract returns false). Tokens that return no value (and instead revert or\n * throw on failure) are also supported, non-reverting calls are assumed to be\n * successful.\n * To use this library you can add a `using SafeERC20 for IERC20;` statement to your contract,\n * which allows you to call the safe operations as `token.safeTransfer(...)`, etc.\n */\nlibrary SafeERC20 {\n    using Address for address;\n\n    function safeTransfer(\n        IERC20 token,\n        address to,\n        uint256 value\n    ) internal {\n        _callOptionalReturn(token, abi.encodeWithSelector(token.transfer.selector, to, value));\n    }\n\n    function safeTransferFrom(\n        IERC20 token,\n        address from,\n        address to,\n        uint256 value\n    ) internal {\n        _callOptionalReturn(token, abi.encodeWithSelector(token.transferFrom.selector, from, to, value));\n    }\n\n    /**\n     * @dev Deprecated. This function has issues similar to the ones found in\n     * {IERC20-approve}, and its usage is discouraged.\n     *\n     * Whenever possible, use {safeIncreaseAllowance} and\n     * {safeDecreaseAllowance} instead.\n     */\n    function safeApprove(\n        IERC20 token,\n        address spender,\n        uint256 value\n    ) internal {\n        // safeApprove should only be called when setting an initial allowance,\n        // or when resetting it to zero. To increase and decrease it, use\n        // 'safeIncreaseAllowance' and 'safeDecreaseAllowance'\n        require(\n            (value == 0) || (token.allowance(address(this), spender) == 0),\n            \"SafeERC20: approve from non-zero to non-zero allowance\"\n        );\n        _callOptionalReturn(token, abi.encodeWithSelector(token.approve.selector, spender, value));\n    }\n\n    function safeIncreaseAllowance(\n        IERC20 token,\n        address spender,\n        uint256 value\n    ) internal {\n        uint256 newAllowance = token.allowance(address(this), spender) + value;\n        _callOptionalReturn(token, abi.encodeWithSelector(token.approve.selector, spender, newAllowance));\n    }\n\n    function safeDecreaseAllowance(\n        IERC20 token,\n        address spender,\n        uint256 value\n    ) internal {\n        unchecked {\n            uint256 oldAllowance = token.allowance(address(this), spender);\n            require(oldAllowance >= value, \"SafeERC20: decreased allowance below zero\");\n            uint256 newAllowance = oldAllowance - value;\n            _callOptionalReturn(token, abi.encodeWithSelector(token.approve.selector, spender, newAllowance));\n        }\n    }\n\n    /**\n     * @dev Imitates a Solidity high-level call (i.e. a regular function call to a contract), relaxing the requirement\n     * on the return value: the return value is optional (but if data is returned, it must not be false).\n     * @param token The token targeted by the call.\n     * @param data The call data (encoded using abi.encode or one of its variants).\n     */\n    function _callOptionalReturn(IERC20 token, bytes memory data) private {\n        // We need to perform a low level call here, to bypass Solidity's return data size checking mechanism, since\n        // we're implementing it ourselves. We use {Address.functionCall} to perform this call, which verifies that\n        // the target address contains contract code and also asserts for success in the low-level call.\n\n        bytes memory returndata = address(token).functionCall(data, \"SafeERC20: low-level call failed\");\n        if (returndata.length > 0) {\n            // Return data is optional\n            require(abi.decode(returndata, (bool)), \"SafeERC20: ERC20 operation did not succeed\");\n        }\n    }\n}\n\n\ncontract VaultNFTv4 is ERC721 {\n\n    string public uri;\n\n    constructor(string memory name, string memory symbol)\n        ERC721(name, symbol){}\n    \n\n  \n    \n}\n\ncontract fakeMaiVault is VaultNFTv4{\n        using SafeERC20 for ERC20;\n        ERC20 public mai;\n\n\n\n    mapping (uint256 => address) public owners; // associe un nft a son owner\n    mapping (address => uint256) public erc721Balance; // balance de nft d'un owner\n    mapping(uint256 => uint256) public _deposit; // deposit dans le vault : vault => montant total dpos\n    mapping(uint256 => uint256) public maiDebt; // montant de mai emprunt par une vault : vault => debt\n    mapping(address => uint256) public maiBalance; // monta de may dtenu par chaque addresse\n\n    uint256 vaultCount = 0;\n    address _mai = address(0xd9145CCE52D386f254917e481eB44e9943F39138); \n\n    constructor(string memory name, string memory symbol)VaultNFTv4(name, symbol){\n        mai = ERC20(_mai); \n    }\n\n\n    function createVault() public returns (uint256) {\n        uint256 id = vaultCount;\n        vaultCount = vaultCount + 1;\n        require(vaultCount >= id);\n        _mint(msg.sender, id);\n        return id;\n    }\n\n\n    function borrowToken(uint256 _erc721_Id,uint256 _amount,uint256 _front) public  {\n        require(ownerOf(_erc721_Id) == msg.sender, \"You are not the owner of this NFT\");\n        require(_deposit[_erc721_Id] - maiDebt[_erc721_Id] >= _amount, \"You don't have enough collateral\");\n        mai.safeTransfer( msg.sender, _amount);\n        // transfert de token\n    }\n\n    function depositCollateral(uint256 _erc721_Id,uint256 amount) public {\n        require(ownerOf(_erc721_Id) == msg.sender, \"You are not the owner of this NFT\");\n        _deposit[_erc721_Id] += amount;\n    }\n\n\n    function TransferFrom(address from, address _to, uint256 _erc721_Id) public {\n        require(owners[_erc721_Id] == msg.sender, \"You are not the owner of this NFT\");\n        owners[_erc721_Id] = _to;\n        erc721Balance[from] -= 1;\n        erc721Balance[_to] += 1;\n    }\n\n    function TransferMai(address _to, uint256 amount) public {\n        require(maiBalance[msg.sender] >= amount, \"You don't have enough mai\");\n        maiBalance[msg.sender] -= amount;\n        maiBalance[_to] += amount;\n    }\n\n    function TransferMaiFrom(address from, address _to, uint256 amount) public {\n        require(maiBalance[from] >= amount, \"You don't have enough mai\");\n        maiBalance[from] -= amount;\n        maiBalance[_to] += amount;\n    }\n\n    function updateVaultDebt(uint256 vaultId) public view returns (uint256) {\n        return maiDebt[vaultId];\n    }\n\n    function payBackToken( uint256 vaultID, uint256 amount, uint256 _front) public {\n        require(owners[vaultID] == msg.sender, \"You are not the owner of this vault\");\n        require(maiDebt[vaultID] >= amount, \"You don't have enough debt\");\n        require(maiBalance[msg.sender] >= amount, \"You don't have enough mai\");\n        maiDebt[vaultID] -= amount;\n        maiBalance[msg.sender] -= amount;\n    }\n\n    function withdrawCollateral(uint256 vaultID, uint256 amount) public {\n        require(owners[vaultID] == msg.sender, \"You are not the owner of this vault\");\n        require(_deposit[vaultID] >= amount, \"You don't have enough collateral\");\n        require(maiDebt[vaultID] <= _deposit[vaultID] - amount, \"You don't have enough collateral\");\n        _deposit[vaultID] -= amount;\n        maiBalance[msg.sender] += amount;\n    }\n\n    function newVault() public{\n        vaultCount += 1;\n        owners[vaultCount] = msg.sender;\n        erc721Balance[msg.sender] += 1;\n    }\n\n\n    // view\n    function getMaiBalance(address _owner) public view returns (uint256) {\n        return IERC20(mai).balanceOf(_owner);\n    }\n    function getVaultDebt(uint256 _vaultId) public view returns (uint256) {\n        return maiDebt[_vaultId];\n    }\n    function getVaultCollateral(uint256 _vaultId) public view returns (uint256) {\n        return _deposit[_vaultId];\n    }\n    function getOwner(uint256 _vaultId) public view returns (address) {\n        return owners[_vaultId];\n    }\n\n    //faucet\n    function getMai(uint256 _amount) public {\n        maiBalance[msg.sender] += _amount;\n    }\n\n\n    \n}",
  "sourcePath": "/home/lejamon/ESILV_A4/PI2_KS/KS-PI2/mai-finance/contracts/fakeVault.sol",
  "compiler": {
    "name": "solc",
    "version": "0.8.4+commit.c7e474f2.Emscripten.clang"
  },
  "schemaVersion": "3.4.10",
  "updatedAt": "2023-01-15T15:56:07.545Z",
  "devdoc": {
    "kind": "dev",
    "methods": {
      "approve(address,uint256)": {
        "details": "See {IERC721-approve}."
      },
      "balanceOf(address)": {
        "details": "See {IERC721-balanceOf}."
      },
      "getApproved(uint256)": {
        "details": "See {IERC721-getApproved}."
      },
      "isApprovedForAll(address,address)": {
        "details": "See {IERC721-isApprovedForAll}."
      },
      "name()": {
        "details": "See {IERC721Metadata-name}."
      },
      "ownerOf(uint256)": {
        "details": "See {IERC721-ownerOf}."
      },
      "safeTransferFrom(address,address,uint256)": {
        "details": "See {IERC721-safeTransferFrom}."
      },
      "safeTransferFrom(address,address,uint256,bytes)": {
        "details": "See {IERC721-safeTransferFrom}."
      },
      "setApprovalForAll(address,bool)": {
        "details": "See {IERC721-setApprovalForAll}."
      },
      "supportsInterface(bytes4)": {
        "details": "See {IERC165-supportsInterface}."
      },
      "symbol()": {
        "details": "See {IERC721Metadata-symbol}."
      },
      "tokenURI(uint256)": {
        "details": "See {IERC721Metadata-tokenURI}."
      },
      "transferFrom(address,address,uint256)": {
        "details": "See {IERC721-transferFrom}."
      }
    },
    "version": 1
  },
  "userdoc": {
    "kind": "user",
    "methods": {},
    "version": 1
  }
}