{
  "contractName": "FakeVault",
  "abi": [
    {
      "inputs": [
        {
          "internalType": "address",
          "name": "_mai",
          "type": "address"
        },
        {
          "internalType": "string",
          "name": "name",
          "type": "string"
        },
        {
          "internalType": "string",
          "name": "symbol",
          "type": "string"
        }
      ],
      "stateMutability": "nonpayable",
      "type": "constructor"
    },
    {
      "anonymous": false,
      "inputs": [
        {
          "indexed": true,
          "internalType": "address",
          "name": "owner",
          "type": "address"
        },
        {
          "indexed": true,
          "internalType": "address",
          "name": "approved",
          "type": "address"
        },
        {
          "indexed": true,
          "internalType": "uint256",
          "name": "tokenId",
          "type": "uint256"
        }
      ],
      "name": "Approval",
      "type": "event"
    },
    {
      "anonymous": false,
      "inputs": [
        {
          "indexed": true,
          "internalType": "address",
          "name": "owner",
          "type": "address"
        },
        {
          "indexed": true,
          "internalType": "address",
          "name": "operator",
          "type": "address"
        },
        {
          "indexed": false,
          "internalType": "bool",
          "name": "approved",
          "type": "bool"
        }
      ],
      "name": "ApprovalForAll",
      "type": "event"
    },
    {
      "anonymous": false,
      "inputs": [
        {
          "indexed": true,
          "internalType": "address",
          "name": "from",
          "type": "address"
        },
        {
          "indexed": true,
          "internalType": "address",
          "name": "to",
          "type": "address"
        },
        {
          "indexed": true,
          "internalType": "uint256",
          "name": "tokenId",
          "type": "uint256"
        }
      ],
      "name": "Transfer",
      "type": "event"
    },
    {
      "inputs": [
        {
          "internalType": "uint256",
          "name": "",
          "type": "uint256"
        }
      ],
      "name": "_deposit",
      "outputs": [
        {
          "internalType": "uint256",
          "name": "",
          "type": "uint256"
        }
      ],
      "stateMutability": "view",
      "type": "function",
      "constant": true
    },
    {
      "inputs": [
        {
          "internalType": "address",
          "name": "to",
          "type": "address"
        },
        {
          "internalType": "uint256",
          "name": "tokenId",
          "type": "uint256"
        }
      ],
      "name": "approve",
      "outputs": [],
      "stateMutability": "nonpayable",
      "type": "function"
    },
    {
      "inputs": [
        {
          "internalType": "address",
          "name": "owner",
          "type": "address"
        }
      ],
      "name": "balanceOf",
      "outputs": [
        {
          "internalType": "uint256",
          "name": "",
          "type": "uint256"
        }
      ],
      "stateMutability": "view",
      "type": "function",
      "constant": true
    },
    {
      "inputs": [
        {
          "internalType": "address",
          "name": "",
          "type": "address"
        }
      ],
      "name": "erc721Balance",
      "outputs": [
        {
          "internalType": "uint256",
          "name": "",
          "type": "uint256"
        }
      ],
      "stateMutability": "view",
      "type": "function",
      "constant": true
    },
    {
      "inputs": [
        {
          "internalType": "uint256",
          "name": "tokenId",
          "type": "uint256"
        }
      ],
      "name": "getApproved",
      "outputs": [
        {
          "internalType": "address",
          "name": "",
          "type": "address"
        }
      ],
      "stateMutability": "view",
      "type": "function",
      "constant": true
    },
    {
      "inputs": [
        {
          "internalType": "address",
          "name": "owner",
          "type": "address"
        },
        {
          "internalType": "address",
          "name": "operator",
          "type": "address"
        }
      ],
      "name": "isApprovedForAll",
      "outputs": [
        {
          "internalType": "bool",
          "name": "",
          "type": "bool"
        }
      ],
      "stateMutability": "view",
      "type": "function",
      "constant": true
    },
    {
      "inputs": [],
      "name": "mai",
      "outputs": [
        {
          "internalType": "contract ERC20",
          "name": "",
          "type": "address"
        }
      ],
      "stateMutability": "view",
      "type": "function",
      "constant": true
    },
    {
      "inputs": [
        {
          "internalType": "address",
          "name": "",
          "type": "address"
        }
      ],
      "name": "maiBalance",
      "outputs": [
        {
          "internalType": "uint256",
          "name": "",
          "type": "uint256"
        }
      ],
      "stateMutability": "view",
      "type": "function",
      "constant": true
    },
    {
      "inputs": [
        {
          "internalType": "uint256",
          "name": "",
          "type": "uint256"
        }
      ],
      "name": "maiDebt",
      "outputs": [
        {
          "internalType": "uint256",
          "name": "",
          "type": "uint256"
        }
      ],
      "stateMutability": "view",
      "type": "function",
      "constant": true
    },
    {
      "inputs": [],
      "name": "name",
      "outputs": [
        {
          "internalType": "string",
          "name": "",
          "type": "string"
        }
      ],
      "stateMutability": "view",
      "type": "function",
      "constant": true
    },
    {
      "inputs": [
        {
          "internalType": "uint256",
          "name": "tokenId",
          "type": "uint256"
        }
      ],
      "name": "ownerOf",
      "outputs": [
        {
          "internalType": "address",
          "name": "",
          "type": "address"
        }
      ],
      "stateMutability": "view",
      "type": "function",
      "constant": true
    },
    {
      "inputs": [
        {
          "internalType": "uint256",
          "name": "",
          "type": "uint256"
        }
      ],
      "name": "owners",
      "outputs": [
        {
          "internalType": "address",
          "name": "",
          "type": "address"
        }
      ],
      "stateMutability": "view",
      "type": "function",
      "constant": true
    },
    {
      "inputs": [
        {
          "internalType": "address",
          "name": "from",
          "type": "address"
        },
        {
          "internalType": "address",
          "name": "to",
          "type": "address"
        },
        {
          "internalType": "uint256",
          "name": "tokenId",
          "type": "uint256"
        }
      ],
      "name": "safeTransferFrom",
      "outputs": [],
      "stateMutability": "nonpayable",
      "type": "function"
    },
    {
      "inputs": [
        {
          "internalType": "address",
          "name": "from",
          "type": "address"
        },
        {
          "internalType": "address",
          "name": "to",
          "type": "address"
        },
        {
          "internalType": "uint256",
          "name": "tokenId",
          "type": "uint256"
        },
        {
          "internalType": "bytes",
          "name": "data",
          "type": "bytes"
        }
      ],
      "name": "safeTransferFrom",
      "outputs": [],
      "stateMutability": "nonpayable",
      "type": "function"
    },
    {
      "inputs": [
        {
          "internalType": "address",
          "name": "operator",
          "type": "address"
        },
        {
          "internalType": "bool",
          "name": "approved",
          "type": "bool"
        }
      ],
      "name": "setApprovalForAll",
      "outputs": [],
      "stateMutability": "nonpayable",
      "type": "function"
    },
    {
      "inputs": [
        {
          "internalType": "bytes4",
          "name": "interfaceId",
          "type": "bytes4"
        }
      ],
      "name": "supportsInterface",
      "outputs": [
        {
          "internalType": "bool",
          "name": "",
          "type": "bool"
        }
      ],
      "stateMutability": "view",
      "type": "function",
      "constant": true
    },
    {
      "inputs": [],
      "name": "symbol",
      "outputs": [
        {
          "internalType": "string",
          "name": "",
          "type": "string"
        }
      ],
      "stateMutability": "view",
      "type": "function",
      "constant": true
    },
    {
      "inputs": [
        {
          "internalType": "uint256",
          "name": "tokenId",
          "type": "uint256"
        }
      ],
      "name": "tokenURI",
      "outputs": [
        {
          "internalType": "string",
          "name": "",
          "type": "string"
        }
      ],
      "stateMutability": "view",
      "type": "function",
      "constant": true
    },
    {
      "inputs": [
        {
          "internalType": "address",
          "name": "from",
          "type": "address"
        },
        {
          "internalType": "address",
          "name": "to",
          "type": "address"
        },
        {
          "internalType": "uint256",
          "name": "tokenId",
          "type": "uint256"
        }
      ],
      "name": "transferFrom",
      "outputs": [],
      "stateMutability": "nonpayable",
      "type": "function"
    },
    {
      "inputs": [],
      "name": "uri",
      "outputs": [
        {
          "internalType": "string",
          "name": "",
          "type": "string"
        }
      ],
      "stateMutability": "view",
      "type": "function",
      "constant": true
    },
    {
      "inputs": [],
      "name": "createVault",
      "outputs": [
        {
          "internalType": "uint256",
          "name": "",
          "type": "uint256"
        }
      ],
      "stateMutability": "nonpayable",
      "type": "function"
    },
    {
      "inputs": [
        {
          "internalType": "uint256",
          "name": "_erc721_Id",
          "type": "uint256"
        },
        {
          "internalType": "uint256",
          "name": "_amount",
          "type": "uint256"
        },
        {
          "internalType": "uint256",
          "name": "_front",
          "type": "uint256"
        }
      ],
      "name": "borrowToken",
      "outputs": [],
      "stateMutability": "nonpayable",
      "type": "function"
    },
    {
      "inputs": [
        {
          "internalType": "uint256",
          "name": "_erc721_Id",
          "type": "uint256"
        },
        {
          "internalType": "uint256",
          "name": "amount",
          "type": "uint256"
        }
      ],
      "name": "depositCollateral",
      "outputs": [],
      "stateMutability": "nonpayable",
      "type": "function"
    },
    {
      "inputs": [
        {
          "internalType": "address",
          "name": "from",
          "type": "address"
        },
        {
          "internalType": "address",
          "name": "_to",
          "type": "address"
        },
        {
          "internalType": "uint256",
          "name": "_erc721_Id",
          "type": "uint256"
        }
      ],
      "name": "TransferFrom",
      "outputs": [],
      "stateMutability": "nonpayable",
      "type": "function"
    },
    {
      "inputs": [
        {
          "internalType": "uint256",
          "name": "vaultId",
          "type": "uint256"
        }
      ],
      "name": "updateVaultDebt",
      "outputs": [
        {
          "internalType": "uint256",
          "name": "",
          "type": "uint256"
        }
      ],
      "stateMutability": "view",
      "type": "function",
      "constant": true
    },
    {
      "inputs": [
        {
          "internalType": "uint256",
          "name": "vaultID",
          "type": "uint256"
        },
        {
          "internalType": "uint256",
          "name": "amount",
          "type": "uint256"
        },
        {
          "internalType": "uint256",
          "name": "_front",
          "type": "uint256"
        }
      ],
      "name": "payBackToken",
      "outputs": [],
      "stateMutability": "nonpayable",
      "type": "function"
    },
    {
      "inputs": [
        {
          "internalType": "uint256",
          "name": "vaultID",
          "type": "uint256"
        },
        {
          "internalType": "uint256",
          "name": "amount",
          "type": "uint256"
        }
      ],
      "name": "withdrawCollateral",
      "outputs": [],
      "stateMutability": "nonpayable",
      "type": "function"
    },
    {
      "inputs": [],
      "name": "newVault",
      "outputs": [],
      "stateMutability": "nonpayable",
      "type": "function"
    },
    {
      "inputs": [
        {
          "internalType": "address",
          "name": "_owner",
          "type": "address"
        }
      ],
      "name": "getMaiBalance",
      "outputs": [
        {
          "internalType": "uint256",
          "name": "",
          "type": "uint256"
        }
      ],
      "stateMutability": "view",
      "type": "function",
      "constant": true
    },
    {
      "inputs": [
        {
          "internalType": "uint256",
          "name": "_vaultId",
          "type": "uint256"
        }
      ],
      "name": "getVaultDebt",
      "outputs": [
        {
          "internalType": "uint256",
          "name": "",
          "type": "uint256"
        }
      ],
      "stateMutability": "view",
      "type": "function",
      "constant": true
    },
    {
      "inputs": [
        {
          "internalType": "uint256",
          "name": "_vaultId",
          "type": "uint256"
        }
      ],
      "name": "getVaultCollateral",
      "outputs": [
        {
          "internalType": "uint256",
          "name": "",
          "type": "uint256"
        }
      ],
      "stateMutability": "view",
      "type": "function",
      "constant": true
    },
    {
      "inputs": [
        {
          "internalType": "uint256",
          "name": "_vaultId",
          "type": "uint256"
        }
      ],
      "name": "getOwner",
      "outputs": [
        {
          "internalType": "address",
          "name": "",
          "type": "address"
        }
      ],
      "stateMutability": "view",
      "type": "function",
      "constant": true
    },
    {
      "inputs": [
        {
          "internalType": "uint256",
          "name": "_amount",
          "type": "uint256"
        }
      ],
      "name": "getMai",
      "outputs": [],
      "stateMutability": "nonpayable",
      "type": "function"
    }
  ],
  "bytecode": "0x60806040526000600d553480156200001657600080fd5b50604051620041c4380380620041c483398181016040528101906200003c9190620001f9565b81818181816000908051906020019062000058929190620000c0565b50806001908051906020019062000071929190620000c0565b505050505082600760006101000a81548173ffffffffffffffffffffffffffffffffffffffff021916908373ffffffffffffffffffffffffffffffffffffffff1602179055505050506200043f565b828054620000ce906200034a565b90600052602060002090601f016020900481019282620000f257600085556200013e565b82601f106200010d57805160ff19168380011785556200013e565b828001600101855582156200013e579182015b828111156200013d57825182559160200191906001019062000120565b5b5090506200014d919062000151565b5090565b5b808211156200016c57600081600090555060010162000152565b5090565b6000620001876200018184620002aa565b62000281565b905082815260208101848484011115620001a057600080fd5b620001ad84828562000314565b509392505050565b600081519050620001c68162000425565b92915050565b600082601f830112620001de57600080fd5b8151620001f084826020860162000170565b91505092915050565b6000806000606084860312156200020f57600080fd5b60006200021f86828701620001b5565b935050602084015167ffffffffffffffff8111156200023d57600080fd5b6200024b86828701620001cc565b925050604084015167ffffffffffffffff8111156200026957600080fd5b6200027786828701620001cc565b9150509250925092565b60006200028d620002a0565b90506200029b828262000380565b919050565b6000604051905090565b600067ffffffffffffffff821115620002c857620002c7620003e5565b5b620002d38262000414565b9050602081019050919050565b6000620002ed82620002f4565b9050919050565b600073ffffffffffffffffffffffffffffffffffffffff82169050919050565b60005b838110156200033457808201518184015260208101905062000317565b8381111562000344576000848401525b50505050565b600060028204905060018216806200036357607f821691505b602082108114156200037a5762000379620003b6565b5b50919050565b6200038b8262000414565b810181811067ffffffffffffffff82111715620003ad57620003ac620003e5565b5b80604052505050565b7f4e487b7100000000000000000000000000000000000000000000000000000000600052602260045260246000fd5b7f4e487b7100000000000000000000000000000000000000000000000000000000600052604160045260246000fd5b6000601f19601f8301169050919050565b6200043081620002e0565b81146200043c57600080fd5b50565b613d75806200044f6000396000f3fe608060405234801561001057600080fd5b50600436106101fb5760003560e01c8063719742621161011a578063b88d4fde116100ad578063e985e9c51161007c578063e985e9c51461060a578063eac989f81461063a578063ece1373214610658578063ee3e98e714610674578063f5b36dee146106a4576101fb565b8063b88d4fde14610572578063c0d84ce51461058e578063c41a360a146105aa578063c87b56dd146105da576101fb565b806393ee476a116100e957806393ee476a146104ec57806395d89b411461051c57806397a41b8e1461053a578063a22cb46514610556576101fb565b80637197426214610466578063767a7b051461049657806388aaf0c8146104b25780639213b124146104bc576101fb565b806342842e0e1161019257806363bda6e11161016157806363bda6e1146103ba5780636b5f6fda146103ea5780636e1645e71461040657806370a0823114610436576101fb565b806342842e0e14610332578063570b2b841461034e5780635d12928b1461036c5780636352211e1461038a576101fb565b8063095ea7b3116101ce578063095ea7b3146102ae57806323b872dd146102ca5780633128ef27146102e657806335836f1514610302576101fb565b806301ffc9a714610200578063025e7c271461023057806306fdde0314610260578063081812fc1461027e575b600080fd5b61021a60048036038101906102159190612d58565b6106d4565b60405161022791906132ec565b60405180910390f35b61024a60048036038101906102459190612daa565b6107b6565b6040516102579190613225565b60405180910390f35b6102686107e9565b6040516102759190613322565b60405180910390f35b61029860048036038101906102939190612daa565b61087b565b6040516102a59190613225565b60405180910390f35b6102c860048036038101906102c39190612cf3565b6108c1565b005b6102e460048036038101906102df9190612bed565b6109d9565b005b61030060048036038101906102fb9190612e38565b610a39565b005b61031c60048036038101906103179190612daa565b610a8d565b6040516103299190613564565b60405180910390f35b61034c60048036038101906103479190612bed565b610aaa565b005b610356610aca565b6040516103639190613307565b60405180910390f35b610374610af0565b6040516103819190613564565b60405180910390f35b6103a4600480360381019061039f9190612daa565b610b2d565b6040516103b19190613225565b60405180910390f35b6103d460048036038101906103cf9190612b88565b610bb4565b6040516103e19190613564565b60405180910390f35b61040460048036038101906103ff9190612daa565b610c68565b005b610420600480360381019061041b9190612b88565b610cc1565b60405161042d9190613564565b60405180910390f35b610450600480360381019061044b9190612b88565b610cd9565b60405161045d9190613564565b60405180910390f35b610480600480360381019061047b9190612daa565b610d91565b60405161048d9190613564565b60405180910390f35b6104b060048036038101906104ab9190612dfc565b610da9565b005b6104ba610f98565b005b6104d660048036038101906104d19190612daa565b61105f565b6040516104e39190613564565b60405180910390f35b61050660048036038101906105019190612daa565b611077565b6040516105139190613564565b60405180910390f35b610524611094565b6040516105319190613322565b60405180910390f35b610554600480360381019061054f9190612e38565b611126565b005b610570600480360381019061056b9190612cb7565b61128c565b005b61058c60048036038101906105879190612c3c565b6112a2565b005b6105a860048036038101906105a39190612bed565b611304565b005b6105c460048036038101906105bf9190612daa565b6114aa565b6040516105d19190613225565b60405180910390f35b6105f460048036038101906105ef9190612daa565b6114e7565b6040516106019190613322565b60405180910390f35b610624600480360381019061061f9190612bb1565b61154f565b60405161063191906132ec565b60405180910390f35b6106426115e3565b60405161064f9190613322565b60405180910390f35b610672600480360381019061066d9190612dfc565b611671565b005b61068e60048036038101906106899190612daa565b611715565b60405161069b9190613564565b60405180910390f35b6106be60048036038101906106b99190612b88565b611732565b6040516106cb9190613564565b60405180910390f35b60007f80ac58cd000000000000000000000000000000000000000000000000000000007bffffffffffffffffffffffffffffffffffffffffffffffffffffffff1916827bffffffffffffffffffffffffffffffffffffffffffffffffffffffff1916148061079f57507f5b5e139f000000000000000000000000000000000000000000000000000000007bffffffffffffffffffffffffffffffffffffffffffffffffffffffff1916827bffffffffffffffffffffffffffffffffffffffffffffffffffffffff1916145b806107af57506107ae8261174a565b5b9050919050565b60086020528060005260406000206000915054906101000a900473ffffffffffffffffffffffffffffffffffffffff1681565b6060600080546107f890613787565b80601f016020809104026020016040519081016040528092919081815260200182805461082490613787565b80156108715780601f1061084657610100808354040283529160200191610871565b820191906000526020600020905b81548152906001019060200180831161085457829003601f168201915b5050505050905090565b6000610886826117b4565b6004600083815260200190815260200160002060009054906101000a900473ffffffffffffffffffffffffffffffffffffffff169050919050565b60006108cc82610b2d565b90508073ffffffffffffffffffffffffffffffffffffffff168373ffffffffffffffffffffffffffffffffffffffff16141561093d576040517f08c379a0000000000000000000000000000000000000000000000000000000008152600401610934906134c4565b60405180910390fd5b8073ffffffffffffffffffffffffffffffffffffffff1661095c6117ff565b73ffffffffffffffffffffffffffffffffffffffff16148061098b575061098a816109856117ff565b61154f565b5b6109ca576040517f08c379a00000000000000000000000000000000000000000000000000000000081526004016109c1906134e4565b60405180910390fd5b6109d48383611807565b505050565b6109ea6109e46117ff565b826118c0565b610a29576040517f08c379a0000000000000000000000000000000000000000000000000000000008152600401610a2090613344565b60405180910390fd5b610a34838383611955565b505050565b610a88333084600760009054906101000a900473ffffffffffffffffffffffffffffffffffffffff1673ffffffffffffffffffffffffffffffffffffffff16611c4f909392919063ffffffff16565b505050565b6000600b6000838152602001908152602001600020549050919050565b610ac5838383604051806020016040528060008152506112a2565b505050565b600760009054906101000a900473ffffffffffffffffffffffffffffffffffffffff1681565b600080600d5490506001600d54610b079190613623565b600d8190555080600d541015610b1c57600080fd5b610b263382611cd8565b8091505090565b600080610b3983611ef6565b9050600073ffffffffffffffffffffffffffffffffffffffff168173ffffffffffffffffffffffffffffffffffffffff161415610bab576040517f08c379a0000000000000000000000000000000000000000000000000000000008152600401610ba2906134a4565b60405180910390fd5b80915050919050565b6000600760009054906101000a900473ffffffffffffffffffffffffffffffffffffffff1673ffffffffffffffffffffffffffffffffffffffff166370a08231836040518263ffffffff1660e01b8152600401610c119190613225565b60206040518083038186803b158015610c2957600080fd5b505afa158015610c3d573d6000803e3d6000fd5b505050506040513d601f19601f82011682018060405250810190610c619190612dd3565b9050919050565b80600c60003373ffffffffffffffffffffffffffffffffffffffff1673ffffffffffffffffffffffffffffffffffffffff1681526020019081526020016000206000828254610cb79190613623565b9250508190555050565b60096020528060005260406000206000915090505481565b60008073ffffffffffffffffffffffffffffffffffffffff168273ffffffffffffffffffffffffffffffffffffffff161415610d4a576040517f08c379a0000000000000000000000000000000000000000000000000000000008152600401610d4190613424565b60405180910390fd5b600360008373ffffffffffffffffffffffffffffffffffffffff1673ffffffffffffffffffffffffffffffffffffffff168152602001908152602001600020549050919050565b600b6020528060005260406000206000915090505481565b3373ffffffffffffffffffffffffffffffffffffffff166008600084815260200190815260200160002060009054906101000a900473ffffffffffffffffffffffffffffffffffffffff1673ffffffffffffffffffffffffffffffffffffffff1614610e4a576040517f08c379a0000000000000000000000000000000000000000000000000000000008152600401610e4190613484565b60405180910390fd5b80600a6000848152602001908152602001600020541015610ea0576040517f08c379a0000000000000000000000000000000000000000000000000000000008152600401610e9790613524565b60405180910390fd5b80600a600084815260200190815260200160002054610ebf9190613679565b600b6000848152602001908152602001600020541115610f14576040517f08c379a0000000000000000000000000000000000000000000000000000000008152600401610f0b90613524565b60405180910390fd5b80600a60008481526020019081526020016000206000828254610f379190613679565b9250508190555080600c60003373ffffffffffffffffffffffffffffffffffffffff1673ffffffffffffffffffffffffffffffffffffffff1681526020019081526020016000206000828254610f8d9190613623565b925050819055505050565b6001600d6000828254610fab9190613623565b925050819055503360086000600d54815260200190815260200160002060006101000a81548173ffffffffffffffffffffffffffffffffffffffff021916908373ffffffffffffffffffffffffffffffffffffffff1602179055506001600960003373ffffffffffffffffffffffffffffffffffffffff1673ffffffffffffffffffffffffffffffffffffffff16815260200190815260200160002060008282546110569190613623565b92505081905550565b600a6020528060005260406000206000915090505481565b6000600b6000838152602001908152602001600020549050919050565b6060600180546110a390613787565b80601f01602080910402602001604051908101604052809291908181526020018280546110cf90613787565b801561111c5780601f106110f15761010080835404028352916020019161111c565b820191906000526020600020905b8154815290600101906020018083116110ff57829003601f168201915b5050505050905090565b3373ffffffffffffffffffffffffffffffffffffffff1661114684610b2d565b73ffffffffffffffffffffffffffffffffffffffff161461119c576040517f08c379a000000000000000000000000000000000000000000000000000000000815260040161119390613464565b60405180910390fd5b81600b600085815260200190815260200160002054600a6000868152602001908152602001600020546111cf9190613679565b1015611210576040517f08c379a000000000000000000000000000000000000000000000000000000000815260040161120790613524565b60405180910390fd5b61125d3383600760009054906101000a900473ffffffffffffffffffffffffffffffffffffffff1673ffffffffffffffffffffffffffffffffffffffff16611f339092919063ffffffff16565b81600b600085815260200190815260200160002060008282546112809190613623565b92505081905550505050565b61129e6112976117ff565b8383611fb9565b5050565b6112b36112ad6117ff565b836118c0565b6112f2576040517f08c379a00000000000000000000000000000000000000000000000000000000081526004016112e990613344565b60405180910390fd5b6112fe84848484612126565b50505050565b3373ffffffffffffffffffffffffffffffffffffffff166008600083815260200190815260200160002060009054906101000a900473ffffffffffffffffffffffffffffffffffffffff1673ffffffffffffffffffffffffffffffffffffffff16146113a5576040517f08c379a000000000000000000000000000000000000000000000000000000000815260040161139c90613464565b60405180910390fd5b816008600083815260200190815260200160002060006101000a81548173ffffffffffffffffffffffffffffffffffffffff021916908373ffffffffffffffffffffffffffffffffffffffff1602179055506001600960008573ffffffffffffffffffffffffffffffffffffffff1673ffffffffffffffffffffffffffffffffffffffff16815260200190815260200160002060008282546114479190613679565b925050819055506001600960008473ffffffffffffffffffffffffffffffffffffffff1673ffffffffffffffffffffffffffffffffffffffff168152602001908152602001600020600082825461149e9190613623565b92505081905550505050565b60006008600083815260200190815260200160002060009054906101000a900473ffffffffffffffffffffffffffffffffffffffff169050919050565b60606114f2826117b4565b60006114fc612182565b9050600081511161151c5760405180602001604052806000815250611547565b8061152684612199565b604051602001611537929190613201565b6040516020818303038152906040525b915050919050565b6000600560008473ffffffffffffffffffffffffffffffffffffffff1673ffffffffffffffffffffffffffffffffffffffff16815260200190815260200160002060008373ffffffffffffffffffffffffffffffffffffffff1673ffffffffffffffffffffffffffffffffffffffff16815260200190815260200160002060009054906101000a900460ff16905092915050565b600680546115f090613787565b80601f016020809104026020016040519081016040528092919081815260200182805461161c90613787565b80156116695780601f1061163e57610100808354040283529160200191611669565b820191906000526020600020905b81548152906001019060200180831161164c57829003601f168201915b505050505081565b3373ffffffffffffffffffffffffffffffffffffffff1661169183610b2d565b73ffffffffffffffffffffffffffffffffffffffff16146116e7576040517f08c379a00000000000000000000000000000000000000000000000000000000081526004016116de90613464565b60405180910390fd5b80600a6000848152602001908152602001600020600082825461170a9190613623565b925050819055505050565b6000600a6000838152602001908152602001600020549050919050565b600c6020528060005260406000206000915090505481565b60007f01ffc9a7000000000000000000000000000000000000000000000000000000007bffffffffffffffffffffffffffffffffffffffffffffffffffffffff1916827bffffffffffffffffffffffffffffffffffffffffffffffffffffffff1916149050919050565b6117bd816122bd565b6117fc576040517f08c379a00000000000000000000000000000000000000000000000000000000081526004016117f3906134a4565b60405180910390fd5b50565b600033905090565b816004600083815260200190815260200160002060006101000a81548173ffffffffffffffffffffffffffffffffffffffff021916908373ffffffffffffffffffffffffffffffffffffffff160217905550808273ffffffffffffffffffffffffffffffffffffffff1661187a83610b2d565b73ffffffffffffffffffffffffffffffffffffffff167f8c5be1e5ebec7d5bd14f71427d1e84f3dd0314c0f7b2291e5b200ac8c7c3b92560405160405180910390a45050565b6000806118cc83610b2d565b90508073ffffffffffffffffffffffffffffffffffffffff168473ffffffffffffffffffffffffffffffffffffffff16148061190e575061190d818561154f565b5b8061194c57508373ffffffffffffffffffffffffffffffffffffffff166119348461087b565b73ffffffffffffffffffffffffffffffffffffffff16145b91505092915050565b8273ffffffffffffffffffffffffffffffffffffffff1661197582610b2d565b73ffffffffffffffffffffffffffffffffffffffff16146119cb576040517f08c379a00000000000000000000000000000000000000000000000000000000081526004016119c290613384565b60405180910390fd5b600073ffffffffffffffffffffffffffffffffffffffff168273ffffffffffffffffffffffffffffffffffffffff161415611a3b576040517f08c379a0000000000000000000000000000000000000000000000000000000008152600401611a32906133c4565b60405180910390fd5b611a4883838360016122fe565b8273ffffffffffffffffffffffffffffffffffffffff16611a6882610b2d565b73ffffffffffffffffffffffffffffffffffffffff1614611abe576040517f08c379a0000000000000000000000000000000000000000000000000000000008152600401611ab590613384565b60405180910390fd5b6004600082815260200190815260200160002060006101000a81549073ffffffffffffffffffffffffffffffffffffffff02191690556001600360008573ffffffffffffffffffffffffffffffffffffffff1673ffffffffffffffffffffffffffffffffffffffff168152602001908152602001600020600082825403925050819055506001600360008473ffffffffffffffffffffffffffffffffffffffff1673ffffffffffffffffffffffffffffffffffffffff16815260200190815260200160002060008282540192505081905550816002600083815260200190815260200160002060006101000a81548173ffffffffffffffffffffffffffffffffffffffff021916908373ffffffffffffffffffffffffffffffffffffffff160217905550808273ffffffffffffffffffffffffffffffffffffffff168473ffffffffffffffffffffffffffffffffffffffff167fddf252ad1be2c89b69c2b068fc378daa952ba7f163c4a11628f55a4df523b3ef60405160405180910390a4611c4a8383836001612424565b505050565b611cd2846323b872dd60e01b858585604051602401611c7093929190613240565b604051602081830303815290604052907bffffffffffffffffffffffffffffffffffffffffffffffffffffffff19166020820180517bffffffffffffffffffffffffffffffffffffffffffffffffffffffff838183161783525050505061242a565b50505050565b600073ffffffffffffffffffffffffffffffffffffffff168273ffffffffffffffffffffffffffffffffffffffff161415611d48576040517f08c379a0000000000000000000000000000000000000000000000000000000008152600401611d3f90613444565b60405180910390fd5b611d51816122bd565b15611d91576040517f08c379a0000000000000000000000000000000000000000000000000000000008152600401611d88906133a4565b60405180910390fd5b611d9f6000838360016122fe565b611da8816122bd565b15611de8576040517f08c379a0000000000000000000000000000000000000000000000000000000008152600401611ddf906133a4565b60405180910390fd5b6001600360008473ffffffffffffffffffffffffffffffffffffffff1673ffffffffffffffffffffffffffffffffffffffff16815260200190815260200160002060008282540192505081905550816002600083815260200190815260200160002060006101000a81548173ffffffffffffffffffffffffffffffffffffffff021916908373ffffffffffffffffffffffffffffffffffffffff160217905550808273ffffffffffffffffffffffffffffffffffffffff16600073ffffffffffffffffffffffffffffffffffffffff167fddf252ad1be2c89b69c2b068fc378daa952ba7f163c4a11628f55a4df523b3ef60405160405180910390a4611ef2600083836001612424565b5050565b60006002600083815260200190815260200160002060009054906101000a900473ffffffffffffffffffffffffffffffffffffffff169050919050565b611fb48363a9059cbb60e01b8484604051602401611f529291906132c3565b604051602081830303815290604052907bffffffffffffffffffffffffffffffffffffffffffffffffffffffff19166020820180517bffffffffffffffffffffffffffffffffffffffffffffffffffffffff838183161783525050505061242a565b505050565b8173ffffffffffffffffffffffffffffffffffffffff168373ffffffffffffffffffffffffffffffffffffffff161415612028576040517f08c379a000000000000000000000000000000000000000000000000000000000815260040161201f906133e4565b60405180910390fd5b80600560008573ffffffffffffffffffffffffffffffffffffffff1673ffffffffffffffffffffffffffffffffffffffff16815260200190815260200160002060008473ffffffffffffffffffffffffffffffffffffffff1673ffffffffffffffffffffffffffffffffffffffff16815260200190815260200160002060006101000a81548160ff0219169083151502179055508173ffffffffffffffffffffffffffffffffffffffff168373ffffffffffffffffffffffffffffffffffffffff167f17307eab39ab6107e8899845ad3d59bd9653f200f220920489ca2b5937696c318360405161211991906132ec565b60405180910390a3505050565b612131848484611955565b61213d848484846124f1565b61217c576040517f08c379a000000000000000000000000000000000000000000000000000000000815260040161217390613364565b60405180910390fd5b50505050565b606060405180602001604052806000815250905090565b6060600060016121a884612688565b01905060008167ffffffffffffffff8111156121ed577f4e487b7100000000000000000000000000000000000000000000000000000000600052604160045260246000fd5b6040519080825280601f01601f19166020018201604052801561221f5781602001600182028036833780820191505090505b509050600082602001820190505b6001156122b2578080600190039150507f3031323334353637383961626364656600000000000000000000000000000000600a86061a8153600a858161229c577f4e487b7100000000000000000000000000000000000000000000000000000000600052601260045260246000fd5b04945060008514156122ad576122b2565b61222d565b819350505050919050565b60008073ffffffffffffffffffffffffffffffffffffffff166122df83611ef6565b73ffffffffffffffffffffffffffffffffffffffff1614159050919050565b600181111561241e57600073ffffffffffffffffffffffffffffffffffffffff168473ffffffffffffffffffffffffffffffffffffffff16146123925780600360008673ffffffffffffffffffffffffffffffffffffffff1673ffffffffffffffffffffffffffffffffffffffff168152602001908152602001600020600082825461238a9190613679565b925050819055505b600073ffffffffffffffffffffffffffffffffffffffff168373ffffffffffffffffffffffffffffffffffffffff161461241d5780600360008573ffffffffffffffffffffffffffffffffffffffff1673ffffffffffffffffffffffffffffffffffffffff16815260200190815260200160002060008282546124159190613623565b925050819055505b5b50505050565b50505050565b600061248c826040518060400160405280602081526020017f5361666545524332303a206c6f772d6c6576656c2063616c6c206661696c65648152508573ffffffffffffffffffffffffffffffffffffffff166128bf9092919063ffffffff16565b90506000815111156124ec57808060200190518101906124ac9190612d2f565b6124eb576040517f08c379a00000000000000000000000000000000000000000000000000000000081526004016124e290613544565b60405180910390fd5b5b505050565b60006125128473ffffffffffffffffffffffffffffffffffffffff166128d7565b1561267b578373ffffffffffffffffffffffffffffffffffffffff1663150b7a0261253b6117ff565b8786866040518563ffffffff1660e01b815260040161255d9493929190613277565b602060405180830381600087803b15801561257757600080fd5b505af19250505080156125a857506040513d601f19601f820116820180604052508101906125a59190612d81565b60015b61262b573d80600081146125d8576040519150601f19603f3d011682016040523d82523d6000602084013e6125dd565b606091505b50600081511415612623576040517f08c379a000000000000000000000000000000000000000000000000000000000815260040161261a90613364565b60405180910390fd5b805181602001fd5b63150b7a0260e01b7bffffffffffffffffffffffffffffffffffffffffffffffffffffffff1916817bffffffffffffffffffffffffffffffffffffffffffffffffffffffff191614915050612680565b600190505b949350505050565b600080600090507a184f03e93ff9f4daa797ed6e38ed64bf6a1f010000000000000000831061270c577a184f03e93ff9f4daa797ed6e38ed64bf6a1f0100000000000000008381612702577f4e487b7100000000000000000000000000000000000000000000000000000000600052601260045260246000fd5b0492506040810190505b6d04ee2d6d415b85acef8100000000831061276f576d04ee2d6d415b85acef81000000008381612765577f4e487b7100000000000000000000000000000000000000000000000000000000600052601260045260246000fd5b0492506020810190505b662386f26fc1000083106127c457662386f26fc1000083816127ba577f4e487b7100000000000000000000000000000000000000000000000000000000600052601260045260246000fd5b0492506010810190505b6305f5e1008310612813576305f5e1008381612809577f4e487b7100000000000000000000000000000000000000000000000000000000600052601260045260246000fd5b0492506008810190505b612710831061285e576127108381612854577f4e487b7100000000000000000000000000000000000000000000000000000000600052601260045260246000fd5b0492506004810190505b606483106128a7576064838161289d577f4e487b7100000000000000000000000000000000000000000000000000000000600052601260045260246000fd5b0492506002810190505b600a83106128b6576001810190505b80915050919050565b60606128ce84846000856128fa565b90509392505050565b6000808273ffffffffffffffffffffffffffffffffffffffff163b119050919050565b60608247101561293f576040517f08c379a000000000000000000000000000000000000000000000000000000000815260040161293690613404565b60405180910390fd5b6000808673ffffffffffffffffffffffffffffffffffffffff16858760405161296891906131ea565b60006040518083038185875af1925050503d80600081146129a5576040519150601f19603f3d011682016040523d82523d6000602084013e6129aa565b606091505b50915091506129bb878383876129c7565b92505050949350505050565b60608315612a2a57600083511415612a22576129e2856128d7565b612a21576040517f08c379a0000000000000000000000000000000000000000000000000000000008152600401612a1890613504565b60405180910390fd5b5b829050612a35565b612a348383612a3d565b5b949350505050565b600082511115612a505781518083602001fd5b806040517f08c379a0000000000000000000000000000000000000000000000000000000008152600401612a849190613322565b60405180910390fd5b6000612aa0612a9b846135a4565b61357f565b905082815260208101848484011115612ab857600080fd5b612ac3848285613745565b509392505050565b600081359050612ada81613ce3565b92915050565b600081359050612aef81613cfa565b92915050565b600081519050612b0481613cfa565b92915050565b600081359050612b1981613d11565b92915050565b600081519050612b2e81613d11565b92915050565b600082601f830112612b4557600080fd5b8135612b55848260208601612a8d565b91505092915050565b600081359050612b6d81613d28565b92915050565b600081519050612b8281613d28565b92915050565b600060208284031215612b9a57600080fd5b6000612ba884828501612acb565b91505092915050565b60008060408385031215612bc457600080fd5b6000612bd285828601612acb565b9250506020612be385828601612acb565b9150509250929050565b600080600060608486031215612c0257600080fd5b6000612c1086828701612acb565b9350506020612c2186828701612acb565b9250506040612c3286828701612b5e565b9150509250925092565b60008060008060808587031215612c5257600080fd5b6000612c6087828801612acb565b9450506020612c7187828801612acb565b9350506040612c8287828801612b5e565b925050606085013567ffffffffffffffff811115612c9f57600080fd5b612cab87828801612b34565b91505092959194509250565b60008060408385031215612cca57600080fd5b6000612cd885828601612acb565b9250506020612ce985828601612ae0565b9150509250929050565b60008060408385031215612d0657600080fd5b6000612d1485828601612acb565b9250506020612d2585828601612b5e565b9150509250929050565b600060208284031215612d4157600080fd5b6000612d4f84828501612af5565b91505092915050565b600060208284031215612d6a57600080fd5b6000612d7884828501612b0a565b91505092915050565b600060208284031215612d9357600080fd5b6000612da184828501612b1f565b91505092915050565b600060208284031215612dbc57600080fd5b6000612dca84828501612b5e565b91505092915050565b600060208284031215612de557600080fd5b6000612df384828501612b73565b91505092915050565b60008060408385031215612e0f57600080fd5b6000612e1d85828601612b5e565b9250506020612e2e85828601612b5e565b9150509250929050565b600080600060608486031215612e4d57600080fd5b6000612e5b86828701612b5e565b9350506020612e6c86828701612b5e565b9250506040612e7d86828701612b5e565b9150509250925092565b612e90816136ad565b82525050565b612e9f816136bf565b82525050565b6000612eb0826135d5565b612eba81856135eb565b9350612eca818560208601613754565b612ed381613877565b840191505092915050565b6000612ee9826135d5565b612ef381856135fc565b9350612f03818560208601613754565b80840191505092915050565b612f1881613721565b82525050565b6000612f29826135e0565b612f338185613607565b9350612f43818560208601613754565b612f4c81613877565b840191505092915050565b6000612f62826135e0565b612f6c8185613618565b9350612f7c818560208601613754565b80840191505092915050565b6000612f95602d83613607565b9150612fa082613888565b604082019050919050565b6000612fb8603283613607565b9150612fc3826138d7565b604082019050919050565b6000612fdb602583613607565b9150612fe682613926565b604082019050919050565b6000612ffe601c83613607565b915061300982613975565b602082019050919050565b6000613021602483613607565b915061302c8261399e565b604082019050919050565b6000613044601983613607565b915061304f826139ed565b602082019050919050565b6000613067602683613607565b915061307282613a16565b604082019050919050565b600061308a602983613607565b915061309582613a65565b604082019050919050565b60006130ad602083613607565b91506130b882613ab4565b602082019050919050565b60006130d0602183613607565b91506130db82613add565b604082019050919050565b60006130f3602383613607565b91506130fe82613b2c565b604082019050919050565b6000613116601883613607565b915061312182613b7b565b602082019050919050565b6000613139602183613607565b915061314482613ba4565b604082019050919050565b600061315c603d83613607565b915061316782613bf3565b604082019050919050565b600061317f601d83613607565b915061318a82613c42565b602082019050919050565b60006131a2602083613607565b91506131ad82613c6b565b602082019050919050565b60006131c5602a83613607565b91506131d082613c94565b604082019050919050565b6131e481613717565b82525050565b60006131f68284612ede565b915081905092915050565b600061320d8285612f57565b91506132198284612f57565b91508190509392505050565b600060208201905061323a6000830184612e87565b92915050565b60006060820190506132556000830186612e87565b6132626020830185612e87565b61326f60408301846131db565b949350505050565b600060808201905061328c6000830187612e87565b6132996020830186612e87565b6132a660408301856131db565b81810360608301526132b88184612ea5565b905095945050505050565b60006040820190506132d86000830185612e87565b6132e560208301846131db565b9392505050565b60006020820190506133016000830184612e96565b92915050565b600060208201905061331c6000830184612f0f565b92915050565b6000602082019050818103600083015261333c8184612f1e565b905092915050565b6000602082019050818103600083015261335d81612f88565b9050919050565b6000602082019050818103600083015261337d81612fab565b9050919050565b6000602082019050818103600083015261339d81612fce565b9050919050565b600060208201905081810360008301526133bd81612ff1565b9050919050565b600060208201905081810360008301526133dd81613014565b9050919050565b600060208201905081810360008301526133fd81613037565b9050919050565b6000602082019050818103600083015261341d8161305a565b9050919050565b6000602082019050818103600083015261343d8161307d565b9050919050565b6000602082019050818103600083015261345d816130a0565b9050919050565b6000602082019050818103600083015261347d816130c3565b9050919050565b6000602082019050818103600083015261349d816130e6565b9050919050565b600060208201905081810360008301526134bd81613109565b9050919050565b600060208201905081810360008301526134dd8161312c565b9050919050565b600060208201905081810360008301526134fd8161314f565b9050919050565b6000602082019050818103600083015261351d81613172565b9050919050565b6000602082019050818103600083015261353d81613195565b9050919050565b6000602082019050818103600083015261355d816131b8565b9050919050565b600060208201905061357960008301846131db565b92915050565b600061358961359a565b905061359582826137b9565b919050565b6000604051905090565b600067ffffffffffffffff8211156135bf576135be613848565b5b6135c882613877565b9050602081019050919050565b600081519050919050565b600081519050919050565b600082825260208201905092915050565b600081905092915050565b600082825260208201905092915050565b600081905092915050565b600061362e82613717565b915061363983613717565b9250827fffffffffffffffffffffffffffffffffffffffffffffffffffffffffffffffff0382111561366e5761366d6137ea565b5b828201905092915050565b600061368482613717565b915061368f83613717565b9250828210156136a2576136a16137ea565b5b828203905092915050565b60006136b8826136f7565b9050919050565b60008115159050919050565b60007fffffffff0000000000000000000000000000000000000000000000000000000082169050919050565b600073ffffffffffffffffffffffffffffffffffffffff82169050919050565b6000819050919050565b600061372c82613733565b9050919050565b600061373e826136f7565b9050919050565b82818337600083830152505050565b60005b83811015613772578082015181840152602081019050613757565b83811115613781576000848401525b50505050565b6000600282049050600182168061379f57607f821691505b602082108114156137b3576137b2613819565b5b50919050565b6137c282613877565b810181811067ffffffffffffffff821117156137e1576137e0613848565b5b80604052505050565b7f4e487b7100000000000000000000000000000000000000000000000000000000600052601160045260246000fd5b7f4e487b7100000000000000000000000000000000000000000000000000000000600052602260045260246000fd5b7f4e487b7100000000000000000000000000000000000000000000000000000000600052604160045260246000fd5b6000601f19601f8301169050919050565b7f4552433732313a2063616c6c6572206973206e6f7420746f6b656e206f776e6560008201527f72206f7220617070726f76656400000000000000000000000000000000000000602082015250565b7f4552433732313a207472616e7366657220746f206e6f6e20455243373231526560008201527f63656976657220696d706c656d656e7465720000000000000000000000000000602082015250565b7f4552433732313a207472616e736665722066726f6d20696e636f72726563742060008201527f6f776e6572000000000000000000000000000000000000000000000000000000602082015250565b7f4552433732313a20746f6b656e20616c7265616479206d696e74656400000000600082015250565b7f4552433732313a207472616e7366657220746f20746865207a65726f2061646460008201527f7265737300000000000000000000000000000000000000000000000000000000602082015250565b7f4552433732313a20617070726f766520746f2063616c6c657200000000000000600082015250565b7f416464726573733a20696e73756666696369656e742062616c616e636520666f60008201527f722063616c6c0000000000000000000000000000000000000000000000000000602082015250565b7f4552433732313a2061646472657373207a65726f206973206e6f74206120766160008201527f6c6964206f776e65720000000000000000000000000000000000000000000000602082015250565b7f4552433732313a206d696e7420746f20746865207a65726f2061646472657373600082015250565b7f596f7520617265206e6f7420746865206f776e6572206f662074686973204e4660008201527f5400000000000000000000000000000000000000000000000000000000000000602082015250565b7f596f7520617265206e6f7420746865206f776e6572206f66207468697320766160008201527f756c740000000000000000000000000000000000000000000000000000000000602082015250565b7f4552433732313a20696e76616c696420746f6b656e2049440000000000000000600082015250565b7f4552433732313a20617070726f76616c20746f2063757272656e74206f776e6560008201527f7200000000000000000000000000000000000000000000000000000000000000602082015250565b7f4552433732313a20617070726f76652063616c6c6572206973206e6f7420746f60008201527f6b656e206f776e6572206f7220617070726f76656420666f7220616c6c000000602082015250565b7f416464726573733a2063616c6c20746f206e6f6e2d636f6e7472616374000000600082015250565b7f596f7520646f6e2774206861766520656e6f75676820636f6c6c61746572616c600082015250565b7f5361666545524332303a204552433230206f7065726174696f6e20646964206e60008201527f6f74207375636365656400000000000000000000000000000000000000000000602082015250565b613cec816136ad565b8114613cf757600080fd5b50565b613d03816136bf565b8114613d0e57600080fd5b50565b613d1a816136cb565b8114613d2557600080fd5b50565b613d3181613717565b8114613d3c57600080fd5b5056fea264697066735822122031db78a4d85d59bd908cdb9acad0d28af519b6c12bdb5514ac24e25dbcca2cb464736f6c63430008040033",
  "immutableReferences": {},
  "source": "pragma solidity ^0.8.4; // regarder la version sur les contracts de qidao 0.5.5 demander  Nandy quel est le mieux \n\nimport \"@openzeppelin/contracts/token/ERC721/IERC721.sol\";\nimport \"@openzeppelin/contracts/token/ERC721/ERC721.sol\";\n//import \"@openzeppelin/contracts/token/ERC721/extensions/ERC721Enumerable.sol\";\nimport \"@openzeppelin/contracts/security/ReentrancyGuard.sol\";\nimport \"@openzeppelin/contracts/token/ERC20/ERC20.sol\";\n\n\n\npragma solidity ^0.8.0;\n\n\n/**\n * @title SafeERC20\n * @dev Wrappers around ERC20 operations that throw on failure (when the token\n * contract returns false). Tokens that return no value (and instead revert or\n * throw on failure) are also supported, non-reverting calls are assumed to be\n * successful.\n * To use this library you can add a `using SafeERC20 for IERC20;` statement to your contract,\n * which allows you to call the safe operations as `token.safeTransfer(...)`, etc.\n */\nlibrary SafeERC20 {\n    using Address for address;\n\n    function safeTransfer(\n        IERC20 token,\n        address to,\n        uint256 value\n    ) internal {\n        _callOptionalReturn(token, abi.encodeWithSelector(token.transfer.selector, to, value));\n    }\n\n    function safeTransferFrom(\n        IERC20 token,\n        address from,\n        address to,\n        uint256 value\n    ) internal {\n        _callOptionalReturn(token, abi.encodeWithSelector(token.transferFrom.selector, from, to, value));\n    }\n\n    /**\n     * @dev Deprecated. This function has issues similar to the ones found in\n     * {IERC20-approve}, and its usage is discouraged.\n     *\n     * Whenever possible, use {safeIncreaseAllowance} and\n     * {safeDecreaseAllowance} instead.\n     */\n    function safeApprove(\n        IERC20 token,\n        address spender,\n        uint256 value\n    ) internal {\n        // safeApprove should only be called when setting an initial allowance,\n        // or when resetting it to zero. To increase and decrease it, use\n        // 'safeIncreaseAllowance' and 'safeDecreaseAllowance'\n        require(\n            (value == 0) || (token.allowance(address(this), spender) == 0),\n            \"SafeERC20: approve from non-zero to non-zero allowance\"\n        );\n        _callOptionalReturn(token, abi.encodeWithSelector(token.approve.selector, spender, value));\n    }\n\n    function safeIncreaseAllowance(\n        IERC20 token,\n        address spender,\n        uint256 value\n    ) internal {\n        uint256 newAllowance = token.allowance(address(this), spender) + value;\n        _callOptionalReturn(token, abi.encodeWithSelector(token.approve.selector, spender, newAllowance));\n    }\n\n    function safeDecreaseAllowance(\n        IERC20 token,\n        address spender,\n        uint256 value\n    ) internal {\n        unchecked {\n            uint256 oldAllowance = token.allowance(address(this), spender);\n            require(oldAllowance >= value, \"SafeERC20: decreased allowance below zero\");\n            uint256 newAllowance = oldAllowance - value;\n            _callOptionalReturn(token, abi.encodeWithSelector(token.approve.selector, spender, newAllowance));\n        }\n    }\n\n    /**\n     * @dev Imitates a Solidity high-level call (i.e. a regular function call to a contract), relaxing the requirement\n     * on the return value: the return value is optional (but if data is returned, it must not be false).\n     * @param token The token targeted by the call.\n     * @param data The call data (encoded using abi.encode or one of its variants).\n     */\n    function _callOptionalReturn(IERC20 token, bytes memory data) private {\n        // We need to perform a low level call here, to bypass Solidity's return data size checking mechanism, since\n        // we're implementing it ourselves. We use {Address.functionCall} to perform this call, which verifies that\n        // the target address contains contract code and also asserts for success in the low-level call.\n\n        bytes memory returndata = address(token).functionCall(data, \"SafeERC20: low-level call failed\");\n        if (returndata.length > 0) {\n            // Return data is optional\n            require(abi.decode(returndata, (bool)), \"SafeERC20: ERC20 operation did not succeed\");\n        }\n    }\n}\n\n\ncontract VaultNFTv4 is ERC721 {\n\n    string public uri;\n\n    constructor(string memory name, string memory symbol)\n        ERC721(name, symbol){}\n    \n\n  \n    \n}\n\ncontract FakeVault is VaultNFTv4{\n        using SafeERC20 for ERC20;\n        ERC20 public mai;\n\n\n\n    mapping (uint256 => address) public owners; // associe un nft a son owner\n    mapping (address => uint256) public erc721Balance; // balance de nft d'un owner\n    mapping(uint256 => uint256) public _deposit; // deposit dans le vault : vault => montant total dpos\n    mapping(uint256 => uint256) public maiDebt; // montant de mai emprunt par une vault : vault => debt\n    mapping(address => uint256) public maiBalance; // monta de may dtenu par chaque addresse\n\n    uint256 vaultCount = 0;\n    \n\n    constructor(address _mai, string memory name, string memory symbol)VaultNFTv4(name, symbol){\n        mai = ERC20(_mai); \n    }\n\n\n    function createVault() public returns (uint256) {\n        uint256 id = vaultCount;\n        vaultCount = vaultCount + 1;\n        require(vaultCount >= id);\n        _mint(msg.sender, id);\n        return id;\n    }\n\n\n    function borrowToken(uint256 _erc721_Id,uint256 _amount,uint256 _front) public  {\n        require(ownerOf(_erc721_Id) == msg.sender, \"You are not the owner of this NFT\");\n        require(_deposit[_erc721_Id] - maiDebt[_erc721_Id] >= _amount, \"You don't have enough collateral\");\n        mai.safeTransfer( msg.sender, _amount);\n        // transfert de token\n        maiDebt[_erc721_Id]+=_amount; \n    }\n\n    function depositCollateral(uint256 _erc721_Id,uint256 amount) public {\n        require(ownerOf(_erc721_Id) == msg.sender, \"You are not the owner of this NFT\");\n        _deposit[_erc721_Id] += amount;\n    }\n\n\n    function TransferFrom(address from, address _to, uint256 _erc721_Id) public {\n        require(owners[_erc721_Id] == msg.sender, \"You are not the owner of this NFT\");\n        owners[_erc721_Id] = _to;\n        erc721Balance[from] -= 1;\n        erc721Balance[_to] += 1;\n    }\n\n    \n    function updateVaultDebt(uint256 vaultId) public view returns (uint256) {\n        return maiDebt[vaultId];\n    }\n\n    // msg.sender need to approve the contract address\n    function payBackToken( uint256 vaultID, uint256 amount, uint256 _front) public {\n        /*if(ownerOf(vaultID) != msg.sender)\n            revert(\"You are not the owner of this vault\");\n        \n        if(maiDebt[vaultID] <= amount)\n            revert(\"You don't have enough debt\");\n        if(mai.balanceOf(msg.sender) <= amount)\n            revert(\"You don't have enough mai\");\n        maiDebt[vaultID] -= amount;\n\n        // allow the contract to repay*/\n        mai.safeTransferFrom(msg.sender, address(this),amount); \n    }\n\n    function withdrawCollateral(uint256 vaultID, uint256 amount) public {\n        require(owners[vaultID] == msg.sender, \"You are not the owner of this vault\");\n        require(_deposit[vaultID] >= amount, \"You don't have enough collateral\");\n        require(maiDebt[vaultID] <= _deposit[vaultID] - amount, \"You don't have enough collateral\");\n        _deposit[vaultID] -= amount;\n        maiBalance[msg.sender] += amount;\n    }\n\n    function newVault() public{\n        vaultCount += 1;\n        owners[vaultCount] = msg.sender;\n        erc721Balance[msg.sender] += 1;\n    }\n\n\n    // view\n    function getMaiBalance(address _owner) public view returns (uint256) {\n        return IERC20(mai).balanceOf(_owner);\n    }\n    function getVaultDebt(uint256 _vaultId) public view returns (uint256) {\n        return maiDebt[_vaultId];\n    }\n    function getVaultCollateral(uint256 _vaultId) public view returns (uint256) {\n        return _deposit[_vaultId];\n    }\n    function getOwner(uint256 _vaultId) public view returns (address) {\n        return owners[_vaultId];\n    }\n\n    //faucet\n    function getMai(uint256 _amount) public {\n        maiBalance[msg.sender] += _amount;\n    }\n\n\n    \n}",
  "sourcePath": "/home/lejamon/Documents/GitHub/KS-PI2/mai-finance/contracts/FakeVault.sol",
  "compiler": {
    "name": "solc",
    "version": "0.8.4+commit.c7e474f2.Emscripten.clang"
  },
  "schemaVersion": "3.4.10",
  "updatedAt": "2023-01-19T20:11:50.752Z",
  "networkType": "ethereum",
  "devdoc": {
    "kind": "dev",
    "methods": {
      "approve(address,uint256)": {
        "details": "See {IERC721-approve}."
      },
      "balanceOf(address)": {
        "details": "See {IERC721-balanceOf}."
      },
      "getApproved(uint256)": {
        "details": "See {IERC721-getApproved}."
      },
      "isApprovedForAll(address,address)": {
        "details": "See {IERC721-isApprovedForAll}."
      },
      "name()": {
        "details": "See {IERC721Metadata-name}."
      },
      "ownerOf(uint256)": {
        "details": "See {IERC721-ownerOf}."
      },
      "safeTransferFrom(address,address,uint256)": {
        "details": "See {IERC721-safeTransferFrom}."
      },
      "safeTransferFrom(address,address,uint256,bytes)": {
        "details": "See {IERC721-safeTransferFrom}."
      },
      "setApprovalForAll(address,bool)": {
        "details": "See {IERC721-setApprovalForAll}."
      },
      "supportsInterface(bytes4)": {
        "details": "See {IERC165-supportsInterface}."
      },
      "symbol()": {
        "details": "See {IERC721Metadata-symbol}."
      },
      "tokenURI(uint256)": {
        "details": "See {IERC721Metadata-tokenURI}."
      },
      "transferFrom(address,address,uint256)": {
        "details": "See {IERC721-transferFrom}."
      }
    },
    "version": 1
  },
  "userdoc": {
    "kind": "user",
    "methods": {},
    "version": 1
  }
}