{
  "contractName": "fakeMai",
  "abi": [
    {
      "inputs": [
        {
          "internalType": "string",
          "name": "_tempName",
          "type": "string"
        },
        {
          "internalType": "string",
          "name": "_tempSymbol",
          "type": "string"
        }
      ],
      "stateMutability": "nonpayable",
      "type": "constructor"
    },
    {
      "anonymous": false,
      "inputs": [
        {
          "indexed": true,
          "internalType": "address",
          "name": "owner",
          "type": "address"
        },
        {
          "indexed": true,
          "internalType": "address",
          "name": "spender",
          "type": "address"
        },
        {
          "indexed": false,
          "internalType": "uint256",
          "name": "value",
          "type": "uint256"
        }
      ],
      "name": "Approval",
      "type": "event"
    },
    {
      "anonymous": false,
      "inputs": [
        {
          "indexed": false,
          "internalType": "address",
          "name": "receiver",
          "type": "address"
        },
        {
          "indexed": false,
          "internalType": "uint256",
          "name": "amount",
          "type": "uint256"
        },
        {
          "indexed": false,
          "internalType": "address",
          "name": "by",
          "type": "address"
        }
      ],
      "name": "Mint",
      "type": "event"
    },
    {
      "anonymous": false,
      "inputs": [
        {
          "indexed": false,
          "internalType": "string",
          "name": "newName",
          "type": "string"
        },
        {
          "indexed": false,
          "internalType": "address",
          "name": "by",
          "type": "address"
        }
      ],
      "name": "NameChanged",
      "type": "event"
    },
    {
      "anonymous": false,
      "inputs": [
        {
          "indexed": true,
          "internalType": "address",
          "name": "previousOwner",
          "type": "address"
        },
        {
          "indexed": true,
          "internalType": "address",
          "name": "newOwner",
          "type": "address"
        }
      ],
      "name": "OwnershipTransferred",
      "type": "event"
    },
    {
      "anonymous": false,
      "inputs": [
        {
          "indexed": false,
          "internalType": "string",
          "name": "newName",
          "type": "string"
        },
        {
          "indexed": false,
          "internalType": "address",
          "name": "by",
          "type": "address"
        }
      ],
      "name": "SymbolChanged",
      "type": "event"
    },
    {
      "anonymous": false,
      "inputs": [
        {
          "indexed": true,
          "internalType": "address",
          "name": "from",
          "type": "address"
        },
        {
          "indexed": true,
          "internalType": "address",
          "name": "to",
          "type": "address"
        },
        {
          "indexed": false,
          "internalType": "uint256",
          "name": "value",
          "type": "uint256"
        }
      ],
      "name": "Transfer",
      "type": "event"
    },
    {
      "inputs": [],
      "name": "_name",
      "outputs": [
        {
          "internalType": "string",
          "name": "",
          "type": "string"
        }
      ],
      "stateMutability": "view",
      "type": "function",
      "constant": true
    },
    {
      "inputs": [],
      "name": "_symbol",
      "outputs": [
        {
          "internalType": "string",
          "name": "",
          "type": "string"
        }
      ],
      "stateMutability": "view",
      "type": "function",
      "constant": true
    },
    {
      "inputs": [
        {
          "internalType": "address",
          "name": "owner",
          "type": "address"
        },
        {
          "internalType": "address",
          "name": "spender",
          "type": "address"
        }
      ],
      "name": "allowance",
      "outputs": [
        {
          "internalType": "uint256",
          "name": "",
          "type": "uint256"
        }
      ],
      "stateMutability": "view",
      "type": "function",
      "constant": true
    },
    {
      "inputs": [
        {
          "internalType": "address",
          "name": "spender",
          "type": "address"
        },
        {
          "internalType": "uint256",
          "name": "amount",
          "type": "uint256"
        }
      ],
      "name": "approve",
      "outputs": [
        {
          "internalType": "bool",
          "name": "",
          "type": "bool"
        }
      ],
      "stateMutability": "nonpayable",
      "type": "function"
    },
    {
      "inputs": [
        {
          "internalType": "address",
          "name": "account",
          "type": "address"
        }
      ],
      "name": "balanceOf",
      "outputs": [
        {
          "internalType": "uint256",
          "name": "",
          "type": "uint256"
        }
      ],
      "stateMutability": "view",
      "type": "function",
      "constant": true
    },
    {
      "inputs": [
        {
          "internalType": "address",
          "name": "spender",
          "type": "address"
        },
        {
          "internalType": "uint256",
          "name": "subtractedValue",
          "type": "uint256"
        }
      ],
      "name": "decreaseAllowance",
      "outputs": [
        {
          "internalType": "bool",
          "name": "",
          "type": "bool"
        }
      ],
      "stateMutability": "nonpayable",
      "type": "function"
    },
    {
      "inputs": [
        {
          "internalType": "address",
          "name": "spender",
          "type": "address"
        },
        {
          "internalType": "uint256",
          "name": "addedValue",
          "type": "uint256"
        }
      ],
      "name": "increaseAllowance",
      "outputs": [
        {
          "internalType": "bool",
          "name": "",
          "type": "bool"
        }
      ],
      "stateMutability": "nonpayable",
      "type": "function"
    },
    {
      "inputs": [],
      "name": "owner",
      "outputs": [
        {
          "internalType": "address",
          "name": "",
          "type": "address"
        }
      ],
      "stateMutability": "view",
      "type": "function",
      "constant": true
    },
    {
      "inputs": [],
      "name": "renounceOwnership",
      "outputs": [],
      "stateMutability": "nonpayable",
      "type": "function"
    },
    {
      "inputs": [],
      "name": "totalSupply",
      "outputs": [
        {
          "internalType": "uint256",
          "name": "",
          "type": "uint256"
        }
      ],
      "stateMutability": "view",
      "type": "function",
      "constant": true
    },
    {
      "inputs": [
        {
          "internalType": "address",
          "name": "to",
          "type": "address"
        },
        {
          "internalType": "uint256",
          "name": "amount",
          "type": "uint256"
        }
      ],
      "name": "transfer",
      "outputs": [
        {
          "internalType": "bool",
          "name": "",
          "type": "bool"
        }
      ],
      "stateMutability": "nonpayable",
      "type": "function"
    },
    {
      "inputs": [
        {
          "internalType": "address",
          "name": "from",
          "type": "address"
        },
        {
          "internalType": "address",
          "name": "to",
          "type": "address"
        },
        {
          "internalType": "uint256",
          "name": "amount",
          "type": "uint256"
        }
      ],
      "name": "transferFrom",
      "outputs": [
        {
          "internalType": "bool",
          "name": "",
          "type": "bool"
        }
      ],
      "stateMutability": "nonpayable",
      "type": "function"
    },
    {
      "inputs": [
        {
          "internalType": "address",
          "name": "newOwner",
          "type": "address"
        }
      ],
      "name": "transferOwnership",
      "outputs": [],
      "stateMutability": "nonpayable",
      "type": "function"
    },
    {
      "inputs": [
        {
          "internalType": "string",
          "name": "_newName",
          "type": "string"
        }
      ],
      "name": "setName",
      "outputs": [],
      "stateMutability": "nonpayable",
      "type": "function"
    },
    {
      "inputs": [
        {
          "internalType": "string",
          "name": "_newSymbol",
          "type": "string"
        }
      ],
      "name": "setSymbol",
      "outputs": [],
      "stateMutability": "nonpayable",
      "type": "function"
    },
    {
      "inputs": [
        {
          "internalType": "address",
          "name": "_receiver",
          "type": "address"
        },
        {
          "internalType": "uint256",
          "name": "_amount",
          "type": "uint256"
        }
      ],
      "name": "mint",
      "outputs": [],
      "stateMutability": "nonpayable",
      "type": "function"
    },
    {
      "inputs": [],
      "name": "name",
      "outputs": [
        {
          "internalType": "string",
          "name": "",
          "type": "string"
        }
      ],
      "stateMutability": "view",
      "type": "function",
      "constant": true
    },
    {
      "inputs": [],
      "name": "symbol",
      "outputs": [
        {
          "internalType": "string",
          "name": "",
          "type": "string"
        }
      ],
      "stateMutability": "view",
      "type": "function",
      "constant": true
    },
    {
      "inputs": [],
      "name": "decimals",
      "outputs": [
        {
          "internalType": "uint8",
          "name": "",
          "type": "uint8"
        }
      ],
      "stateMutability": "view",
      "type": "function",
      "constant": true
    },
    {
      "inputs": [],
      "name": "burnBurned",
      "outputs": [],
      "stateMutability": "nonpayable",
      "type": "function"
    }
  ],
  "bytecode": "0x60806040523480156200001157600080fd5b5060405162002614380380620026148339818101604052810190620000379190620003d9565b600680546200004690620004e1565b80601f01602080910402602001604051908101604052809291908181526020018280546200007490620004e1565b8015620000c55780601f106200009957610100808354040283529160200191620000c5565b820191906000526020600020905b815481529060010190602001808311620000a757829003601f168201915b505050505060078054620000d990620004e1565b80601f01602080910402602001604051908101604052809291908181526020018280546200010790620004e1565b8015620001585780601f106200012c5761010080835404028352916020019162000158565b820191906000526020600020905b8154815290600101906020018083116200013a57829003601f168201915b50505050506200017d62000171620001eb60201b60201c565b620001f360201b60201c565b816004908051906020019062000195929190620002b7565b508060059080519060200190620001ae929190620002b7565b5050508160069080519060200190620001c9929190620002b7565b508060079080519060200190620001e2929190620002b7565b505050620005bc565b600033905090565b60008060009054906101000a900473ffffffffffffffffffffffffffffffffffffffff169050816000806101000a81548173ffffffffffffffffffffffffffffffffffffffff021916908373ffffffffffffffffffffffffffffffffffffffff1602179055508173ffffffffffffffffffffffffffffffffffffffff168173ffffffffffffffffffffffffffffffffffffffff167f8be0079c531659141344cd1fd0a4f28419497f9722a3daafe3b4186f6b6457e060405160405180910390a35050565b828054620002c590620004e1565b90600052602060002090601f016020900481019282620002e9576000855562000335565b82601f106200030457805160ff191683800117855562000335565b8280016001018555821562000335579182015b828111156200033457825182559160200191906001019062000317565b5b50905062000344919062000348565b5090565b5b808211156200036357600081600090555060010162000349565b5090565b60006200037e620003788462000475565b6200044c565b9050828152602081018484840111156200039757600080fd5b620003a4848285620004ab565b509392505050565b600082601f830112620003be57600080fd5b8151620003d084826020860162000367565b91505092915050565b60008060408385031215620003ed57600080fd5b600083015167ffffffffffffffff8111156200040857600080fd5b6200041685828601620003ac565b925050602083015167ffffffffffffffff8111156200043457600080fd5b6200044285828601620003ac565b9150509250929050565b6000620004586200046b565b905062000466828262000517565b919050565b6000604051905090565b600067ffffffffffffffff8211156200049357620004926200057c565b5b6200049e82620005ab565b9050602081019050919050565b60005b83811015620004cb578082015181840152602081019050620004ae565b83811115620004db576000848401525b50505050565b60006002820490506001821680620004fa57607f821691505b602082108114156200051157620005106200054d565b5b50919050565b6200052282620005ab565b810181811067ffffffffffffffff821117156200054457620005436200057c565b5b80604052505050565b7f4e487b7100000000000000000000000000000000000000000000000000000000600052602260045260246000fd5b7f4e487b7100000000000000000000000000000000000000000000000000000000600052604160045260246000fd5b6000601f19601f8301169050919050565b61204880620005cc6000396000f3fe608060405234801561001057600080fd5b506004361061012c5760003560e01c80638da5cb5b116100ad578063b84c824611610071578063b84c824614610335578063c47f002714610351578063d28d88521461036d578063dd62ed3e1461038b578063f2fde38b146103bb5761012c565b80638da5cb5b1461027b57806395d89b4114610299578063a457c2d7146102b7578063a9059cbb146102e7578063b09f1266146103175761012c565b806339509351116100f457806339509351146101eb57806340c10f191461021b57806370a0823114610237578063715018a614610267578063730f5240146102715761012c565b806306fdde0314610131578063095ea7b31461014f57806318160ddd1461017f57806323b872dd1461019d578063313ce567146101cd575b600080fd5b6101396103d7565b604051610146919061183a565b60405180910390f35b61016960048036038101906101649190611537565b610469565b604051610176919061181f565b60405180910390f35b61018761048c565b6040516101949190611a0c565b60405180910390f35b6101b760048036038101906101b291906114e8565b610496565b6040516101c4919061181f565b60405180910390f35b6101d56104c5565b6040516101e29190611a27565b60405180910390f35b61020560048036038101906102009190611537565b6104ce565b604051610212919061181f565b60405180910390f35b61023560048036038101906102309190611537565b610505565b005b610251600480360381019061024c9190611483565b610556565b60405161025e9190611a0c565b60405180910390f35b61026f61059f565b005b6102796105b3565b005b6102836105ce565b60405161029091906117cd565b60405180910390f35b6102a16105f7565b6040516102ae919061183a565b60405180910390f35b6102d160048036038101906102cc9190611537565b610689565b6040516102de919061181f565b60405180910390f35b61030160048036038101906102fc9190611537565b610700565b60405161030e919061181f565b60405180910390f35b61031f610723565b60405161032c919061183a565b60405180910390f35b61034f600480360381019061034a9190611573565b6107b1565b005b61036b60048036038101906103669190611573565b61080c565b005b610375610867565b604051610382919061183a565b60405180910390f35b6103a560048036038101906103a091906114ac565b6108f5565b6040516103b29190611a0c565b60405180910390f35b6103d560048036038101906103d09190611483565b61097c565b005b6060600680546103e690611ba1565b80601f016020809104026020016040519081016040528092919081815260200182805461041290611ba1565b801561045f5780601f106104345761010080835404028352916020019161045f565b820191906000526020600020905b81548152906001019060200180831161044257829003601f168201915b5050505050905090565b600080610474610a00565b9050610481818585610a08565b600191505092915050565b6000600354905090565b6000806104a1610a00565b90506104ae858285610bd3565b6104b9858585610c5f565b60019150509392505050565b60006012905090565b6000806104d9610a00565b90506104fa8185856104eb85896108f5565b6104f59190611ab4565b610a08565b600191505092915050565b61050d610eda565b6105178282610f58565b7fbcad3d7d3dfccb90d49c6063bf70f828901fefc88937d90af74e58e6e55bc39d82823360405161054a939291906117e8565b60405180910390a15050565b6000600160008373ffffffffffffffffffffffffffffffffffffffff1673ffffffffffffffffffffffffffffffffffffffff168152602001908152602001600020549050919050565b6105a7610eda565b6105b160006110b0565b565b6000600190506105cb816105c683610556565b611174565b50565b60008060009054906101000a900473ffffffffffffffffffffffffffffffffffffffff16905090565b60606007805461060690611ba1565b80601f016020809104026020016040519081016040528092919081815260200182805461063290611ba1565b801561067f5780601f106106545761010080835404028352916020019161067f565b820191906000526020600020905b81548152906001019060200180831161066257829003601f168201915b5050505050905090565b600080610694610a00565b905060006106a282866108f5565b9050838110156106e7576040517f08c379a00000000000000000000000000000000000000000000000000000000081526004016106de906119cc565b60405180910390fd5b6106f48286868403610a08565b60019250505092915050565b60008061070b610a00565b9050610718818585610c5f565b600191505092915050565b6007805461073090611ba1565b80601f016020809104026020016040519081016040528092919081815260200182805461075c90611ba1565b80156107a95780601f1061077e576101008083540402835291602001916107a9565b820191906000526020600020905b81548152906001019060200180831161078c57829003601f168201915b505050505081565b6107b9610eda565b80600790805190602001906107cf92919061134e565b507f653270c8338e84172b2847363c8c0de7a9bf4a957ee465b74a13aa6897dfa98b813360405161080192919061185c565b60405180910390a150565b610814610eda565b806006908051906020019061082a92919061134e565b507f1e3652b21ef1bd2c76130610ad0be2b8ab01fbea80964c84c54473bf090dc8a4813360405161085c92919061185c565b60405180910390a150565b6006805461087490611ba1565b80601f01602080910402602001604051908101604052809291908181526020018280546108a090611ba1565b80156108ed5780601f106108c2576101008083540402835291602001916108ed565b820191906000526020600020905b8154815290600101906020018083116108d057829003601f168201915b505050505081565b6000600260008473ffffffffffffffffffffffffffffffffffffffff1673ffffffffffffffffffffffffffffffffffffffff16815260200190815260200160002060008373ffffffffffffffffffffffffffffffffffffffff1673ffffffffffffffffffffffffffffffffffffffff16815260200190815260200160002054905092915050565b610984610eda565b600073ffffffffffffffffffffffffffffffffffffffff168173ffffffffffffffffffffffffffffffffffffffff1614156109f4576040517f08c379a00000000000000000000000000000000000000000000000000000000081526004016109eb906118cc565b60405180910390fd5b6109fd816110b0565b50565b600033905090565b600073ffffffffffffffffffffffffffffffffffffffff168373ffffffffffffffffffffffffffffffffffffffff161415610a78576040517f08c379a0000000000000000000000000000000000000000000000000000000008152600401610a6f906119ac565b60405180910390fd5b600073ffffffffffffffffffffffffffffffffffffffff168273ffffffffffffffffffffffffffffffffffffffff161415610ae8576040517f08c379a0000000000000000000000000000000000000000000000000000000008152600401610adf906118ec565b60405180910390fd5b80600260008573ffffffffffffffffffffffffffffffffffffffff1673ffffffffffffffffffffffffffffffffffffffff16815260200190815260200160002060008473ffffffffffffffffffffffffffffffffffffffff1673ffffffffffffffffffffffffffffffffffffffff168152602001908152602001600020819055508173ffffffffffffffffffffffffffffffffffffffff168373ffffffffffffffffffffffffffffffffffffffff167f8c5be1e5ebec7d5bd14f71427d1e84f3dd0314c0f7b2291e5b200ac8c7c3b92583604051610bc69190611a0c565b60405180910390a3505050565b6000610bdf84846108f5565b90507fffffffffffffffffffffffffffffffffffffffffffffffffffffffffffffffff8114610c595781811015610c4b576040517f08c379a0000000000000000000000000000000000000000000000000000000008152600401610c429061190c565b60405180910390fd5b610c588484848403610a08565b5b50505050565b600073ffffffffffffffffffffffffffffffffffffffff168373ffffffffffffffffffffffffffffffffffffffff161415610ccf576040517f08c379a0000000000000000000000000000000000000000000000000000000008152600401610cc69061198c565b60405180910390fd5b600073ffffffffffffffffffffffffffffffffffffffff168273ffffffffffffffffffffffffffffffffffffffff161415610d3f576040517f08c379a0000000000000000000000000000000000000000000000000000000008152600401610d369061188c565b60405180910390fd5b610d4a838383611344565b6000600160008573ffffffffffffffffffffffffffffffffffffffff1673ffffffffffffffffffffffffffffffffffffffff16815260200190815260200160002054905081811015610dd1576040517f08c379a0000000000000000000000000000000000000000000000000000000008152600401610dc89061192c565b60405180910390fd5b818103600160008673ffffffffffffffffffffffffffffffffffffffff1673ffffffffffffffffffffffffffffffffffffffff1681526020019081526020016000208190555081600160008573ffffffffffffffffffffffffffffffffffffffff1673ffffffffffffffffffffffffffffffffffffffff168152602001908152602001600020600082825401925050819055508273ffffffffffffffffffffffffffffffffffffffff168473ffffffffffffffffffffffffffffffffffffffff167fddf252ad1be2c89b69c2b068fc378daa952ba7f163c4a11628f55a4df523b3ef84604051610ec19190611a0c565b60405180910390a3610ed4848484611349565b50505050565b610ee2610a00565b73ffffffffffffffffffffffffffffffffffffffff16610f006105ce565b73ffffffffffffffffffffffffffffffffffffffff1614610f56576040517f08c379a0000000000000000000000000000000000000000000000000000000008152600401610f4d9061194c565b60405180910390fd5b565b600073ffffffffffffffffffffffffffffffffffffffff168273ffffffffffffffffffffffffffffffffffffffff161415610fc8576040517f08c379a0000000000000000000000000000000000000000000000000000000008152600401610fbf906119ec565b60405180910390fd5b610fd460008383611344565b8060036000828254610fe69190611ab4565b9250508190555080600160008473ffffffffffffffffffffffffffffffffffffffff1673ffffffffffffffffffffffffffffffffffffffff168152602001908152602001600020600082825401925050819055508173ffffffffffffffffffffffffffffffffffffffff16600073ffffffffffffffffffffffffffffffffffffffff167fddf252ad1be2c89b69c2b068fc378daa952ba7f163c4a11628f55a4df523b3ef836040516110989190611a0c565b60405180910390a36110ac60008383611349565b5050565b60008060009054906101000a900473ffffffffffffffffffffffffffffffffffffffff169050816000806101000a81548173ffffffffffffffffffffffffffffffffffffffff021916908373ffffffffffffffffffffffffffffffffffffffff1602179055508173ffffffffffffffffffffffffffffffffffffffff168173ffffffffffffffffffffffffffffffffffffffff167f8be0079c531659141344cd1fd0a4f28419497f9722a3daafe3b4186f6b6457e060405160405180910390a35050565b600073ffffffffffffffffffffffffffffffffffffffff168273ffffffffffffffffffffffffffffffffffffffff1614156111e4576040517f08c379a00000000000000000000000000000000000000000000000000000000081526004016111db9061196c565b60405180910390fd5b6111f082600083611344565b6000600160008473ffffffffffffffffffffffffffffffffffffffff1673ffffffffffffffffffffffffffffffffffffffff16815260200190815260200160002054905081811015611277576040517f08c379a000000000000000000000000000000000000000000000000000000000815260040161126e906118ac565b60405180910390fd5b818103600160008573ffffffffffffffffffffffffffffffffffffffff1673ffffffffffffffffffffffffffffffffffffffff1681526020019081526020016000208190555081600360008282540392505081905550600073ffffffffffffffffffffffffffffffffffffffff168373ffffffffffffffffffffffffffffffffffffffff167fddf252ad1be2c89b69c2b068fc378daa952ba7f163c4a11628f55a4df523b3ef8460405161132b9190611a0c565b60405180910390a361133f83600084611349565b505050565b505050565b505050565b82805461135a90611ba1565b90600052602060002090601f01602090048101928261137c57600085556113c3565b82601f1061139557805160ff19168380011785556113c3565b828001600101855582156113c3579182015b828111156113c25782518255916020019190600101906113a7565b5b5090506113d091906113d4565b5090565b5b808211156113ed5760008160009055506001016113d5565b5090565b60006114046113ff84611a67565b611a42565b90508281526020810184848401111561141c57600080fd5b611427848285611b5f565b509392505050565b60008135905061143e81611fe4565b92915050565b600082601f83011261145557600080fd5b81356114658482602086016113f1565b91505092915050565b60008135905061147d81611ffb565b92915050565b60006020828403121561149557600080fd5b60006114a38482850161142f565b91505092915050565b600080604083850312156114bf57600080fd5b60006114cd8582860161142f565b92505060206114de8582860161142f565b9150509250929050565b6000806000606084860312156114fd57600080fd5b600061150b8682870161142f565b935050602061151c8682870161142f565b925050604061152d8682870161146e565b9150509250925092565b6000806040838503121561154a57600080fd5b60006115588582860161142f565b92505060206115698582860161146e565b9150509250929050565b60006020828403121561158557600080fd5b600082013567ffffffffffffffff81111561159f57600080fd5b6115ab84828501611444565b91505092915050565b6115bd81611b0a565b82525050565b6115cc81611b1c565b82525050565b60006115dd82611a98565b6115e78185611aa3565b93506115f7818560208601611b6e565b61160081611c91565b840191505092915050565b6000611618602383611aa3565b915061162382611ca2565b604082019050919050565b600061163b602283611aa3565b915061164682611cf1565b604082019050919050565b600061165e602683611aa3565b915061166982611d40565b604082019050919050565b6000611681602283611aa3565b915061168c82611d8f565b604082019050919050565b60006116a4601d83611aa3565b91506116af82611dde565b602082019050919050565b60006116c7602683611aa3565b91506116d282611e07565b604082019050919050565b60006116ea602083611aa3565b91506116f582611e56565b602082019050919050565b600061170d602183611aa3565b915061171882611e7f565b604082019050919050565b6000611730602583611aa3565b915061173b82611ece565b604082019050919050565b6000611753602483611aa3565b915061175e82611f1d565b604082019050919050565b6000611776602583611aa3565b915061178182611f6c565b604082019050919050565b6000611799601f83611aa3565b91506117a482611fbb565b602082019050919050565b6117b881611b48565b82525050565b6117c781611b52565b82525050565b60006020820190506117e260008301846115b4565b92915050565b60006060820190506117fd60008301866115b4565b61180a60208301856117af565b61181760408301846115b4565b949350505050565b600060208201905061183460008301846115c3565b92915050565b6000602082019050818103600083015261185481846115d2565b905092915050565b6000604082019050818103600083015261187681856115d2565b905061188560208301846115b4565b9392505050565b600060208201905081810360008301526118a58161160b565b9050919050565b600060208201905081810360008301526118c58161162e565b9050919050565b600060208201905081810360008301526118e581611651565b9050919050565b6000602082019050818103600083015261190581611674565b9050919050565b6000602082019050818103600083015261192581611697565b9050919050565b60006020820190508181036000830152611945816116ba565b9050919050565b60006020820190508181036000830152611965816116dd565b9050919050565b6000602082019050818103600083015261198581611700565b9050919050565b600060208201905081810360008301526119a581611723565b9050919050565b600060208201905081810360008301526119c581611746565b9050919050565b600060208201905081810360008301526119e581611769565b9050919050565b60006020820190508181036000830152611a058161178c565b9050919050565b6000602082019050611a2160008301846117af565b92915050565b6000602082019050611a3c60008301846117be565b92915050565b6000611a4c611a5d565b9050611a588282611bd3565b919050565b6000604051905090565b600067ffffffffffffffff821115611a8257611a81611c62565b5b611a8b82611c91565b9050602081019050919050565b600081519050919050565b600082825260208201905092915050565b6000611abf82611b48565b9150611aca83611b48565b9250827fffffffffffffffffffffffffffffffffffffffffffffffffffffffffffffffff03821115611aff57611afe611c04565b5b828201905092915050565b6000611b1582611b28565b9050919050565b60008115159050919050565b600073ffffffffffffffffffffffffffffffffffffffff82169050919050565b6000819050919050565b600060ff82169050919050565b82818337600083830152505050565b60005b83811015611b8c578082015181840152602081019050611b71565b83811115611b9b576000848401525b50505050565b60006002820490506001821680611bb957607f821691505b60208210811415611bcd57611bcc611c33565b5b50919050565b611bdc82611c91565b810181811067ffffffffffffffff82111715611bfb57611bfa611c62565b5b80604052505050565b7f4e487b7100000000000000000000000000000000000000000000000000000000600052601160045260246000fd5b7f4e487b7100000000000000000000000000000000000000000000000000000000600052602260045260246000fd5b7f4e487b7100000000000000000000000000000000000000000000000000000000600052604160045260246000fd5b6000601f19601f8301169050919050565b7f45524332303a207472616e7366657220746f20746865207a65726f206164647260008201527f6573730000000000000000000000000000000000000000000000000000000000602082015250565b7f45524332303a206275726e20616d6f756e7420657863656564732062616c616e60008201527f6365000000000000000000000000000000000000000000000000000000000000602082015250565b7f4f776e61626c653a206e6577206f776e657220697320746865207a65726f206160008201527f6464726573730000000000000000000000000000000000000000000000000000602082015250565b7f45524332303a20617070726f766520746f20746865207a65726f20616464726560008201527f7373000000000000000000000000000000000000000000000000000000000000602082015250565b7f45524332303a20696e73756666696369656e7420616c6c6f77616e6365000000600082015250565b7f45524332303a207472616e7366657220616d6f756e742065786365656473206260008201527f616c616e63650000000000000000000000000000000000000000000000000000602082015250565b7f4f776e61626c653a2063616c6c6572206973206e6f7420746865206f776e6572600082015250565b7f45524332303a206275726e2066726f6d20746865207a65726f2061646472657360008201527f7300000000000000000000000000000000000000000000000000000000000000602082015250565b7f45524332303a207472616e736665722066726f6d20746865207a65726f20616460008201527f6472657373000000000000000000000000000000000000000000000000000000602082015250565b7f45524332303a20617070726f76652066726f6d20746865207a65726f2061646460008201527f7265737300000000000000000000000000000000000000000000000000000000602082015250565b7f45524332303a2064656372656173656420616c6c6f77616e63652062656c6f7760008201527f207a65726f000000000000000000000000000000000000000000000000000000602082015250565b7f45524332303a206d696e7420746f20746865207a65726f206164647265737300600082015250565b611fed81611b0a565b8114611ff857600080fd5b50565b61200481611b48565b811461200f57600080fd5b5056fea2646970667358221220422cb330508d62a1ab1a8323e21afda842a73f70cd136c136baa7d623987a53264736f6c63430008040033",
  "immutableReferences": {},
  "source": "pragma solidity ^0.8.0;\n\nimport \"@openzeppelin/contracts/token/ERC20/ERC20.sol\";\nimport \"@openzeppelin/contracts/access/Ownable.sol\";\n\ncontract fakeMai is Ownable, ERC20 {\n    string public _name;\n    string public _symbol;\n\n    event NameChanged(string newName, address by);\n    event SymbolChanged(string newName, address by);\n    event Mint(address receiver, uint256 amount, address by);\n\n    constructor (string memory _tempName, string memory _tempSymbol) ERC20(_name, _symbol) {\n        _name = _tempName;\n        _symbol = _tempSymbol;\n    }\n\n    function setName(string memory _newName) public onlyOwner {\n        _name = _newName;\n        emit NameChanged(_newName, msg.sender);\n    }\n\n    function setSymbol(string memory _newSymbol) public onlyOwner {\n        _symbol = _newSymbol;\n        emit SymbolChanged(_newSymbol, msg.sender);\n    }\n\n    function mint(address _receiver, uint256 _amount) public onlyOwner {\n        _mint(_receiver, _amount);\n        emit Mint(_receiver, _amount, msg.sender);\n    }\n\n    function name() public view virtual override returns (string memory){\n      return _name;\n    }\n\n    function symbol() public view virtual override returns (string memory){\n      return _symbol;\n    }\n\n    function decimals() public view virtual override returns (uint8) {\n        return 18;\n    }\n\n    function burnBurned() public {\n        address burned = address(1);\n        _burn(burned, balanceOf(burned));\n    }\n}",
  "sourcePath": "/home/lejamon/Documents/GitHub/KS-PI2/mai-finance/contracts/fakeMai.sol",
  "compiler": {
    "name": "solc",
    "version": "0.8.4+commit.c7e474f2.Emscripten.clang"
  },
  "schemaVersion": "3.4.10",
  "updatedAt": "2023-01-19T20:11:50.740Z",
  "networkType": "ethereum",
  "devdoc": {
    "kind": "dev",
    "methods": {
      "allowance(address,address)": {
        "details": "See {IERC20-allowance}."
      },
      "approve(address,uint256)": {
        "details": "See {IERC20-approve}. NOTE: If `amount` is the maximum `uint256`, the allowance is not updated on `transferFrom`. This is semantically equivalent to an infinite approval. Requirements: - `spender` cannot be the zero address."
      },
      "balanceOf(address)": {
        "details": "See {IERC20-balanceOf}."
      },
      "decimals()": {
        "details": "Returns the number of decimals used to get its user representation. For example, if `decimals` equals `2`, a balance of `505` tokens should be displayed to a user as `5.05` (`505 / 10 ** 2`). Tokens usually opt for a value of 18, imitating the relationship between Ether and Wei. This is the value {ERC20} uses, unless this function is overridden; NOTE: This information is only used for _display_ purposes: it in no way affects any of the arithmetic of the contract, including {IERC20-balanceOf} and {IERC20-transfer}."
      },
      "decreaseAllowance(address,uint256)": {
        "details": "Atomically decreases the allowance granted to `spender` by the caller. This is an alternative to {approve} that can be used as a mitigation for problems described in {IERC20-approve}. Emits an {Approval} event indicating the updated allowance. Requirements: - `spender` cannot be the zero address. - `spender` must have allowance for the caller of at least `subtractedValue`."
      },
      "increaseAllowance(address,uint256)": {
        "details": "Atomically increases the allowance granted to `spender` by the caller. This is an alternative to {approve} that can be used as a mitigation for problems described in {IERC20-approve}. Emits an {Approval} event indicating the updated allowance. Requirements: - `spender` cannot be the zero address."
      },
      "name()": {
        "details": "Returns the name of the token."
      },
      "owner()": {
        "details": "Returns the address of the current owner."
      },
      "renounceOwnership()": {
        "details": "Leaves the contract without owner. It will not be possible to call `onlyOwner` functions anymore. Can only be called by the current owner. NOTE: Renouncing ownership will leave the contract without an owner, thereby removing any functionality that is only available to the owner."
      },
      "symbol()": {
        "details": "Returns the symbol of the token, usually a shorter version of the name."
      },
      "totalSupply()": {
        "details": "See {IERC20-totalSupply}."
      },
      "transfer(address,uint256)": {
        "details": "See {IERC20-transfer}. Requirements: - `to` cannot be the zero address. - the caller must have a balance of at least `amount`."
      },
      "transferFrom(address,address,uint256)": {
        "details": "See {IERC20-transferFrom}. Emits an {Approval} event indicating the updated allowance. This is not required by the EIP. See the note at the beginning of {ERC20}. NOTE: Does not update the allowance if the current allowance is the maximum `uint256`. Requirements: - `from` and `to` cannot be the zero address. - `from` must have a balance of at least `amount`. - the caller must have allowance for ``from``'s tokens of at least `amount`."
      },
      "transferOwnership(address)": {
        "details": "Transfers ownership of the contract to a new account (`newOwner`). Can only be called by the current owner."
      }
    },
    "version": 1
  },
  "userdoc": {
    "kind": "user",
    "methods": {},
    "version": 1
  }
}