{
  "contractName": "VaultNFTv4",
  "abi": [
    {
      "inputs": [
        {
          "internalType": "string",
          "name": "name",
          "type": "string"
        },
        {
          "internalType": "string",
          "name": "symbol",
          "type": "string"
        }
      ],
      "stateMutability": "nonpayable",
      "type": "constructor"
    },
    {
      "anonymous": false,
      "inputs": [
        {
          "indexed": true,
          "internalType": "address",
          "name": "owner",
          "type": "address"
        },
        {
          "indexed": true,
          "internalType": "address",
          "name": "approved",
          "type": "address"
        },
        {
          "indexed": true,
          "internalType": "uint256",
          "name": "tokenId",
          "type": "uint256"
        }
      ],
      "name": "Approval",
      "type": "event"
    },
    {
      "anonymous": false,
      "inputs": [
        {
          "indexed": true,
          "internalType": "address",
          "name": "owner",
          "type": "address"
        },
        {
          "indexed": true,
          "internalType": "address",
          "name": "operator",
          "type": "address"
        },
        {
          "indexed": false,
          "internalType": "bool",
          "name": "approved",
          "type": "bool"
        }
      ],
      "name": "ApprovalForAll",
      "type": "event"
    },
    {
      "anonymous": false,
      "inputs": [
        {
          "indexed": true,
          "internalType": "address",
          "name": "from",
          "type": "address"
        },
        {
          "indexed": true,
          "internalType": "address",
          "name": "to",
          "type": "address"
        },
        {
          "indexed": true,
          "internalType": "uint256",
          "name": "tokenId",
          "type": "uint256"
        }
      ],
      "name": "Transfer",
      "type": "event"
    },
    {
      "inputs": [
        {
          "internalType": "address",
          "name": "to",
          "type": "address"
        },
        {
          "internalType": "uint256",
          "name": "tokenId",
          "type": "uint256"
        }
      ],
      "name": "approve",
      "outputs": [],
      "stateMutability": "nonpayable",
      "type": "function"
    },
    {
      "inputs": [
        {
          "internalType": "address",
          "name": "owner",
          "type": "address"
        }
      ],
      "name": "balanceOf",
      "outputs": [
        {
          "internalType": "uint256",
          "name": "",
          "type": "uint256"
        }
      ],
      "stateMutability": "view",
      "type": "function"
    },
    {
      "inputs": [
        {
          "internalType": "uint256",
          "name": "tokenId",
          "type": "uint256"
        }
      ],
      "name": "getApproved",
      "outputs": [
        {
          "internalType": "address",
          "name": "",
          "type": "address"
        }
      ],
      "stateMutability": "view",
      "type": "function"
    },
    {
      "inputs": [
        {
          "internalType": "address",
          "name": "owner",
          "type": "address"
        },
        {
          "internalType": "address",
          "name": "operator",
          "type": "address"
        }
      ],
      "name": "isApprovedForAll",
      "outputs": [
        {
          "internalType": "bool",
          "name": "",
          "type": "bool"
        }
      ],
      "stateMutability": "view",
      "type": "function"
    },
    {
      "inputs": [],
      "name": "name",
      "outputs": [
        {
          "internalType": "string",
          "name": "",
          "type": "string"
        }
      ],
      "stateMutability": "view",
      "type": "function"
    },
    {
      "inputs": [
        {
          "internalType": "uint256",
          "name": "tokenId",
          "type": "uint256"
        }
      ],
      "name": "ownerOf",
      "outputs": [
        {
          "internalType": "address",
          "name": "",
          "type": "address"
        }
      ],
      "stateMutability": "view",
      "type": "function"
    },
    {
      "inputs": [
        {
          "internalType": "address",
          "name": "from",
          "type": "address"
        },
        {
          "internalType": "address",
          "name": "to",
          "type": "address"
        },
        {
          "internalType": "uint256",
          "name": "tokenId",
          "type": "uint256"
        }
      ],
      "name": "safeTransferFrom",
      "outputs": [],
      "stateMutability": "nonpayable",
      "type": "function"
    },
    {
      "inputs": [
        {
          "internalType": "address",
          "name": "from",
          "type": "address"
        },
        {
          "internalType": "address",
          "name": "to",
          "type": "address"
        },
        {
          "internalType": "uint256",
          "name": "tokenId",
          "type": "uint256"
        },
        {
          "internalType": "bytes",
          "name": "data",
          "type": "bytes"
        }
      ],
      "name": "safeTransferFrom",
      "outputs": [],
      "stateMutability": "nonpayable",
      "type": "function"
    },
    {
      "inputs": [
        {
          "internalType": "address",
          "name": "operator",
          "type": "address"
        },
        {
          "internalType": "bool",
          "name": "approved",
          "type": "bool"
        }
      ],
      "name": "setApprovalForAll",
      "outputs": [],
      "stateMutability": "nonpayable",
      "type": "function"
    },
    {
      "inputs": [
        {
          "internalType": "bytes4",
          "name": "interfaceId",
          "type": "bytes4"
        }
      ],
      "name": "supportsInterface",
      "outputs": [
        {
          "internalType": "bool",
          "name": "",
          "type": "bool"
        }
      ],
      "stateMutability": "view",
      "type": "function"
    },
    {
      "inputs": [],
      "name": "symbol",
      "outputs": [
        {
          "internalType": "string",
          "name": "",
          "type": "string"
        }
      ],
      "stateMutability": "view",
      "type": "function"
    },
    {
      "inputs": [
        {
          "internalType": "uint256",
          "name": "tokenId",
          "type": "uint256"
        }
      ],
      "name": "tokenURI",
      "outputs": [
        {
          "internalType": "string",
          "name": "",
          "type": "string"
        }
      ],
      "stateMutability": "view",
      "type": "function"
    },
    {
      "inputs": [
        {
          "internalType": "address",
          "name": "from",
          "type": "address"
        },
        {
          "internalType": "address",
          "name": "to",
          "type": "address"
        },
        {
          "internalType": "uint256",
          "name": "tokenId",
          "type": "uint256"
        }
      ],
      "name": "transferFrom",
      "outputs": [],
      "stateMutability": "nonpayable",
      "type": "function"
    },
    {
      "inputs": [],
      "name": "uri",
      "outputs": [
        {
          "internalType": "string",
          "name": "",
          "type": "string"
        }
      ],
      "stateMutability": "view",
      "type": "function"
    }
  ],
  "bytecode": "0x60806040523480156200001157600080fd5b506040516200283038038062002830833981810160405281019062000037919062000197565b818181600090805190602001906200005192919062000075565b5080600190805190602001906200006a92919062000075565b50505050506200037a565b82805462000083906200029f565b90600052602060002090601f016020900481019282620000a75760008555620000f3565b82601f10620000c257805160ff1916838001178555620000f3565b82800160010185558215620000f3579182015b82811115620000f2578251825591602001919060010190620000d5565b5b50905062000102919062000106565b5090565b5b808211156200012157600081600090555060010162000107565b5090565b60006200013c620001368462000233565b6200020a565b9050828152602081018484840111156200015557600080fd5b6200016284828562000269565b509392505050565b600082601f8301126200017c57600080fd5b81516200018e84826020860162000125565b91505092915050565b60008060408385031215620001ab57600080fd5b600083015167ffffffffffffffff811115620001c657600080fd5b620001d4858286016200016a565b925050602083015167ffffffffffffffff811115620001f257600080fd5b62000200858286016200016a565b9150509250929050565b60006200021662000229565b9050620002248282620002d5565b919050565b6000604051905090565b600067ffffffffffffffff8211156200025157620002506200033a565b5b6200025c8262000369565b9050602081019050919050565b60005b83811015620002895780820151818401526020810190506200026c565b8381111562000299576000848401525b50505050565b60006002820490506001821680620002b857607f821691505b60208210811415620002cf57620002ce6200030b565b5b50919050565b620002e08262000369565b810181811067ffffffffffffffff821117156200030257620003016200033a565b5b80604052505050565b7f4e487b7100000000000000000000000000000000000000000000000000000000600052602260045260246000fd5b7f4e487b7100000000000000000000000000000000000000000000000000000000600052604160045260246000fd5b6000601f19601f8301169050919050565b6124a6806200038a6000396000f3fe608060405234801561001057600080fd5b50600436106100ea5760003560e01c806370a082311161008c578063b88d4fde11610066578063b88d4fde1461025b578063c87b56dd14610277578063e985e9c5146102a7578063eac989f8146102d7576100ea565b806370a08231146101f157806395d89b4114610221578063a22cb4651461023f576100ea565b8063095ea7b3116100c8578063095ea7b31461016d57806323b872dd1461018957806342842e0e146101a55780636352211e146101c1576100ea565b806301ffc9a7146100ef57806306fdde031461011f578063081812fc1461013d575b600080fd5b61010960048036038101906101049190611a36565b6102f5565b6040516101169190611d47565b60405180910390f35b6101276103d7565b6040516101349190611d62565b60405180910390f35b61015760048036038101906101529190611a88565b610469565b6040516101649190611ce0565b60405180910390f35b610187600480360381019061018291906119fa565b6104af565b005b6101a3600480360381019061019e91906118f4565b6105c7565b005b6101bf60048036038101906101ba91906118f4565b610627565b005b6101db60048036038101906101d69190611a88565b610647565b6040516101e89190611ce0565b60405180910390f35b61020b6004803603810190610206919061188f565b6106ce565b6040516102189190611ea4565b60405180910390f35b610229610786565b6040516102369190611d62565b60405180910390f35b610259600480360381019061025491906119be565b610818565b005b61027560048036038101906102709190611943565b61082e565b005b610291600480360381019061028c9190611a88565b610890565b60405161029e9190611d62565b60405180910390f35b6102c160048036038101906102bc91906118b8565b6108f8565b6040516102ce9190611d47565b60405180910390f35b6102df61098c565b6040516102ec9190611d62565b60405180910390f35b60007f80ac58cd000000000000000000000000000000000000000000000000000000007bffffffffffffffffffffffffffffffffffffffffffffffffffffffff1916827bffffffffffffffffffffffffffffffffffffffffffffffffffffffff191614806103c057507f5b5e139f000000000000000000000000000000000000000000000000000000007bffffffffffffffffffffffffffffffffffffffffffffffffffffffff1916827bffffffffffffffffffffffffffffffffffffffffffffffffffffffff1916145b806103d057506103cf82610a1a565b5b9050919050565b6060600080546103e690612098565b80601f016020809104026020016040519081016040528092919081815260200182805461041290612098565b801561045f5780601f106104345761010080835404028352916020019161045f565b820191906000526020600020905b81548152906001019060200180831161044257829003601f168201915b5050505050905090565b600061047482610a84565b6004600083815260200190815260200160002060009054906101000a900473ffffffffffffffffffffffffffffffffffffffff169050919050565b60006104ba82610647565b90508073ffffffffffffffffffffffffffffffffffffffff168373ffffffffffffffffffffffffffffffffffffffff16141561052b576040517f08c379a000000000000000000000000000000000000000000000000000000000815260040161052290611e64565b60405180910390fd5b8073ffffffffffffffffffffffffffffffffffffffff1661054a610acf565b73ffffffffffffffffffffffffffffffffffffffff161480610579575061057881610573610acf565b6108f8565b5b6105b8576040517f08c379a00000000000000000000000000000000000000000000000000000000081526004016105af90611e84565b60405180910390fd5b6105c28383610ad7565b505050565b6105d86105d2610acf565b82610b90565b610617576040517f08c379a000000000000000000000000000000000000000000000000000000000815260040161060e90611d84565b60405180910390fd5b610622838383610c25565b505050565b6106428383836040518060200160405280600081525061082e565b505050565b60008061065383610f1f565b9050600073ffffffffffffffffffffffffffffffffffffffff168173ffffffffffffffffffffffffffffffffffffffff1614156106c5576040517f08c379a00000000000000000000000000000000000000000000000000000000081526004016106bc90611e44565b60405180910390fd5b80915050919050565b60008073ffffffffffffffffffffffffffffffffffffffff168273ffffffffffffffffffffffffffffffffffffffff16141561073f576040517f08c379a000000000000000000000000000000000000000000000000000000000815260040161073690611e24565b60405180910390fd5b600360008373ffffffffffffffffffffffffffffffffffffffff1673ffffffffffffffffffffffffffffffffffffffff168152602001908152602001600020549050919050565b60606001805461079590612098565b80601f01602080910402602001604051908101604052809291908181526020018280546107c190612098565b801561080e5780601f106107e35761010080835404028352916020019161080e565b820191906000526020600020905b8154815290600101906020018083116107f157829003601f168201915b5050505050905090565b61082a610823610acf565b8383610f5c565b5050565b61083f610839610acf565b83610b90565b61087e576040517f08c379a000000000000000000000000000000000000000000000000000000000815260040161087590611d84565b60405180910390fd5b61088a848484846110c9565b50505050565b606061089b82610a84565b60006108a5611125565b905060008151116108c557604051806020016040528060008152506108f0565b806108cf8461113c565b6040516020016108e0929190611cbc565b6040516020818303038152906040525b915050919050565b6000600560008473ffffffffffffffffffffffffffffffffffffffff1673ffffffffffffffffffffffffffffffffffffffff16815260200190815260200160002060008373ffffffffffffffffffffffffffffffffffffffff1673ffffffffffffffffffffffffffffffffffffffff16815260200190815260200160002060009054906101000a900460ff16905092915050565b6006805461099990612098565b80601f01602080910402602001604051908101604052809291908181526020018280546109c590612098565b8015610a125780601f106109e757610100808354040283529160200191610a12565b820191906000526020600020905b8154815290600101906020018083116109f557829003601f168201915b505050505081565b60007f01ffc9a7000000000000000000000000000000000000000000000000000000007bffffffffffffffffffffffffffffffffffffffffffffffffffffffff1916827bffffffffffffffffffffffffffffffffffffffffffffffffffffffff1916149050919050565b610a8d81611260565b610acc576040517f08c379a0000000000000000000000000000000000000000000000000000000008152600401610ac390611e44565b60405180910390fd5b50565b600033905090565b816004600083815260200190815260200160002060006101000a81548173ffffffffffffffffffffffffffffffffffffffff021916908373ffffffffffffffffffffffffffffffffffffffff160217905550808273ffffffffffffffffffffffffffffffffffffffff16610b4a83610647565b73ffffffffffffffffffffffffffffffffffffffff167f8c5be1e5ebec7d5bd14f71427d1e84f3dd0314c0f7b2291e5b200ac8c7c3b92560405160405180910390a45050565b600080610b9c83610647565b90508073ffffffffffffffffffffffffffffffffffffffff168473ffffffffffffffffffffffffffffffffffffffff161480610bde5750610bdd81856108f8565b5b80610c1c57508373ffffffffffffffffffffffffffffffffffffffff16610c0484610469565b73ffffffffffffffffffffffffffffffffffffffff16145b91505092915050565b8273ffffffffffffffffffffffffffffffffffffffff16610c4582610647565b73ffffffffffffffffffffffffffffffffffffffff1614610c9b576040517f08c379a0000000000000000000000000000000000000000000000000000000008152600401610c9290611dc4565b60405180910390fd5b600073ffffffffffffffffffffffffffffffffffffffff168273ffffffffffffffffffffffffffffffffffffffff161415610d0b576040517f08c379a0000000000000000000000000000000000000000000000000000000008152600401610d0290611de4565b60405180910390fd5b610d1883838360016112a1565b8273ffffffffffffffffffffffffffffffffffffffff16610d3882610647565b73ffffffffffffffffffffffffffffffffffffffff1614610d8e576040517f08c379a0000000000000000000000000000000000000000000000000000000008152600401610d8590611dc4565b60405180910390fd5b6004600082815260200190815260200160002060006101000a81549073ffffffffffffffffffffffffffffffffffffffff02191690556001600360008573ffffffffffffffffffffffffffffffffffffffff1673ffffffffffffffffffffffffffffffffffffffff168152602001908152602001600020600082825403925050819055506001600360008473ffffffffffffffffffffffffffffffffffffffff1673ffffffffffffffffffffffffffffffffffffffff16815260200190815260200160002060008282540192505081905550816002600083815260200190815260200160002060006101000a81548173ffffffffffffffffffffffffffffffffffffffff021916908373ffffffffffffffffffffffffffffffffffffffff160217905550808273ffffffffffffffffffffffffffffffffffffffff168473ffffffffffffffffffffffffffffffffffffffff167fddf252ad1be2c89b69c2b068fc378daa952ba7f163c4a11628f55a4df523b3ef60405160405180910390a4610f1a83838360016113c7565b505050565b60006002600083815260200190815260200160002060009054906101000a900473ffffffffffffffffffffffffffffffffffffffff169050919050565b8173ffffffffffffffffffffffffffffffffffffffff168373ffffffffffffffffffffffffffffffffffffffff161415610fcb576040517f08c379a0000000000000000000000000000000000000000000000000000000008152600401610fc290611e04565b60405180910390fd5b80600560008573ffffffffffffffffffffffffffffffffffffffff1673ffffffffffffffffffffffffffffffffffffffff16815260200190815260200160002060008473ffffffffffffffffffffffffffffffffffffffff1673ffffffffffffffffffffffffffffffffffffffff16815260200190815260200160002060006101000a81548160ff0219169083151502179055508173ffffffffffffffffffffffffffffffffffffffff168373ffffffffffffffffffffffffffffffffffffffff167f17307eab39ab6107e8899845ad3d59bd9653f200f220920489ca2b5937696c31836040516110bc9190611d47565b60405180910390a3505050565b6110d4848484610c25565b6110e0848484846113cd565b61111f576040517f08c379a000000000000000000000000000000000000000000000000000000000815260040161111690611da4565b60405180910390fd5b50505050565b606060405180602001604052806000815250905090565b60606000600161114b84611564565b01905060008167ffffffffffffffff811115611190577f4e487b7100000000000000000000000000000000000000000000000000000000600052604160045260246000fd5b6040519080825280601f01601f1916602001820160405280156111c25781602001600182028036833780820191505090505b509050600082602001820190505b600115611255578080600190039150507f3031323334353637383961626364656600000000000000000000000000000000600a86061a8153600a858161123f577f4e487b7100000000000000000000000000000000000000000000000000000000600052601260045260246000fd5b049450600085141561125057611255565b6111d0565b819350505050919050565b60008073ffffffffffffffffffffffffffffffffffffffff1661128283610f1f565b73ffffffffffffffffffffffffffffffffffffffff1614159050919050565b60018111156113c157600073ffffffffffffffffffffffffffffffffffffffff168473ffffffffffffffffffffffffffffffffffffffff16146113355780600360008673ffffffffffffffffffffffffffffffffffffffff1673ffffffffffffffffffffffffffffffffffffffff168152602001908152602001600020600082825461132d9190611fae565b925050819055505b600073ffffffffffffffffffffffffffffffffffffffff168373ffffffffffffffffffffffffffffffffffffffff16146113c05780600360008573ffffffffffffffffffffffffffffffffffffffff1673ffffffffffffffffffffffffffffffffffffffff16815260200190815260200160002060008282546113b89190611f58565b925050819055505b5b50505050565b50505050565b60006113ee8473ffffffffffffffffffffffffffffffffffffffff1661179b565b15611557578373ffffffffffffffffffffffffffffffffffffffff1663150b7a02611417610acf565b8786866040518563ffffffff1660e01b81526004016114399493929190611cfb565b602060405180830381600087803b15801561145357600080fd5b505af192505050801561148457506040513d601f19601f820116820180604052508101906114819190611a5f565b60015b611507573d80600081146114b4576040519150601f19603f3d011682016040523d82523d6000602084013e6114b9565b606091505b506000815114156114ff576040517f08c379a00000000000000000000000000000000000000000000000000000000081526004016114f690611da4565b60405180910390fd5b805181602001fd5b63150b7a0260e01b7bffffffffffffffffffffffffffffffffffffffffffffffffffffffff1916817bffffffffffffffffffffffffffffffffffffffffffffffffffffffff19161491505061155c565b600190505b949350505050565b600080600090507a184f03e93ff9f4daa797ed6e38ed64bf6a1f01000000000000000083106115e8577a184f03e93ff9f4daa797ed6e38ed64bf6a1f01000000000000000083816115de577f4e487b7100000000000000000000000000000000000000000000000000000000600052601260045260246000fd5b0492506040810190505b6d04ee2d6d415b85acef8100000000831061164b576d04ee2d6d415b85acef81000000008381611641577f4e487b7100000000000000000000000000000000000000000000000000000000600052601260045260246000fd5b0492506020810190505b662386f26fc1000083106116a057662386f26fc100008381611696577f4e487b7100000000000000000000000000000000000000000000000000000000600052601260045260246000fd5b0492506010810190505b6305f5e10083106116ef576305f5e10083816116e5577f4e487b7100000000000000000000000000000000000000000000000000000000600052601260045260246000fd5b0492506008810190505b612710831061173a576127108381611730577f4e487b7100000000000000000000000000000000000000000000000000000000600052601260045260246000fd5b0492506004810190505b606483106117835760648381611779577f4e487b7100000000000000000000000000000000000000000000000000000000600052601260045260246000fd5b0492506002810190505b600a8310611792576001810190505b80915050919050565b6000808273ffffffffffffffffffffffffffffffffffffffff163b119050919050565b60006117d16117cc84611ee4565b611ebf565b9050828152602081018484840111156117e957600080fd5b6117f4848285612056565b509392505050565b60008135905061180b81612414565b92915050565b6000813590506118208161242b565b92915050565b60008135905061183581612442565b92915050565b60008151905061184a81612442565b92915050565b600082601f83011261186157600080fd5b81356118718482602086016117be565b91505092915050565b60008135905061188981612459565b92915050565b6000602082840312156118a157600080fd5b60006118af848285016117fc565b91505092915050565b600080604083850312156118cb57600080fd5b60006118d9858286016117fc565b92505060206118ea858286016117fc565b9150509250929050565b60008060006060848603121561190957600080fd5b6000611917868287016117fc565b9350506020611928868287016117fc565b92505060406119398682870161187a565b9150509250925092565b6000806000806080858703121561195957600080fd5b6000611967878288016117fc565b9450506020611978878288016117fc565b93505060406119898782880161187a565b925050606085013567ffffffffffffffff8111156119a657600080fd5b6119b287828801611850565b91505092959194509250565b600080604083850312156119d157600080fd5b60006119df858286016117fc565b92505060206119f085828601611811565b9150509250929050565b60008060408385031215611a0d57600080fd5b6000611a1b858286016117fc565b9250506020611a2c8582860161187a565b9150509250929050565b600060208284031215611a4857600080fd5b6000611a5684828501611826565b91505092915050565b600060208284031215611a7157600080fd5b6000611a7f8482850161183b565b91505092915050565b600060208284031215611a9a57600080fd5b6000611aa88482850161187a565b91505092915050565b611aba81611fe2565b82525050565b611ac981611ff4565b82525050565b6000611ada82611f15565b611ae48185611f2b565b9350611af4818560208601612065565b611afd81612188565b840191505092915050565b6000611b1382611f20565b611b1d8185611f3c565b9350611b2d818560208601612065565b611b3681612188565b840191505092915050565b6000611b4c82611f20565b611b568185611f4d565b9350611b66818560208601612065565b80840191505092915050565b6000611b7f602d83611f3c565b9150611b8a82612199565b604082019050919050565b6000611ba2603283611f3c565b9150611bad826121e8565b604082019050919050565b6000611bc5602583611f3c565b9150611bd082612237565b604082019050919050565b6000611be8602483611f3c565b9150611bf382612286565b604082019050919050565b6000611c0b601983611f3c565b9150611c16826122d5565b602082019050919050565b6000611c2e602983611f3c565b9150611c39826122fe565b604082019050919050565b6000611c51601883611f3c565b9150611c5c8261234d565b602082019050919050565b6000611c74602183611f3c565b9150611c7f82612376565b604082019050919050565b6000611c97603d83611f3c565b9150611ca2826123c5565b604082019050919050565b611cb68161204c565b82525050565b6000611cc88285611b41565b9150611cd48284611b41565b91508190509392505050565b6000602082019050611cf56000830184611ab1565b92915050565b6000608082019050611d106000830187611ab1565b611d1d6020830186611ab1565b611d2a6040830185611cad565b8181036060830152611d3c8184611acf565b905095945050505050565b6000602082019050611d5c6000830184611ac0565b92915050565b60006020820190508181036000830152611d7c8184611b08565b905092915050565b60006020820190508181036000830152611d9d81611b72565b9050919050565b60006020820190508181036000830152611dbd81611b95565b9050919050565b60006020820190508181036000830152611ddd81611bb8565b9050919050565b60006020820190508181036000830152611dfd81611bdb565b9050919050565b60006020820190508181036000830152611e1d81611bfe565b9050919050565b60006020820190508181036000830152611e3d81611c21565b9050919050565b60006020820190508181036000830152611e5d81611c44565b9050919050565b60006020820190508181036000830152611e7d81611c67565b9050919050565b60006020820190508181036000830152611e9d81611c8a565b9050919050565b6000602082019050611eb96000830184611cad565b92915050565b6000611ec9611eda565b9050611ed582826120ca565b919050565b6000604051905090565b600067ffffffffffffffff821115611eff57611efe612159565b5b611f0882612188565b9050602081019050919050565b600081519050919050565b600081519050919050565b600082825260208201905092915050565b600082825260208201905092915050565b600081905092915050565b6000611f638261204c565b9150611f6e8361204c565b9250827fffffffffffffffffffffffffffffffffffffffffffffffffffffffffffffffff03821115611fa357611fa26120fb565b5b828201905092915050565b6000611fb98261204c565b9150611fc48361204c565b925082821015611fd757611fd66120fb565b5b828203905092915050565b6000611fed8261202c565b9050919050565b60008115159050919050565b60007fffffffff0000000000000000000000000000000000000000000000000000000082169050919050565b600073ffffffffffffffffffffffffffffffffffffffff82169050919050565b6000819050919050565b82818337600083830152505050565b60005b83811015612083578082015181840152602081019050612068565b83811115612092576000848401525b50505050565b600060028204905060018216806120b057607f821691505b602082108114156120c4576120c361212a565b5b50919050565b6120d382612188565b810181811067ffffffffffffffff821117156120f2576120f1612159565b5b80604052505050565b7f4e487b7100000000000000000000000000000000000000000000000000000000600052601160045260246000fd5b7f4e487b7100000000000000000000000000000000000000000000000000000000600052602260045260246000fd5b7f4e487b7100000000000000000000000000000000000000000000000000000000600052604160045260246000fd5b6000601f19601f8301169050919050565b7f4552433732313a2063616c6c6572206973206e6f7420746f6b656e206f776e6560008201527f72206f7220617070726f76656400000000000000000000000000000000000000602082015250565b7f4552433732313a207472616e7366657220746f206e6f6e20455243373231526560008201527f63656976657220696d706c656d656e7465720000000000000000000000000000602082015250565b7f4552433732313a207472616e736665722066726f6d20696e636f72726563742060008201527f6f776e6572000000000000000000000000000000000000000000000000000000602082015250565b7f4552433732313a207472616e7366657220746f20746865207a65726f2061646460008201527f7265737300000000000000000000000000000000000000000000000000000000602082015250565b7f4552433732313a20617070726f766520746f2063616c6c657200000000000000600082015250565b7f4552433732313a2061646472657373207a65726f206973206e6f74206120766160008201527f6c6964206f776e65720000000000000000000000000000000000000000000000602082015250565b7f4552433732313a20696e76616c696420746f6b656e2049440000000000000000600082015250565b7f4552433732313a20617070726f76616c20746f2063757272656e74206f776e6560008201527f7200000000000000000000000000000000000000000000000000000000000000602082015250565b7f4552433732313a20617070726f76652063616c6c6572206973206e6f7420746f60008201527f6b656e206f776e6572206f7220617070726f76656420666f7220616c6c000000602082015250565b61241d81611fe2565b811461242857600080fd5b50565b61243481611ff4565b811461243f57600080fd5b50565b61244b81612000565b811461245657600080fd5b50565b6124628161204c565b811461246d57600080fd5b5056fea264697066735822122023a1e823a9a87eb0b69eb5e01c2cc2199350acf08c63e9b12dc7c21a19fecb5664736f6c63430008040033",
  "immutableReferences": {},
  "source": "pragma solidity ^0.8.4; // regarder la version sur les contracts de qidao 0.5.5 demander  Nandy quel est le mieux \n\nimport \"@openzeppelin/contracts/token/ERC721/IERC721.sol\";\nimport \"@openzeppelin/contracts/token/ERC721/ERC721.sol\";\n//import \"@openzeppelin/contracts/token/ERC721/extensions/ERC721Enumerable.sol\";\nimport \"@openzeppelin/contracts/security/ReentrancyGuard.sol\";\nimport \"@openzeppelin/contracts/token/ERC20/ERC20.sol\";\n\n\n\npragma solidity ^0.8.0;\n\n\n/**\n * @title SafeERC20\n * @dev Wrappers around ERC20 operations that throw on failure (when the token\n * contract returns false). Tokens that return no value (and instead revert or\n * throw on failure) are also supported, non-reverting calls are assumed to be\n * successful.\n * To use this library you can add a `using SafeERC20 for IERC20;` statement to your contract,\n * which allows you to call the safe operations as `token.safeTransfer(...)`, etc.\n */\nlibrary SafeERC20 {\n    using Address for address;\n\n    function safeTransfer(\n        IERC20 token,\n        address to,\n        uint256 value\n    ) internal {\n        _callOptionalReturn(token, abi.encodeWithSelector(token.transfer.selector, to, value));\n    }\n\n    function safeTransferFrom(\n        IERC20 token,\n        address from,\n        address to,\n        uint256 value\n    ) internal {\n        _callOptionalReturn(token, abi.encodeWithSelector(token.transferFrom.selector, from, to, value));\n    }\n\n    /**\n     * @dev Deprecated. This function has issues similar to the ones found in\n     * {IERC20-approve}, and its usage is discouraged.\n     *\n     * Whenever possible, use {safeIncreaseAllowance} and\n     * {safeDecreaseAllowance} instead.\n     */\n    function safeApprove(\n        IERC20 token,\n        address spender,\n        uint256 value\n    ) internal {\n        // safeApprove should only be called when setting an initial allowance,\n        // or when resetting it to zero. To increase and decrease it, use\n        // 'safeIncreaseAllowance' and 'safeDecreaseAllowance'\n        require(\n            (value == 0) || (token.allowance(address(this), spender) == 0),\n            \"SafeERC20: approve from non-zero to non-zero allowance\"\n        );\n        _callOptionalReturn(token, abi.encodeWithSelector(token.approve.selector, spender, value));\n    }\n\n    function safeIncreaseAllowance(\n        IERC20 token,\n        address spender,\n        uint256 value\n    ) internal {\n        uint256 newAllowance = token.allowance(address(this), spender) + value;\n        _callOptionalReturn(token, abi.encodeWithSelector(token.approve.selector, spender, newAllowance));\n    }\n\n    function safeDecreaseAllowance(\n        IERC20 token,\n        address spender,\n        uint256 value\n    ) internal {\n        unchecked {\n            uint256 oldAllowance = token.allowance(address(this), spender);\n            require(oldAllowance >= value, \"SafeERC20: decreased allowance below zero\");\n            uint256 newAllowance = oldAllowance - value;\n            _callOptionalReturn(token, abi.encodeWithSelector(token.approve.selector, spender, newAllowance));\n        }\n    }\n\n    /**\n     * @dev Imitates a Solidity high-level call (i.e. a regular function call to a contract), relaxing the requirement\n     * on the return value: the return value is optional (but if data is returned, it must not be false).\n     * @param token The token targeted by the call.\n     * @param data The call data (encoded using abi.encode or one of its variants).\n     */\n    function _callOptionalReturn(IERC20 token, bytes memory data) private {\n        // We need to perform a low level call here, to bypass Solidity's return data size checking mechanism, since\n        // we're implementing it ourselves. We use {Address.functionCall} to perform this call, which verifies that\n        // the target address contains contract code and also asserts for success in the low-level call.\n\n        bytes memory returndata = address(token).functionCall(data, \"SafeERC20: low-level call failed\");\n        if (returndata.length > 0) {\n            // Return data is optional\n            require(abi.decode(returndata, (bool)), \"SafeERC20: ERC20 operation did not succeed\");\n        }\n    }\n}\n\n\ncontract VaultNFTv4 is ERC721 {\n\n    string public uri;\n\n    constructor(string memory name, string memory symbol)\n        ERC721(name, symbol){}\n    \n\n  \n    \n}\n\ncontract FakeVault is VaultNFTv4{\n        using SafeERC20 for ERC20;\n        ERC20 public mai;\n\n\n\n    mapping (uint256 => address) public owners; // associe un nft a son owner\n    mapping (address => uint256) public erc721Balance; // balance de nft d'un owner\n    mapping(uint256 => uint256) public _deposit; // deposit dans le vault : vault => montant total dpos\n    mapping(uint256 => uint256) public maiDebt; // montant de mai emprunt par une vault : vault => debt\n    mapping(address => uint256) public maiBalance; // monta de may dtenu par chaque addresse\n\n    uint256 vaultCount = 0;\n    \n\n    constructor(address _mai, string memory name, string memory symbol)VaultNFTv4(name, symbol){\n        mai = ERC20(_mai); \n    }\n\n\n    function createVault() public returns (uint256) {\n        uint256 id = vaultCount;\n        vaultCount = vaultCount + 1;\n        require(vaultCount >= id);\n        _mint(msg.sender, id);\n        return id;\n    }\n\n\n    function borrowToken(uint256 _erc721_Id,uint256 _amount,uint256 _front) public  {\n        require(ownerOf(_erc721_Id) == msg.sender, \"You are not the owner of this NFT\");\n        require(_deposit[_erc721_Id] - maiDebt[_erc721_Id] >= _amount, \"You don't have enough collateral\");\n        mai.safeTransfer( msg.sender, _amount);\n        // transfert de token\n        maiDebt[_erc721_Id]+=_amount; \n    }\n\n    function depositCollateral(uint256 _erc721_Id,uint256 amount) public {\n        require(ownerOf(_erc721_Id) == msg.sender, \"You are not the owner of this NFT\");\n        _deposit[_erc721_Id] += amount;\n    }\n\n\n    function TransferFrom(address from, address _to, uint256 _erc721_Id) public {\n        require(owners[_erc721_Id] == msg.sender, \"You are not the owner of this NFT\");\n        owners[_erc721_Id] = _to;\n        erc721Balance[from] -= 1;\n        erc721Balance[_to] += 1;\n    }\n\n    \n    function updateVaultDebt(uint256 vaultId) public view returns (uint256) {\n        return maiDebt[vaultId];\n    }\n\n    // msg.sender need to approve the contract address\n    function payBackToken( uint256 vaultID, uint256 amount, uint256 _front) public {\n        /*if(ownerOf(vaultID) != msg.sender)\n            revert(\"You are not the owner of this vault\");\n        \n        if(maiDebt[vaultID] <= amount)\n            revert(\"You don't have enough debt\");\n        if(mai.balanceOf(msg.sender) <= amount)\n            revert(\"You don't have enough mai\");\n        maiDebt[vaultID] -= amount;\n\n        // allow the contract to repay*/\n        mai.safeTransferFrom(msg.sender, address(this),amount); \n    }\n\n    function withdrawCollateral(uint256 vaultID, uint256 amount) public {\n        require(owners[vaultID] == msg.sender, \"You are not the owner of this vault\");\n        require(_deposit[vaultID] >= amount, \"You don't have enough collateral\");\n        require(maiDebt[vaultID] <= _deposit[vaultID] - amount, \"You don't have enough collateral\");\n        _deposit[vaultID] -= amount;\n        maiBalance[msg.sender] += amount;\n    }\n\n    function newVault() public{\n        vaultCount += 1;\n        owners[vaultCount] = msg.sender;\n        erc721Balance[msg.sender] += 1;\n    }\n\n\n    // view\n    function getMaiBalance(address _owner) public view returns (uint256) {\n        return IERC20(mai).balanceOf(_owner);\n    }\n    function getVaultDebt(uint256 _vaultId) public view returns (uint256) {\n        return maiDebt[_vaultId];\n    }\n    function getVaultCollateral(uint256 _vaultId) public view returns (uint256) {\n        return _deposit[_vaultId];\n    }\n    function getOwner(uint256 _vaultId) public view returns (address) {\n        return owners[_vaultId];\n    }\n\n    //faucet\n    function getMai(uint256 _amount) public {\n        maiBalance[msg.sender] += _amount;\n    }\n\n\n    \n}",
  "sourcePath": "/home/lejamon/Documents/GitHub/KS-PI2/mai-finance/contracts/FakeVault.sol",
  "compiler": {
    "name": "solc",
    "version": "0.8.4+commit.c7e474f2.Emscripten.clang"
  },
  "schemaVersion": "3.4.10",
  "updatedAt": "2023-01-19T20:11:49.726Z",
  "devdoc": {
    "kind": "dev",
    "methods": {
      "approve(address,uint256)": {
        "details": "See {IERC721-approve}."
      },
      "balanceOf(address)": {
        "details": "See {IERC721-balanceOf}."
      },
      "getApproved(uint256)": {
        "details": "See {IERC721-getApproved}."
      },
      "isApprovedForAll(address,address)": {
        "details": "See {IERC721-isApprovedForAll}."
      },
      "name()": {
        "details": "See {IERC721Metadata-name}."
      },
      "ownerOf(uint256)": {
        "details": "See {IERC721-ownerOf}."
      },
      "safeTransferFrom(address,address,uint256)": {
        "details": "See {IERC721-safeTransferFrom}."
      },
      "safeTransferFrom(address,address,uint256,bytes)": {
        "details": "See {IERC721-safeTransferFrom}."
      },
      "setApprovalForAll(address,bool)": {
        "details": "See {IERC721-setApprovalForAll}."
      },
      "supportsInterface(bytes4)": {
        "details": "See {IERC165-supportsInterface}."
      },
      "symbol()": {
        "details": "See {IERC721Metadata-symbol}."
      },
      "tokenURI(uint256)": {
        "details": "See {IERC721Metadata-tokenURI}."
      },
      "transferFrom(address,address,uint256)": {
        "details": "See {IERC721-transferFrom}."
      }
    },
    "version": 1
  },
  "userdoc": {
    "kind": "user",
    "methods": {},
    "version": 1
  }
}